:100000000C94DE020C9416030C9416030C94160345
:100010000C9416030C9416030C9416030C941603FC
:100020000C9416030C9416030C9441280C94FD2791
:100030000C943E290C9416030C9416030C9416038E
:100040000C9416030C9416030C9416030C941603CC
:100050000C9416030C941A290C9416030C94160392
:100060000C9416030C9416030C9416030C941603AC
:100070000C9416030C9416030C9416030C9416039C
:100080000C9416030C9416030C9416030C9416038C
:100090000C9416030C9416030C9416030C9416037C
:1000A0000C9416030C9416030C9416030501098096
:1000B000A101850319012AB700150126B700950192
:1000C00075108100C0050C0901A101850419012AE0
:1000D000A002150126A002950175108100C005013E
:1000E0000906A1018506050719E029E71500250184
:1000F0009508750181020507190029EF15002501F2
:1001000095F075018102050819012905950575010C
:100110009102950175039101C00659FF0960A10183
:100120000962150026FF00954075088102096315D4
:100130000026FF00954075089102C00660FF096126
:10014000A1010962150026FF0095207508810209AA
:1001500063150026FF00952075089102C00501096E
:1001600006A101050719E029E71500250195087585
:100170000181029501750881010507190029FF1504
:100180000026FF009506750881000508190129055C
:10019000950575019102950175039101C00000005C
:1001A000000000000000000000000000000000004F
:1001B000000000000000000000000000000000003F
:1001C000007E0F00D4FFFFFFC70000007800000092
:1001D00000000000002A2B280000000000000000A2
:1001E000000000000000000029000000002C1E3468
:1001F00020212224342627252E362D3738271E1F6E
:10020000202122232425263333362E37381F040598
:10021000060708090A0B0C0D0E0F10111213141506
:10022000161718191A1B1C1D2F3130232D350405E4
:10023000060708090A0B0C0D0E0F101112131415E6
:10024000161718191A1B1C1D2F3130354C000101CF
:100250000101010101010102020202020202020285
:100260000303030303030303040404040404040555
:100270000505050506060606060707070707080819
:100280000808090909090A0A0A0B0B0B0C0C0C0DCA
:100290000D0D0E0E0E0F0F0F101011111112121363
:1002A000131414151516161717181819191A1A1BDE
:1002B0001B1C1D1D1E1E1F2020212222232424253D
:1002C0002626272829292A2B2C2D2D2E2F30313276
:1002D00032333435363738393A3B3C3D3E3F404186
:1002E00042434445464748494A4C4D4E4F5051536E
:1002F00054555658595A5B5D5E5F61626465666825
:10030000696B6C6D6F7072737577787A7B7D7E80A8
:1003100082838587888A8C8E8F91939596989A9CF4
:100320009EA0A2A3A5A7A9ABADAFB1B3B5B7BABC08
:10033000BEC0C2C4C6C9CBCDCFD1D4D6D8DBDDDFD9
:10034000E2E4E7E9EBEEF0F3F5F8FAFDFF2900143B
:10035000001A000800150017001C0018000C0012FD
:100360000013004C002A004A002B0004001600076E
:100370000009000A000B000D000E000F0033000002
:100380000028004B00E1001D001B000600190005BD
:100390000011001000360037000000E50052004E4A
:1003A00000E000E300000000002C0000000000005E
:1003B000000151E6000000500051004F0001000113
:1003C0000001000100010001000100010001000125
:1003D0000001000100010001000100010001000115
:1003E0000001000100010001000100010001000006
:1003F00000010001000100010001000100010001F5
:1004000000010001000100010000000100010001E5
:1004100000005C010000000000010000000000007E
:1004200000010001000000010001000100010001C5
:1004300000010001000100010001000100010001B4
:1004400000010001000100010001000100010001A4
:100450000001000100010001000100010001000095
:100460000001000100010001000100010001000184
:100470000001000100010001000000010001000175
:100480000001000100000000000100000000000069
:100490000001000100000001000100010001000155
:1004A0000001000100010001000100010001000144
:1004B0000001000100010001000100010001000134
:1004C0000001000100010001000100010001000025
:1004D0000001000100010001000100010001000114
:1004E0000001000100010001000000010001000105
:1004F00000010001000000000001000000000000F9
:100500000001000100000001000100010009027B60
:1005100000040100A0FA0904000001030101000920
:100520002111010001224000070581030800010993
:100530000401000203000000092111010001222230
:1005400000070582032000010705030320000109BD
:10055000040200020300000009211101000122220F
:100560000007058403400001070505034000010959
:100570000403000103000000092111010001226DA4
:100580000007058603200001120100020000000898
:10059000AA0007AA0100010200010A037A00710003
:1005A00034003800000010035A0068006100510058
:1005B000690061006E0000000403090411241FBEDD
:1005C000CFEFDAE0DEBFCDBF04B603FE18C08091E6
:1005D000470790914807A0914907B0914A07873093
:1005E000904BA740B04B59F4109247071092480720
:1005F0001092490710924A07E0E0F8E3099527E0D6
:10060000AEE7B3E001C01D92A734B207E1F713E0F3
:10061000A0E0B1E0E8ECF7E602C005900D92AE373D
:10062000B107D9F70E9465290C947E330C94000021
:10063000E8EDF0E080818E7F80831092E2001092DE
:10064000DA001092E100A0EEB0E08C9181608C9312
:1006500080818F77808319BCA7EDB0E08C918E7F6D
:100660008C9380818F7E80831092E3060895209181
:10067000E4003091E50095E6A9012091EC00822F7D
:10068000817020FF06C08091E80080FF06C080E0F6
:1006900008952091E80022FD1AC08091090788235F
:1006A00089F0853089F08091EB0085FD0FC02091A5
:1006B000E4003091E50042175307F9F29150E1F65A
:1006C00084E0089582E0089583E0089581E008952C
:1006D000EF92FF920F931F93CF937C018B010E94A7
:1006E0003703C82F811117C08091E80085FD0BC02A
:1006F0008091E8008E778093E8000E94370388237A
:1007000099F3C82F08C0F70181917F018093F10010
:100710000150110949F78C2FCF911F910F91FF9034
:10072000EF900895EF92FF920F931F93CF937C0168
:100730008B010E943703C82F811117C08091E800F8
:1007400085FD0BC08091E8008B778093E8000E94C4
:100750003703882399F3C82F08C08091F100F7016F
:1007600081937F010150110949F78C2FCF911F917F
:100770000F91FF90EF90089580910B0787FF13C0B2
:100780008091E80082FF06C08091E8008B7780931B
:10079000E80004C0809109078111F2CF089580918B
:1007A00009078823D9F38091E80080FFF8CF809172
:1007B000E8008E77ECCF982F9093E900242F762FC6
:1007C00050E0891731F07091EC002091ED005091CC
:1007D000F00021FD07C09F5F973071F78093E9001B
:1007E00081E008953091EB003E7F3093EB00309133
:1007F000ED003D7F3093ED003091EB0031603093A0
:10080000EB007093EC002093ED005093F0002091EA
:10081000EE0027FDE0CF80E00895CF92DF92EF92C7
:10082000FF920F931F93CF93DF93C8EDD0E08881A1
:100830008F7E8883E7EDF0E080818160808384E0B3
:1008400082BF81E08093E30688818E7F888302EEF9
:1008500010E0F80110821092DA0081EEC82ED12C3F
:10086000F601108288818F778883888180688883E9
:1008700088818F7D888319BC1092090710920A071E
:10088000109208071092070790EEE92EF12CF7015D
:1008900080818B7F808388818160888342E060E0F3
:1008A00080E00E94DB03F60180818E7F8083F80167
:1008B000808181608083808188608083F70180816E
:1008C0008E7F8083888180618883DF91CF911F91A3
:1008D0000F91FF90EF90DF90CF900895FC018091F1
:1008E00011079091120786179707A0F061157105FF
:1008F00029F49091E8009E779093E80090E06115CC
:10090000710551F4911108C08091E80082FF34C054
:1009100080E00895BC01F2CF809109078823C1F1DE
:100920008530C1F18091E80083FD30C08091E800FE
:1009300082FDEACF8091E80080FFE1CF8091F30053
:100940002091F200382F6115710519F0283031051A
:1009500058F091E02830310509F090E02091E8004E
:100960002E772093E800CBCF81918093F1006150E6
:1009700071092F5F3F4FE7CF80910907882341F02E
:10098000853041F08091E80083FFBECF81E008957B
:1009900082E0089583E00895089508958091E60621
:1009A00008952FB7F8948091DA069091DB06A09114
:1009B000DC06B091DD062FBF08952091D706309157
:1009C000D8062817390771F09093D8068093D70678
:1009D000E091D506F091D606309721F00084F1859C
:1009E000E02D099408952091D3063091D40628175C
:1009F000390771F09093D4068093D306E091D50621
:100A0000F091D606309721F00680F781E02D099409
:100A10000895E091D506F091D606309721F0019027
:100A2000F081E02D099480E00895FC019B0100977E
:100A300029F480E077FF2BC080E80895AC0197FF90
:100A400004C044275527481B590BB901640F751F73
:100A500037FD10C0241B350BC901A5E0880F991F75
:100A6000AA95E1F70E949A3080E2861BF7FF0FC03B
:100A700081950895CB0165E0880F991F6A95E1F78C
:100A8000BA01621B730B0E949A3080E6EECF089584
:100A9000E82F86FDE0952E2F2F7086FD2F5FE695BF
:100AA000E695E695E670F0E0E458FD4F9181929F5F
:100AB000902D212D112492959F702295207F922BAD
:100AC0002081920F87FD919580E8890F0895AC01F0
:100AD0008230910508F408959FEF413E8EE158075A
:100AE00040F49A0195E0369527959A95E1F798E0BC
:100AF000920F61E0E62FE90FFF27FF1F9F01359559
:100B00002795822F229FF001239FF00DF00D1124D5
:100B10004E175F0738F49FEF920F961758F78FEF35
:100B2000860F08952F3FE9F361E0620FF6CFFA01D7
:100B3000811101C0FB010994E0E2F6E0818360834A
:100B40004283339696E0EE3CF907C1F70895FC0125
:100B5000EE0FFF1FE80FF91FE05EF94F618340833E
:100B600022830895E8E1F7E0248130E1231B08F4B3
:100B700020E0248380911F06816080931F060895E2
:100B8000E8E1F7E0248130E1230F08F42FEF24831C
:100B900080911F06816080931F0608959091180729
:100BA00090FF0EC08093190760931A07493C08F024
:100BB00048EC40931B0780911F06822B80931F06F1
:100BC0000895E8E1F7E0438120E1421B08F440E0AA
:100BD000818121E0628190E00C94CE05E8E1F7E0AC
:100BE000438120E1420F08F44FEF818121E06281CF
:100BF00090E00C94CE05E8E1F7E0628120E1621B11
:100C000008F460E0818121E0438190E00C94CE05FE
:100C1000E8E1F7E0628120E1620F08F46FEF818183
:100C200021E0438190E00C94CE05E8E1F7E081817A
:100C300021E0438162818850990B0C94CE05E8E154
:100C4000F7E0818190E021E04381628108960C9475
:100C5000CE0520911807922F917020FF0CC08111B2
:100C60000BC09260909318071092C40180911F06E8
:100C7000862B80931F060895833310F09466F2CF7D
:100C8000880F982BEFCF809118078695815009F433
:100C900082E361E00C9429068091180786958F5FA6
:100CA000833308F081E061E00C9429068093C10150
:100CB0008091180781708093C0010E94781183E0B1
:100CC0008093C4010895EF92FF920F931F9309340C
:100CD00038F4F701E01BF109EF3FF10519F010F0CE
:100CE000EFEFF0E0DA011896519730F0D90118963D
:100CF000519710F0EFEFF0E05E2F5095182F150F81
:100D000008F41FEF812F620F640F37FF02C02D5FC1
:100D10003F4F3595279535952795620F1F910F9178
:100D2000FF90EF900895EF92FF920F931F93E00EC4
:100D3000F11CFA0157FF03C0F195E195F10944E078
:100D4000EE0FFF1F4A95E1F7EF3FF10519F014F0A0
:100D5000EFEFF0E0A90137FF03C05195419551092C
:100D600094E0440F551F9A95E1F74F3F510519F054
:100D700014F04FEF50E08F014E175F070CF48A011B
:100D80000E0D1F1D0F3F110519F010F00FEF10E0B1
:100D90000095282F200F08F42FEF822F460F642F85
:100DA0006E0F1F910F91FF90EF900895EF92FF92B9
:100DB0000F93F70155E0059FE00DF11D1124EF3F62
:100DC000F10519F010F0EFEFF0E03E2F3095582FBD
:100DD000530F08F45FEF852F620F640F0F91FF90A0
:100DE000EF900895EF92FF920F939701201B310926
:100DF0002F3F310519F010F02FEF30E02095382FFC
:100E0000320F08F43FEF832F0F91FF90EF9008957A
:100E1000EF92FF920F939701201B31092F3F31056D
:100E200019F010F02FEF30E0322F3095482F430F9C
:100E300008F44FEF842F620F0F91FF90EF90089509
:100E4000EF92FF920F93972F093438F4B701601B8C
:100E500071096F3F710519F010F06FEF70E0485F96
:100E60005F4F4131510540F0A901485F5F4F41316B
:100E7000510510F06FEF70E06095482F460F08F4B1
:100E80004FEF842F37FF02C02D5F3F4F35952795D9
:100E90003595279560911907620F792F0F91FF9073
:100EA000EF900895EF92FF920F931F930E0D1F2D59
:100EB000111DF90137FF03C0F195E195F10924E017
:100EC000EE0FFF1F2A95E1F7EF3FF10519F014F03F
:100ED000EFEFF0E09A0157FF03C0319521953109FA
:100EE00094E0220F331F9A95E1F72E173F070CF479
:100EF000F901E00FF11FEF3FF10519F010F0EFEFEE
:100F0000F0E0E095282F3E2F230F08F42FEF822FDB
:100F10001F910F91FF90EF900895EF92FF920F9322
:100F2000970195E0099F200D311D11242F3F3105B8
:100F300019F010F02FEF30E02095382F320F08F421
:100F40003FEF832F0F91FF90EF90089522E8241B2D
:100F500008F420E0620F08954095282F429F412D0C
:100F60001124842F0895E42FF0E0EE0FFF1FE053CB
:100F7000FD4F9081921B97FD9195292F38E1239F7A
:100F8000212D1124620F08950F931F9310E0F80193
:100F9000EE0FFF1FE053FD4F90819E5697FD9195F8
:100FA000000F111FF801E856FD4F01AD0252110B61
:100FB0002003F001219FF00D112408E310E0091B2C
:100FC000110997FD139540039001419F300D1124A5
:100FD000E20FF31F9F01220F331F2E0F3F1F37FF1A
:100FE00002C021583F4F220F232F221F330B620FC5
:100FF0001F910F9108950F931F93522F10E0F80146
:10100000EE0FFF1FE856FD4FA1ADA252BB0B9D0195
:101010005203F001539FF00D1124000F111FD8014E
:10102000A053BD4F0C910E56110B40039001419FF0
:10103000300D11242E0F3F1F37FF02C0215C3F4FA0
:1010400096E0359527959A95E1F7620F1F910F91DC
:1010500008950F931F93522F10E0F801EE0FFF1F1A
:10106000E856FD4FA1ADA252BB0B9D015203F0010A
:10107000539FF00D1124000F111FD801A053BD4F35
:101080000C910E56110B40039001419F300D11241D
:101090002E0F3F1F37FF02C021583F4F220F232F33
:1010A000221F330B620F1F910F910895EF920F9340
:1010B000CF93DF93D72FC82FC9010E19BA010E9411
:1010C0001505602F681B7D2F8C2FDF91CF910F911D
:1010D000EF9008950F93CF93DF93D72FC82FC901B7
:1010E000BA010E941505682F600F7D2F8C2FDF91AC
:1010F000CF910F9108950F93CF93DF93D72FC82FE0
:1011000047FD419587E390E0841B910947FD939546
:10111000889FB001899F700D700D1124229FC0011E
:10112000239F900D900D1124860F971F0E94670535
:10113000982F990F890F682F600F7D2F8C2FDF91CB
:10114000CF910F910895EF920F93972F23E0029F75
:10115000B0011124759567956E0D792F0F91EF9061
:101160000895322F50E0FA01EE0FFF1FE856FD4FB1
:1011700091AD925297FD9195440F551FFA01E0539E
:10118000FD4F2081231B330B290F311D97FD3A950D
:10119000620F0895E42FF0E0EE0FFF1FE856FD4FB9
:1011A00061AD621B0895E42FF0E0EE0FFF1FE053E6
:1011B000FD4F6081621B0895622F0895EF920F9397
:1011C0001F93CF93DF93D62FC72F182FC9010E1966
:1011D000010FBA010E941505081B202F219F212D08
:1011E0001124822F6D2F7C2FDF91CF911F910F91B2
:1011F000EF900895EF920F931F93CF93DF93D62F25
:10120000172FC82FC9010E19070FBA010E94150523
:10121000702F781B719F712D11246D2F8C2FDF91F2
:10122000CF911F910F91EF9008950F931F93CF933C
:10123000DF93D62FC72F182FC901212F201B022F74
:10124000BA010E941505982F990F990F891B800FDD
:10125000282F219F212D1124822F6D2F7C2FDF918C
:10126000CF911F910F9108950F931F93CF93DF9309
:10127000D62F172FC82FC901272F201B022FBA01E5
:101280000E941505982F990F990F782F791B700FD1
:10129000719F712D11246D2F8C2FDF91CF911F9194
:1012A0000F910895E42FF0E0EE0FFF1FE053FD4F84
:1012B000408134EE439F412D1124E82FF0E050E0AF
:1012C000445E5F4FDA01A21BB1099D01B7FF03C065
:1012D00031952195310993E0220F331F9A95E1F75B
:1012E000AF01421B530B9A0157FD20E0582F259F59
:1012F000212D1124822F0895E42FF0E0EE0FFF1F1F
:10130000E053FD4F408134EE439F412D1124E72FE0
:10131000F0E050E0445E5F4FDA01A21BB1099D018D
:10132000B7FF03C031952195310993E0220F331F98
:101330009A95E1F7AF01421B530B9A0157FD20E04C
:10134000279F212D1124722F08950C949C050C9435
:10135000A705E82F86FDE0952E2F2F7086FD2F5FC5
:10136000E695E695E695E670F0E0E959FD4F918146
:10137000929F902D212D112492959F702295207F70
:10138000922B2081920F87FD919580E8890F089517
:101390000F931F93CF93DF938B01D82FC42F822FEE
:1013A0000E94A909EC2FF0E0EE0FFF1FE053FD4F64
:1013B00090819058890F87FD8195880F682F2CE0C8
:1013C000629F612D1124600F712F8D2FDF91CF91BE
:1013D0001F910F910895409110015091110125E046
:1013E00038E0429FC001439F900D529F900D112401
:1013F000875E994C9093110180931001890F089595
:1014000030E020E0869F212D969F200D311D112474
:10141000C90108951F93CF93C72F142F1095282F1C
:10142000129F112D112460911C07629566956770BB
:1014300021E0620F80911407909115070E94000A25
:101440009FEF891BF0F7890F682F7C2F812FCF9199
:101450001F91089520911C0730E1230F08F42FEF0E
:1014600060E1822F90E00E94000ABC0188EB9BE0C3
:101470000E94863090E080E00895AF92BF92CF92B4
:10148000DF92FF920F931F93CF93DF93362F472F57
:10149000E82FF0E0E35BFD4F71110FC0E4918E2F58
:1014A0002E2F6E2F722FDF91CF911F910F91FF90F2
:1014B000DF90CF90BF90AF900895C72FD0E02491D8
:1014C000F22E022F10E056E0659FC0011124EFEFCD
:1014D000F0E0BF010E948630832F90E0880F991FB3
:1014E00035E5369FD001379FB00D11248A1B9B0B29
:1014F000982F990F980F6F01CC1ADD0AC09ED0016A
:10150000C19EB00DD09EB00D11248B2F499FA0011C
:101510001124452F55276F01C41AD50AC09EA0017A
:10152000C19E500DD09E500D11245F01A91AB10823
:10153000AC9E6001AD9ED00CBC9ED00C1124CD2C75
:10154000DD24EC19FD09E09FE001E19FD00DF09F43
:10155000D00D1124ED2F62307105A1F050F461150A
:10156000710509F49ECF6130710581F0EB2F852F55
:1015700098CF6430710569F080F06630710509F428
:1015800090CFF4CFE22F2B2F8D2F8BCFE22F252F53
:1015900088CFEB2F822F2D2F84CF2B2F8F2DE52F50
:1015A00080CF2F923F925F926F927F928F929F9205
:1015B000AF92BF92CF92DF92EF92FF920F931F9361
:1015C000CF93DF93CDB7DEB72A970FB6F894DEBF7F
:1015D0000FBECDBF8B837E836D832091C7018CE0CE
:1015E000289F802D11248F83845F89838A838B3386
:1015F00010F03AE33A8380911E078C83FF81EF2F2E
:10160000F0E0FA87E987CF01880F991F9C012856DF
:101610003D4F69013B81832F90E0FC013196F887B3
:10162000EF838A8199859817E8F081E0E981EA33B0
:1016300008F080E02A960FB6F894DEBF0FBECDBF4B
:10164000DF91CF911F910F91FF90EF90DF90CF909E
:10165000BF90AF909F908F907F906F905F903F90E2
:101660002F900895E985FA85EC5BFC4F808190917D
:10167000C8018923F1F02090190730901A072F81B3
:101680003885225E384F39015B8010E0FC815F169F
:10169000D0F020911B07129F112D1124B101812F31
:1016A0000E943D0A462F282F672F89859A850E9420
:1016B000A70929853A852F5F3F4F3A87298732E06E
:1016C000C30ED11CAECFF30181913F01F601A0AC56
:1016D000A81ABB0881ACF3018781881A9908AA9CD3
:1016E0009001AB9C300D300D1124889CC001899C69
:1016F000900D900D1124820F931F0E946705082FF3
:1017000060911C0721E0620F08F46FEFF301EE0F08
:10171000FF1FEE51F740858996890E94000A7C01DF
:101720009401A501B101812FED81FE8109951B0175
:101730005394182FABCFCF92DF92EF92FF920F937B
:101740001F93CF93DF938C01C091C7018CE0C89F9A
:10175000C02D11242CE0D22EDC0ECD2C2AE32D1529
:1017600010F49AE3C92E20911C0731E0230F08F4EE
:101770002FEF30E050E040E06FEF7FEF80E090E04F
:101780000E947F317901D0E02C2FCC1570F081E0E0
:10179000F9E3FD1508F480E0DF91CF911F910F91DF
:1017A000FF90EF90DF90CF900895FE01EC5BFC4F2F
:1017B00080819091C801892311F140911E07415009
:1017C000042E000C550B47FF1CC0C70160911C077D
:1017D00021E0620F08F46FEF0E94000AAC016091F3
:1017E000190770911A0780911B07F80109950E944B
:1017F0003D0A462F282F672FCE010E94A709219668
:10180000C3CFFA01E25EF84F818982130AC0FA0160
:10181000EE0FFF1FE25EF84F818D928D8E159F05B2
:10182000A8F241505109CFCFDF92EF92FF920F9370
:101830001F93CF93DF937C01C091C7018CE0C89FB9
:10184000C02D11241CE01C0F012F1B3308F00AE3EC
:1018500060911C076695669521E0620F08F46FEFB2
:1018600080911407909115070E94000AD82ED0E0AD
:10187000C01760F081E01A3308F080E0DF91CF916B
:101880001F910F91FF90EF90DF900895FE01EC5BA8
:10189000FC4F80819091C801892391F060911907D4
:1018A00070911A0780911B072D2D4C2FF701099578
:1018B0000E943D0A462F282F672FCE010E94A709BC
:1018C0002196D6CF9F92AF92BF92CF92DF92EF92A6
:1018D000FF920F931F93CF93DF936C01C091C701C9
:1018E0008CE0C89FC02D11241CE01C0FB12E1B33AF
:1018F00010F03AE3B32E60911C07669566958091CF
:101900001407909115070E94000AF82E80E48F0DAD
:101910000E94A90990E8A92EA80E8F2D0E94A9095E
:1019200020E8922E980ED0E0CB1580F081E01A339B
:1019300008F080E0DF91CF911F910F91FF90EF9021
:10194000DF90CF90BF90AF909F900895FE01EC5B29
:10195000FC4F80819091C8018923A1F06091190703
:1019600070911A0780911B07EF2C0C2F292D4A2DFF
:10197000F60109950E943D0A462F282F672FCE01B8
:101980000E94A7092196D0CF5F926F927F928F928B
:101990009F92AF92BF92CF92DF92EF92FF920F93FE
:1019A0001F93CF93DF933C01C091C7018CE0C89F88
:1019B000C02D11241CE01C0FF12E1B3310F03AE354
:1019C000F32E60911C07669580911407909115077E
:1019D0000E94000A582ED0E0CE01880F991F9C016A
:1019E00028563D4F6901CF15A0F081E01A3308F069
:1019F00080E0DF91CF911F910F91FF90EF90DF90EA
:101A0000CF90BF90AF909F908F907F906F905F909E
:101A10000895FE01EC5BFC4F80819091C801892301
:101A200079F1F60180AD282F2E56330B590181AD87
:101A3000E82FE252FF0B4F01AA9C9001AB9C300DA6
:101A4000300D1124EE9FC001EF9F900D900D1124D9
:101A5000820F931F0E946705082F609119077091EC
:101A60001A0780911B07E52C9401A501F301099544
:101A70000E943D0A462F282F672FCE010E94A709FA
:101A8000F2E0CF0ED11C2196AECFAF92BF92CF9293
:101A9000DF92EF92FF920F931F93CF93DF936C012E
:101AA000C091C7018CE0C89FC02D11241CE01C0F01
:101AB000B12E1B3310F03AE3B32E60911C076695EC
:101AC00080911407909115070E94000AA82ED0E07B
:101AD000CE01880F991F9C0128563D4F7901CB15E7
:101AE00078F081E01A3308F080E0DF91CF911F9108
:101AF0000F91FF90EF90DF90CF90BF90AF9008953F
:101B0000FE01EC5BFC4F80819091C8018923C1F0FC
:101B1000F70121AD2252330B40AD4E56550B60916B
:101B2000190770911A0780911B070A2DF601099574
:101B30000E943D0A462F282F672FCE010E94A70939
:101B4000F2E0EF0EF11C2196CACF4F925F926F9296
:101B50007F928F929F92AF92BF92CF92DF92EF923D
:101B6000FF920F931F93CF93DF93982E762E34E43A
:101B7000C32E33E0D32E48E9E42E42E0F42E10E0E9
:101B800000E0F60181916F018A70D9F1F70180AD13
:101B9000282F2E56330B5901C1ADC252DD0BAA9C22
:101BA0009001AB9C300D300D1124CC9FC001CD9F16
:101BB000900D900D1124820F931F0E946705609075
:101BC000D0068090D10632E07316A9F193E0791621
:101BD000D1F1E3E08E9FC0011124F1E09595879546
:101BE000592C580E7F1202C0582E5918652D762D8B
:101BF000882D0E943D0A462F282F672FC8010E947A
:101C0000A7090F5F1F4F82E0E80EF11C0A33110590
:101C100009F0B7CFDF91CF911F910F91FF90EF9017
:101C2000DF90CF90BF90AF909F908F907F906F90FC
:101C30005F904F900895582E5918B501CE010E941B
:101C40001505581AD3CF24014918B501CE010E94B9
:101C50001505982F990F990F282F291B240D382D22
:101C6000239F212D1124822EC1CFAF92BF92CF92FC
:101C7000DF92EF92FF920F931F93CF93DF93B82ED3
:101C8000A62E24E4E22E23E0F22EC8E9D2E010E0F2
:101C900000E0C82ED12CF70181917F018A7009F4F0
:101CA00038C07091D0068091D106F2E0AF1609F4E9
:101CB00042C023E0A21609F441C031E06B2DA31607
:101CC00001F128AD34EE239F212D1124482F50E03F
:101CD00030E0245E3F4F2C193D0937FF03C031959A
:101CE0002195310993E0220F331F9A95E1F7421BAA
:101CF000530B57FD40E0282F429F412D11246B2D9F
:101D0000842F0E943D0A462F282F672FC8010E946A
:101D1000A7090F5F1F4F22960A33110509F0BBCFA9
:101D2000DF91CF911F910F91FF90EF90DF90CF90B7
:101D3000BF90AF90089568AD6B19E3CF69ADFCCF4C
:101D400080E00895F894E82FE295EF70F0E031A17B
:101D5000282F2F7081E090E001C0880F2A95EAF7C4
:101D6000982F9095932391A392A1892B82A3789485
:101D700008958238910591F1C0F58133910509F4F8
:101D800090C028F58932910509F484C08A32910502
:101D900009F48EC0811520E5920708F09EC08115D8
:101DA00040E4940708F022C18F3B910508F087C0FA
:101DB000883A910508F00FC1853A910508F002C1F3
:101DC0008430910500F581309105E9F03CC0853300
:101DD000910509F458C089339105E1F62091DE069A
:101DE000237089F080EE90E00895833E910571F1B3
:101DF00058F4803E9105E9F0823E910559F6209114
:101E0000DE0622FD1EC00895863E910551F1873EF3
:101E1000910571F1843E910509F0BCCF2091DF0658
:101E200021FFF1CF8091DE0684FD0DC087EE90E0AA
:101E300008952091DE0620FD05C13091DF0630FFB8
:101E4000E2CF24FF02C190E080E0DDCF2091DE06EA
:101E500022FDFEC03091DF0630FDC4CF24FFD3CF7A
:101E6000F2CF2091DE0623FFCECF24FDECCFDECFD4
:101E70002091DE0623FDEFC03091DF0631FFEECF6B
:101E800084EE90E008952091DE0625FFBCCF89E224
:101E900090E008952091DE0625FFB5CF85E390E020
:101EA00008952091DE0626FFAECF8AE290E00895E5
:101EB0002091DE0626FFA7CF81E390E00895803EC3
:101EC000910508F2883E910508F49DCF9C013A9552
:101ED00021153F4108F497CFB6CF811523E592072E
:101EE00040F5811542E5940708F088C0811521E589
:101EF000920708F07EC09C0164E0369527956A95AC
:101F0000E1F7922F9370282F26952695237040E2B3
:101F1000249F90011124392B482F437081E090E0D9
:101F200002C0880F991F4A95E2F7822B932B9C6879
:101F30000895811549E59407F0F4811528E5920785
:101F400008F06DC0811544E5940708F07CCFAC0122
:101F50004370552721E030E002C0220F331F4A951D
:101F6000E2F78695869540E2849FC0011124822B7A
:101F7000932B9A68089581152AE5920708F063CF9C
:101F8000282F2F704091DE0642FF05C083FF4CC012
:101F9000282F277024603091DF0630FF07C0322FD2
:101FA0003871383009F046C0277F216044FD277E14
:101FB00034E0969587953A95E1F78F70982F822FA8
:101FC00090690895855AE82FF0E0EE50FE4F808129
:101FD00090E090640895885AE82FF0E0EE0FFF1F1C
:101FE000EB50FE4F80819181946408959F70906AB8
:101FF0000895982F8827816F906A0895AC014370E7
:10200000552721E030E002C0220F331F4A95E2F746
:102010008695869540E2849FC001112486CF982F33
:102020008827806F906A089582FFB5CF282F2B7084
:102030002860B1CF322F3171313009F0B7CF2E7F08
:102040002860B4CF89E390E0089583EE90E008958E
:1020500082EE90E0089586EE90E008959091C6019A
:102060009923D1F09091DE0697FF16C0E82FE695F0
:10207000E695E695EE31E0F4F0E0E058FC4F282FCD
:10208000277081E090E001C0880F2A95EAF78095DB
:102090009281892382830895E2E8F3E09191891384
:1020A00003C0DF0111971C9293E0E838F907B1F7FC
:1020B00008959091C6019923C1F09091DE0697FF93
:1020C00014C0E82FE695E695E695EE31F8F4F0E0D9
:1020D000E058FC4F877021E030E001C0220F8A9564
:1020E000EAF78281822B82830895A2E8B3E0EFEFC2
:1020F00090E02D91821751F0EF3F19F4211101C0AA
:10210000E92F9F5F9630A9F7EF3F09F408950E2E4F
:10211000000CFF0BE058FC4FE6CF2EE0929F800DA5
:102120001124982F977086958695869523E0829F37
:10213000F0011124E056FC4F50E040E080E0219196
:1021400030E0092E02C0369527950A94E2F72170F7
:102150003327042E01C0220F0A94EAF7822B4F5F27
:102160005F4F4330510559F708952EE0929F800D3F
:102170001124982F977041E001C0440F9A95EAF717
:1021800086958695869593E0899FF0011124E05607
:10219000FC4F90E080E070E05191DF0111979B01CE
:1021A000082E02C0369527950A94E2F721702195F2
:1021B0002527242325272C9301968330910561F749
:1021C00008958093E0067093E2066093E1068091A3
:1021D0000907843001F586E08093E9008FEF909144
:1021E000E800815095FD06C095ED9A95F1F7000045
:1021F0008111F5CF8091E80085FF0DC050E040E0EF
:1022000063E070E080EE96E00E9468038091E80051
:102210008E778093E8000895BC0184E00C94E1106F
:10222000BC0183E00C94E110CF93DF93EC0180912B
:10223000C6018823B1F18091DE0687FF32C060E2DB
:1022400086E08093E9008FEF9091E800815095FD42
:1022500006C095ED9A95F1F700008111F5CF8091B8
:10226000E80085FF1BC08091C60170E050E040E0AF
:10227000811104C050E040E068E070E0CE010E94AF
:1022800068038091E8008E778093E80080E2FE0189
:10229000A7EEB6E001900D928A95E1F7DF91CF911C
:1022A000089568E081E0CDCF81E08093E00080E296
:1022B0008093D8001092C9008FE19EE40197F1F756
:1022C00000C0000087E090EBDC018093470790930B
:1022D0004807A0934907B0934A0788E19CE00FB6EE
:1022E000F894A895809360000FBE90936000FFCF94
:1022F000279A35B13F7725B120684FB7F89480E22F
:1023000096E0FC015191CF0168E025B9000000C0C2
:1023100057FF35B9550F000000C000C000C035B9E7
:1023200000C06A9591F7F6E08E3C9F0751F74FBFCA
:102330008FE594E00197F1F700C000000895CF9376
:10234000DF93C7EED1E060E0CE010E945B312196C1
:10235000C11584E0D807B9F7DF91CF9108956F9246
:102360007F928F929F92AF92BF92CF92DF92EF9225
:10237000FF920F931F93CF93DF938DE4C82E83E0DA
:10238000D82E93EBE92EF12CE701C057D109360185
:102390001BC0F50185909490692DC8010E945B31A6
:1023A000682DC80101960E945B3182E0A80EB11C25
:1023B0000E5F1F4FC017D10761F78CE1680E711CCB
:1023C0006C96CE15DF0529F08E010C5111095301D1
:1023D000E0CF7E0180E7E80EF11C80E7C80ED11C3B
:1023E00083E7E81682E0F80679F6DF91CF911F9136
:1023F0000F91FF90EF90DF90CF90BF90AF909F90A4
:102400008F907F906F9008956091C5018FE090E06C
:102410000C945B318091180780FF0AC09091C50130
:10242000892F8D7F91FF82608093C5010C940412E7
:1024300008958091180780FF0AC09091C501892FE7
:102440008E7F90FF81608093C5010C9404120895E3
:10245000CF93C82F6FEF811162E283E290E00E9478
:102460005B316FEFC11162E084E290E00E945B316A
:102470006FEFC11164E285E290E0CF910C945B3183
:1024800080E00E94281260E086E290E00E945B31CA
:102490000E94AF110E949F1181E00C9428120F93AB
:1024A0001F93CF93DF93C42FD0E0CC0FDD1F2CE11F
:1024B000629FC00DD11D112430E7839FC00DD11D37
:1024C0001124CE0187960E943D31082F10E0102F75
:1024D0000027CE0188960E943D319801282BC90122
:1024E000DF91CF911F910F910895462F843038F4DA
:1024F000743028F46E3018F4672F0C944F1290E06B
:1025000080E00895CF92DF92FF920F931F93CF93B5
:10251000DF936C01009113078091D603082BC7E06D
:10252000D0E010E0FC2EC8010C2E02C095958795D6
:102530000A94E2F780FD0CC02197A0F7F12C8F2DB3
:10254000DF91CF911F910F91FF90DF90CF90089571
:10255000B6018C2F0E9475120E94B90E019761F38B
:10256000EECF83E290E00E943D31823289F484E232
:1025700090E00E943D31823059F485E290E00E9463
:102580003D3191E0843209F090E0892F8170089507
:1025900080E0FCCF45E050E060E170E08EEC96E03A
:1025A0000C944B318091180780FF09C08091CE06B2
:1025B000815009F48CE08093CE060C94CA120895E1
:1025C0008091180780FF0AC08091CE068F5F8D3002
:1025D00008F081E08093CE060C94CA120895809191
:1025E000180780FF05C081E08093CE060C94CA12C4
:1025F0000895EEECF6E081E080838091CA0190912D
:10260000CB01A091CC0181839283A3838FE7848344
:102610000C94CA12E8E1F7E08BE180838091CA0153
:102620009091CB01A091CC0181839283A3838FE70A
:1026300084838FEF858346E050E06CE170E0CF014A
:102640000E944B3110921F0608951F93CF93DF9382
:10265000EC01FC01EC5BFC4F80816823C9F00E9417
:102660000731182F0E9407318F77782F20E8720FDB
:1026700008F47FEF612F80911B070E943D0A462FCF
:10268000282F672FCE01DF91CF911F910C94A709BE
:10269000DF91CF911F910895DF92EF92FF920F93F8
:1026A0001F93CF93DF938C01FC01EC5BFC4F808187
:1026B000682381F1D0901A07D0911B07C0911907A8
:1026C000EC2EF12C0E940731282FC7018C549F4F0C
:1026D00068E671E00E949A308E199F0997FD039673
:1026E000959587959595879523706C2F289F600DFC
:1026F00011247D2D8D2F0E943D0A462F282F672FF4
:10270000C801DF91CF911F910F91FF90EF90DF9063
:102710000C94A709DF91CF911F910F91FF90EF903B
:10272000DF9008955F926F927F928F929F92AF9207
:10273000BF92CF92DF92EF92FF920F931F93CF93AE
:10274000DF93182F8091C101811324C08091180755
:10275000282F217030E09091C00181E0921713067C
:1027600009F480E081708093C90180911D079091E8
:10277000C801981739F08093C80140E060E080E01C
:102780000E94A509133360F4E12FF0E0E058FC4CFF
:102790000C94AE3081E0E6CF8091C901811124C054
:1027A000C0E08091C7018F5F8093C701C1110CC049
:1027B00082E08093C4018091C901811105C011118B
:1027C00003C083E08093C401DF91CF911F910F91EB
:1027D000FF90EF90DF90CF90BF90AF909F908F9041
:1027E0007F906F905F90089540E060E080E00E94ED
:1027F000A509D6CFC091C7018CE0C89FC02D112478
:102800000CE00C0FF02E0B3310F02AE3F22E609147
:10281000190770911A0780911B070E943D0AE62E46
:10282000D72EC82ED0E0CF1528F0C1E00A3308F427
:10283000B8CFB6CFFE01EC5BFC4F80819091C80110
:10284000892331F02C2D4E2D6D2DCE010E94A7092C
:102850002196E9CFC091C7018CE0C89FC02D1124FB
:102860000CE00C0FF02E0B3310F09AE3F92ED09001
:102870001A07E0901B07D09119076D2F7D2D8E2D23
:102880000E943D0AC62EB72EA82E60911C076D0F20
:102890007D2D8E2D0E943D0AE62ED72E982ED0E05B
:1028A000CF1518F6FE01EC5BFC4F90818091C801BA
:1028B000892359F0292D4E2D6D2D90FD03C02A2D11
:1028C0004C2D6B2DCE010E94A7092196E9CFC09116
:1028D000C7018CE0C89FC02D11240CE00C0FE02E26
:1028E0000B3310F08AE3E82ED0901A07C0901B0734
:1028F00020911C07D0E4FD2E3F2D329F312D112455
:10290000F32ED0E0CE1508F090CFFE01EC5BFC4F2B
:1029100080819091C8018923B9F0FE01EE0FFF1F5D
:10292000E856FD4F81AD82958F70609119078F9D9C
:10293000600D11247D2D8C2D0E943D0A462F282FDD
:10294000672FCE010E94A7092196DCCFC091C70155
:102950008CE0C89FC02D11240CE00C0FE02E0B332F
:1029600010F0AAE3EA2ED0901A07C0901B0720911E
:102970001C07F0E4FF2E3F2D329F312D1124F32E42
:10298000D0E0CE1508F051CFFE01EC5BFC4F80810A
:102990009091C8018923D9F0FE01EE0FFF1FE85680
:1029A000FD4F60ADF69EB0011124E5E07595679589
:1029B000EA95E1F780911907680F7D2D8C2D0E9413
:1029C0003D0A462F282F672FCE010E94A709219686
:1029D000D8CFC091C7018CE0C89FC02D11240CE056
:1029E0000C0FF02E0B3310F06AE3F62EE09019076F
:1029F000D0911A07D0901B0760911C0766956695C9
:102A0000669580911407909115070E94000A0E9414
:102A1000A909805887FD8195880F282F3D2D239F78
:102A2000212D1124822F6E2D7D2F0E943D0AE62E2E
:102A3000D72EC82ED0E0CF1508F0F7CEFE01EC5B04
:102A4000FC4F80819091C801892331F02C2D4E2DAF
:102A50006D2DCE010E94A7092196EDCF8CE799E05C
:102A60000E94140CC82F9DCE82E599E0F9CF84E333
:102A700099E00E94450DF6CF85E199E0FACF8AEF03
:102A800098E00E94C40CEECF8EED98E0FACF8CED6A
:102A900098E0E6CF83ED98E0E3CF8AEC98E0E0CFD2
:102AA00081EB98E0DDCF83EA98E0EBCF8BE798E00D
:102AB000E0CF8AE698E0DDCF86E598E0E2CF89E2D4
:102AC00098E00E94620CCECF8BEF97E0FACF84ECB7
:102AD00097E0F7CFC091C901C1111EC060911C07DA
:102AE00020E1620F08F46FEF8091140790911507B1
:102AF0000E94000A6AE070E00E948630892B09F08B
:102B00004FCE0E9407316AE370E00E949A306091D4
:102B1000C8010E944C1345CEC091C7018CE0C89FEC
:102B2000C02D11240CE00C0F802F0B3308F08AE32A
:102B3000D0E0E82EF12CCE15DF050CF076CE6091BA
:102B4000C801CE010E944C132196F5CFC091C90156
:102B5000C1111EC060911C0720E1620F08F46FEFE5
:102B600080911407909115070E94000A65E070E0BB
:102B70000E948630892B09F013CE0E9407316AE348
:102B800070E00E949A306091C8010E94251309CE1E
:102B9000C091C7018CE0C89FC02D11240CE00C0F20
:102BA000802F0B3308F08AE3D0E0E82EF12CCE150D
:102BB000DF050CF03ACE6091C801CE010E942513CA
:102BC0002196F5CFC091C7018CE0C89FC02D11247C
:102BD0000CE00C0FF02E0B3310F05AE3F52ED090D2
:102BE0001A07E0901B07D091190760911C076695A2
:102BF0006695669580911407909115070E94000ACA
:102C00000E94A909805887FD8195880F682F2CE0C4
:102C1000629F612D11246D0F7D2D8E2D0E943D0A26
:102C2000E62ED72EC82ED0E0CF1508F0FECDFE013F
:102C3000EC5BFC4F80819091C801892331F02C2DF1
:102C40004E2D6D2DCE010E94A7092196EDCF88EC67
:102C500099E006CF83EB97E003CF40913504509184
:102C60003604609137047091380480911407909174
:102C70001507A0911607B091170784179507A607A7
:102C8000B70708F48DCD0E94EB09082F0E94EB09CD
:102C90009AE3891BF0F7890FC82FD0E0FE01EC5BA7
:102CA000FC4F8091C8019081892309F479C020E00C
:102CB00040E060E001FD13C00E94EB09082F0E9474
:102CC000EB09782F76952FE7720F08F47FEF602FCE
:102CD00080911B070E943D0A462F282F672FCE01A7
:102CE0000E94A70920911C0730E1230F08F42FEF61
:102CF00060E1822F90E00E94000ABC0184EF91E025
:102D00000E9486308091140790911507A0911607B4
:102D1000B0911707860F971FA11DB11D8093350431
:102D200090933604A0933704B093380439CD409182
:102D3000E7045091E8046091E9047091EA048091FD
:102D4000140790911507A0911607B09117078417E3
:102D50009507A607B70708F423CD8091C901811113
:102D600021C0C091C7018CE0C89FC02D11240CE088
:102D70000C0FD02E0B3310F04AE3D42EEC2EF12C96
:102D8000A3E0CA9FE0011124C75CDB4FED1408F4F7
:102D900042C0E9E3F4E084EE94E00A3308F054C062
:102DA000C1E0FFCC40E060E080E00E94A50939E38B
:102DB000E32E34E0F32ED0E0C0E00FE70E94EB09F1
:102DC00081FF0CC0F7011082118212822196B3E0BC
:102DD000EB0EF11CCA33D10589F7C3CF0E94EB0972
:102DE000B82E0E94EB098695782F700F08F47FEFBC
:102DF000CE01880F991F8C0F9D1F9C01275C3B4FB4
:102E000069016B2D80911B070E943D0AD6016D93CD
:102E10007D938C93DBCFF701EC5BFC4F808190912D
:102E2000C801892331F02A8148816981C7010E9444
:102E3000A7092396EFEFEE1AFE0AA8CF238134816B
:102E400045812193319341938E179F07B9F70E94D3
:102E5000EB0981FF1FC01092E4041092E504109268
:102E6000E6040E942A0AC0901407D0901507E0904B
:102E70001607F0901707DC01CB018C0D9D1DAE1DD0
:102E8000BF1D8093E7049093E804A093E904B093F6
:102E9000EA0486CC0E94EB09C82F0E94EB098695B4
:102EA000782F2FE7720F08F47FEF6C2F80911B07AC
:102EB0000E943D0A6093E4047093E5048093E60465
:102EC000D0CF409123055091240560912505709144
:102ED00026058091140790911507A0911607B091CF
:102EE000170784179507A607B70708F459CC8091F0
:102EF000C901882329F040E060E080E00E94A50934
:102F00006091190770911A0780911B070E943D0A72
:102F1000062F772E682ECBEED4E088E9A82E82E02B
:102F2000B82E9DE0E92EF12C67018DE0C81AD1087A
:102F3000512C960125513B4F4901F601E856FD4FB2
:102F4000808190E0D9012C91222309F477C0262DAD
:102F5000402F672D0E94A709F4018181808353943B
:102F6000FFEFCF1ADF0A26E05212E3CF6701BDE080
:102F70005B2EC60185519B4F4C01F601E856FD4F73
:102F8000808190E0D4012C91222309F45BC0262D8E
:102F9000402F672D0E94A709F40131978081F40129
:102FA00080835A94F1E0CF1AD10827E05212E1CF82
:102FB000D50117968C9190E02F81222309F446C009
:102FC000262D402F672D0E94A709F501868190E0EC
:102FD0002E81222309F43EC0262D402F672D0E940A
:102FE000A7090E94EB09837091E009F090E09E83AD
:102FF0009F832E96FEE0AF0EB11C2EE0E20EF11C78
:1030000035E4E316F10409F08FCF0E942A0AC0903C
:103010001407D0901507E0901607F0901707DC0111
:10302000CB018C0D9D1DAE1DBF1D8093230590937C
:103030002405A0932505B0932605B2CB20E040E0FF
:1030400060E088CF20E040E060E0A4CF20E040E0F6
:1030500060E0B9CF20E040E060E0C1CFC091C7019F
:103060008CE0C89FC02D1124ACE07A2E7C0E072D79
:1030700098E3971508F408E38091C901882361F06B
:1030800040E060E080E00E94A509EBE2F5E088E323
:10309000DF011D928A95E9F78091C701811120C057
:1030A00020912805309129054FB7F8948091DA06D0
:1030B0009091DB06A091DC06B091DD064FBF821B2C
:1030C000930B21E08233910508F420E0209327053B
:1030D000C29730F00E94D10490932905809328056F
:1030E000D0E0C02ED12CEEE06E2EFAEA5F2ECC1589
:1030F000DD0534F0C1E0B7E3B71508F052CB50CB93
:103100004E01B3E08B2299245E01B594A794B59447
:10311000A794689CC001699C900D1124FC01E55D99
:10312000FA4FEA0DFB1D008188569D4FFC01EA0D08
:10313000FB1D80818F3F51F1E82EF12CF701EC5BF4
:10314000FC4F80819091C801892301F1302F25E542
:10315000321B08F430E070911A07252D200F08F477
:103160002FEF40911B07822F880F820F8E5F282F31
:10317000249F212D1124822F652D631B0E943D0A5F
:10318000462F282F672FC7010E94A7098091270586
:10319000882379F031E0031B08F400E0689CC0014B
:1031A000699C900D1124855D9A4FA80EB91ED5011A
:1031B0000C9321969CCF8091C901882371F040E047
:1031C00060E080E00E94A509EBE2F5E088E3DF0122
:1031D0001D928A95E9F710922A05D0E0C0E0772485
:1031E0007A9440EDA42EB12C50EC652E6FE2862E21
:1031F000912C7E0100E09E01255D3A4F690180918E
:103200002A05802BA9F50E9407318535954084F564
:10321000F6017082F701E856FD4FE081EF3FB1F013
:10322000D701A55DBA4F2C91F0E0213D50F1205D12
:10323000330B629EC001639E900D1124B4010E9465
:103240008630262F4FEFCF010E94A7090F5FFEE0C7
:10325000EF0EF11C043099F62196CE30D10549F6D7
:1032600080912A058F5F8D31B0F480932A0598CA2A
:10327000F701E55DFA4F808181508E3F58F68083DB
:10328000C9CF279DC0011124B5010E948630462F69
:1032900020E060E0D8CF10922A0527E435E083E0F3
:1032A00069E375E09EEFEBE2F5E0D901833021F4AC
:1032B00042A54F3F09F492A74D914F3F31F4ED01E4
:1032C000219798831D964C931D9731966E177F0713
:1032D00069F781502E5031098111E5CF61CA8CEA1E
:1032E00097E00E949B0BBECB86EA97E0FACF8091D5
:1032F0001E0721E0382F321B08F430E0832F6DE8E1
:1033000077E00E94D10AAECB6DE877E080E0F9CF9C
:1033100080911E0721E0382F321B08F430E0832F04
:1033200062E577E0EECF62E577E0F0CF80911E07AF
:1033300021E0382F321B08F430E0832F60E277E081
:10334000E0CF60E277E0E2CF80911E0721E0382FE6
:10335000321B08F430E0832F68E077E0D2CF68E0DA
:1033600077E0D4CF80911E0721E0382F321B08F47C
:1033700030E0832F62EF76E0C4CF62EF76E0C6CF15
:10338000C091C7018CE0C89FC02D11240CE00C0F28
:10339000D02E0B3310F03AE3D32EEC2EF12C83E039
:1033A000C89FE0011124CE5EDE4FED1408F03DCA47
:1033B00060911B0770E090E080E00E94833220E083
:1033C00030E04FE753E40E94E2314B015C016A8137
:1033D00070E090E080E00E948532A50194010E9497
:1033E00011330E945432C62E688170E090E080E074
:1033F0000E948532A50194010E9411330E9454322B
:10340000762E698170E090E080E00E948532A5010F
:1034100094010E9411330E9454322C2D472DC70174
:103420000E94A70923969FEFE91AF90ABECF80915F
:10343000140790911507A0911607B09117074091B6
:10344000EA055091EB056091EC057091ED0584174C
:103450009507A607B70708F4A3C9B0901C072091E9
:10346000C90121110E940C31C091C7018CE0C89F95
:10347000C02D11240CE00C0F802F0B3308F08AE3D1
:10348000D0E0E82EF12CCE15DF05E4F10A3308F484
:10349000CCC96B2D70E080E991E00E949A302FE753
:1034A000269FC001279F900D1124092E000CAA0B06
:1034B000BB0B40911407509115076091160770914E
:1034C0001707840F951FA61FB71F8093EA059093D7
:1034D000EB05A093EC05B093ED0590EBE92E95E09C
:1034E000F92E2CE935E0F70184E0DF0114979C9177
:1034F00091938150D1F7E70124972C173D0761F193
:103500007E01F1CF6E01AFEFCA1ADA0AC601CA32E4
:10351000D10508F4CE01FC01EC54FA4F208122239E
:10352000B9F070911A07880F991FFC01E053FD4F05
:10353000609119078081680F80911B070E943D0AE6
:10354000462F282F672FCE010E94A709E6019BCFA7
:1035500020E040E060E0F7CF80919A0580939B05E2
:103560008091990580939A0582E0C82ED12C0E9403
:103570000731B6010E949A308993CE15DF05B9F75D
:103580000E940731B6010E949A308093990569E63E
:1035900075E0FB0150E040E09A0194E0D901A456A7
:1035A000BA4FAC91EF01C20FD31FAC8BE901C759E1
:1035B000DA4FA88F91502F5F3F4F9111EFCF4C5FA3
:1035C0005F4F38974831510539F7809365058093EF
:1035D000660580919A058093670520919B058091EF
:1035E0009A0590919B0598278927982790936405C1
:1035F00080936305209368059CE084EF890FFB01AD
:10360000A82FB0E0AC54BA4F20812C938F5F349632
:103610008913F6CF9CE0980F6F5F7F4F9C3369F75B
:10362000E3E6F5E0A4EEB5E081918D9325E0E9367F
:10363000F207D1F7FAC88AE09AE053CE66ED76E059
:1036400065CE63E976E062CE63E676E05FCE8F9288
:103650009F92AF92BF92CF92DF92EF92FF920F9321
:103660001F93CF93DF938091170690911806A09136
:103670001906B0911A062FB7F8948090DA06909048
:10368000DB06A090DC06B090DD062FBF750164015B
:10369000C81AD90AEA0AFB0A2FB7F8944091DA0649
:1036A0005091DB066091DC067091DD062FBF4093E0
:1036B0001706509318066093190670931A06109116
:1036C000EE05EEEEF5E0C12FD0E00197AF4FBF4F12
:1036D00088199909AA09BB091D1329C0C093EE05D1
:1036E00080911E06C0E0811108C080911807C82F84
:1036F000C17080FF02C0C82FC6958091C40181307F
:1037000009F43FC0882331F1823009F4C7C1833006
:1037100009F4D3C1DF91CF911F910F91FF90EF90EA
:10372000DF90CF90BF90AF909F908F900895218DA4
:10373000328D4901B12CA12C88159905AA05BB052C
:1037400020F4C150DF5F3296C7CF2C0D3D1D328F64
:10375000218FF8CF1092C70140931407509315079B
:10376000609316077093170789E2EEEEF5E0AEE17D
:10377000B7E001900D928A95E1F781E08093C40152
:10378000C9CF8C2F0E949213CC2321F2E091CE0658
:10379000F0E0E159FD4FE081E250EB3008F041C02C
:1037A000F0E0ED54FC4CA091D2062091140730912A
:1037B000150740911607509117070C94AE30D09121
:1037C000CF06C091D0061091D106A695A695A695D4
:1037D000B0E00E949E31872F0E944805805887FDE7
:1037E0008195880F282F219F212D1124822F6D2F45
:1037F0007C2F0E943D0AF62EE72ED82E04E413E01B
:10380000D0E0C0E0F80181918F018A7031F02D2D58
:103810004F2D6E2DCE010E94A7092196CA33D105E6
:1038200089F704E413E0D0E0C0E0F80191918F0142
:103830008091C50191FF25C181FF27C120E040E0B3
:1038400060E0CE010E94A70920C1A695A695A69585
:10385000B0E00E949E31872FC091D0061091D10612
:103860000E944805805887FD8195880F282F219F49
:10387000212D1124822F9091C301992371F020935F
:103880001D0620911C0620931B06285F20931C0612
:1038900021E092279093C3010DC09091C201209125
:1038A0001D06821718F1992309F434C121E09227EB
:1038B0009093C20160911B067C2F0E943D0AF62E58
:1038C000E72ED82E04E413E0D0E0C0E0F8018191A7
:1038D0008F018A7031F02D2D4F2D6E2DCE010E945B
:1038E000A7092196CA33D10589F79BCF982B11F7E9
:1038F00091E09093C201CECFA695A6956A2F71E074
:10390000670F08F46FEFA62FB0E00E949E31872F5B
:1039100060E00E94350E85CFA695B0E00E949E31F2
:10392000872F63E00E94A50D7CCFA695A6956A2FF0
:1039300071E0670F08F46FEFA62FB0E00E949E3190
:10394000872F61E0E6CFA695A6956A2F71E0670FF5
:1039500008F46FEFA62FB0E00E949E31872F62E03F
:10396000D8CFA695A6956A2F71E0670F08F46FEF80
:10397000A62FB0E00E949E31872F63E0CACFA695A4
:10398000B0E00E949E31872F60E0CCCFA695B0E0DA
:103990000E949E31872F61E0C5CFA695A695B0E025
:1039A0000E949E31C72ED82EE92EFF2480E48C0D74
:1039B0000E944805F0E89F2E980E8C2D0E94480525
:1039C0008058A4E4AA2EA3E0BA2E08E912E0D0E0C1
:1039D000C0E0E92C990CFF08B8E38B2E912CC82E7F
:1039E000880FDD08F50181915F018A7009F43AC002
:1039F0004091D0068091D106F80190AD9E5697FD7A
:103A0000919521AD2252330B2E9DB0012F9D700D4B
:103A10003E9D700D1124F401E91BF10997FDF3950A
:103A2000EC9D9001ED9D300DFC9D300D1124260F75
:103A3000371FB901660F771F620F731F77FF02C030
:103A400061587F4F660F672F661F770B9091CF06E7
:103A5000690F742F0E943D0A462F282F672FCE0131
:103A60000E94A70921960E5F1F4FCA33D10509F0A6
:103A7000B9CFD7CEA695B0E00E949E31872F62E0E5
:103A800051CF93FF08C082FDD9CE2196CA33D1050C
:103A900009F0CBCE3FCE80FFF8CFD0CE8C2FDF9178
:103AA000CF911F910F91FF90EF90DF90CF90BF903B
:103AB000AF909F908F900C94560680911F0688239C
:103AC00051F046E050E06CE170E088E197E00E9440
:103AD0004B3110921F0640911407509115076091C9
:103AE0001607709117072FB7F8948091DA06909116
:103AF000DB06A091DC06B091DD062FBF841B950B81
:103B0000A60BB70B4097A105B10508F403CE1092A0
:103B1000C40100CE882309F4EBCECCCE4F925F9245
:103B20006F927F928F929F92AF92BF92CF92DF92CD
:103B3000EF92FF920F931F93CF93DF93CDB7DEB732
:103B400028970FB6F894DEBF0FBECDBF8E010F5F72
:103B50001F4F88E0F80111928A95E9F793E2E92E68
:103B600092E0F92E680127E2422E22E0522E6624CE
:103B70006394712C45E3842E42E0942EF7018191E9
:103B80007F018F3F09F445C0F894E82FE295EF706C
:103B9000F0E021A18F70A30102C0440F551F8A9548
:103BA000E2F7CA01922F982B91A392A180958923C5
:103BB00082A3789400C0E7E2F2E021E030E0B12C8B
:103BC000A12C41914F3F09F481C0A42FA295AF7061
:103BD000B0E090968C9190E04F7002C095958795DB
:103BE0004A95E2F780FD72C0C901A82AB92A220FBE
:103BF000331F8E169F0629F7F701319780818F3F7B
:103C000011F00E94A20E50EA5A95F1F7F601B18226
:103C1000A082F2E0CF0ED11C4E145F0409F0AECFAB
:103C200048E050E0B8018AED93E00E941731FF248C
:103C3000F394009709F4F12C892B09F44AC088E029
:103C4000F801AAEDB3E001900D928A95E1F781E0C9
:103C50008093D9030E94D1049093D8038093D70313
:103C60002091D7033091D8034FB7F8948091DA06AA
:103C70009091DB06A091DC06B091DD064FBF821B60
:103C8000930B059750F18091DA039091DB039093A9
:103C9000ED038093EC038091DC039091DD0390931E
:103CA000EF038093EE038091DE039091DF03909306
:103CB000F1038093F0038091E0039091E1039093EE
:103CC000F3038093F2031092D90307C090E080E0E1
:103CD0008CCF8091D9038111C3CF8F2D28960FB639
:103CE000F894DEBF0FBECDBFDF91CF911F910F9132
:103CF000FF90EF90DF90CF90BF90AF909F908F900C
:103D00007F906F905F904F900895CF93C091E4069D
:103D10008091D503C82BC093800340E250E065EB4F
:103D200073E080E893E00E941731892B19F180E25B
:103D3000E0E8F3E0A5EBB3E001900D928A95E1F79E
:103D4000E091D506F091D6063097A1F08091C6019A
:103D5000882349F08091DE0687FF05C0C093810368
:103D600086E0809380030280F381E02D80E893E079
:103D7000CF910994CF91089590E080E00E94F304E0
:103D800090E080E00E94DD041092D5030C94851E23
:103D9000809313070C94BC1E80911307982F967084
:103DA000963019F488600C94C81E877FFCCF8093EE
:103DB000D6030C94BC1E8091C601E2E8F3E0882390
:103DC00059F08091DE0687FF07C08EE1DF011D926A
:103DD0008A95E9F70C94BC1E86E0F8CF1F93CF9329
:103DE000DF93CDB7DEB7AA970FB6F894DEBF0FBE4C
:103DF000CDBF8BE097E02091F100DC012D93CD0148
:103E0000B7E083319B07B9F780910C07833009F441
:103E100072C0B8F4813009F449C0823009F4B5C0E9
:103E20008091E80083FF98C280910B0790910C0766
:103E30009A3008F091C2E92FF0E0E254FC4C0C9467
:103E4000AE308A3009F490C08B3009F471C08930EB
:103E500039F780910B07813219F780910F07909104
:103E60001007009711F00397D9F68091E800877F3B
:103E70008093E8008091E80082FF38C09091F300C1
:103E80008091F200029731F48091F100813011F0BD
:103E9000863021F48091F1008093E6068091E8005D
:103EA0008B778093E8000E94BC03BACF80910B0708
:103EB000813A09F0B5CF8091E800877F8093E800D0
:103EC00080910F0790911007892B61F460E287EED3
:103ED00096E070E00E946E048091E8008B778093FA
:103EE000E8009ECF60E090E080E0F3CF809109078A
:103EF0008111C0CF95CF80910B07813A09F090CF07
:103F000080910F0790911007892B09F089CF80913C
:103F1000E800877F8093E8008091E80080FFFCCF75
:103F20008091C6018093F1008091E8008E77B9CF2F
:103F300080910B07813209F073CF80910F07909128
:103F40001007892B09F06CCF8091E800877F809360
:103F5000E8000E94BC0380910D078093C601109277
:103F6000E4060E94DB1E5CCF80910B07813209F0D2
:103F700057CF8091E800877F8093E8000E94BC03C0
:103F800080910E078093E5064BCF80910B07813A15
:103F900009F046CF8091E800877F8093E800809108
:103FA000E80080FFFCCF8091E506BCCF803899F017
:103FB000823809F0D1C180910F078F70873008F0E7
:103FC000CBC18093E9008091EB0085FB882780F9C5
:103FD0001092E90006C0809107079091080791119F
:103FE00082609091E800977F9093E8008093F100C1
:103FF0001092F1008091E8008E77AAC1882309F41D
:1040000098C1823009F0A8C180910D0781119BC130
:1040100080910F078F702FEF280F263008F09CC17A
:104020008093E9002091EB0020FF8DC1933031F4A3
:104030008091EB0080628093EB0085C19091EB0052
:1040400090619093EB0021E030E001C0220F8A954F
:10405000EAF72093EA001092EA008091EB00886072
:10406000EACF811179C110910D071F778091E3008C
:104070008078812B8093E3008091E800877F809394
:10408000E8000E94BC038091E80080FFFCCF809193
:10409000E30080688093E30082E0111183E0809365
:1040A00009075AC18058823008F056C120910D0787
:1040B00030910E072C3DE3E03E07A1F583E08A83B3
:1040C0008AE289834FB7F894DE01139620E03EE040
:1040D00051E2E32FF0E050935700E49120FF03C03A
:1040E000E295EF703F5FEF708E2F90E0EA30C0F006
:1040F000C7968D939D932F5F243159F74FBF8091C1
:10410000E800877F8093E8006AE270E0CE010196C4
:104110000E946E048091E8008B778093E8001CC1B8
:10412000C096E7CF80910F0790911007432F552736
:104130004330510509F44AC078F54130510509F47E
:104140007AC08BE790E0EDE0F5E04230510509F0F0
:1041500003C12091E800277F2093E80020911107F8
:10416000309112078217930708F49C0140E0211553
:10417000310509F065C0411163C08091E80082FDFE
:10418000C9CF80910907882329F2853019F28091DF
:10419000E80083FFF2CFBECF4132510509F43CC0A5
:1041A0004232510509F0D8C08430910508F0D4C0DE
:1041B000FC01EE0FFF1FE857FD4F0190F081E02D4D
:1041C0008C579D4FDC018C9190E01AC03327213031
:1041D0003105D1F02115310561F02230310509F0AA
:1041E000BBC0EAE9F5E0E4918E2F90E0EAE9F5E062
:1041F00007C0E8EBF5E0E4918E2F90E0E8EBF5E006
:10420000009709F4A9C0A5CFE6EAF5E0E4918E2F66
:1042100090E0E6EAF5E0F4CF8430910508F09CC028
:10422000880F991FFC01E057FD4F0190F081E02DB0
:1042300089E090E08ECF82E190E0E8E8F5E089CF78
:1042400080910907882309F465CF853009F462CF8E
:104250008091E80083FD5ECF8091E80082FD8DCFE4
:104260008091E80080FF83CF9091F3008091F2006D
:104270002115310519F08830910550F041E008977B
:1042800009F040E08091E8008E778093E8006FCFDE
:1042900044914093F1003196215031090196E8CFC5
:1042A000803809F059C08091E800877F8093E8004A
:1042B00080910A078093F1009DCE81114DC010912D
:1042C0000D07123008F048C08091E800877F809386
:1042D000E80010930A070E94BC03112311F084E048
:1042E00005C08091E30087FDFACF81E08093090744
:1042F00042E061EC81E00E94DB0342E261EC86E097
:104300000E94DB0342E261EC82E00E94DB0342E2B6
:1043100060EC83E00E94DB0342E361EC84E00E94F6
:10432000DB0342E360EC85E00E94DB038091090738
:1043300013C080910D07813079F481E0933009F04A
:1043400080E0809308071092E9008091E800877F61
:104350008093E8000E94BC038091E80083FF0AC0BC
:104360008091E800877F8093E8008091EB00806275
:104370008093EB00AA960FB6F894DEBF0FBECDBFB8
:10438000DF91CF911F910895882309F452C082389C
:1043900071F40E94090581FF4CC089E30E94591005
:1043A0000E94851E89E30E942E100C94851E83387E
:1043B00059F40E94090580FF3CC083E50E94591012
:1043C0000E94851E83E5EFCF843859F40E940905C9
:1043D00082FF2FC087E40E9459100E94851E87E447
:1043E000E2CF9CEF980F913AF0F290E2980F98305C
:1043F00088F4877021E030E0A90102C0440F551F06
:104400008A95E2F7CA0180959091E406892380930A
:10441000E406CBCF9BE5980F933020F490E080E04A
:104420000C94F304885A873120F490E080E00C94D7
:10443000DD040895CF93C82F882309F4A6C08238DD
:10444000C1F40E94090581FDA0C089E30E945910B2
:104450000E94851E2FEF81EE94E021508040904015
:10446000E1F700C0000089E30E942E10CF910C9468
:10447000851E8338A1F40E94090580FD86C083E56E
:104480000E9459100E94851E2FEF81EE94E021506A
:1044900080409040E1F700C0000083E5E5CF84381C
:1044A000A1F40E94090582FD70C087E40E945910A2
:1044B0000E94851E2FEF81EE94E0215080409040B5
:1044C000E1F700C0000087E4CFCF8CEF8C0F813A7A
:1044D00088F58091C601882301F18091DE0687FF6F
:1044E0001CC0EC2FE695E695E695F0E0E058FC4F11
:1044F000828190E04C2F477021E030E002C0220F13
:10450000331F4A95E2F782239323892B79F08C2F6E
:104510000E942E100E94851E09C0E2E8F3E08191FE
:10452000C817A9F323E0E838F207C9F78C2F0E94D7
:1045300059109CCF80E28C0F883068F4C77021E05E
:1045400030E001C0220FCA95EAF78091E406822B81
:104550008093E4068BCFEBE5EC0FE33040F4F0E022
:10456000EE50FE4F808190E0CF910C94F304C85A36
:10457000C73158F4EC2FF0E0EE0FFF1FEB50FE4F69
:1045800080819181CF910C94DD04CF9108951F9388
:10459000CF93DF93182FEB010E941A22209731F45A
:1045A000812FDF91CF911F910C94C4218FE99FE05F
:1045B0000197F1F700C000002197F0CF90E080E074
:1045C0000E944531893E9E4F11F40C94B11280E057
:1045D000089569EE7EEF90E080E00E94793160E01E
:1045E00082E090E00E945B3160E083E090E00E9416
:1045F0005B311092D60360E084E090E00E945B3172
:1046000060E082E290E00E945B3160E085E090E053
:104610000E945B3160E086E090E00E945B316FEFCA
:1046200087E090E00E945B3140E050E0BA0188E012
:1046300090E00E946D3160E08DE090E00E945B317F
:1046400040E050E0BA0188E190E00E946D3160E006
:1046500087E190E00E945B3140E050E0BA018CE1DC
:1046600090E00E946D3170E060E080E290E00E9496
:10467000793140E050E0BA0188E190E00E946D316C
:1046800080E00E9428120E94401240E050E0BA01EF
:104690008FE090E00E946D3140E050E0BA0183E18C
:1046A00090E00C946D315F926F927F928F929F9207
:1046B000AF92BF92CF92DF92EF92FF920F931F9330
:1046C000CF93DF93CDB7DEB72A970FB6F894DEBF4E
:1046D0000FBECDBF4E835F83F62E688779878A87AA
:1046E00061111092D50389859A85892B39F0EE8066
:1046F000DF808E2D8D218F3F09F075C42A960FB66D
:10470000F894DEBF0FBECDBFDF91CF911F910F9107
:10471000FF90EF90DF90CF90BF90AF909F908F90E1
:104720007F906F905F9008950E948212182F682FDB
:1047300089819A810E94B51069817A81812F0E94B6
:1047400075128C01FF2009F4F0C382519F454097F8
:1047500008F0C5C38FEF93E00E943D31025127EE70
:10476000C22EDD24D3948111C9CF01113AC01C821D
:104770001B82662463949AE0592E86010F5F1F4FB7
:10478000C6010E943D3189831A82882309F4B6CF7D
:104790009FEF980F9330A0F58A83698282E0C80E5C
:1047A000D11CC8010E943D318B83882309F4A6CF18
:1047B0008E010F5F1F4FF80120812223F1F221307B
:1047C00009F058C0918182819130E1F40E5F1F4F52
:1047D00070E060E0893311F460E570E00E94C72268
:1047E00017C0C11424E0D20609F488CFC6010E9484
:1047F0003D31811101C001503FEFC31AD30AB5CF3B
:104800006801D6CF923039F40E5F1F4F0E941A22F2
:104810000F5F1F4FD0CF933029F40E5F1F4F0E94C0
:10482000C421F6CF943019F00F5F1F4FF1CF0E5F08
:104830001F4F30E020E0B8016F5F7F4FF8014181EA
:104840008053990B8A30910550F02150310900F3C3
:104850008FE99FE00197F1F700C00000F6CF529E6C
:10486000F001539EF00D11249C012E0F3F1F842F49
:104870008B01E1CFE22FF0E0E353FE4F7490822FE3
:1048800086958695869590E0FC01E354FE4FE49072
:104890002770F12C022E02C0F594E7940A94E2F7F7
:1048A000E1E0EE22FF24FC01E355FE4FA490B12C81
:1048B000022E02C0B594A7940A94E2F7F1E0AF2269
:1048C000BB24FC01E356FE4F8490912C02C09594CA
:1048D00087942A95E2F721E082229924E114F104D9
:1048E00019F081EE0E941A22A114B10419F086EE8B
:1048F0000E941A2239E370E060E0731202C060E5A2
:1049000070E0872D0E94C722AB2819F086EE0E9426
:10491000C421EF2819F081EE0E94C421892809F4EE
:1049200077CF70E060E08CE259CF8091130782600E
:104930000E94C81E2A960FB6F894DEBF0FBECDBFE8
:10494000DF91CF911F910F91FF90EF90DF90CF906B
:10495000BF90AF909F908F907F906F905F900C94DE
:10496000CC1E809113078D7FE3CF80911307FF202A
:1049700011F08460DDCF8B7FDBCF073CFCE51F07A8
:1049800009F48AC008F483C0083C3CE5130709F425
:1049900088C041EE55E06EEE75E0093C9CE51907D4
:1049A00009F0E9C22A960FB6F894DEBF0FBECDBF5C
:1049B000DF91CF911F910F91FF90EF90DF90CF90FB
:1049C000BF90AF909F908F907F906F905F900C946E
:1049D00097050F3CECE51E0709F47AC050F50C3C36
:1049E0002CE5120709F46CC008F465C00D3C8CE599
:1049F000180709F46AC061E085E00E3C9CE51907E0
:104A000009F0B9C22A960FB6F894DEBF0FBECDBF2B
:104A1000DF91CF911F910F91FF90EF90DF90CF909A
:104A2000BF90AF909F908F907F906F905F900C940D
:104A30002906063DECE51E0730F461E082E1013D08
:104A40001C4500F35BCE0D35100709F457CE93C219
:104A500090911807892F8E7F90FF816080931807AF
:104A60001092C40180911F06816080931F0646CE7C
:104A700043E456E06CE476E095CF4CE456E063E422
:104A800076E090CF45E156E06FE176E08BCF4FE1E5
:104A900056E065E176E086CF4BEF55E068E076E0E2
:104AA00081CF48E056E06BEF75E07CCF4EEE55E0ED
:104AB00061EE75E077CF42EB55E060EC75E072CFC8
:104AC00040EC55E062EB75E06DCF61E081E09ACF9C
:104AD00061E08DE097CF0A3AEDE51E07E1F0083A74
:104AE000FDE51F0709F056C22A960FB6F894DEBFFF
:104AF0000FBECDBFDF91CF911F910F91FF90EF902F
:104B0000DF90CF90BF90AF909F908F907F906F90ED
:104B10005F900C940A128091180780FFEFCD90915E
:104B2000C501892F8B7F92FF84608093C5012A96EF
:104B30000FB6F894DEBF0FBECDBFDF91CF911F91AE
:104B40000F91FF90EF90DF90CF90BF90AF909F902C
:104B50008F907F906F905F900C940412FF2009F467
:104B6000CDCD2A960FB6F894DEBF0FBECDBFDF9134
:104B7000CF911F910F91FF90EF90DF90CF90BF905A
:104B8000AF909F908F907F906F905F900C94E01209
:104B900002389FE5190709F40CC208F051C000382B
:104BA000FFE51F0709F470C001382FE5120709F46B
:104BB0006FC0FF2009F496C001159CE5190709F4A0
:104BC0006BC00E3D1C4509F476C08E2D9D2D0E94B4
:104BD0008212182F682F8E2D9D2D0E94B5106E2DDC
:104BE0007D2D812F0E9475120E94B90E182FB82EAC
:104BF000092F02950F70043009F4D6C008F078C070
:104C0000023008F494C00850110B0230110508F06E
:104C100075CD2A960FB6F894DEBF0FBECDBFDF91DB
:104C2000CF911F910F91FF90EF90DF90CF90BF90A9
:104C3000AF909F908F907F906F905F900C9409053C
:104C400003383FE5130709F489CF04388FE51807C7
:104C500009F0AFCFFF2009F451CD2A960FB6F89492
:104C6000DEBF0FBECDBFDF91CF911F910F91FF909F
:104C7000EF90DF90CF90BF90AF909F908F907F90FC
:104C80006F905F900C94D212FF2009F437CD2CCF97
:104C9000FF2009F433CD32C11092E4060E94DB1EDE
:104CA000FFEF24E33CE0F15020403040E1F700C04A
:104CB00000000E9454112A960FB6F894DEBF0FBE72
:104CC000CDBFDF91CF911F910F91FF90EF90DF90BB
:104CD000CF90BF90AF909F908F907F906F905F909C
:104CE0000C94E9228E2D9D2D0E948D10182F77CFC8
:104CF000083009F473C0093009F085CF9F7021E0B6
:104D000030E0690101C0CC0C9A95EAF7FF2009F464
:104D1000D6C0809113078C290E94C81E112309F464
:104D200072CF9091E406912B9093E40634C0892FC2
:104D30008F70E82E907F19F0E29480EFE822812FA7
:104D4000FF20C9F0EE2069F090E2910F983010F04A
:104D500011110BC08091E406E82AE092E4060E945B
:104D6000851E812F0E941A224ECF8091D503E82AFA
:104D7000E092D503F4CF0E94C421EE2009F443CF82
:104D8000E094105E183010F0B11008C08091E40675
:104D9000E822E092E4060E94851E35CF8091D5037B
:104DA000E822E092D503F7CF892F86958695837008
:104DB00061F0813009F027CF812F9370F11002C08C
:104DC00090E080E00E94DD041ECF812F9370F110EF
:104DD00002C090E080E00E94F30415CF892F837019
:104DE000A1F5F11010CF812F829586958770880FDD
:104DF000880F412F4F70082E01C0440F0A94EAF724
:104E0000212F207114FF07C02FE030E001C0220FD6
:104E10008A95EAF72095969596959370923081F051
:104E2000822F842B933030F48091D603913029F077
:104E3000242B82230E94D71EE6CE842B822BFACF0E
:104E4000242B8091D6038227F5CF8695FF2011F081
:104E5000892F8170882309F4D6CE812F829586957B
:104E60008770880F880F412F4F70082E01C0440FA4
:104E70000A94EAF7212F207114FF07C02FE030E0D9
:104E800001C0220F8A95EAF7209596959695937022
:104E9000923081F0822F842B933030F4809113076D
:104EA000913029F0242B82230E94C81EACCE842B83
:104EB000822BFACF242B809113078227F5CF112361
:104EC00049F0912F90958091E40698239093E40601
:104ED0000E94851EC094809113078C21E5CF00317C
:104EE0009FE5190709F421CD0131EFE51E0709F40B
:104EF0003CCD093A8DE5180709F0EDCD2A960FB69D
:104F0000F894DEBF0FBECDBFDF91CF911F910F91FF
:104F1000FF90EF90DF90CF90BF90AF909F908F90D9
:104F20007F906F905F900C9419128031FFE59F077E
:104F300009F417CD81319F4509F417CD8091E4061E
:104F400082720A3C9CE5190709F4B0CD08F041CD06
:104F5000053CFCE51F0709F495CD08F00ECD033C98
:104F60003CE5130709F484CD08F087CD023CECE55D
:104F70001E0709F46DCD093A3DE5130709F4BECBD0
:104F80000A3A8DE5180709F4B9CB083A9DE51907E7
:104F900009F4B4CB0D3A2DE5120709F4DFCD0E3A32
:104FA0003DE5130709F456CE0C3A8DE5180709F0D4
:104FB000EFCDFF2009F4A2CB2A960FB6F894DEBFFE
:104FC0000FBECDBFDF91CF911F910F91FF90EF905A
:104FD000DF90CF90BF90AF909F908F907F906F9019
:104FE0005F900C94EF12E982DA8289819A81F11044
:104FF0009BCB0E948D10182F9FCB1F920F920FB644
:105000000F9211242F933F934F935F936F937F934E
:105010008F939F93AF93BF93CF93DF93EF93FF93C0
:10502000D091E900DF708091EC00C82FC17080FD45
:10503000C0E81092E9008091F000877F8093F00033
:1050400078940E94EE1E1092E9008091F000886032
:105050008093F000CD2BCF70C093E900FF91EF91CA
:10506000DF91CF91BF91AF919F918F917F916F9180
:105070005F914F913F912F910F900FBE0F901F9016
:1050800018951F920F920FB60F9211242F933F93F2
:105090004F935F936F937F938F939F93AF93BF9340
:1050A000EF93FF938091E10082FF09C08091E200BD
:1050B00082FF05C08091E1008B7F8093E1008091A9
:1050C000DA0080FF24C08091D80080FF20C080914A
:1050D000DA008E7F8093DA008091D90080FF9DC036
:1050E00080E189BD82E189BD09B400FEFDCF81E088
:1050F000809309078091E306811109C00E9418037B
:105100000E940D048091E20084608093E20080910F
:10511000E10080FF17C08091E20080FF13C0809102
:10512000E2008E7F8093E2008091E20080618093B4
:10513000E2008091D80080628093D80019BC85E09D
:10514000809309078091E10084FF2BC08091E200E9
:1051500084FF27C080E189BD82E189BD89B5982F90
:10516000917080FFFBCF8091D8008F7D8093D80015
:105170008091E1008F7E8093E1008091E2008F7E3C
:105180008093E2008091E20081608093E200809150
:105190000A07882309F447C084E0809309078091B7
:1051A00009078091E10083FF27C08091E20083FF1F
:1051B00023C08091E100877F8093E10082E08093AB
:1051C000090710920A078091E1008E7F8093E10029
:1051D0008091E2008E7F8093E2008091E200806106
:1051E0008093E20042E060E080E00E94DB03809177
:1051F000F00088608093F000FF91EF91BF91AF9134
:105200009F918F917F916F915F914F913F912F91DE
:105210000F900FBE0F901F90189519BC10920907A0
:105220001092E30674CF8091E30087FD93E09093A2
:105230000907B5CF78941F921FB61F9211248F9340
:105240009F93AF93BF938091DA069091DB06A09174
:10525000DC06B091DD060196A11DB11D8093DA0632
:105260009093DB06A093DC06B093DD06BF91AF916F
:105270009F918F911F901FBE1F9018951F921FB670
:105280001F9211248F939F93AF93BF938091D90660
:10529000811113C08091DA069091DB06A091DC06A3
:1052A000B091DD064196A11DB11D8093DA06909361
:1052B000DB06A093DC06B093DD06BF91AF919F9112
:1052C0008F911F901FBE1F901895CDB7DEB7CF5599
:1052D000D1090FB6F894DEBF0FBECDBF84B7877F6C
:1052E00084BF0FB6F894A895809160008861809380
:1052F0006000109260000FBE80E890E00FB6F89456
:1053000080936100909361000FBE85B7806885BF70
:1053100085B7806885BF80EA9EE090937F03809385
:105320007E030E9418030E940D048091E2008460B5
:105330008093E2007894809109078823A1F010916E
:10534000E9001F709091EC00892F817090FD80E83A
:10535000182B1092E9008091E80083FD0E94EE1E58
:105360001F701093E90082E084BD93E095BD9AEF31
:1053700097BD80936E000E94B112811102C00E94FD
:10538000401287EF0E94A20E86EF0E94A20E87E9CC
:105390000E94A20E86E90E94A20E07E212E0D80146
:1053A0008D918D018F3F11F00E94A20EB2E0053366
:1053B0001B07A9F788E0ECEEF3E0DF01282F1D9230
:1053C0002A95E9F7EAEDF3E0DF011D928A95E9F706
:1053D0000E94DE22811102C00E94E92282E090E058
:1053E0000E943D318093E20384E090E00E943D31D1
:1053F000182F82E290E00E943D31982F812F9093E8
:10540000DF068093DE060E948E1DEFE3FCE93197F4
:10541000F1F700C000000E948E1D8091EC0380FF18
:1054200008C06FEF7FEF90E080E00E9479310E942A
:10543000541183E090E00E943D310E94D71E1092EB
:105440001E078FEF9FEF9093380780933707909355
:105450003A078093390790933C0780933B079093DA
:105460003E0780933D079093400780933F079093BA
:10547000420780934107909344078093430790939A
:105480004607809345071092EE0590930806809397
:10549000070690930A068093090690930C06809362
:1054A0000B0690930E0680930D0690931006809342
:1054B0000F06909312068093110690931406809322
:1054C000130690931606809315060E94DE22811122
:1054D00004C00E94E9220E940A1346E050E06CE1F9
:1054E00070E088E197E00E942D3110921F068091B4
:1054F00018078E7F11F40E940A136091DE0660681F
:105500006093DE061091DF0684E090E00E945B313C
:10551000612F82E290E00E945B310E94DE228111C5
:1055200007C00E94E9228FE08093C5010E94041207
:105530008FE090E00E943D318093C5010E94DE2201
:10554000811104C00E94E9220E94F91245E050E056
:1055500060E170E08EEC96E00E942D318091CE06E5
:10556000811102C00E94F91284E091E09093D60666
:105570008093D50680910907853099F4B0E4EB2E2D
:1055800011E000E1F02E02E180910907853009F475
:1055900030C21092E4060E94DB1E0E9409051092A0
:1055A0001E060E948E1D882359F08FB7F8944091F3
:1055B000DA065091DB066091DC067091DD068FBF44
:1055C0004CEE53E067965FAF4EAF679783EE93E084
:1055D0002D969FAF8EAF2D97512C412CF12CE12CA5
:1055E0002E961FAE2E976196EFAE61976A96EFAE3C
:1055F0006A976796AEADBFAD6797ED91FD916796DF
:10560000BFAFAEAF67976396FFAFEEAF63972D96D0
:10561000AEADBFAD2D978D919C918E179F0709F46C
:1056200074C1E827F9276996FFAFEEAF6997BFEF1E
:10563000BE0D6496BFAF6497EEE0BE9FC00111241B
:105640009C01255D3A4F1901A201475C5A4F3A016E
:1056500060965FAE4EAE609710E088248394912CE4
:105660006C963FAF2EAF6C9797012F5F3F4FE29F35
:10567000C001E39F900D1124DC01A55DBA4F6E9629
:10568000BFAFAEAF6E97EE9DC001EF9D900D1124A0
:10569000FC01E55DFA4FA096FFAFEEAFA0976996CB
:1056A0008EAD9FAD699788219921892B09F417C187
:1056B00022961FAF22976A96FFAD6A972396FFAF97
:1056C00023976396CEACDFAC6397C820D92081E0E6
:1056D000C114D10409F480E024968FAF24970E946E
:1056E000D1048160782F26969FAF8EAF26972296A1
:1056F0004FAD229723965FAD239724966FAD2497E5
:1057000026968FAD26970E9453232D96AEADBFAD42
:105710002D978D919C911197882599258D939C9318
:10572000CD2851F06096EEADFFAD6097E856FD4F85
:1057300080818F3F09F0B0C100E0C02ED12C809154
:10574000EE058C0D9D2D911D09976CF188E090E080
:105750005C01AC18BD08B60161517A4FA5018FEE0E
:1057600095E00E942431B60169507A4FA50187EF78
:1057700095E00E942431A501440F551FB601660F24
:10578000771F695F794F87E096E00E942431B60168
:1057900061507A4FA5018FEF95E00E94243188E097
:1057A000801B8093EE058091EE0590E06596EFAD4D
:1057B0006597AE2FB0E09D01220F331F20533D4F60
:1057C000AA0FBB1FBD016F527D4F41E0480F9017DC
:1057D00008F467C18093EE05809118078E7F8E33A1
:1057E00009F073C08FEF810F811760F4A096EEADC2
:1057F000FFADA097E80FF11D208130E1230F08F4E1
:105800002FEF20836096EEADFFAD6097E55DFA4F18
:10581000208130E2230F08F42FEF208391E0910FD5
:105820009E3009F46CC4218130E1230F08F42FEF7E
:1058300021836196EFAD6197E33041F1811760F408
:105840006E96EEADFFAD6E97E80FF11D20813DE045
:10585000230F08F42FEF2083D3012C9130E1230F85
:1058600008F42FEFF30120839E3009F43EC4218118
:105870003DE0230F08F42FEF11962C936196BFADF6
:1058800061976496EFAD6497EB17F8F4811760F4B5
:105890006C96EEADFFAD6C97E80FF11D20813DE0F9
:1058A000230F08F42FEF2083D1012C9130E1230F37
:1058B00008F42FEFF10120839E3039F021813DE083
:1058C000230F08F42FEF11962C932E96BFAD2E9731
:1058D000BF5F2E96BFAF2E97BC3008F050C01F5F41
:1058E000880C991CEFEF2E1A3E0AFFEF6F1A7F0A01
:1058F00060962EAD3FAD60972F5F3F4F60963FAFF4
:105900002EAF60971E3009F0CACE3FEFE31AF30ABC
:105910002D964EAD5FAD2D974E5F5F4F2D965FAFCD
:105920004EAF2D975EE0450E511C84E0E816F10461
:1059300009F059CE2E969FAD2E97911120C08FEF72
:1059400027968FAF279728968FAF289729961FAE57
:1059500029970E94D1048160782F2B969FAF8EAF3C
:105960002B9727964FAD279728965FAD28972996B6
:105970006FAD29972B968FAD2B970E9453230E94D2
:10598000271B0E9409059091EB0389138093EB0379
:1059900080910907843009F49CC080910907843004
:1059A00009F0E8CD85E08093E9008091E80082FF6E
:1059B000E1CD8091E80090E085FF09C050E040E033
:1059C00060E470E0CE0101960E94920391E0809124
:1059D000E8008B778093E800992309F4CBCDE98127
:1059E000E150E93008F0E6C1F0E0E853FC4C0C94DB
:1059F000AE3080910907843009F43BC080911E06C7
:105A0000811105C00E94921380E00E9456061093F7
:105A10001E060E94271B80911E06811105C00E9450
:105A2000921380E00E94560610931E061092D9062B
:105A300028E130E00FB6F894A895209360000FBEDF
:105A4000E092600083B7817F846083BF83B7816009
:105A500083BF7894889583B78E7F83BF0FB6F89401
:105A6000A89580916000886180936000109260002A
:105A70000FBE80910807882309F486CD0E948E1DF1
:105A8000ECEEF3E081919191892B09F0FBC233E0B8
:105A9000E43FF307B9F778CD65968FAF659701E0DE
:105AA0004CCE90E0FC01E251FA4FD9015C91518358
:105AB000DB015C9151876596BFAD6597B18B880F0F
:105AC000991FFC01E251FA4F128E118E91E0842F42
:105AD0007CCE83E08093E9008091E80082FF5DCF77
