:100000000C9466030C949E030C949E030C949E0324
:100010000C949E030C949E030C949E030C949E03DC
:100020000C949E030C949E030C9402290C94BE28FD
:100030000C94FF290C949E030C949E030C949E0335
:100040000C949E030C949E030C949E030C949E03AC
:100050000C949E030C94DB290C949E030C949E0339
:100060000C949E030C949E030C949E030C949E038C
:100070000C949E030C949E030C949E030C949E037C
:100080000C949E030C949E030C949E030C949E036C
:100090000C949E030C949E030C949E030C949E035C
:1000A0000C949E030C949E030C949E0305010980FE
:1000B000A101850319012AB700150126B700950192
:1000C00075108100C0050C0901A101850419012AE0
:1000D000A002150126A002950175108100C005013E
:1000E0000906A1018506050719E029E71500250184
:1000F0009508750181020507190029EF15002501F2
:1001000095F075018102050819012905950575010C
:100110009102950175039101C00659FF0960A10183
:100120000962150026FF00954075088102096315D4
:100130000026FF00954075089102C00660FF096126
:10014000A1010962150026FF0095207508810209AA
:1001500063150026FF00952075089102C00501096E
:1001600006A101050719E029E71500250195087585
:100170000181029501750881010507190029FF1504
:100180000026FF009506750881000508190129055C
:10019000950575019102950175039101C00000005C
:1001A000000000000000000000000000000000004F
:1001B000000000000000000000000000000000003F
:1001C000007E0F00D4FFFFFFC70000007800000092
:1001D00000000000002A2B280000000000000000A2
:1001E000000000000000000029000000002C1E3468
:1001F00020212224342627252E362D3738271E1F6E
:10020000202122232425263333362E37381F040598
:10021000060708090A0B0C0D0E0F10111213141506
:10022000161718191A1B1C1D2F3130232D350405E4
:10023000060708090A0B0C0D0E0F101112131415E6
:10024000161718191A1B1C1D2F3130354C000101CF
:100250000101010101010102020202020202020285
:100260000303030303030303040404040404040555
:100270000505050506060606060707070707080819
:100280000808090909090A0A0A0B0B0B0C0C0C0DCA
:100290000D0D0E0E0E0F0F0F101011111112121363
:1002A000131414151516161717181819191A1A1BDE
:1002B0001B1C1D1D1E1E1F2020212222232424253D
:1002C0002626272829292A2B2C2D2D2E2F30313276
:1002D00032333435363738393A3B3C3D3E3F404186
:1002E00042434445464748494A4C4D4E4F5051536E
:1002F00054555658595A5B5D5E5F61626465666825
:10030000696B6C6D6F7072737577787A7B7D7E80A8
:1003100082838587888A8C8E8F91939596989A9CF4
:100320009EA0A2A3A5A7A9ABADAFB1B3B5B7BABC08
:10033000BEC0C2C4C6C9CBCDCFD1D4D6D8DBDDDFD9
:10034000E2E4E7E9EBEEF0F3F5F8FAFDFF29003A15
:10035000003B003C003D003E003F004000410042A9
:10036000004300440045004A00460035001E001FBF
:100370000020002100220023002400250026002761
:10038000002D002E002A0049002B0014001A00083E
:1003900000150017001C0018000C00120013002F9D
:1003A00000300031004C003900040016000700093D
:1003B000000A000B000D000E000F00330034000097
:1003C0000028000000E1001D001B000600190005C8
:1003D00000110010003600370038000000E5005220
:1003E000000000E000E300E200000000002C00003C
:1003F00000000000000151E6000000500051004FD5
:1004000000010001000100010001000100010001E4
:1004100000010001000100010001000100005C0179
:1004200000010001000100010001000100010001C4
:10043000000100010001000100010001000100C2F3
:100440005CC35CC55CC65CC75CC85CC95CCA5C015B
:100450000001000100010001000100010001000194
:100460000001000100010001000100010001000184
:100470000001000000010000000100010001000176
:100480000001000100010001000100010001000065
:100490000001000100000001000100010000000057
:1004A0000001000000000000000100010000000148
:1004B0000001000100010001000100010001000134
:1004C0000001000100010001000100010001000124
:1004D0000001000100010001000100010001000114
:1004E0000001000100010001000100010001000104
:1004F00000010001000100010001000100010001F4
:1005000000010001000100010001000100010001E3
:1005100000010001000100010001000100010001D3
:1005200000010001000100000001000000010001C5
:1005300000010001000100010001000100010001B3
:1005400000010000000100010000000100010001A5
:100550000000000000010000000000000001000198
:100560000000000100010001000100010001000184
:100570000001000100010001000100010001000173
:100580000001000100010001000100010001000163
:100590000001000100010001000100010001000153
:1005A0000001000100010001000100010001000143
:1005B0000001000100010001000100010001000133
:1005C0000001000100010001000100010001000123
:1005D0000001000100010001000100000001000015
:1005E0000001000100010001000100010001000103
:1005F00000010001000100000001000100000001F5
:1006000000010001000000000001000000000000E7
:100610000001000100000001000100010009027B4F
:1006200000040100A0FA090400000103010100090F
:100630002111010001224000070581030800010982
:10064000040100020300000009211101000122221F
:1006500000070582032000010705030320000109AC
:1006600004020002030000000921110100012222FE
:100670000007058403400001070505034000010948
:100680000403000103000000092111010001226D93
:100690000007058603200001120100020000000887
:1006A000AA0005AA0100010200010A037A007100F4
:1006B00038003000000010035A006800610051004B
:1006C000690061006E0000000403090411241FBECC
:1006D000CFEFDAE0DEBFCDBF04B603FE18C08091D5
:1006E000DC099091DD09A091DE09B091DF09873026
:1006F000904BA740B04B59F41092DC091092DD09E1
:100700001092DE091092DF09E0E0F8E3099529E094
:10071000ACEAB4E001C01D92AC3DB207E1F714E0D1
:10072000A0E0B1E0E4E4F9E602C005900D92AC3A35
:10073000B107D9F70E94262A0C943C340C9400008F
:10074000E8EDF0E080818E7F80831092E2001092CD
:10075000DA001092E100A0EEB0E08C9181608C9301
:1007600080818F77808319BCA7EDB0E08C918E7F5C
:100770008C9380818F7E80831092780908952091D8
:10078000E4003091E50095E6A9012091EC00822F6C
:10079000817020FF06C08091E80080FF06C080E0E5
:1007A00008952091E80022FD1AC080919E098823B7
:1007B00089F0853089F08091EB0085FD0FC0209194
:1007C000E4003091E50042175307F9F29150E1F649
:1007D00084E0089582E0089583E0089581E008951B
:1007E000EF92FF920F931F93CF937C018B010E9496
:1007F000BF03C82F811117C08091E80085FD0BC091
:100800008091E8008E778093E8000E94BF038823E0
:1008100099F3C82F08C0F70181917F018093F100FF
:100820000150110949F78C2FCF911F910F91FF9023
:10083000EF900895EF92FF920F931F93CF937C0157
:100840008B010E94BF03C82F811117C08091E8005F
:1008500085FD0BC08091E8008B778093E8000E94B3
:10086000BF03882399F3C82F08C08091F100F701D6
:1008700081937F010150110949F78C2FCF911F916E
:100880000F91FF90EF9008958091A00987FF13C00A
:100890008091E80082FF06C08091E8008B7780930A
:1008A000E80004C080919E098111F2CF08958091E3
:1008B0009E098823D9F38091E80080FFF8CF8091CA
:1008C000E8008E77ECCF982F9093E900242F762FB5
:1008D00050E0891731F07091EC002091ED005091BB
:1008E000F00021FD07C09F5F973071F78093E9000A
:1008F00081E008953091EB003E7F3093EB00309122
:10090000ED003D7F3093ED003091EB00316030938E
:10091000EB007093EC002093ED005093F0002091D9
:10092000EE0027FDE0CF80E00895CF92DF92EF92B6
:10093000FF920F931F93CF93DF93C8EDD0E0888190
:100940008F7E8883E7EDF0E080818160808384E0A2
:1009500082BF81E08093780988818E7F888302EE50
:1009600010E0F80110821092DA0081EEC82ED12C2E
:10097000F601108288818F778883888180688883D8
:1009800088818F7D888319BC10929E0910929F09DF
:1009900010929D0910929C0990EEE92EF12CF7011E
:1009A00080818B7F808388818160888342E060E0E2
:1009B00080E00E946304F60180818E7F8083F801CD
:1009C000808181608083808188608083F70180815D
:1009D0008E7F8083888180618883DF91CF911F9192
:1009E0000F91FF90EF90DF90CF900895FC018091E0
:1009F000A6099091A70986179707A0F061157105C0
:100A000029F49091E8009E779093E80090E06115BA
:100A1000710551F4911108C08091E80082FF34C043
:100A200080E00895BC01F2CF80919E098823C1F136
:100A30008530C1F18091E80083FD30C08091E800ED
:100A400082FDEACF8091E80080FFE1CF8091F30042
:100A50002091F200382F6115710519F02830310509
:100A600058F091E02830310509F090E02091E8003D
:100A70002E772093E800CBCF81918093F1006150D5
:100A800071092F5F3F4FE7CF80919E09882341F086
:100A9000853041F08091E80083FFBECF81E008956A
:100AA00082E0089583E008950895089580917B0978
:100AB00008952FB7F89480916F0990917009A091D3
:100AC0007109B09172092FBF089520916C0930917E
:100AD0006D092817390771F090936D0980936C099F
:100AE000E0916A09F0916B09309721F00084F1855B
:100AF000E02D09940895209168093091690928171B
:100B0000390771F09093690980936809E0916A0947
:100B1000F0916B09309721F00680F781E02D099460
:100B20000895E0916A09F0916B09309721F00190E6
:100B3000F081E02D099480E00895FC019B0100976D
:100B400029F480E077FF2BC080E80895AC0197FF7F
:100B500004C044275527481B590BB901640F751F62
:100B600037FD10C0241B350BC901A5E0880F991F64
:100B7000AA95E1F70E94583180E2861BF7FF0FC06B
:100B800081950895CB0165E0880F991F6A95E1F77B
:100B9000BA01621B730B0E94583180E6EECF0895B4
:100BA000E82F86FDE0952E2F2F7086FD2F5FE695AE
:100BB000E695E695E670F0E0ED5FFC4F9181929F3F
:100BC000902D212D112492959F702295207F922B9C
:100BD0002081920F87FD919580E8890F0895AC01DF
:100BE0008230910508F408959FEF413E8EE1580749
:100BF00040F49A0195E0369527959A95E1F798E0AB
:100C0000920F61E0E62FE90FFF27FF1F9F01359547
:100C10002795822F229FF001239FF00DF00D1124C4
:100C20004E175F0738F49FEF920F961758F78FEF24
:100C3000860F08952F3FE9F361E0620FF6CFFA01C6
:100C4000811101C0FB010994E1E3F8E08183608335
:100C50004283339699E0E336F907C1F70895FC0122
:100C6000EE0FFF1FE80FF91FEF5CF74F6183408322
:100C700022830895EDEAF9E0248130E1231B08F492
:100C800020E02483809130088160809330080895AB
:100C9000EDEAF9E0248130E1230F08F42FEF2483FB
:100CA0008091300881608093300808959091AD095B
:100CB00090FF0EC08093AE096093AF09493C08F0E5
:100CC00048EC4093B00980913008822B8093300823
:100CD0000895EDEAF9E0438120E1421B08F440E089
:100CE000818121E0628190E00C945606EDEAF9E002
:100CF000438120E1420F08F44FEF818121E06281BE
:100D000090E00C945606EDEAF9E0628120E1621B66
:100D100008F460E0818121E0438190E00C94560664
:100D2000EDEAF9E0628120E1620F08F46FEF818162
:100D300021E0438190E00C945606EDEAF9E08181D0
:100D400021E0438162818850990B0C945606EDEAAC
:100D5000F9E0818190E021E04381628108960C9462
:100D600056062091AD09922F917020FF0CC0811181
:100D70000BC092609093AD091092480280913008A8
:100D8000862B809330080895833310F09466F2CF59
:100D9000880F982BEFCF8091AD098695815009F48B
:100DA00082E361E00C94B1068091AD0986958F5F76
:100DB000833308F081E061E00C94B1068093450232
:100DC0008091AD098170809344020E94001283E0FB
:100DD000809348020895EF92FF920F931F93093476
:100DE00038F4F701E01BF109EF3FF10519F010F0BD
:100DF000EFEFF0E0DA011896519730F0D90118962C
:100E0000519710F0EFEFF0E05E2F5095182F150F6F
:100E100008F41FEF812F620F640F37FF02C02D5FB0
:100E20003F4F3595279535952795620F1F910F9167
:100E3000FF90EF900895EF92FF920F931F93E00EB3
:100E4000F11CFA0157FF03C0F195E195F10944E067
:100E5000EE0FFF1F4A95E1F7EF3FF10519F014F08F
:100E6000EFEFF0E0A90137FF03C05195419551091B
:100E700094E0440F551F9A95E1F74F3F510519F043
:100E800014F04FEF50E08F014E175F070CF48A010A
:100E90000E0D1F1D0F3F110519F010F00FEF10E0A0
:100EA0000095282F200F08F42FEF822F460F642F74
:100EB0006E0F1F910F91FF90EF900895EF92FF92A8
:100EC0000F93F70155E0059FE00DF11D1124EF3F51
:100ED000F10519F010F0EFEFF0E03E2F3095582FAC
:100EE000530F08F45FEF852F620F640F0F91FF908F
:100EF000EF900895EF92FF920F939701201B310915
:100F00002F3F310519F010F02FEF30E02095382FEA
:100F1000320F08F43FEF832F0F91FF90EF90089569
:100F2000EF92FF920F939701201B31092F3F31055C
:100F300019F010F02FEF30E0322F3095482F430F8B
:100F400008F44FEF842F620F0F91FF90EF900895F8
:100F5000EF92FF920F93972F093438F4B701601B7B
:100F600071096F3F710519F010F06FEF70E0485F85
:100F70005F4F4131510540F0A901485F5F4F41315A
:100F8000510510F06FEF70E06095482F460F08F4A0
:100F90004FEF842F37FF02C02D5F3F4F35952795C8
:100FA000359527956091AE09620F792F0F91FF90CB
:100FB000EF900895EF92FF920F931F930E0D1F2D48
:100FC000111DF90137FF03C0F195E195F10924E006
:100FD000EE0FFF1F2A95E1F7EF3FF10519F014F02E
:100FE000EFEFF0E09A0157FF03C0319521953109E9
:100FF00094E0220F331F9A95E1F72E173F070CF468
:10100000F901E00FF11FEF3FF10519F010F0EFEFDC
:10101000F0E0E095282F3E2F230F08F42FEF822FCA
:101020001F910F91FF90EF900895EF92FF920F9311
:10103000970195E0099F200D311D11242F3F3105A7
:1010400019F010F02FEF30E02095382F320F08F410
:101050003FEF832F0F91FF90EF90089522E8241B1C
:1010600008F420E0620F08954095282F429F412DFB
:101070001124842F0895E42FF0E0EE0FFF1FE758AE
:10108000FC4F9081921B97FD9195292F38E1239F6A
:10109000212D1124620F08950F931F9310E0F80182
:1010A000EE0FFF1FE758FC4F90819A5697FD9195E0
:1010B000000F111FF801E658FC4F00810052110B80
:1010C0002003F001219FF00D112408E310E0091B1B
:1010D000110997FD139540039001419F300D112494
:1010E000E20FF31F9F01220F331F2E0F3F1F37FF09
:1010F00002C021583F4F220F232F221F330B620FB4
:101100001F910F9108950F931F93522F10E0F80134
:10111000EE0FFF1FE658FC4FA081A052BB0B9D01B4
:101120005203F001539FF00D1124000F111FD8013D
:10113000A758BC4F0C910A56110B40039001419FD8
:10114000300D11242E0F3F1F37FF02C0215C3F4F8F
:1011500096E0359527959A95E1F7620F1F910F91CB
:1011600008950F931F93522F10E0F801EE0FFF1F09
:10117000E658FC4FA081A052BB0B9D015203F00129
:10118000539FF00D1124000F111FD801A758BC4F19
:101190000C910A56110B40039001419F300D112410
:1011A0002E0F3F1F37FF02C021583F4F220F232F22
:1011B000221F330B620F1F910F910895EF920F932F
:1011C000CF93DF93D72FC82FC9010E19BA010E9400
:1011D0009D05602F681B7D2F8C2FDF91CF910F9184
:1011E000EF9008950F93CF93DF93D72FC82FC901A6
:1011F000BA010E949D05682F600F7D2F8C2FDF9113
:10120000CF910F9108950F93CF93DF93D72FC82FCE
:1012100047FD419585E390E0841B910947FD939537
:10122000889FB001899F700D700D1124229FC0010D
:10123000239F900D900D1124860F971F0E94EF059C
:10124000982F990F890F682F600F7D2F8C2FDF91BA
:10125000CF910F910895EF920F93972F23E0029F64
:10126000B0011124759567956E0D792F0F91EF9050
:101270000895322F50E0FA01EE0FFF1FE658FC4FA1
:101280009081905297FD9195440F551FFA01E758B0
:10129000FC4F2081231B330B290F311D97FD3A95FD
:1012A000620F0895E42FF0E0EE0FFF1FE658FC4FA9
:1012B0006081621B0895E42FF0E0EE0FFF1FE758F6
:1012C000FC4F6081621B0895622F0895EF920F9387
:1012D0001F93CF93DF93D62FC72F182FC9010E1955
:1012E000010FBA010E949D05081B202F219F212D6F
:1012F0001124822F6D2F7C2FDF91CF911F910F91A1
:10130000EF900895EF920F931F93CF93DF93D62F13
:10131000172FC82FC9010E19070FBA010E949D058A
:10132000702F781B719F712D11246D2F8C2FDF91E1
:10133000CF911F910F91EF9008950F931F93CF932B
:10134000DF93D62FC72F182FC901212F201B022F63
:10135000BA010E949D05982F990F990F891B800F44
:10136000282F219F212D1124822F6D2F7C2FDF917B
:10137000CF911F910F9108950F931F93CF93DF93F8
:10138000D62F172FC82FC901272F201B022FBA01D4
:101390000E949D05982F990F990F782F791B700F38
:1013A000719F712D11246D2F8C2FDF91CF911F9183
:1013B0000F910895E42FF0E0EE0FFF1FE758FC4F68
:1013C000408134EE439F412D1124E82FF0E050E09E
:1013D000445E5F4FDA01A21BB1099D01B7FF03C054
:1013E00031952195310993E0220F331F9A95E1F74A
:1013F000AF01421B530B9A0157FD20E0582F259F48
:10140000212D1124822F0895E42FF0E0EE0FFF1F0D
:10141000E758FC4F408134EE439F412D1124E72FC4
:10142000F0E050E0445E5F4FDA01A21BB1099D017C
:10143000B7FF03C031952195310993E0220F331F87
:101440009A95E1F7AF01421B530B9A0157FD20E03B
:10145000279F212D1124722F08950C9424060C949B
:101460002F06E82F86FDE0952E2F2F7086FD2F5F2B
:10147000E695E695E695E670F0E0E251FD4F918144
:10148000929F902D212D112492959F702295207F5F
:10149000922B2081920F87FD919580E8890F089506
:1014A0000F931F93CF93DF938B01D82FC42F822FDD
:1014B0000E94310AEC2FF0E0EE0FFF1FE758FC4FBF
:1014C00090819058890F87FD8195880F682F2CE0B7
:1014D000629F612D1124600F712F8D2FDF91CF91AD
:1014E0001F910F910895409110015091110125E035
:1014F00038E0429FC001439F900D529F900D1124F0
:10150000875E994C9093110180931001890F089583
:1015100030E020E0869F212D969F200D311D112463
:10152000C90108951F93CF93C72F142F1095282F0B
:10153000129F112D11246091B10962956695677013
:1015400021E0620F8091A9099091AA090E94880A5E
:101550009FEF891BF0F7890F682F7C2F812FCF9188
:101560001F9108952091B10930E1230F08F42FEF66
:1015700060E1822F90E00E94880ABC0188EB9BE02A
:101580000E94443190E080E00895AF92BF92CF92E4
:10159000DF92FF920F931F93CF93DF93362F472F46
:1015A000E82FF0E0E35BFD4F71110FC0E4918E2F47
:1015B0002E2F6E2F722FDF91CF911F910F91FF90E1
:1015C000DF90CF90BF90AF900895C72FD0E02491C7
:1015D000F22E022F10E056E0659FC0011124EFEFBC
:1015E000F0E0BF010E944431832F90E0880F991FE3
:1015F00035E5369FD001379FB00D11248A1B9B0B18
:10160000982F990F980F6F01CC1ADD0AC09ED00158
:10161000C19EB00DD09EB00D11248B2F499FA0010B
:101620001124452F55276F01C41AD50AC09EA00169
:10163000C19E500DD09E500D11245F01A91AB10812
:10164000AC9E6001AD9ED00CBC9ED00C1124CD2C64
:10165000DD24EC19FD09E09FE001E19FD00DF09F32
:10166000D00D1124ED2F62307105A1F050F46115F9
:10167000710509F49ECF6130710581F0EB2F852F44
:1016800098CF6430710569F080F06630710509F417
:1016900090CFF4CFE22F2B2F8D2F8BCFE22F252F42
:1016A00088CFEB2F822F2D2F84CF2B2F8F2DE52F3F
:1016B00080CF2F923F925F926F927F928F929F92F4
:1016C000AF92BF92CF92DF92EF92FF920F931F9350
:1016D000CF93DF93CDB7DEB72A970FB6F894DEBF6E
:1016E0000FBECDBF8B837E836D8320914B0285E13E
:1016F000289F802D11248F838B5E89838A83873670
:1017000010F036E63A838091B3098C83FF81EF2F86
:10171000F0E0FA87E987CF01880F991F9C012758CD
:101720003C4F69013B81832F90E0FC013196F887A3
:10173000EF838A8199859817E8F081E0E981E636A0
:1017400008F080E02A960FB6F894DEBF0FBECDBF3A
:10175000DF91CF911F910F91FF90EF90DF90CF908D
:10176000BF90AF909F908F907F906F905F903F90D1
:101770002F900895E985FA85EB5BFB4F808190916E
:101780004C028923F1F02090AE093090AF092F81EF
:1017900038852D54364F39015B8010E0FC815F168F
:1017A000D0F02091B009129F112D1124B101812F89
:1017B0000E94C50A462F282F672F89859A850E9487
:1017C0002F0A29853A852F5F3F4F3A87298732E0D4
:1017D000C30ED11CAECFF30181913F01F601A08071
:1017E000A81ABB088180F3018781881A9908AA9CEE
:1017F0009001AB9C300D300D1124889CC001899C58
:10180000900D900D1124820F931F0E94EF05082F59
:101810006091B10921E0620F08F46FEFF301EE0F60
:10182000FF1FE35BF940858996890E94880A7C0145
:101830009401A501B101812FED81FE8109951B0164
:101840005394182FABCFCF92DF92EF92FF920F936A
:101850001F93CF93DF938C01C0914B0285E1C89F0A
:10186000C02D112425E1D22EDC0ECD2C26E62D151F
:1018700010F496E6C92E2091B10931E0230F08F447
:101880002FEF30E050E040E06FEF7FEF80E090E03E
:101890000E943D327901D0E02C2FCC1570F081E010
:1018A000F5E6FD1508F480E0DF91CF911F910F91CF
:1018B000FF90EF90DF90CF900895FE01EB5BFB4F20
:1018C000808190914C02892311F14091B3094150DC
:1018D000042E000C550B47FF1CC0C7016091B109D5
:1018E00021E0620F08F46FEF0E94880AAC0160915A
:1018F000AE097091AF098091B009F80109950E9475
:10190000C50A462F282F672FCE010E942F0A219645
:10191000C3CFFA01ED54F64F818982130AC0FA0150
:10192000EE0FFF1FED54F64F818D928D8E159F05A2
:10193000A8F241505109CFCFDF92EF92FF920F935F
:101940001F93CF93DF937C01C0914B0285E1C89F29
:10195000C02D112415E11C0F012F173608F006E6E3
:101960006091B1096695669521E0620F08F46FEF0A
:101970008091A9099091AA090E94880AD82ED0E0E6
:10198000C01760F081E0163608F080E0DF91CF915B
:101990001F910F91FF90EF90DF900895FE01EB5B98
:1019A000FB4F808190914C02892391F06091AE09A8
:1019B0007091AF098091B0092D2D4C2FF701099539
:1019C0000E94C50A462F282F672FCE010E942F0A9A
:1019D0002196D6CF9F92AF92BF92CF92DF92EF9295
:1019E000FF920F931F93CF93DF936C01C0914B0233
:1019F00085E1C89FC02D112415E11C0FB12E1736AB
:101A000010F036E6B32E6091B10966956695809127
:101A1000A9099091AA090E94880AF82E80E48F0DE6
:101A20000E94310A90E8A92EA80E8F2D0E94310A3B
:101A300020E8922E980ED0E0CB1580F081E016368B
:101A400008F080E0DF91CF911F910F91FF90EF9010
:101A5000DF90CF90BF90AF909F900895FE01EB5B19
:101A6000FB4F808190914C028923A1F06091AE09D7
:101A70007091AF098091B009EF2C0C2F292D4A2DC0
:101A8000F60109950E94C50A462F282F672FCE011F
:101A90000E942F0A2196D0CF7F928F929F92AF9271
:101AA000BF92CF92DF92EF92FF920F931F93CF934B
:101AB000DF935C01C0914B0285E1C89FC02D1124CA
:101AC00015E11C0FF12E173610F036E6F32E60915B
:101AD000B10966958091A9099091AA090E94880A86
:101AE000782ED0E0CF1590F081E0163608F080E037
:101AF000DF91CF911F910F91FF90EF90DF90CF90EA
:101B0000BF90AF909F908F907F900895FE01EB5B08
:101B1000FB4F808190914C028923C9F1CE01880F3F
:101B2000991F815E9C4FFC01E65AFF4F2081422F96
:101B30004A56550B6A01855A9F4FFC018081282F18
:101B40002052330B4901449F9001459F300D300DC9
:101B50001124889CC001899C900D900D1124820F46
:101B6000931F0E94EF05082F6091AE097091AF0995
:101B70008091B009E72C9401A601F50109950E9416
:101B8000C50A462F282F672FCE010E942F0A2196C3
:101B9000A9CFCF92DF92EF92FF920F931F93CF9333
:101BA000DF937C01C0914B0285E1C89FC02D1124B9
:101BB00015E11C0FD12E173610F036E6D32E6091AA
:101BC000B10966958091A9099091AA090E94880A95
:101BD000C82ED0E0CD1568F081E0163608F080E020
:101BE000DF91CF911F910F91FF90EF90DF90CF90F9
:101BF0000895FE01EB5BFB4F808190914C0289239D
:101C000011F1CE01880F991F815E9C4FFC01E55AAE
:101C1000FF4F20812052330B865A9F4FFC01408199
:101C20004A56550B6091AE097091AF098091B00989
:101C30000C2DF70109950E94C50A462F282F672F02
:101C4000CE010E942F0A2196C5CF4F925F926F92CC
:101C50007F928F929F92AF92BF92CF92DF92EF923C
:101C6000FF920F931F93CF93DF93982E762E35E438
:101C7000C32E34E0D32E49E7E42E43E0F42E10E0E7
:101C800000E0F60181916F018A70D9F1F70180813E
:101C9000282F2A56330B5901C181C052DD0BAA9C53
:101CA0009001AB9C300D300D1124CC9FC001CD9F15
:101CB000900D900D1124820F931F0E94EF056090EC
:101CC00065098090660932E07316A9F193E07916F0
:101CD000D1F1E3E08E9FC0011124F1E09595879545
:101CE000592C580E7F1202C0582E5918652D762D8A
:101CF000882D0E94C50A462F282F672FC8010E94F1
:101D00002F0A0F5F1F4F82E0E80EF11C0636110507
:101D100009F0B7CFDF91CF911F910F91FF90EF9016
:101D2000DF90CF90BF90AF909F908F907F906F90FB
:101D30005F904F900895582E5918B501CE010E941A
:101D40009D05581AD3CF24014918B501CE010E9430
:101D50009D05982F990F990F282F291B240D382D99
:101D6000239F212D1124822EC1CFAF92BF92CF92FB
:101D7000DF92EF92FF920F931F93CF93DF93B82ED2
:101D8000A62E25E4E22E24E0F22ECFE1D3E010E0EF
:101D900000E0C82ED12CF70181917F018A7009F4EF
:101DA0003BC07091650980916609F2E0AF1609F4B5
:101DB00045C023E0A21609F447C031E06B2DA316FD
:101DC00019F1FE01E65AFF4F208134EE239F212DA9
:101DD0001124482F50E030E0245E3F4F2C193D097C
:101DE00037FF03C031952195310993E0220F331F4E
:101DF0009A95E1F7421B530B57FD40E0282F429F75
:101E0000412D11246B2D842F0E94C50A462F282FA7
:101E1000672FC8010E942F0A0F5F1F4F22960636B8
:101E2000110509F0B8CFDF91CF911F910F91FF906D
:101E3000EF90DF90CF90BF90AF900895FE01E65AEB
:101E4000FF4F60816B19E0CFFE01E55AFF4FF9CFDC
:101E500080E00895F894E82FE295EF70F0E031A16A
:101E6000282F2F7081E090E001C0880F2A95EAF7B3
:101E7000982F9095932391A392A1892B82A3789474
:101E800008958238910591F1C0F58133910509F4E7
:101E900090C028F58932910509F484C08A329105F1
:101EA00009F48EC0811520E5920708F09EC08115C7
:101EB00040E4940708F022C18F3B910508F087C0E9
:101EC000883A910508F00FC1853A910508F002C1E2
:101ED0008430910500F581309105E9F03CC08533EF
:101EE000910509F458C089339105E1F620917309F1
:101EF000237089F080EE90E00895833E910571F1A2
:101F000058F4803E9105E9F0823E910559F6209102
:101F1000730922FD1EC00895863E910551F1873E4A
:101F2000910571F1843E910509F0BCCF20917409AF
:101F300021FFF1CF8091730984FD0DC087EE90E001
:101F400008952091730920FD05C13091740930FF77
:101F5000E2CF24FF02C190E080E0DDCF2091730941
:101F600022FDFEC03091740930FDC4CF24FFD3CFD1
:101F7000F2CF2091730923FFCECF24FDECCFDECF2B
:101F80002091730923FDEFC03091740931FFEECF2A
:101F900084EE90E008952091730925FFBCCF89E27B
:101FA00090E008952091730925FFB5CF85E390E077
:101FB00008952091730926FFAECF8AE290E008953C
:101FC0002091730926FFA7CF81E390E00895803E1A
:101FD000910508F2883E910508F49DCF9C013A9541
:101FE00021153F4108F497CFB6CF811523E592071D
:101FF00040F5811542E5940708F088C0811521E578
:10200000920708F07EC09C0164E0369527956A959A
:10201000E1F7922F9370282F26952695237040E2A2
:10202000249F90011124392B482F437081E090E0C8
:1020300002C0880F991F4A95E2F7822B932B9C6868
:102040000895811549E59407F0F4811528E5920774
:1020500008F06DC0811544E5940708F07CCFAC0111
:102060004370552721E030E002C0220F331F4A950C
:10207000E2F78695869540E2849FC0011124822B69
:10208000932B9A68089581152AE5920708F063CF8B
:10209000282F2F704091730942FF05C083FF4CC069
:1020A000282F277024603091740930FF07C0322F29
:1020B0003871383009F046C0277F216044FD277E03
:1020C00034E0969587953A95E1F78F70982F822F97
:1020D00090690895855AE82FF0E0EA58FD4F808115
:1020E00090E090640895885AE82FF0E0EE0FFF1F0B
:1020F000E758FD4F80819181946408959F70906AA4
:102100000895982F8827816F906A0895AC014370D5
:10211000552721E030E002C0220F331F4A95E2F735
:102120008695869540E2849FC001112486CF982F22
:102130008827806F906A089582FFB5CF282F2B7073
:102140002860B1CF322F3171313009F0B7CF2E7FF7
:102150002860B4CF89E390E0089583EE90E008957D
:1021600082EE90E0089586EE90E0089590914A0204
:102170009923D1F09091730997FF16C0E82FE69547
:10218000E695E695EE31E0F4F0E0E255FB4F282FBE
:10219000277081E090E001C0880F2A95EAF78095CA
:1021A0009281892382830895E0EBF4E09191891371
:1021B00003C0DF0111971C9294E0E63BF907B1F7E9
:1021C000089590914A029923C1F09091730997FF65
:1021D00014C0E82FE695E695E695EE31F8F4F0E0C8
:1021E000E255FB4F877021E030E001C0220F8A9555
:1021F000EAF78281822B82830895A0EBB4E0EFEFAF
:1022000090E02D91821751F0EF3F19F4211101C098
:10221000E92F9F5F9630A9F7EF3F09F408950E2E3E
:10222000000CFF0BE255FB4FE6CF2FE0929F800D95
:102230001124982F977086958695869523E0829F26
:10224000F0011124E253FB4F50E040E080E0219187
:1022500030E0092E02C0369527950A94E2F72170E6
:102260003327042E01C0220F0A94EAF7822B4F5F16
:102270005F4F4330510559F708952FE0929F800D2D
:102280001124982F977041E001C0440F9A95EAF706
:1022900086958695869593E0899FF0011124E253F7
:1022A000FB4F90E080E070E05191DF0111979B01BE
:1022B000082E02C0369527950A94E2F721702195E1
:1022C0002527242325272C9301968330910561F738
:1022D00008958093750970937709609376098091CA
:1022E0009E09843001F586E08093E9008FEF90919C
:1022F000E800815095FD06C095ED9A95F1F7000034
:102300008111F5CF8091E80085FF0DC050E040E0DD
:1023100063E070E085E799E00E94F0038091E800B7
:102320008E778093E8000895BC0184E00C946911D5
:10233000BC0183E00C946911CF93DF93EC01809191
:102340004A028823B1F18091730987FF32C060E2AD
:1023500086E08093E9008FEF9091E800815095FD31
:1023600006C095ED9A95F1F700008111F5CF8091A7
:10237000E80085FF1BC080914A0270E050E040E019
:10238000811104C050E040E068E070E0CE010E949E
:10239000F0038091E8008E778093E80080E2FE01F0
:1023A000ACE7B9E001900D928A95E1F7DF91CF910A
:1023B000089568E081E0CDCF81E08093E00080E285
:1023C0008093D8001092C9008FE19EE40197F1F745
:1023D00000C0000087E090EBDC018093DC09909363
:1023E000DD09A093DE09B093DF0988E19CE00FB618
:1023F000F894A895809360000FBE90936000FFCF83
:10240000239A35B1377F25B128604FB7F89481E31F
:1024100098E0FC015191CF0168E025B9000000C0AF
:1024200057FF35B9550F000000C000C000C035B9D6
:1024300000C06A9591F7F9E083369F0751F74FBFC7
:102440008FE594E00197F1F700C000000895CF9365
:10245000DF93C7EFD2E060E0CE010E9419322196EF
:10246000C11584E0D807B9F7DF91CF9108956F9235
:102470007F928F929F92AF92BF92CF92DF92EF9214
:10248000FF920F931F93CF93DF938DE4C82E83E0C9
:10249000D82E99EFE92EF12CE701C45BD109360162
:1024A0001BC0F50185909490692DC8010E941932D6
:1024B000682DC80101960E94193282E0A80EB11C55
:1024C0000E5F1F4FC017D10761F78EE1680E711CB8
:1024D0006E96CE15DF0529F08E010E5111095301BC
:1024E000E0CF7E0184EBE80EF11C84EBC80ED11C1A
:1024F00089ECE81683E0F80679F6DF91CF911F9119
:102500000F91FF90EF90DF90CF90BF90AF909F9092
:102510008F907F906F900895609149028FE090E0D6
:102520000C9419328091AD0980FF0AC09091490244
:10253000892F8D7F91FF8260809349020C948C12C9
:1025400008958091AD0980FF0AC090914902892FBA
:102550008E7F90FF8160809349020C948C120895C5
:10256000CF93C82F6FEF811162E283E290E00E9467
:1025700019326FEFC11162E084E290E00E941932DB
:102580006FEFC11164E285E290E0CF910C941932B3
:1025900080E00E94B01260E086E290E00E94193272
:1025A0000E9437120E94271281E00C94B0120F9300
:1025B0001F93CF93DF93C42FD0E0CC0FDD1F2EE10C
:1025C000629FC00DD11D112434EB839FC00DD11D1E
:1025D0001124CE0187960E94FB31082F10E0102FA6
:1025E0000027CE0188960E94FB319801282BC90153
:1025F000DF91CF911F910F910895462F843038F4C9
:10260000763028F46F3018F4672F0C94D71290E0CE
:1026100080E00895CF92DF92FF920F931F93CF93A4
:10262000DF936C010091A80980911305082BC7E086
:10263000D0E010E0FC2EC8010C2E02C095958795C5
:102640000A94E2F780FD0CC02197A0F7F12C8F2DA2
:10265000DF91CF911F910F91FF90DF90CF90089560
:10266000B6018C2F0E94FD120E94410F019761F369
:10267000EECF83E290E00E94FB31823289F484E263
:1026800090E00E94FB31823059F485E290E00E9494
:10269000FB3191E0843209F090E0892F8170089538
:1026A00080E0FCCF45E050E060E170E083E699E037
:1026B0000C9409328091AD0980FF09C080916309B3
:1026C000815009F48CE0809363090C9452130895AF
:1026D0008091AD0980FF0AC0809163098F5F8D30C2
:1026E00008F081E0809363090C945213089580915F
:1026F000AD0980FF05C081E0809363090C945213FB
:102700000895E3E6F9E081E0808380914E029091A4
:102710004F02A091500281839283A3838FE7848329
:102720000C945213EDEAF9E08BE1808380914E0224
:1027300090914F02A091500281839283A3838FE7EF
:1027400084838FEF858346E050E06CE170E0CF0139
:102750000E9409321092300808951F93CF93DF939F
:10276000EC01FC01EB5BFB4F80816823C9F00E9408
:10277000C531182F0E94C5318F77782F20E8720F4E
:1027800008F47FEF612F8091B0090E94C50A462F9F
:10279000282F672FCE01DF91CF911F910C942F0A24
:1027A000DF91CF911F910895DF92EF92FF920F93E7
:1027B0001F93CF93DF938C01FC01EB5BFB4F808178
:1027C000682381F1D090AF09D091B009C091AE09D2
:1027D000EC2EF12C0E94C531282FC7018C549F4F3D
:1027E00068E671E00E9458318E199F0997FD0396A3
:1027F000959587959595879523706C2F289F600DEB
:1028000011247D2D8D2F0E94C50A462F282F672F5A
:10281000C801DF91CF911F910F91FF90EF90DF9052
:102820000C942F0ADF91CF911F910F91FF90EF90A1
:10283000DF9008953F924F925F926F927F928F92B6
:102840009F92AF92BF92CF92DF92EF92FF920F933F
:102850001F93CF93DF93782E80914502871125C077
:102860008091AD09282F217030E09091440281E0E1
:102870009217130609F480E0817080934D028091D5
:10288000B20990914C02981739F080934C0240E0C5
:1028900060E080E00E942D0A22E3271560F0E72D1A
:1028A000F0E0E25CFB4C0C946C3181E0E5CF809170
:1028B0004D02811126C0C0E080914B028F5F809352
:1028C0004B02C1110CC082E08093480280914D02FE
:1028D000811105C0711003C083E080934802DF912D
:1028E000CF911F910F91FF90EF90DF90CF90BF900D
:1028F000AF909F908F907F906F905F904F903F90A0
:10290000089540E060E080E00E942D0AD4CFC0919D
:102910004B0285E1C89FC02D112415E11C0F012F2A
:10292000173608F006E66091AE097091AF09809104
:10293000B0090E94C50AF62EE72ED82ED0E0C017A7
:1029400028F0C1E0163608F4B7CFB5CFFE01EB5B37
:10295000FB4F808190914C02892331F02D2D4F2D1A
:102960006E2DCE010E942F0A2196E9CFC0914B0215
:1029700085E1C89FC02D112415E11C0F012F1736CA
:1029800008F006E6E090AF09F090B009D091AE09EA
:102990006D2F7E2D8F2D0E94C50AD62EC72EB82EE4
:1029A0006091B1096D0F7E2D8F2D0E94C50AF62E04
:1029B000E72EA82ED0E0C01720F6FE01EB5BFB4F00
:1029C000908180914C02892359F02A2D4F2D6E2D34
:1029D00090FD03C02B2D4D2D6C2DCE010E942F0A92
:1029E0002196E9CFC0914B0285E1C89FC02D1124EB
:1029F00015E11C0FF12E173610F0B6E6FB2EE09015
:102A0000AF09D090B0092091B10900E4029F012DD7
:102A10001124D0E0CF1508F094CFFE01EB5BFB4F03
:102A2000808190914C028923B9F0FE01EE0FFF1FC7
:102A3000E658FC4F808182958F706091AE09809F2F
:102A4000600D11247E2D8D2D0E94C50A462F282F42
:102A5000672FCE010E942F0A2196DCCFC0914B0236
:102A600085E1C89FC02D112415E11C0FF12E1736EA
:102A700010F0F6E6FF2EE090AF09D090B00920915B
:102A8000B10900E4029F012D1124D0E0CF1508F018
:102A900058CFFE01EB5BFB4F808190914C02892364
:102AA000D9F0FE01EE0FFF1FE758FC4F6081069F33
:102AB000B0011124E5E075956795EA95E1F78091FD
:102AC000AE09680F7E2D8D2D0E94C50A462F282F36
:102AD000672FCE010E942F0A2196D8CFC0914B02BA
:102AE00085E1C89FC02D112415E11C0F012F173659
:102AF00008F006E6F090AE09D091AF09E090B00979
:102B00006091B1096695669566958091A909909145
:102B1000AA090E94880A0E94310A805887FD81957F
:102B2000880F282F3E2D239F212D1124822F6F2DBA
:102B30007D2F0E94C50AF62EE72ED82ED0E0C017B2
:102B400008F0FFCEFE01EB5BFB4F808190914C02C1
:102B5000892331F02D2D4F2D6E2DCE010E942F0A8D
:102B60002196EDCF84E09AE00E949C0CC82FA4CE61
:102B70008AED99E0F9CF8CEB99E00E94C90DF6CF70
:102B80008DE999E0FACF82E899E00E944C0DEECFF2
:102B900086E699E0FACF84E699E0E6CF8BE599E006
:102BA000E3CF82E599E0E0CF89E399E0DDCF8BE2E6
:102BB00099E0EBCF83E099E0E0CF82EF98E0DDCFC2
:102BC0008EED98E0E2CF81EB98E00E94EA0CCECF48
:102BD00083E898E0FACF8CE498E0F7CFC0914D02FB
:102BE000C1111EC06091B10920E1620F08F46FEFBE
:102BF0008091A9099091AA090E94880A6AE070E070
:102C00000E944431892B09F056CE0E94C53166E6F8
:102C100070E00E94583160914C020E94D4134CCE57
:102C2000C0914B0285E1C89FC02D112455E1F52EBE
:102C3000FC0E0F2D66E66F1508F406E6D0E010E0F6
:102C4000C017D10734F0C1E085E68F1508F034CE07
:102C500032CE60914C02CE010E94D4132196F0CF67
:102C6000C0914D02C1111EC06091B10920E1620FF7
:102C700008F46FEF8091A9099091AA090E94880A2F
:102C800065E070E00E944431892B09F014CE0E9467
:102C9000C53166E670E00E94583160914C020E9496
:102CA000AD130ACEC0914B0285E1C89FC02D1124FF
:102CB00045E1F42EFC0E0F2D96E69F1508F406E66E
:102CC000D0E010E0C017D10734F0C1E0A5E6AF15A1
:102CD00008F0F2CDF0CD60914C02CE010E94AD1310
:102CE0002196F0CFC0914B0285E1C89FC02D1124E1
:102CF00015E11C0F012F173608F006E6E090AF092A
:102D0000F090B009D091AE096091B10966956695D1
:102D100066958091A9099091AA090E94880A0E944B
:102D2000310A805887FD8195880F682F2CE0629FBB
:102D3000612D11246D0F7E2D8F2D0E94C50AF62E58
:102D4000E72ED82ED0E0C01708F0FBCDFE01EB5BDC
:102D5000FB4F808190914C02892331F02D2D4F2D16
:102D60006E2DCE010E942F0A2196EDCF80E59AE0CC
:102D7000FBCE8BE398E0F8CE40917E0550917F0525
:102D800060918005709181058091A9099091AA09AF
:102D9000A091AB09B091AC0984179507A607B707B6
:102DA00008F489CD0E94730A182F0E94730A96E6D0
:102DB000891BF0F7890FC82FD0E0FE01EB5BFB4FBA
:102DC00080914C029081892309F478C020E040E092
:102DD00060E011FD13C00E94730A182F0E94730A4D
:102DE000782F76952FE7720F08F47FEF612F80918F
:102DF000B0090E94C50A462F282F672FCE010E94D6
:102E00002F0A2091B10930E1230F08F42FEF60E180
:102E1000822F90E00E94880ABC0184EF91E00E941A
:102E200044318091A9099091AA09A091AB09B09170
:102E3000AC09860F971FA11DB11D80937E0590934D
:102E40007F05A0938005B093810535CD4091B406F0
:102E50005091B5066091B6067091B7068091A909A8
:102E60009091AA09A091AB09B091AC09841795077C
:102E7000A607B70708F41FCD80914D02811120C02D
:102E8000C0914B0285E1C89FC02D112415E11C0F94
:102E9000012F173608F006E6EC2EF12CE3E0CE9F6A
:102EA000E0011124CE57DA4FE01608F444C0E2E8FE
:102EB000F5E081EB96E0163608F056C0C1E0FCCC98
:102EC00040E060E080E00E942D0A02E815E0D0E0DA
:102ED000C0E03FE7D32E0E94730A81FF0EC0D801E5
:102EE0001C9211961C92119712961C9221960D5FBE
:102EF0001F4FC636D10579F7C3CF0E94730AC82E7B
:102F00000E94730A8695782F2D2D720F08F47FEF9B
:102F1000CE01880F991F8C0F9D1FDC01AE57BA4F51
:102F20007D016C2D8091B0090E94C50AF701608374
:102F300071838283DBCFF701EB5BFB4F8081909144
:102F40004C02892331F02A8148816981C7010E949E
:102F50002F0A2396FFEFEF1AFF0AA6CF23813481B1
:102F600045812193319341938E179F07B9F70E94B2
:102F7000730A81FF1FC01092B1061092B206109220
:102F8000B3060E94B20A0091A9091091AA092091E2
:102F9000AB093091AC09DC01CB01800F911FA21F5E
:102FA000B31F8093B4069093B506A093B606B09372
:102FB000B70681CC0E94730AC82F0E94730A8695B7
:102FC000782F2FE7720F08F47FEF6C2F8091B009F4
:102FD0000E94C50A6093B1067093B2068093B3064F
:102FE000D0CF409112075091130760911407709150
:102FF00015078091A9099091AA09A091AB09B091F8
:10300000AC0984179507A607B70708F454CC80913C
:103010004D02882329F040E060E080E00E942D0A04
:103020006091AE097091AF098091B0090E94C50A04
:10303000962E872E682EC8EBD6E09FE1C92E93E02E
:10304000D92E0EE010E078012EE0E21AF108512CA2
:1030500097012854394F5901F701E15EFC4F8081F7
:1030600090E0D9012C91222309F474C0262D492D1A
:10307000682D0E942F0AF501818180835394FFEF10
:10308000EF1AFF0A26E05212E3CF78018EE0582EA5
:10309000C7018854994F5C01F701E15EFC4F8081C4
:1030A00090E0D5012C91222309F458C0262D492DFA
:1030B000682D0E942F0AF50131978081F5018083E8
:1030C0005A94F1E0EF1AF10827E05212E1CFD6014D
:1030D00017968C9190E02F81222309F443C0262D6E
:1030E000492D682D0E942F0AF601868190E02E81DD
:1030F0002223E1F1262D492D682D0E942F0A0E94DE
:10310000730A837091E009F090E09E839F832F966D
:10311000FFE0CF0ED11C015F1F4F0836110509F0EB
:1031200092CF0E94B20A0091A9091091AA09209198
:10313000AB093091AC09DC01CB01800F911FA21FBC
:10314000B31F8093120790931307A0931407B093B3
:103150001507B1CB20E040E060E08BCF20E040E0FD
:1031600060E0A7CF20E040E060E0BCCF20E040E09E
:1031700060E0C3CFC0914B0285E1C89FC02D1124F0
:10318000D5E15D2E5C0E152D3AE5351508F41AE5EE
:1031900080914D02882361F040E060E080E00E9471
:1031A0002D0AEAE1F7E08AE5DF011D928A95E9F749
:1031B00080914B02811120C0209117073091180790
:1031C0004FB7F89480916F0990917009A09171099F
:1031D000B09172094FBF821B930B21E0823391059E
:1031E00008F420E020931607C29730F00E9459059A
:1031F0009093180780931707D0E0E12EF12CF6E0AA
:103200008F2E912CAFE04A2EBAEA3B2ECE15DF0569
:1032100034F0C1E0B9E5B51508F04ECB4CCBCE018A
:10322000B4010E9458316B015C014A9CC0014B9C67
:10323000900D1124FC01E65EF84FE60FF71F608049
:10324000815E9C4FFC01E60FF71F00810F3F51F19B
:1032500010E0F801EB5BFB4F808190914C028923D9
:1032600009F1362D25E5321B08F430E07091AF09E5
:10327000232D462D240F08F42FEF4091B009822F03
:10328000880F820F8E5F682F649F612D1124862F17
:10329000632D631B0E94C50A462F282F672FC80184
:1032A0000E942F0A80911607882381F0262D31E095
:1032B000231B08F420E04A9CC0014B9C900D112474
:1032C000865E984FC80ED91ED6012C9321969ECFAC
:1032D00080914D02882371F040E060E080E00E9420
:1032E0002D0AEAE1F7E08AE5DF011D928A95E9F708
:1032F000109219070AE117E0F12CE12C55245A9499
:1033000060ED862E912C70EC472EEFE2AE2EB12CA4
:103310006701E801612C809119078629C9F50E948F
:10332000C53185359540A4F5F8015082F601E15E7E
:10333000FC4FE081EF3F99F02881F0E0213D70F1F2
:10334000205D330B429EC001439E900D1124B501B8
:103350000E944431262F4FEFCF010E942F0A639421
:103360002F96FFE0CF0ED11C26E06212D4CF3FEFA4
:10337000E31AF30A0F5F1F4F4FE0E416F10441F622
:10338000809119078F5F8D3198F48093190793CA44
:10339000888181508E3F50F68883C8CF259DC0011B
:1033A0001124B4010E944431462F20E060E0D4CFC4
:1033B0001092190746E557E025E03EEFFA018AE151
:1033C00097E0253039F4DC01A55BBF4F6C916F3F6E
:1033D00009F43C9361916F3F21F4DF0111973C9315
:1033E0006687019667E08932960759F721504F505A
:1033F00051092111E3CF5FCA84E398E00E94230CB6
:10340000B5CB8EE298E0FACF8091B30921E0382F56
:10341000321B08F430E0832F65E178E00E94590BFD
:10342000A5CB65E178E080E0F9CF8091B30921E098
:10343000482F421B08F440E0842F6AED77E0EECF7E
:103440006AED77E0F0CF8091B30921E0682F621B2D
:1034500008F460E0862F68EA77E0E0CF68EA77E07A
:10346000E2CF8091B30921E0382F321B08F430E01D
:10347000832F60E977E0D2CF60E977E0D4CF809105
:10348000B30921E0482F421B08F440E0842F6AE78B
:1034900077E0C4CF6AE777E0C6CFC0914B0285E101
:1034A000C89FC02D112455E1F52EFC0EEF2C66E6C9
:1034B0006F1510F446E6E42E0C2F10E083E0C89F51
:1034C000E0011124CE5EDE4F0E1530F0C1E095E62E
:1034D0009F1508F0F1C9EFC96091B00970E090E064
:1034E00080E00E94413320E030E04FE753E40E9447
:1034F000A0324B015C016A8170E090E080E00E94A4
:103500004333A50194010E94CF330E941233D62E7B
:10351000688170E090E080E00E944333A50194014F
:103520000E94CF330E941233C62E698170E090E072
:1035300080E00E944333A50194010E94CF330E9492
:1035400012332D2D4C2DC8010E942F0A23960F5F98
:103550001F4FBACF8091A9099091AA09A091AB09F8
:10356000B091AC094091FB075091FC076091FD07B9
:103570007091FE0784179507A607B70708F49BC943
:10358000C090B10920914D0221110E94CA31C09111
:103590004B0285E1C89FC02D112435E1D32EDC0EEE
:1035A0000D2DA6E6AD1508F406E6D0E010E0C01734
:1035B000D1074CF0E5E6ED1580F1C1E0F5E6FD152B
:1035C00008F07AC978C97E01BFEFEB1AFB0AC70180
:1035D000CA32D10508F4CE01FC01EB53F84F20812B
:1035E0002223B9F07091AF09880F991FFC01E758A9
:1035F000FC4F6091AE098081680F8091B0090E94F4
:10360000C50A462F282F672FCE010E942F0AE701F7
:10361000CECF20E040E060E0F7CF6C2D70E080E995
:1036200091E00E9458312FE7269FC001279F900DFF
:103630001124092E000CAA0BBB0B4091A909509133
:10364000AA096091AB097091AC09840F951FA61F60
:10365000B71F8093FB079093FC07A093FD07B093DF
:10366000FE0701EC17E02DEA37E0F80184E0DF0106
:1036700014979C9191938150D1F7E80124972C17CE
:103680003D0711F08E01F1CF8091AB078093AC071D
:103690008091AA078093AB0782E0E82EF12C0E946C
:1036A000C531B7010E9458318993C017D107B9F7C6
:1036B0000E94C531B7010E9458318093AA076AE77A
:1036C00077E0FB0150E040E09A0194E0D901A35576
:1036D000B84FAC91EF01C20FD31FAC8BE901C658B4
:1036E000D84FA88F91502F5F3F4F9111EFCF4C5F74
:1036F0005F4F38974831510539F7809376078093AB
:1037000077078091AB07809378072091AC07809171
:10371000AB079091AC079827892798279093750756
:1037200080937407209379078CE094EF980FFB0146
:10373000A92FB0E0AB53B84F20812C939F5F3496F4
:103740008913F6CF845F6F5F7F4F8C3371F7E4E7A7
:10375000F7E0A5EFB7E08AE797E021912D938E1768
:103760009F07D9F72ACF82E99AE048CE6EE577E045
:103770005ACE6BE177E057CE6BEE76E054CE8F9267
:103780009F92AF92BF92CF92DF92EF92FF920F93F0
:103790001F93CF93DF938091280890912908A091DF
:1037A0002A08B0912B082FB7F89480906F09909059
:1037B0007009A0907109B09072092FBF7501640162
:1037C000C81AD90AEA0AFB0A2FB7F89440916F0980
:1037D0005091700960917109709172092FBF4093E7
:1037E00028085093290860932A0870932B08109199
:1037F000FF07EFEFF7E0C12FD0E00197AF4FBF4FCA
:1038000088199909AA09BB091D1329C0C093FF078C
:1038100080912F08C0E0811108C08091AD09C82FA8
:10382000C17080FF02C0C82FC695809148028130C8
:1038300009F43FC0882331F1823009F4E0C18330BC
:1038400009F4ECC1DF91CF911F910F91FF90EF90A0
:10385000DF90CF90BF90AF909F908F900895218D73
:10386000328D4901B12CA12C88159905AA05BB05FB
:1038700020F4C150DF5F3296C7CF2C0D3D1D328F33
:10388000218FF8CF10924B024093A9095093AA09B7
:103890006093AB097093AC0989E2EFEFF7E0A3EB1B
:1038A000B9E001900D928A95E1F781E0809348029A
:1038B000C9CF8C2F0E941A14CC2321F260E07FEF35
:1038C0008091B0090E94C50A8B01F82E0E949105D3
:1038D00081FD19C0E0916309F0E0EA50FD4FE081FD
:1038E000E250EB3008F04EC0F0E0EF58FB4CA091F6
:1038F00067092091A9093091AA094091AB0950911B
:10390000AC090C946C31D0E0C0E02F2D402F612F1A
:10391000CE010E942F0A2196C830D105B1F7DACF27
:10392000D0916409C091650910916609A695A69584
:10393000A695B0E00E945C32872F0E94D005805887
:1039400087FD8195880F282F219F212D1124822FFB
:103950006D2F7C2F0E94C50AF62EE72ED82E05E487
:1039600014E0D0E0C0E0F80181918F018A7031F05D
:103970002D2D4F2D6E2DCE010E942F0A2196C63679
:10398000D10589F705E414E0D0E0C0E0F801919199
:103990008F018091490291FF25C181FF27C120E05D
:1039A00040E060E0CE010E942F0A20C1A695A695B6
:1039B000A695B0E00E945C32872FC09165091091F6
:1039C00066090E94D005805887FD8195880F282FB1
:1039D000219F212D1124822F90914702992371F06C
:1039E00020932E0820912D0820932C08285F2093E7
:1039F0002D0821E09227909347020DC09091460236
:103A000020912E08821718F1992309F434C121E07E
:103A100092279093460260912C087C2F0E94C50A41
:103A2000F62EE72ED82E05E414E0D0E0C0E0F80131
:103A300081918F018A7031F02D2D4F2D6E2DCE0189
:103A40000E942F0A2196C636D10589F79BCF982B65
:103A500011F791E090934602CECFA695A6956A2FD6
:103A600071E0670F08F46FEFA62FB0E00E945C32A0
:103A7000872F60E00E94B50E85CFA695B0E00E942A
:103A80005C32872F63E00E94250E7CCFA695A69519
:103A90006A2F71E0670F08F46FEFA62FB0E00E9465
:103AA0005C32872F61E0E6CFA695A6956A2F71E07C
:103AB000670F08F46FEFA62FB0E00E945C32872FEB
:103AC00062E0D8CFA695A6956A2F71E0670F08F43B
:103AD0006FEFA62FB0E00E945C32872F63E0CACF61
:103AE000A695B0E00E945C32872F60E0CCCFA6950F
:103AF000B0E00E945C32872F61E0C5CFA695A69505
:103B0000B0E00E945C32C72ED82EE92EFF2480E45C
:103B10008C0D0E94D005F0E89F2E980E8C2D0E94EF
:103B2000D0058058A5E4AA2EA4E0BA2E09E713E038
:103B3000D0E0C0E0E92C990CFF08B8E38B2E912C63
:103B4000C82E880FDD08F50181915F018A7009F4A4
:103B50003AC04091650980916609F80190819A56B2
:103B600097FD919521812052330B2E9DB0012F9D01
:103B7000700D3E9D700D1124F401E91BF10997FDB4
:103B8000F395EC9D9001ED9D300DFC9D300D1124C1
:103B9000260F371FB901660F771F620F731F77FF5C
:103BA00002C061587F4F660F672F661F770B909199
:103BB0006409690F742F0E94C50A462F282F672FAA
:103BC000CE010E942F0A21960E5F1F4FC636D105E7
:103BD00009F0B9CFD7CEA695B0E00E945C32872F0E
:103BE00062E051CF93FF08C082FDD9CE2196C63640
:103BF000D10509F0CBCE26CE80FFF8CFD0CE8C2FCA
:103C0000DF91CF911F910F91FF90EF90DF90CF90B8
:103C1000BF90AF909F908F900C94DE0680913008FB
:103C2000882351F046E050E06CE170E08DEA99E0C5
:103C30000E940932109230084091A9095091AA09B6
:103C40006091AB097091AC092FB7F89480916F091E
:103C500090917009A0917109B09172092FBF841BD6
:103C6000950BA60BB70B4097A105B10508F4EACD5B
:103C700010924802E7CD882309F4EBCECCCE4F92C8
:103C80005F926F927F928F929F92AF92BF92CF92EC
:103C9000DF92EF92FF920F931F93CF93DF93CDB7F5
:103CA000DEB72C970FB6F894DEBF0FBECDBF8E01E6
:103CB0000F5F1F4F8CE0F80111928A95E9F797EAA0
:103CC000E92E92E0F92E68012DEA422E22E0522ED2
:103CD00066246394712C4CEB842E42E0942EF70101
:103CE00081917F018F3F09F445C0F894E82FE29558
:103CF000EF70F0E021A18F70A30102C0440F551FA7
:103D00008A95E2F7CA01922F982B91A392A18095F0
:103D1000892382A3789400C0EDEAF2E021E030E04C
:103D2000B12CA12C41914F3F09F491C0A42FA29531
:103D3000AF70B0E090968C9190E04F7002C0959576
:103D400087954A95E2F780FD82C0C901A82AB92A61
:103D5000220F331F8E169F0629F7F70131978081B6
:103D60008F3F11F00E942A0F50EA5A95F1F7F601A1
:103D7000B182A082F2E0CF0ED11C4E145F0409F094
:103D8000AECF4CE050E0B80187E195E00E94D5311C
:103D9000FF24F394009709F4F12C892B09F45AC0FD
:103DA0008CE0F801A7E1B5E001900D928A95E1F76A
:103DB00081E0809316050E94590590931505809324
:103DC000140520911405309115054FB7F894809192
:103DD0006F0990917009A0917109B09172094FBF5C
:103DE000821B930B0597D0F18091170590911805D0
:103DF00090933205809331058091190590911A05B1
:103E0000909334058093330580911B0590911C0598
:103E1000909336058093350580911D0590911E0580
:103E2000909338058093370580911F059091200568
:103E300090933A0580933905809121059091220550
:103E400090933C0580933B051092160507C090E0C7
:103E500080E07CCF809116058111B3CF8F2D2C96F9
:103E60000FB6F894DEBF0FBECDBFDF91CF911F918B
:103E70000F91FF90EF90DF90CF90BF90AF909F9009
:103E80008F907F906F905F904F900895CF93C091E7
:103E9000790980911205C82BC093AE0440E250E02E
:103EA00062EF74E08EEA94E00E94D531892B19F11B
:103EB00080E2EEEAF4E0A2EFB4E001900D928A9580
:103EC000E1F7E0916A09F0916B093097A1F08091D8
:103ED0004A02882349F08091730987FF05C0C09387
:103EE000AF0486E08093AE040280F381E02D8EEA79
:103EF00094E0CF910994CF91089590E080E00E94E2
:103F00007B0590E080E00E946505109212050C94FC
:103F1000461F8093A8090C947D1F8091A809982FB3
:103F20009670963019F488600C94891F877FFCCFB7
:103F3000809313050C947D1F80914A02E0EBF4E01E
:103F4000882359F08091730987FF07C08EE1DF0154
:103F50001D928A95E9F70C947D1F86E0F8CF1F9398
:103F6000CF93DF93CDB7DEB7AA970FB6F894DEBF35
:103F70000FBECDBF80EA99E02091F100DC012D93C6
:103F8000CD01B9E0883A9B07B9F78091A109833048
:103F900009F472C0B8F4813009F449C0823009F4E0
:103FA000B5C08091E80083FF98C28091A0099091EC
:103FB000A1099A3008F091C2E92FF0E0E458FB4CD7
:103FC0000C946C318A3009F490C08B3009F471C0C4
:103FD000893039F78091A009813219F78091A409BD
:103FE0009091A509009711F00397D9F68091E80008
:103FF000877F8093E8008091E80082FF38C090912D
:10400000F3008091F200029731F48091F100813049
:1040100011F0863021F48091F10080937B0980912A
:10402000E8008B778093E8000E944404BACF809127
:10403000A009813A09F0B5CF8091E800877F80938D
:10404000E8008091A4099091A509892B61F460E2B0
:104050008CE799E070E00E94F6048091E8008B778D
:104060008093E8009ECF60E090E080E0F3CF809105
:104070009E098111C0CF95CF8091A009813A09F0A6
:1040800090CF8091A4099091A509892B09F089CF3F
:104090008091E800877F8093E8008091E80080FFAE
:1040A000FCCF80914A028093F1008091E8008E77E6
:1040B000B9CF8091A009813209F073CF8091A40912
:1040C0009091A509892B09F06CCF8091E800877F3A
:1040D0008093E8000E9444048091A20980934A02E0
:1040E000109279090E949C1F5CCF8091A0098132B7
:1040F00009F057CF8091E800877F8093E8000E9405
:1041000044048091A30980937A094BCF8091A00940
:10411000813A09F046CF8091E800877F8093E800DC
:104120008091E80080FFFCCF80917A09BCCF803875
:1041300099F0823809F0D1C18091A4098F7087303D
:1041400008F0CBC18093E9008091EB0085FB8827C4
:1041500080F91092E90006C080919C0990919D0918
:10416000911182609091E800977F9093E80080938E
:10417000F1001092F1008091E8008E77AAC18823A7
:1041800009F498C1823009F0A8C18091A209811177
:104190009BC18091A4098F702FEF280F263008F063
:1041A0009CC18093E9002091EB0020FF8DC19330EA
:1041B00031F48091EB0080628093EB0085C1909197
:1041C000EB0090619093EB0021E030E001C0220F02
:1041D0008A95EAF72093EA001092EA008091EB00BA
:1041E0008860EACF811179C11091A2091F7780916F
:1041F000E3008078812B8093E3008091E800877F43
:104200008093E8000E9444048091E80080FFFCCF86
:104210008091E30080688093E30082E0111183E0E5
:1042200080939E095AC18058823008F056C120916F
:10423000A2093091A3092C3DE3E03E07A1F583E0FC
:104240008A838AE289834FB7F894DE01139620E0CF
:104250003EE051E2E32FF0E050935700E49120FF5D
:1042600003C0E295EF703F5FEF708E2F90E0EA3071
:10427000C0F0C7968D939D932F5F243159F74FBFA0
:104280008091E800877F8093E8006AE270E0CE01C9
:1042900001960E94F6048091E8008B778093E800F5
:1042A0001CC1C096E7CF8091A4099091A509432F26
:1042B00055274330510509F44AC078F5413051057E
:1042C00009F47AC08BE790E0EDE1F6E04230510569
:1042D00009F003C12091E800277F2093E800209196
:1042E000A6093091A7098217930708F49C0140E0C2
:1042F0002115310509F065C0411163C08091E800C6
:1043000082FDC9CF80919E09882329F2853019F258
:104310008091E80083FFF2CFBECF4132510509F40E
:104320003CC04232510509F0D8C08430910508F0F4
:10433000D4C0FC01EE0FFF1FE15FFC4F0190F08144
:10434000E02D855F9C4FDC018C9190E01AC03327F3
:1043500021303105D1F02115310561F022303105D0
:1043600009F0BBC0EAEAF6E0E4918E2F90E0EAEAB9
:10437000F6E007C0E8ECF6E0E4918E2F90E0E8EC80
:10438000F6E0009709F4A9C0A5CFE6EBF6E0E491CA
:104390008E2F90E0E6EBF6E0F4CF8430910508F044
:1043A0009CC0880F991FFC01E95EFC4F0190F081D1
:1043B000E02D89E090E08ECF82E190E0E8E9F6E040
:1043C00089CF80919E09882309F465CF853009F44F
:1043D00062CF8091E80083FD5ECF8091E80082FD8E
:1043E0008DCF8091E80080FF83CF9091F300809182
:1043F000F2002115310519F08830910550F041E0A7
:10440000089709F040E08091E8008E778093E800FB
:104410006FCF44914093F1003196215031090196BC
:10442000E8CF803809F059C08091E800877F8093F9
:10443000E80080919F098093F1009DCE81114DC0CD
:104440001091A209123008F048C08091E800877FDF
:104450008093E80010939F090E944404112311F0F7
:1044600084E005C08091E30087FDFACF81E080936E
:104470009E0942E061EC81E00E94630442E261EC4B
:1044800086E00E94630442E261EC82E00E946304E1
:1044900042E260EC83E00E94630442E361EC84E06A
:1044A0000E94630442E360EC85E00E946304809113
:1044B0009E0913C08091A209813079F481E0933084
:1044C00009F080E080939D091092E9008091E80056
:1044D000877F8093E8000E9444048091E80083FF76
:1044E0000AC08091E800877F8093E8008091EB000C
:1044F00080628093EB00AA960FB6F894DEBF0FBEE1
:10450000CDBFDF91CF911F910895882309F452C048
:10451000823871F40E94910581FF4CC089E30E94AA
:10452000E1100E94461F89E30E94B6100C94461FBA
:10453000833859F40E94910580FF3CC083E50E94B6
:10454000E1100E94461F83E5EFCF843859F40E94A2
:10455000910582FF2FC087E40E94E1100E94461F50
:1045600087E4E2CF9CEF980F913AF0F290E2980F37
:10457000983088F4877021E030E0A90102C0440F30
:10458000551F8A95E2F7CA01809590917909892390
:1045900080937909CBCF9BE5980F933020F490E07E
:1045A00080E00C947B05885A873120F490E080E00D
:1045B0000C9465050895CF93C82F882309F4A6C0ED
:1045C0008238C1F40E94910581FDA0C089E30E9458
:1045D000E1100E94461F2FEF81EE94E021508040B1
:1045E0009040E1F700C0000089E30E94B610CF912F
:1045F0000C94461F8338A1F40E94910580FD86C06B
:1046000083E50E94E1100E94461F2FEF81EE94E0A7
:10461000215080409040E1F700C0000083E5E5CFE5
:104620008438A1F40E94910582FD70C087E40E9445
:10463000E1100E94461F2FEF81EE94E02150804050
:104640009040E1F700C0000087E4CFCF8CEF8C0FE3
:10465000813A88F580914A02882301F1809173099B
:1046600087FF1CC0EC2FE695E695E695F0E0E25555
:10467000FB4F828190E04C2F477021E030E002C078
:10468000220F331F4A95E2F782239323892B79F077
:104690008C2F0E94B6100E94461F09C0E0EBF4E088
:1046A0008191C817A9F324E0E63BF207C9F78C2FE4
:1046B0000E94E1109CCF80E28C0F883068F4C770B4
:1046C00021E030E001C0220FCA95EAF78091790914
:1046D000822B809379098BCFEBE5EC0FE33040F42C
:1046E000F0E0EA58FD4F808190E0CF910C947B057B
:1046F000C85AC73158F4EC2FF0E0EE0FFF1FE7580F
:10470000FD4F80819181CF910C946505CF910895E3
:104710001F93CF93DF93182FEB010E94DB2220978A
:1047200031F4812FDF91CF911F910C9485228FE975
:104730009FE00197F1F700C000002197F0CF90E0D3
:1047400080E00E940332893E9E4F11F40C9439138D
:1047500080E0089569EE7EEF90E080E00E943732BD
:1047600060E082E090E00E94193260E083E090E037
:104770000E9419321092130560E084E090E00E94DC
:10478000193260E082E290E00E94193260E085E038
:1047900090E00E94193260E086E090E00E941932B9
:1047A0006FEF87E090E00E94193240E050E0BA01DC
:1047B00088E090E00E942B3260E08DE090E00E9463
:1047C000193240E050E0BA0188E190E00E942B32BB
:1047D00060E087E190E00E94193240E050E0BA01C9
:1047E0008CE190E00E942B3270E060E080E290E08B
:1047F0000E94373240E050E0BA0188E190E00E9428
:104800002B3280E00E94B0120E94C81240E050E0BB
:10481000BA018FE090E00E942B3240E050E0BA01F4
:1048200083E190E00C942B325F926F927F928F9293
:104830009F92AF92BF92CF92DF92EF92FF920F932F
:104840001F93CF93DF93CDB7DEB72A970FB6F894B7
:10485000DEBF0FBECDBF4E835F83F62E688779879C
:104860008A8761111092120589859A85892B39F002
:10487000EE80DF808E2D8D218F3F09F075C42A9642
:104880000FB6F894DEBF0FBECDBFDF91CF911F9161
:104890000F91FF90EF90DF90CF90BF90AF909F90DF
:1048A0008F907F906F905F9008950E940A13182F49
:1048B000682F89819A810E943D1169817A81812FB7
:1048C0000E94FD128C01FF2009F4F0C382519F4524
:1048D000409708F0C5C38FEF93E00E94FB3102516F
:1048E00027EFC22E22E0D22E8111C9CF01113AC08A
:1048F0001C821B82662463949AE0592E86010F5F06
:104900001F4FC6010E94FB3189831A82882309F454
:10491000B6CF9FEF980F9330A0F58A83698282E02B
:10492000C80ED11CC8010E94FB318B83882309F477
:10493000A6CF8E010F5F1F4FF80120812223F1F2D5
:10494000213009F058C0918182819130E1F40E5FED
:104950001F4F70E060E0893311F460E570E00E9461
:10496000882317C0C11424E0D20609F488CFC601F9
:104970000E94FB31811101C001503FEFC31AD30ADD
:10498000B5CF6801D6CF923039F40E5F1F4F0E9429
:10499000DB220F5F1F4FD0CF933029F40E5F1F4FE4
:1049A0000E948522F6CF943019F00F5F1F4FF1CF90
:1049B0000E5F1F4F30E020E0B8016F5F7F4FF801BE
:1049C00041818053990B8A30910550F02150310973
:1049D00000F38FE99FE00197F1F700C00000F6CFE8
:1049E000529EF001539EF00D11249C012E0F3F1F8B
:1049F000842F8B01E1CFE22FF0E0E353FE4F749060
:104A0000822F86958695869590E0FC01E354FE4FB3
:104A1000E4902770F12C022E02C0F594E7940A94DA
:104A2000E2F7E1E0EE22FF24FC01E355FE4FA49003
:104A3000B12C022E02C0B594A7940A94E2F7F1E0DB
:104A4000AF22BB24FC01E356FE4F8490912C02C0A0
:104A5000959487942A95E2F721E082229924E11423
:104A6000F10419F081EE0E94DB22A114B10419F0C7
:104A700086EE0E94DB2239E370E060E0731202C030
:104A800060E570E0872D0E948823AB2819F086EE40
:104A90000E948522EF2819F081EE0E948522892844
:104AA00009F477CF70E060E08CE259CF8091A809DB
:104AB00082600E94891F2A960FB6F894DEBF0FBE4F
:104AC000CDBFDF91CF911F910F91FF90EF90DF90BD
:104AD000CF90BF90AF909F908F907F906F905F909E
:104AE0000C948D1F8091A8098D7FE3CF8091A80938
:104AF000FF2011F08460DDCF8B7FDBCF073CFCE52E
:104B00001F0709F48AC008F483C0083C3CE513077A
:104B100009F488C049E656E066E776E0093C9CE582
:104B2000190709F0E9C22A960FB6F894DEBF0FBE46
:104B3000CDBFDF91CF911F910F91FF90EF90DF904C
:104B4000CF90BF90AF909F908F907F906F905F902D
:104B50000C941F060F3CECE51E0709F47AC050F5D3
:104B60000C3C2CE5120709F46CC008F465C00D3C40
:104B70008CE5180709F46AC061E085E00E3C9CE50D
:104B8000190709F0B9C22A960FB6F894DEBF0FBE16
:104B9000CDBFDF91CF911F910F91FF90EF90DF90EC
:104BA000CF90BF90AF909F908F907F906F905F90CD
:104BB0000C94B106063DECE51E0730F461E082E19D
:104BC000013D1C4500F35BCE0D35100709F457CEAF
:104BD00093C29091AD09892F8E7F90FF8160809361
:104BE000AD091092480280913008816080933008AE
:104BF00046CE4BEC56E064ED76E095CF44ED56E0C2
:104C00006BEC76E090CF4DE956E067EA76E08BCF2B
:104C100047EA56E06DE976E086CF43E856E060E982
:104C200076E081CF40E956E063E876E07CCF46E766
:104C300056E069E676E077CF4AE356E068E476E04E
:104C400072CF48E456E06AE376E06DCF61E081E040
:104C50009ACF61E08DE097CF0A3AEDE51E07E1F0CB
:104C6000083AFDE51F0709F056C22A960FB6F894D8
:104C7000DEBF0FBECDBFDF91CF911F910F91FF908F
:104C8000EF90DF90CF90BF90AF909F908F907F90EC
:104C90006F905F900C9492128091AD0980FFEFCDE0
:104CA00090914902892F8B7F92FF84608093490203
:104CB0002A960FB6F894DEBF0FBECDBFDF91CF911D
:104CC0001F910F91FF90EF90DF90CF90BF90AF902A
:104CD0009F908F907F906F905F900C948C12FF202C
:104CE00009F4CDCD2A960FB6F894DEBF0FBECDBF26
:104CF000DF91CF911F910F91FF90EF90DF90CF90B8
:104D0000BF90AF909F908F907F906F905F900C942A
:104D1000681302389FE5190709F40CC208F051C066
:104D20000038FFE51F0709F470C001382FE51207AE
:104D300009F46FC0FF2009F496C001159CE519071E
:104D400009F46BC00E3D1C4509F476C08E2D9D2DD7
:104D50000E940A13182F682F8E2D9D2D0E943D1141
:104D60006E2D7D2D812F0E94FD120E94410F182F64
:104D7000B82E092F02950F70043009F4D6C008F040
:104D800078C0023008F494C00850110B02301105AD
:104D900008F075CD2A960FB6F894DEBF0FBECDBFD2
:104DA000DF91CF911F910F91FF90EF90DF90CF9007
:104DB000BF90AF909F908F907F906F905F900C947A
:104DC000910503383FE5130709F489CF04388FE5CF
:104DD000180709F0AFCFFF2009F451CD2A960FB67E
:104DE000F894DEBF0FBECDBFDF91CF911F910F9121
:104DF000FF90EF90DF90CF90BF90AF909F908F90FB
:104E00007F906F905F900C945A13FF2009F437CD78
:104E10002CCFFF2009F433CD32C1109279090E94C2
:104E20009C1FFFEF24E33CE0F15020403040E1F7CD
:104E300000C000000E94DC112A960FB6F894DEBF75
:104E40000FBECDBFDF91CF911F910F91FF90EF90DB
:104E5000DF90CF90BF90AF909F908F907F906F909A
:104E60005F900C94AA238E2D9D2D0E941511182F52
:104E700077CF083009F473C0093009F085CF9F70EF
:104E800021E030E0690101C0CC0C9A95EAF7FF20DF
:104E900009F4D6C08091A8098C290E94891F11238A
:104EA00009F472CF90917909912B9093790934C0CC
:104EB000892F8F70E82E907F19F0E29480EFE8221E
:104EC000812FFF20C9F0EE2069F090E2910F983019
:104ED00010F011110BC080917909E82AE09279094C
:104EE0000E94461F812F0E94DB224ECF8091120527
:104EF000E82AE0921205F4CF0E948522EE2009F400
:104F000043CFE094105E183010F0B11008C08091CB
:104F10007909E822E09279090E94461F35CF8091F5
:104F20001205E822E0921205F7CF892F8695869523
:104F3000837061F0813009F027CF812F9370F110D9
:104F400002C090E080E00E9465051ECF812F937023
:104F5000F11002C090E080E00E947B0515CF892F00
:104F60008370A1F5F11010CF812F829586958770FF
:104F7000880F880F412F4F70082E01C0440F0A94EC
:104F8000EAF7212F207114FF07C02FE030E001C0A5
:104F9000220F8A95EAF72095969596959370923010
:104FA00081F0822F842B933030F48091130591305F
:104FB00029F0242B82230E94981FE6CE842B822B7B
:104FC000FACF242B809113058227F5CF8695FF20F9
:104FD00011F0892F8170882309F4D6CE812F829514
:104FE00086958770880F880F412F4F70082E01C05B
:104FF000440F0A94EAF7212F207114FF07C02FE015
:1050000030E001C0220F8A95EAF720959695969593
:105010009370923081F0822F842B933030F4809102
:10502000A809913029F0242B82230E94891FACCE3D
:10503000842B822BFACF242B8091A8098227F5CFCD
:10504000112349F0912F909580917909982390939D
:1050500079090E94461FC0948091A8098C21E5CF50
:1050600000319FE5190709F421CD0131EFE51E0755
:1050700009F43CCD093A8DE5180709F0EDCD2A96E3
:105080000FB6F894DEBF0FBECDBFDF91CF911F9159
:105090000F91FF90EF90DF90CF90BF90AF909F90D7
:1050A0008F907F906F905F900C94A1128031FFE5FC
:1050B0009F0709F417CD81319F4509F417CD8091E1
:1050C000790982720A3C9CE5190709F4B0CD08F011
:1050D00041CD053CFCE51F0709F495CD08F00ECD48
:1050E000033C3CE5130709F484CD08F087CD023C6E
:1050F000ECE51E0709F46DCD093A3DE5130709F407
:10510000BECB0A3A8DE5180709F4B9CB083A9DE5FC
:10511000190709F4B4CB0D3A2DE5120709F4DFCDD8
:105120000E3A3DE5130709F456CE0C3A8DE5180703
:1051300009F0EFCDFF2009F4A2CB2A960FB6F89420
:10514000DEBF0FBECDBFDF91CF911F910F91FF90BA
:10515000EF90DF90CF90BF90AF909F908F907F9017
:105160006F905F900C947713E982DA8289819A813B
:10517000F1109BCB0E941511182F9FCB1F920F92FD
:105180000FB60F9211242F933F934F935F936F931A
:105190007F938F939F93AF93BF93CF93DF93EF93BF
:1051A000FF93D091E900DF708091EC00C82FC170AF
:1051B00080FDC0E81092E9008091F000877F809325
:1051C000F00078940E94AF1F1092E9008091F000E7
:1051D00088608093F000CD2BCF70C093E900FF91E1
:1051E000EF91DF91CF91BF91AF919F918F917F917F
:1051F0006F915F914F913F912F910F900FBE0F9044
:105200001F9018951F920F920FB60F9211242F9393
:105210003F934F935F936F937F938F939F93AF933E
:10522000BF93EF93FF938091E10082FF09C08091CB
:10523000E20082FF05C08091E1008B7F8093E10056
:105240008091DA0080FF24C08091D80080FF20C0C8
:105250008091DA008E7F8093DA008091D90080FF00
:105260009DC080E189BD82E189BD09B400FEFDCF0A
:1052700081E080939E0980917809811109C00E9484
:10528000A0030E9495048091E20084608093E20074
:105290008091E10080FF17C08091E20080FF13C081
:1052A0008091E2008E7F8093E2008091E200806135
:1052B0008093E2008091D80080628093D80019BC6E
:1052C00085E080939E098091E10084FF2BC080914E
:1052D000E20084FF27C080E189BD82E189BD89B5F4
:1052E000982F917080FFFBCF8091D8008F7D8093A5
:1052F000D8008091E1008F7E8093E1008091E200F0
:105300008F7E8093E2008091E20081608093E200D2
:1053100080919F09882309F447C084E080939E0907
:1053200080919E098091E10083FF27C08091E20077
:1053300083FF23C08091E100877F8093E10082E0BA
:1053400080939E0910929F098091E1008E7F809347
:10535000E1008091E2008E7F8093E2008091E20084
:1053600080618093E20042E060E080E00E9463049C
:105370008091F00088608093F000FF91EF91BF91E1
:10538000AF919F918F917F916F915F914F913F91DD
:105390002F910F900FBE0F901F90189519BC10926F
:1053A0009E091092780974CF8091E30087FD93E005
:1053B00090939E09B5CF78941F921FB61F92112427
:1053C0008F939F93AF93BF9380916F0990917009D2
:1053D000A0917109B09172090196A11DB11D809330
:1053E0006F0990937009A0937109B0937209BF91EE
:1053F000AF919F918F911F901FBE1F9018951F9284
:105400001FB61F9211248F939F93AF93BF938091E8
:105410006E09811113C080916F0990917009A0915C
:105420007109B09172094196A11DB11D80936F0958
:1054300090937009A0937109B0937209BF91AF91D5
:105440009F918F911F901FBE1F901895CDB7DEB70B
:10545000C156D1090FB6F894DEBF0FBECDBF84B7D9
:10546000877F84BF0FB6F894A8958091600088610B
:1054700080936000109260000FBE80E890E00FB64D
:10548000F89480936100909361000FBE85B78068A7
:1054900085BF85B7806885BF88E29FE09093AD04A3
:1054A0008093AC040E94A0030E9495048091E200C6
:1054B00084608093E200789480919E098823A1F013
:1054C0001091E9001F709091EC00892F817090FD80
:1054D00080E8182B1092E9008091E80083FD0E947B
:1054E000AF1F1F701093E90082E084BD93E095BD6B
:1054F0009AEF97BD80936E000E943913811102C00C
:105500000E94C81207EA12E0D8018D918D018F3FE9
:1055100011F00E942A0FB2E00D3A1B07A9F70DEA1D
:1055200012E0F80181918F018F3F11F00E942A0F44
:10553000F2E00C3B1F07A9F78CE0E1E3F5E0DF01A7
:10554000282F1D922A95E9F7E7E1F5E0DF011D928A
:105550008A95E9F70E949F23811102C00E94AA2325
:1055600082E090E00E94FB318093230584E090E08C
:105570000E94FB31182F82E290E00E94FB31982FAD
:10558000812F90937409809373090E943F1EEFE36B
:10559000FCE93197F1F700C000000E943F1E8091A6
:1055A000310580FF08C06FEF7FEF90E080E00E9440
:1055B00037320E94DC1183E090E00E94FB310E94B0
:1055C000981F1092B3098FEF9FEF9093CD098093AE
:1055D000CC099093CF098093CE099093D109809301
:1055E000D0099093D3098093D2099093D5098093E1
:1055F000D4099093D7098093D6099093D9098093C1
:10560000D8099093DB098093DA091092FF079093F1
:1056100019088093180890931B0880931A08909398
:105620001D0880931C0890931F0880931E08909378
:105630002108809320089093230880932208909358
:1056400025088093240890932708809326080E94B9
:105650009F23811104C00E94AA230E94921346E056
:1056600050E06CE170E08DEA99E00E94EB3110921D
:1056700030088091AD098E7F11F40E9492136091E1
:1056800073096068609373091091740984E090E075
:105690000E941932612F82E290E00E9419320E942A
:1056A0009F23811107C00E94AA238FE080934902A3
:1056B0000E948C128FE090E00E94FB31809349029F
:1056C0000E949F23811104C00E94AA230E9481137B
:1056D00045E050E060E170E083E699E00E94EB3144
:1056E00080916309811102C00E94811384E091E0DE
:1056F00090936B0980936A0980919E09853099F493
:1057000010E4E12E11E000E1F02E02E180919E090B
:10571000853009F441C2109279090E949C1F0E94B1
:10572000910510922F080E943F1E882359F08FB7D1
:10573000F89440916F0950917009609171097091CE
:1057400072098FBFB1E34B2EB5E05B2E44E255E00A
:105750002D965FAF4EAF2D9762961FAE1EAE62972D
:1057600069965FAE4EAE6997F12CE12C2E961FAE76
:105770002E976396EFAE63976C96EFAE6C97699633
:10578000AEADBFAD6997ED91FD916996BFAFAEAF7C
:1057900069976596FFAFEEAF65972D96AEADBFAD3D
:1057A0002D978D919C918E179F0709F47BC1E82757
:1057B000F9276B96FFAFEEAF6B97BFEFBE0D669606
:1057C000BFAF6697EFE0BE9FC00111249C01265E2B
:1057D000384F190162964EAD5FAD6297475D584FE5
:1057E0003A0162968EAD9FAD629760969FAF8EAF85
:1057F000609710E088248394912C6E963FAF2EAF73
:105800006E9797012F5F3F4FE29FC001E39F900D7E
:105810001124DC01A65EB84FA096BFAFAEAFA09733
:10582000EE9DC001EF9D900D1124FC01E65EF84F46
:10583000A296FFAFEEAFA2976B968EAD9FAD6B9722
:1058400088219921892B09F417C122961FAF22972D
:105850006C96FFAD6C972396FFAF23976596CEAC01
:10586000DFAC6597C820D92081E0C114D10409F4C8
:1058700080E024968FAF24970E9459058160782F8D
:1058800026969FAF8EAF269722964FAD22972396EE
:105890005FAD239724966FAD249726968FAD2697FC
:1058A0000E9414242D96AEADBFAD2D978D919C9185
:1058B0001197882599258D939C93CD2851F060965A
:1058C000EEADFFAD6097E15EFC4F80818F3F09F048
:1058D000B6C100E0C02ED12C8091FF078C0D9D2D0C
:1058E000911D09976CF188E090E05C01AC18BD084F
:1058F000B6016050784FA50180E098E00E94E23147
:10590000B601685F774FA50188E098E00E94E23118
:10591000A501440F551FB601660F771F685E774FCC
:1059200088E198E00E94E231B601605F774FA501FF
:1059300080E198E00E94E23188E0801B8093FF07BD
:105940008091FF0790E06796EFAD6797AE2FB0E0CC
:105950009D01220F331F27583C4FAA0FBB1FBD01CB
:1059600066587C4F41E0480F901708F46DC1809352
:10597000FF078091AD098E7F8E3309F073C08FEFE2
:10598000810F811760F4A296EEADFFADA297E80FEC
:10599000F11D208130E1230F08F42FEF2083609662
:1059A000EEADFFAD6097E65EF84F208130E2230F49
:1059B00008F42FEF208391E0910F9F3009F45DC42C
:1059C000218130E1230F08F42FEF21836396EFAD9F
:1059D0006397E53041F1811760F4A096EEADFFAD1D
:1059E000A097E80FF11D20813DE0230F08F42FEF71
:1059F0002083D3012C9130E1230F08F42FEFF30122
:105A000020839F3009F42FC421813DE0230F08F447
:105A10002FEF11962C936396BFAD63976696EFAD0B
:105A20006697EB17F8F4811760F46E96EEADFFAD54
:105A30006E97E80FF11D20813DE0230F08F42FEF52
:105A40002083D1012C9130E1230F08F42FEFF101D5
:105A500020839F3039F021813DE0230F08F42FEFA0
:105A600011962C932E96BFAD2E97BF5F2E96BFAF8B
:105A70002E97BC3008F056C01F5F880C991CEFEFC2
:105A80002E1A3E0AFFEF6F1A7F0A60962EAD3FADC9
:105A900060972F5F3F4F60963FAF2EAF60971F30EC
:105AA00009F0CACE3FEFE31AF30A2D964EAD5FAD73
:105AB0002D974E5F5F4F2D965FAF4EAF2D9762963D
:105AC0008EAD9FAD62970F9662969FAF8EAF629735
:105AD00096E0E916F10409F04CCE2E96AFAD2E9764
