:100000000C9497390C94D1390C94D1390C94D13982
:100010000C94D1390C94D1390C94D1390C94D13938
:100020000C94D1390C94D1390C94E28B0C94BA8C89
:100030000C9493850C94D1390C94D1390C94D1390A
:100040000C94D1390C94D1390C94D1390C94D13908
:100050000C94D1390C9435860C94D1390C94D13947
:100060000C94D1390C94D1390C94D1390C94D139E8
:100070000C94D1390C94D1390C94D1390C94D139D8
:100080000C94D1390C94D1390C94D1390C94D139C8
:100090000C94D1390C94D13900007E7E183C664214
:1000A000000C1C70701C0C00747414147C68007CB0
:1000B0007C0070782C247C7C000000000000000094
:1000C0000000000000000000000000000000000030
:1000D0000000804040202020201010101010080840
:1000E000040404083040800000000000000000000C
:1000F0000000000000000000000000000000000000
:1001000000000000000000000000000000000000EF
:10011000000000000080808000000000C0603018F7
:100120000C84C6622333119171F1719111332362F2
:10013000C6840C183060C000000000000000000001
:1001400000000000000000000018648202020202A9
:10015000020100000000808000000000000000009C
:10016000008000303000C0C1C1C2040810204080AF
:1001700000000080808080404040402020202010EF
:100180001010100808080808C404C404C402C202FD
:10019000C2010101010000000000FC0F0100F80E87
:1001A0001F6D8C9494A4A6F9E0FFE0F9A6A49494A2
:1001B0008C6D1F0EF800010FFC0000000000000015
:1001C0000000000000000000C03804030000000030
:1001D0000000000C0C0C0D010040A0212212111196
:1001E000110908080808040408081010101010115C
:1001F0000F010100000000000000000000000000EE
:100200000000000000AAAAFFFFC3BF7F037FBFC397
:10021000FFFFAAAA0000000000001F78C0000F38EE
:100220007CDB9814141232CF03FF03CF3212141464
:1002300098DB7C380F00C0781F10101010080808D9
:10024000080804040404040203020201010101017C
:100250000102020404080808080807000000000062
:10026000000000000000000000000000000000008E
:10027000000000000000000000000000000000007E
:1002800000000000000282871F079F071C079F07CE
:100290009F0702820000000020101010110B0E0CAE
:1002A000181031236266444447474744446662233A
:1002B0003110180C060301000000000000000000CF
:1002C000000000000000000000000000000000002E
:1002D000000000000000000000000000000000001E
:1002E000000000000000000000000000000000000E
:1002F00000000000000000000000000000000000FE
:10030000000000000007080817000F0102010F009D
:100310000F02050800007E7E183C6642000C1C702F
:10032000701C0C00747414147C68007C7C00707861
:100330002C247C7C00000000000000000000000075
:1003400000000000000000000000000000008040ED
:100350004020202020101010101008080404040869
:10036000304080000000000000000000000000009D
:10037000000000000000000000000000000000007D
:10038000000000000000000000000000000000006D
:100390000080808000000000C06030180C84C662BD
:1003A0002333119171F1719111332362C6840C18BA
:1003B0003060C000000000000000000000000000ED
:1003C0000000000000186482020202020201000024
:1003D000000080800000000000000000008000306D
:1003E0003000C0C1C1C2040810204080000000805D
:1003F00080808040404040202020201010101008B5
:1004000008080808C404C404C402C202C2010101ED
:10041000010000000000FC0F0100F80E1F6D8C941D
:1004200094A4A6F9E0FFE0F9A6A494948C6D1F0EA5
:10043000F800010FFC0000000000000000000000B8
:1004400000000000C0380403000000000000000CA1
:100450000C0C0D010040A0212212111111090808F5
:100460000808040408081010101010110F010100F2
:10047000000000000000000000000000000000007C
:1004800000AAAAFFFFC3BF7F037FBFC3FFFFAAAAC3
:100490000000000000001F78C0000F387CDB9814BB
:1004A000141232CF03FF03CF3212141498DB7C38BE
:1004B0000F00C0781F101010100808080808040466
:1004C0000404040203020201010101010102020409
:1004D00004080808080807000000000000000000E9
:1004E000000000000000000000000000000000000C
:1004F00000000000000000000000000000000000FC
:10050000000282871F079F071C079F079F07028221
:100510000000000020101010110B0E0C18103123D9
:100520006266444447474744446662233110180CCE
:1005300006030100000000000000000000000000B1
:1005400000000000000000000000000000000000AB
:10055000000000000000000000000000000000009B
:10056000000000000000000000000000000000008B
:10057000000000000000000000000000000000007B
:100580000007080817000F0102010F000F020508FD
:1005900000007E7E183C6642000C1C70701C0C0033
:1005A000747414147C68007C7C0070782C247C7C2F
:1005B000000000000000000000000000000000003B
:1005C000000000000000000000000080804040406B
:1005D000402020202010080402020418608000003F
:1005E000000000000000000000000000000000000B
:1005F00000000000000000000000000000000000FB
:10060000000000000000000000000000008080806A
:1006100000000000C06030180C84C66223331191C2
:1006200071F1719111332362C6840C183060C000DF
:1006300000000000000000000000000000000000BA
:10064000003CC2010102020404020100000000009B
:1006500000000000000000000000006060008182D7
:10066000828408102040800000000080808080404C
:1006700040404020202020101010100808080808D2
:10068000C404C404C402C202C2010101010000008A
:100690000000FC0F0100F80E1F6D8C9494A4A6F9C5
:1006A000E0FFE0F9A6A494948C6D1F0EF800010FF2
:1006B000FC0000000000000000000000000000003E
:1006C00080701906000000000000001818181B03B5
:1006D0000040A02224141212120B08080808050575
:1006E00009091010101010110F0101000000000086
:1006F00000000000000000000000000000AAAAFFA7
:10070000FFC3BF7F037FBFC3FFFFAAAA0000000093
:1007100000001F78C0000F387CDB9814141232CF11
:1007200003FF03CF3212141498DB7C380F00C0781B
:100730001F1010101008080808080404040404021C
:100740000302020101010101010202040408080878
:100750000808070000000000000000000000000082
:100760000000000000000000000000000000000089
:10077000000000000000000000000000000282876E
:100780001F079F071C079F079F07028200000000AA
:1007900020101010110B0E0C181031236266444407
:1007A00047474744446662233110180C0603010092
:1007B0000000000000000000000000000000000039
:1007C0000000000000000000000000000000000029
:1007D0000000000000000000000000000000000019
:1007E0000000000000000000000000000000000009
:1007F00000000000000000000000000000070808E2
:1008000017000F0102010F000F02050800007E7E95
:10081000183C6642000C1C70701C0C00747414149C
:100820007C68007C7C0070782C247C7C00000000BC
:100830000000000000000000000000000000008038
:100840008000000000008040402020202010101078
:10085000100804020101020C30408000000000007A
:100860000000000000000000000000000000000088
:100870000000000000000000000000000000000078
:1008800000000000000000000080808000000000E8
:10089000C06030180C84C6622333119171F17191DC
:1008A00011332362C6840C183060C00000000000C1
:1008B000000000000000000000000000001EE10039
:1008C0000001010202010000000080800000000021
:1008D00000000000008000303000C0C1C1C2040828
:1008E00010204080000000808080804040404020F8
:1008F000202020101010100808080808C404C404A0
:10090000C402C202C2010101010000000000FC0F8C
:100910000100F80E1F6D8C9494A4A6F9E0FFE0F995
:10092000A6A494948C6D1F0EF800010FFC0000002B
:1009300000000000000000000000000080700C03B8
:10094000000000000000000C0C0C0D010040A02174
:1009500022121111110908080808040408081010CF
:10096000101010110F010100000000000000000035
:10097000000000000000000000AAAAFFFFC3BF7F24
:10098000037FBFC3FFFFAAAA0000000000001F787A
:10099000C0000F387CDB9814141232CF03FF03CF52
:1009A0003212141498DB7C380F00C0781F1010101E
:1009B00010080808080804040404040203020201E1
:1009C00001010101010202040408080808080700E7
:1009D0000000000000000000000000000000000017
:1009E0000000000000000000000000000000000007
:1009F0000000000000000000000282871F079F0720
:100A00001C079F079F0702820000000020101010A3
:100A1000110B0E0C181031236266444447474744BB
:100A2000446662233110180C060301000000000028
:100A300000000000000000000000000000000000B6
:100A400000000000000000000000000000000000A6
:100A50000000000000000000000000000000000096
:100A60000000000000000000000000000000000086
:100A700000000000000000000007080817000F0138
:100A800002010F000F02050800007E7E183C66423E
:100A9000000C1C70701C0C00747414147C68007CB6
:100AA0007C0070782C247C7C00000000000000009A
:100AB0000000000000000000000000000000000036
:100AC0000000804040202020201010101008080452
:100AD0000202020438408000000000000000000014
:100AE0000000000000000000000000000000000006
:100AF00000000000000000000000000000000000F6
:100B0000000000000080808000000000C0603018FD
:100B10000C84C6622333119171F1719111332362F8
:100B2000C6840C183060C000000000000000000007
:100B30000000000000000000001CE20101020202AF
:100B400002010000000080800000000000000000A2
:100B5000008000303000C0C1C1C2040810204080B5
:100B600000000080808080404040402020202010F5
:100B70001010100808080808C404C404C402C20203
:100B8000C2010101010000000000FC0F0100F80E8D
:100B90001F6D8C9494A4A6F9E0FFE0F9A6A49494A8
:100BA0008C6D1F0EF800010FFC000000000000001B
:100BB000000000000000000080700C030000000036
:100BC0000000000C0C0C0D010040A021221211119C
:100BD0001109080808080404080810101010101162
:100BE0000F010100000000000000000000000000F4
:100BF0000000000000AAAAFFFFC3BF7F037FBFC39E
:100C0000FFFFAAAA0000000000001F78C0000F38F4
:100C10007CDB9814141232CF03FF03CF321214146A
:100C200098DB7C380F00C0781F10101010080808DF
:100C30000808040404040402030202010101010182
:100C40000102020404080808080807000000000068
:100C50000000000000000000000000000000000094
:100C60000000000000000000000000000000000084
:100C700000000000000282871F079F071C079F07D4
:100C80009F0702820000000020101010110B0E0CB4
:100C90001810312362664444474747444466622340
:100CA0003110180C060301000000000000000000D5
:100CB0000000000000000000000000000000000034
:100CC0000000000000000000000000000000000024
:100CD0000000000000000000000000000000000014
:100CE0000000000000000000000000000000000004
:100CF000000000000007080817000F0102010F00A4
:100D00000F02050800007E7E183C6642000C1C7035
:100D1000701C0C00747414147C68007C7C00707867
:100D20002C247C7C0000000000000000000000007B
:100D300000000000000000808000000000008040F3
:100D40004020202020101010100804020101020C85
:100D500030408000000000000000000000000000A3
:100D60000000000000000000000000000000000083
:100D70000000000000000000000000000000000073
:100D80000080808000000000C06030180C84C662C3
:100D90002333119171F1719111332362C6840C18C0
:100DA0003060C000000000000000000000000000F3
:100DB00000000000001EE1000001010202818080AD
:100DC0000000808000000000000000000080003073
:100DD00030000001E11A06093135018A7C000080EB
:100DE00080808040404040202020201010101008BB
:100DF00008080808C404C404C402C202C2010101F4
:100E0000010000000000FC0F0100F80E1F6D8C9423
:100E100094A4A6F9E0FFE0F9A6A494948C6D1F0EAB
:100E2000F800010FFC0000000000000000000000BE
:100E30000000000080700C030000180605989984DB
:100E4000C37C4141404020212212111111090808A0
:100E50000808040404040404020202010101010060
:100E60000000000000000000000000000000000082
:100E700000AAAAFFFFC3BF7F037FBFC3FFFFAAAAC9
:100E80000000000000001F78C0000F387CDB9814C1
:100E9000141232CF03FF03CF3212141498DB7C38C4
:100EA0000F00C0781F10101010080808080804046C
:100EB0000404040203020201010101010100000017
:100EC0000000000000000000000000000000000022
:100ED0000000000000000000000000000000000012
:100EE0000000000000000000000000000000000002
:100EF000000282871F079F071C079F079F07028228
:100F00000000000020101010110B0E0C18103123DF
:100F10006266444447474744446662233110180CD4
:100F200006030100000000000000000000000000B7
:100F300000000000000000000000000000000000B1
:100F400000000000000000000000000000000000A1
:100F50000000000000000000000000000000000091
:100F60000000000000000000000000000000000081
:100F70000007080817000F0102010F000F02050803
:100F800000007E7E183C6642000C1C70701C0C0039
:100F9000747414147C68007C7C0070782C247C7C35
:100FA0000000000000000000000000000000000041
:100FB00000000080800000000000804040202020D1
:100FC00020101010100804020101020C30408000B3
:100FD000000000000000F8F8F8F8000000000080B1
:100FE0008000000000000000000000000000000081
:100FF0000000000000000000000000000080808071
:1010000000000000C06030180C84C66223331191C8
:1010100071F1719111332362C6840C183060C000E5
:1010200000000000000000000000000000000000C0
:10103000001EE1000001010202818080000080802A
:1010400000000000000000000080003030000001BF
:101050000102040810204387070100B8BCBE9F5F4F
:101060005F4F4C202020201010101008080808089E
:10107000C404C404C402C202C20101010100000090
:101080000000FC0F0100F80E1F6D8C9494A4A6F9CB
:10109000E0FFE0F9A6A494948C6D1F0EF800010FF8
:1010A000FC00000000000000000000000000000044
:1010B00080700C030000180605989984437C414118
:1010C00040402021221211111109080808080404C7
:1010D00008081010101010110F013D7CFCFCFCFCE6
:1010E000FC3C0C00000000000000000000AAAAFF69
:1010F000FFC3BF7F037FBFC3FFFFAAAA000000009A
:1011000000001F78C0000F387CDB9814141232CF17
:1011100003FF03CF3212141498DB7C380F00C07821
:101120003F10101010080808080804040404040202
:1011300003020201010101010100000000000000A2
:10114000000000000000000000000000000000009F
:101150000000000000000000000000000001030388
:101160000000000000000000000000000002828774
:101170001F079F071C079F079F07028200000000B0
:1011800020101010110B0E0C18103123626644440D
:1011900047474744446662233110180C0603010098
:1011A000000000000000000000000000000000003F
:1011B000000000000000000000000000000000002F
:1011C000000000000000000000000000000000001F
:1011D000000000000000000000000000000000000F
:1011E00000000000000000000000000000070808E8
:1011F00017000F0102010F000F02050800007E7E9C
:10120000183C6642000C1C70701C0C0074741414A2
:101210007C68007C7C0070782C247C7C00000000C2
:10122000000000000000000000000000000000803E
:10123000800000000000804040202020201010107E
:10124000100804020101020C304080000000000080
:10125000000000000000000000000000000000008E
:10126000000000000000000000000000000000007E
:1012700000000000000000000080808000000000EE
:10128000C06030180C84C6622333119171F17191E2
:1012900011332362C6840C183060C00000000000C7
:1012A000000000000000000000000000001EE1003F
:1012B0000001010202010000000080800000000027
:1012C000000000000080003030000001E11A060933
:1012D0003135018A7C000080808080404040402081
:1012E000202020101010100808080808C404C404A6
:1012F000C402C202C2010101010000000000FC0F93
:101300000100F80E1F6D8C9494A4A6F9E0FFE0F99B
:10131000A6A494948C6D1F0EF800010FFC00000031
:1013200000000000000000000000000080700C03BE
:101330000000000000000000000001010040A021AA
:1013400022121111110908080808040404040404F5
:101350000202020101010100000000000000000083
:10136000000000000000000000AAAAFFFFC3BF7F2A
:10137000037FBFC3FFFFAAAA0000000000001F7880
:10138000C0000F387CDB9814141232CF03FF03CF58
:101390003212141498DB7C380F00C0781F10101024
:1013A000100808080808040404040402037A7A797F
:1013B000797979393102020404080808888887801D
:1013C000000000000000000000000000000000001D
:1013D000000000000000000000000000000000000D
:1013E0000000000000000000000282871F079F0726
:1013F0001C079F079F0702820000000020101010AA
:10140000110B0E0C181031236266444447474744C1
:10141000446662233110180C06030100000000002E
:1014200000000000000000000000000000000000BC
:101430000030787CFEFF3F0700000000FFFF7F7F49
:101440003F3E1C18000000000000000000000000EB
:10145000000000000000000000000000000000008C
:1014600000000000000000000007080817000F013E
:1014700002010F000F02050800000000000000003C
:10148000000000000000000000000000000000005C
:10149000804000000080804040402020202020200C
:1014A000202020202020200040404080800000009C
:1014B000000000000000000000000000000000002C
:1014C000000000000000000000000000000000001C
:1014D000000000000000000000000000000000000C
:1014E00000000000000000000000000000000000FC
:1014F00000000000000000000000000000000000EC
:10150000000000000000000000000000003C7EC160
:1015100000187EC3A140808010784E8683030301AB
:10152000010101010103020286CCFCB08081423C32
:1015300008000000000000000000000000000000A3
:101540000000000000000000000002020606020089
:10155000000000000000000000000000000000008B
:10156000000000000000000000000000000000007B
:10157000000000000000000000000000000000006B
:101580000000000000080000000000000000000053
:101590000000000000010102030202040405E5F559
:1015A000150D070342810101000000000101010146
:1015B0000000000909111121224242848404080814
:1015C000101020624484880810302040C080000041
:1015D00000000000000000000000000000081C14D3
:1015E000140C0800000000000000000000000000D3
:1015F00000000000000000000000000000000000EB
:10160000000000000000000000002020200000007A
:1016100000000000000000000000000000000103C6
:101620000408102060408182C44C0830202040C053
:101630008000000000000000800040C0C1010206E0
:10164000040E1A31414101818286044830000103B1
:1016500002040C0810302040C08000000000000090
:10166000000000000000000000000000000000007A
:10167000000000000000000000000000000000006A
:1016800000000000000000000000C0C000000000DA
:10169000000000000000000000000000080800003A
:1016A0000000000000000001010202040408080814
:1016B00010111312040C081030204040F051535206
:1016C000742C0810302C4C5090150D02040488988E
:1016D0001020604080800000002061418080000078
:1016E00000000000000000000002020200000000F4
:1016F000800000000000000000000000000000006A
:1017000000000000000000000000000000000000D9
:1017100000000000000000000000000000000000C9
:101720000000000000000000004040E0E0404040B9
:1017300000000000000000000000000000010102A5
:1017400006040C0C1222204181810102070D0810B1
:10175000102040C08000010202040818102161C25C
:1017600086040818100000000000000000000000BF
:101770000000000000000000000000000000000069
:101780000000000000000000000000000000000059
:101790000000000000000000000000000000000049
:1017A0000000000000000000000000000000000039
:1017B0000000000000000000000000000000000128
:1017C00003020404000000000000010204040808F1
:1017D0001010101001090A06040414142460428336
:1017E0008100000000000000000000000000000078
:1017F00000000000000000000000000000000000E9
:1018000000000000000000000000000000000000D8
:1018100000000000000000000000000000000000C8
:1018200000000000000000000000000000000000B8
:1018300000000000000000000000000000000000A8
:101840000000000000000000000000000000000098
:101850000000000000000000000000000000000088
:101860000100000000000000000000000000000077
:101870000000000000000000000000000000000068
:101880000000000000000000000000000000000058
:1018900000000000008080404040202020202020C8
:1018A0002020202020202000404040808000000098
:1018B0000000000000000000000000000000000028
:1018C0000000000000000000000000000000000018
:1018D0000000000000000000000000000000000008
:1018E00000000000000000000000000000000000F8
:1018F00000000000000000000000000000000000E8
:10190000000000000000000000000000003C7880A3
:1019100000187EC3B1408080187CCE86830303010B
:10192000010101010103020284CCF8B08081423C34
:10193000080000000000000000000000000000009F
:10194000000000000000000000000004040E040479
:101950000000000000000000000000000000000087
:101960000000000000000000000000000000000077
:101970000000000000000000000000000000000067
:101980000000000000001010000000000000000037
:10199000010302040C091132220200040405C5F5FA
:1019A000150D070342C18101000000000101010182
:1019B0000101010109090911122222448488081039
:1019C000102060408080000000000000C080000007
:1019D00000000000000000000000000000001018DF
:1019E000282818100000000000000000000000007F
:1019F00000000000000000000000000000000000E7
:101A00000000000000000000000000004040000056
:101A100000000000000000000000000000000003C3
:101A2000060C18306040818182444C0830302040E0
:101A3000408080000000000080004040C020010382
:101A400002060A18112141428684487000000103F1
:101A500002040C081030204040800000000000000C
:101A60000000000000000000000000000000000076
:101A70000000000000000000000000000000000066
:101A800000000000000000000000008080800000D6
:101A90000000000000000000000000000010100026
:101AA000000000000000000001030206040808080E
:101AB0001010101001090E16302040C0B0515152C4
:101AC0005634081810202C4C82830B0E060488888C
:101AD00010206040C08000000000010302040408E0
:101AE0001830204000000000000004060400000040
:101AF00000000000000000000000000000000000E6
:101B000000000000000000000000000001000000D4
:101B100000000000000000000000000000000000C5
:101B200000000000000000000000808080C0808075
:101B30008000000000000000000000000001010221
:101B400004040C1C12226041818101030305040876
:101B500010102040C080010302040C08103021C284
:101B6000860408181020000000000000000000009B
:101B70000000000000000000000000000000000065
:101B80000000000000000000000000000000000055
:101B90000000000000000000000000000000000045
:101BA0000000000000000000000000000001000034
:101BB0000000000000000000000000000000000025
:101BC000000000000810000000010102040C0808D9
:101BD0001010101000080D0704040404246442834C
:101BE000810404000000000000000000000000006C
:101BF00000000000000000000000000000000000E5
:101C000000000000000000000000000000000000D4
:101C100000000000000000000000000000000000C4
:101C200000000000000000000000000000000000B4
:101C300000000000000000000000000000000000A4
:101C40000000000000000000000000000000000094
:101C50000000000000000000000000000000000084
:101C60000100000000000000000000000000000073
:101C70000000000000000000000000000000000064
:101C80000000000000000000000000000000000054
:101C900000000000008080404040202020202020C4
:101CA0002020202020202000404040808000000094
:101CB0000000000000000000000000000000000024
:101CC0000000000000000000000000000000000014
:101CD0000000000000000000000000000000000004
:101CE00000000000000000000000000000000000F4
:101CF00000000000000000000000000000000000E4
:101D000000000000000000000000000000000000D3
:101D100000187EC3BD408000187C6EC683C30301DB
:101D2000010101010002020284CCF8B08081423C32
:101D3000080000000000000000000000000000009B
:101D400000000000000000000000000000081C1C53
:101D50000808000000000000000000000000000073
:101D60000000000000000000000000000000000073
:101D70000000000000000000000000000000000063
:101D80000000000000000020200000000000000013
:101D9000010302040C09113222428004040505F5F6
:101DA000150D0703024181810000000001010101BE
:101DB000010101010109091212222444C4881810EA
:101DC000202040C080000000000000000000000053
:101DD00000000000000000000000000000000020E3
:101DE0003030003030000000000000000000000033
:101DF00000000000000000000000000000000000E3
:101E000000000000000000000000000000C0800092
:101E1000000000000000000000000103061830016F
:101E200003040810306040818342440C2830302085
:101E3000404080800000000000004040C08021033E
:101E4000060E0810312143C2848C58300000000077
:101E50000000000010302040408000000000000022
:101E60000000000000000000000000000000000072
:101E70000000000000000000000000000000000062
:101E80000000000000000000000000000000000052
:101E90000000000000000000000000000000002022
:101EA0000000000000000000010102020404080814
:101EB0000010303000090B1E1020404080B131026C
:101EC000023438181030244CCA830B0E040488984E
:101ED000102060408080000000000101020604081C
:101EE0001810206040000000000000000C0C0000F2
:101EF00000000000000000000000000000000000E2
:101F000000000000000000000000000001010100CE
:101F100000000000000000000000000000000000C1
:101F20000000000000000000000000000000800031
:101F3000000000000000000000000000000101029D
:101F400006040C0C12222041C18101010305040882
:101F50001810202040808102020408081030204020
:101F600080000818102000000000000000000000A1
:101F70000000000000000000000000000000000061
:101F80000000000000000000000000000000000051
:101F90000000000000000000000000000000000041
:101FA000000000000000000000000001010103012A
:101FB000010100000000000000000000000000001F
:101FC00000000000000000000000010206040808F4
:101FD000080000000008080706000404040002834B
:101FE000810004081810200000000000000000001C
:101FF00000000000000000000000000000000000E1
:1020000000000000000000000000000000000000D0
:1020100000000000000000000000000000000000C0
:1020200000000000000000000000000000000000B0
:1020300000000000000000000000000000000000A0
:102040000000000000000000000000000000000090
:102050000000000000000000000000000000000080
:10206000010100000000000000000000000000006E
:102070000000000000000000000000000000000060
:102080000000000000000000000000000000000050
:102090000000000000809050505000282828282080
:1020A0002020202020202000404040808000000090
:1020B0000000000000000000000000001000000010
:1020C0000000000000000000000000000000000010
:1020D0000000000000000000000000000000000000
:1020E00000000000000000000000000000000000F0
:1020F00000000000000000000000000000000000E0
:1021000000000000000000000000000000000000CF
:1021100000187EC3BD4200001C7E7EE6C3C343019F
:10212000010000000002020284CCF8B08081423C31
:102130000800000000000000000000000000000097
:102140000000000000000000000000000000101867
:102150001810100000000000000000000000000047
:10216000000000000000000000000000000000006F
:10217000000000000000000000000000000000005F
:1021800000000000000000000060200000000000CF
:1021900000000000000101024242800404050545E0
:1021A000F51D0F0302014141800000000101010102
:1021B00001010101090A0A121424444888901020E0
:1021C000604080800000000000000000000000006F
:1021D00000000000000000000000000000000000FF
:1021E000006050505060000000000000000000003F
:1021F00000000000000000000000000000000000DF
:1022000000000000000000000000000000008080CE
:102210000000000000000000000001030E1C306000
:10222000C183060C081020604081C342242C283052
:10223000302040408080000000004040C0812302E8
:10224000060A1A112362468488506000202000008C
:10225000000000000000000000000000000000007E
:10226000000000000000000000000000000000006E
:10227000000000000000000000000000000000005E
:10228000000000000000000000000000000000004E
:10229000000000000000000000000000000000003E
:1022A00020010102040C08101000010102020404C4
:1022B000080808084888890916202040C08031296C
:1022C0002A0C2C381010206C4A8B8A0A04888890BB
:1022D000206040C0800000000000010102060408E8
:1022E00018102060400000000000000000181800D6
:1022F00000000000000000000000000000000000DE
:1023000000000000000000000000000000020302C6
:1023100000000000000000000000000000000000BD
:1023200000000000000000000000000000000000AD
:102330000000000000000101000000000000010397
:102340000204040C16122061418181010302040C75
:10235000081010202041838204040810102020C09F
:1023600080000000002020000000000000000000AD
:10237000000000000000000000000000000000005D
:10238000000000000000000000000000000000004D
:10239000000000000000000000000000000000003D
:1023A0000000000000000000000000000002020722
:1023B0000702020000000000000000000000000012
:1023C00000000000000000000000010102060404FB
:1023D000080808080808286C07060404040002031B
:1023E000010000001010202000000000000000008C
:1023F00000000000000000000000000000000000DD
:1024000000000000000000000000000000000000CC
:1024100000000000000000000000000000000000BC
:1024200000000000000000000000000000000000AC
:10243000000000000000000000000000000000009C
:10244000000000000000000000000000000000008C
:10245000000000000000000000000000000000007C
:10246000010100000000000000000000000000006A
:10247000000000000000000000000000000000005C
:10248000000000000000000000000000000000004C
:1024900000000000008080404050002828282828A4
:1024A000282828282828201050505090A0000000EC
:1024B00000000000000000000000000010201000DC
:1024C000000000000000000000000000000000000C
:1024D00000000000000000000000000000000000FC
:1024E00000000000000000000000000000000000EC
:1024F00000000000000000000000000000000000DC
:1025000000000000000000000000000000000000CB
:1025100000187EC3BD4201013C7E7EF6F2D2C2C0ED
:10252000200101000002020284CCF8B08081423C0C
:102530000800000000000000000000000000000093
:10254000000000000000000000000000000000008B
:1025500030303000000000000000000000000000EB
:10256000000000000000000000000000000000006B
:10257000000000000000000000000000000000005B
:1025800000000000000000000000404000000000CB
:10259000000000000001010202020004040505051C
:1025A000C5FD8F030201010100408080010101018E
:1025B000010002020A081414202848D0B02040402C
:1025C000808000000000000000000000000000000B
:1025D00000000000000000000000000000000000FB
:1025E000000040E0A0A0C04000000000000000008B
:1025F00000000000000000000000000000000000DB
:1026000000000000000000000000000000000000CA
:10261000000000000000000000000000001030601A
:10262000C0810303060C081810204041C1A22604F3
:1026300008181020204040808000004040C1A206C1
:102640000A1B1322644488907000000020604080C0
:1026500080000000000000000000000000000000FA
:10266000000000000000000000000000000000006A
:10267000000000000000000000000000000000005A
:102680000000000000000000000000000000000149
:102690000101000000000000000000000000000038
:1026A00000414102040C08101020604080810102AA
:1026B00002040408080808080815232040C08011F7
:1026C000192A242C1810142C6B4A8A8C088890A084
:1026D0002041C08000000000000000000000000059
:1026E000101020604080000000000000000010304A
:1026F00010000000000000000000000000000000CA
:1027000000000000000000000000000000000006C3
:1027100006000000000000000000000000000000B3
:1027200000000000000000000000000000010102A5
:102730000604080800000000020604080800000162
:10274000010204040C121221614181810102020480
:102750000C0810102121424484081810202040C089
:1027600080000000000000000000000000000000E9
:102770000000000000000000000000000000000059
:102780000000000000000000000000000000000049
:102790000000000000000000000000000000000039
:1027A0000000000000000000000000000000020027
:1027B000060F020200000000000000000000000000
:1027C00000000000000000000000000101020204FF
:1027D0000408080808080848448786040002020123
:1027E00000000000000020200000000000000000A9
:1027F00000000000000000000000000000000000D9
:1028000000000000000000000000000000000000C8
:1028100000000000000000000000000000000000B8
:1028200000000000000000000000000000000000A8
:102830000000000000000000000000000000000098
:102840000000000000000000000000000000000088
:102850000000000000000000000001010000000076
:102860000000000000000000000000000000000068
:102870000000000000000000000000000000000058
:102880000000000000000000000000000000000048
:1028900000000000008080404050002828282828A0
:1028A000282828282828201050505090A0000000E8
:1028B00000000000000000000000001010201000C8
:1028C0000000000000000000000000000000000008
:1028D00000000000000000000000000000000000F8
:1028E00000000000000000000000000000000000E8
:1028F00000000000000000000000000000000000D8
:1029000000000000000000000000000000000000C7
:1029100000187EC1BD4201013C7E7EF6F2D2C2C0EB
:10292000200101000002020284CCF8B08081423C08
:10293000080000000000000000000000000000008F
:102940000000000000000000000000000000000087
:1029500030303000000000000000000000000000E7
:102960000000000000000000000000000000000067
:102970000000000000000000000000000000000057
:1029800000000000000000000000404000000000C7
:102990000000000000010102020200040405050518
:1029A000C5FD8F030201010100408080010101018A
:1029B000010002020A081414202848D0B020404028
:1029C0008080000000000000000000000000000007
:1029D00000000000000000000000000000000000F7
:1029E000000040E0A0A0C040000000000000000087
:1029F00000000000000000000000000000000000D7
:102A000000000000000000000000000000000000C6
:102A10000000000000000000000000000010306016
:102A2000C0810303060C081810204041C1A22604EF
:102A300008181020204040808000004040C1A206BD
:102A40000A1B1322644488907000000020604080BC
:102A500080000000000000000000000000000000F6
:102A60000000000000000000000000000000000066
:102A70000000000000000000000000000000000056
:102A80000000000000000000000000000000000145
:102A90000101000000000000000000000000000034
:102AA00000414102040C08101020604080810102A6
:102AB00002040408080808080815232040C08011F3
:102AC000192A242C1810142C6B4A8A8C088890A080
:102AD0002041C08000000000000000000000000055
:102AE0001010206040800000000000000000103046
:102AF00010000000000000000000000000000000C6
:102B000000000000000000000000000000000006BF
:102B100006040000000000000000000000000000AB
:102B200000000000000000000000000000010102A1
:102B3000060408080000000002060408080000015E
:102B4000010204040C12122161418181010202047C
:102B50000C0810102121424484081810202040C085
:102B600080000000000000000000000000000000E5
:102B70000000000000000000000000000000000055
:102B80000000000000000000000000000000000045
:102B90000000000000000000000000000000000035
:102BA0000000000000000000000000000000020023
:102BB000060F0202000000000000000000000000FC
:102BC00000000000000000000000000101020204FB
:102BD000040808080808084844878604000202011F
:102BE00000000000000020200000000000000000A5
:102BF00000000000000000000000000000000000D5
:102C000000000000000000000000000000000000C4
:102C100000000000000000000000000000000000B4
:102C200000000000000000000000000000000000A4
:102C30000000000000000000000000000000000094
:102C40000000000000000000000000000000000084
:102C50000000000000000000000001010000000072
:102C60000000000000000000000000000000000064
:102C70000000000000000000000000000000000054
:102C80000000000000000000000000000000000044
:102C90000000000000800040C0C020202020202034
:102CA000202020282828200050505090A02040406C
:102CB000C080000000000000000000000020102084
:102CC00020000000000000000000000000000000E4
:102CD00000000000000000000000000000000000F4
:102CE00000000000000000000000000000000000E4
:102CF00000000000000000000000000000000000D4
:102D000000000000000000000000000000000000C3
:102D100000187EC1BD0201013C7E7EF6F2F2D2C0F7
:102D2000C06121000002020284CCF8B08081423CE4
:102D3000080001030204040000000000000000007D
:102D40000000000000000000000000000000000083
:102D50002020606020000000000000000000000053
:102D60000000000000000000000000000000000063
:102D70000000000000000000000000000000000053
:102D80000000000000000000000000808000000043
:102D9000000000000001010202020000040505C558
:102DA00045253F638201010100002020418181000F
:102DB000020204040C081810306060C0C08080005B
:102DC0000000000000000000000000000000000003
:102DD00000000000000000000000000000000000F3
:102DE00000000080C04040C08000000000000000E3
:102DF00000000000000000000000000000000000D3
:102E000000000000000000000000000000000000C2
:102E100000000000000000000000000000000001B1
:102E2000030204080811322644485890A0E040E10B
:102E3000A31214141810102040408080014366AD86
:102E40001A1624485890E00000000000000040805E
:102E500080000000000000000000000000000000F2
:102E6000000000000001010100000000000000005F
:102E70000000000000000000000000000000000052
:102E80000000000000000000000000000000000042
:102E9000000202000000000000000000000000002E
:102EA00000008080040C081030206040808000000A
:102EB0000001020204040400080814342340408086
:102EC00001191A2424181D1F2A264C889890A0A0A6
:102ED000C181820204080800000000000000000018
:102EE00000000000008080000000000000000020C2
:102EF0002020000000000000000000000000000092
:102F000000000000000000000000000000000000C1
:102F10000C0C040000000000000000000000000095
:102F2000000000000000000000000000000101029D
:102F300006040818102060408080000018102060EF
:102F400041818206040E1A11216141808001010233
:102F5000040408191322240C48509030206040804B
:102F60000000000000000000000000000000000061
:102F70000000000000000000000000000000000051
:102F80000000000000000000000000000000000041
:102F90000000000000000000000000000000000031
:102FA000000000000000000000000000000000041D
:102FB000040C0E04040400000001010202000000E1
:102FC00000000000000000000000000000010202FC
:102FD00004040400080808080084860302020301B0
:102FE00000000000000000400000000000000000A1
:102FF00000000000000000000000000000000000D1
:1030000000000000000000000000000000000000C0
:1030100000000000000000000000000000000000B0
:1030200000000000000000000000000000000000A0
:103030000000000000000000000000000000000090
:103040000000000000000000000000000000000080
:10305000000000000000000000000101020000006C
:103060000000000000000000000000000000000060
:103070000000000000000000000000000000000050
:103080000000000000000000000000000000000040
:103090008040402020A00040C0C0A0606060606010
:1030A0002020202020202000404040808000000080
:1030B000000000000000000000000000000000C050
:1030C000C0C0C000000000000000000000000000C0
:1030D00000000000000000000000000000000000F0
:1030E00000000000000000000000000000000000E0
:1030F00000000000000000000000000000000000D0
:1031000000000000000000000000000000000001BE
:1031100000187EC38D0201093C7E7EFEFEFAFAF2A3
:10312000F8E9E1203012020284CCF8B08081423C00
:10313000080000000000001810306040808000008F
:10314000000000000000000000000000000000007F
:103150000000008080C080800001000000000000AE
:10316000000000000000000000000000000000005F
:10317000000000000000000000000000000000004F
:10318000000000000000000000000000000000003F
:1031900000000000000101020202008044452525D4
:1031A00025252F3A62418181202040808101010A3A
:1031B000121424484890B02040C080000001010251
:1031C0000604081810206040808000000000000005
:1031D00000000000000100000000000000000000EE
:1031E00000000000000000000000000000000000DF
:1031F00000000000000000000000000000000000CF
:1032000000000000000000000000000000000302B9
:103210000000000000000000000001030604080890
:103220001020204040808080818382848C497222DB
:1032300024085850B0B0C8890A0204090A1C182092
:1032400060408080000000000001010200000000DA
:10325000000000000000000000000000000000006E
:103260000000000000000303020303000000000050
:10327000000000000000000000000000000000004E
:10328000000000000000000000000000000000003E
:10329000000000080C00000000000000000000001A
:1032A000000000000000000000000000000000001E
:1032B00000000000000001010303060A0A12322286
:1032C00042C18101090E16140818102020C0808008
:1032D000000000000000001020604080800000001E
:1032E00000000000000000000000000000000000DE
:1032F00000000000000000000000000000000000CE
:1033000000000000000000000000000000000000BD
:10331000000010101000000000000000000000007D
:10332000000000000003000000000000000000009A
:1033300000000000102060408080000000000000BD
:1033400000000001010206060B1911206040808078
:1033500001010204040808101020202041C1820647
:103360000408080000000000000000000000000049
:10337000000000000000000000000000000000004D
:10338000000000000000000000000000000000003D
:10339000000000000000000000000000000000002D
:1033A000000000000000000000000000000000001D
:1033B0000010101038381010000101020604080037
:1033C0000000000000060408181020604080800003
:1033D00001030202000404040404040400020100C6
:1033E00000000000000000000000000000000000DD
:1033F00000000000000000000000000000000000CD
:1034000000000000000000000000000000000000BC
:1034100000000000000000000000000000000000AC
:10342000000000000000000000000000000000009C
:10343000000000000000000000000000000000008C
:10344000000000000000000000000000000000007C
:10345000000000000000000000000000020000006A
:10346000000000000000000000000000000000005C
:10347000000000000000000000000000000000004C
:10348000000000000000000000000000000000003C
:103490008040000000800040C0C0A06060606060AC
:1034A00060602020202020004040408080000000FC
:1034B000000000000000000000000000000000000C
:1034C00080804080800000000000000000000000BC
:1034D00000000000000000000000000000000000EC
:1034E00000000000000000000000000000000000DC
:1034F00000000000000000000000000000000000CC
:10350000000000000000000000000000003C7EC140
:1035100000187EC3810201093C7E7EFEFEFEFAFA9F
:10352000F8F9E9E86032120284CCF8B08081423CBC
:103530000800000000000000000000000000000083
:103540000001010100000000000000000000000078
:103550000000000000008080000002000000000069
:10356000000000000000000000000000000000005B
:10357000000000000000000000000000000000004B
:10358000000000000000000000000000000000003B
:1035900000000000000101020202000084C5652550
:1035A00025051F1A120121214040809021214182CE
:1035B000820604080810202040C08000000000009F
:1035C0000604081810206040808000000000000001
:1035D00000000000010101010100000000000000E6
:1035E00000000000000000000000000000000000DB
:1035F00000000000000000000000000000000000CB
:1036000000000000000000000000000000000006B4
:10361000020000000000000000000000000302049F
:103620000C08101020404000A08080818102464498
:1036300078F1C282840C08903868C4850506040CB1
:1036400008101020C08000000001010206040818C4
:10365000102060408000000000000000000000001A
:10366000000000000000000606050506020000003C
:10367000000000000000000000000000000000004A
:10368000002000000000000000000000000000001A
:10369000000000000018080000000000000000000A
:1036A000000000000000000000000000000000001A
:1036B000000001010202050707070A0C152938500E
:1036C000A0A041818101060E0C0C0810B0A0C0C062
:1036D0008000000000010100000000000000000068
:1036E00000000000000000000000000000000000DA
:1036F00000000000000000000000000000000000CA
:1037000000000000000000000000000000000000B9
:103710000000000020202000000000000000000049
:103720000000000000000202000000000000000095
:103730000000000000000000000000000000000089
:103740000000010202050E0A162B2950B0A04040CD
:103750008001010202040808101020204141820665
:103760000408181020604080800000000000000065
:103770000000000000000000000000000000000049
:103780000000000000000000000000000000000039
:103790000000000000000000000000000000000029
:1037A0000000000000000000000000000000000019
:1037B00000000020003078202000010206040808E4
:1037C0000000000000000000001020604080810127
:1037D00003030306060604040404040404020100AF
:1037E00000000000000000000000000000000000D9
:1037F00000000000000000000000000000000000C9
:1038000000000000000000000000000000000000B8
:1038100000000000000000000000000000000000A8
:103820000000000000000000000000000000000098
:103830000000000000000000000000000000000088
:103840000000000000000000000000000000000078
:103850000000000000000000000000000000000068
:103860000000000000000000000000000000000058
:103870000000000000000000000000000000000048
:103880000000000000000000000000000000000038
:103890000000000000808040C0C0A06060606060E8
:1038A0006060606020202000404040808000000078
:1038B0000000000000000000000000000000000008
:1038C00000000080800000000000000000000000F8
:1038D00000000000000000000000000000000000E8
:1038E00000000000000000000000000000000000D8
:1038F00000000000000000000000000000000000C8
:10390000000000000000000000000000003C788083
:1039100000187EC3810001093C7E7EFEFEFEFEFE95
:10392000F8F8F8F8F862321284CCF8B08081423CA2
:10393000080000000000000000000000000000007F
:103940000001010201010000000000000000000071
:10395000000000000000000000000004040000005F
:103960000000000000000000000000000000000057
:103970000000000000000000000000000000000047
:103980000000000000000000000000000000000037
:10399000010302040C09113222020000040505E5AE
:1039A00025151F1A02090909001010202141D19183
:1039B0002162428284040C081010202040C0800044
:1039C00000000000000000008080000000000000F7
:1039D00000000000000001030301000000000000DF
:1039E00000000000000000000000000000000000D7
:1039F00000000000000000000000000000000000C7
:103A000000000000000000000000000000000000B6
:103A1000040400000000000000000000000000009E
:103A200001020204080810202040505040C0C0404D
:103A300041A3A29C1801028284C8081824648083D0
:103A40000302040C0810B0E000010302040C08108B
:103A5000302040C080000000000000000000000096
:103A60000000000000000000040E0A0A0E0400001E
:103A70000000000000000000000000000000000046
:103A800000004040000000000000000000000000B6
:103A90000000000000001010000000000000000006
:103AA0000000000000000000000000000000000115
:103AB0000202044445090A040C09111222644888D0
:103AC00091212141C180010306040C089890A0E0D7
:103AD000C080800000010302040C08103020400068
:103AE00000000000000000000000000000000000D6
:103AF00000000000000000000000000000000000C6
:103B000000000000000000000000000000000000B5
:103B10000000000000606060000000000000000085
:103B2000000000000000000404000000000000008D
:103B30000000000000000000000000000000000085
:103B400001010202040E1B1322664D8990102040D1
:103B50004080800182020404081010206040800030
:103B60000008181020604080800000000000000065
:103B70000000000000000000000000000000000045
:103B80000000000000000000000000000000000035
:103B90000000000000000000000000000000000025
:103BA0000000000000000000000000000000000015
:103BB00000000000000060F0600000000000001045
:103BC000100000000000000000000000418183039D
:103BD000060404010B0B060404040404040203009D
:103BE00000000000000000000000000000000000D5
:103BF00000000000000000000000000000000000C5
:103C000000000000000000000000000000000000B4
:103C100000000000000000000000000000000000A4
:103C20000000000000000000000000000000000094
:103C30000000000000000000000000000000000084
:103C40000000000000000000000000000000010172
:103C50000000000000000000000000000000000064
:103C60000000000000000000000000000000000054
:103C70000000000000000000000000000000000044
:103C80000000000000000000000000000000000034
:103C90000000000000808040C0C0A06060606060E4
:103CA0006060606020202000404040808000000074
:103CB0000000000000000000000000000000000004
:103CC00000000080800000000000000000000000F4
:103CD00000000000000000000000000000000000E4
:103CE00000000000000000000000000000000000D4
:103CF00000000000000000000000000000000000C4
:103D0000000000000000000000000000003C78807F
:103D100000187EC3810001093C7E7EFEFEFEFEFE91
:103D2000F8F8F8F8F862321284CCF8B08081423C9E
:103D3000080000000000000000000000000000007B
:103D4000000101020101000000000000000000006D
:103D5000000000000000000000000004040000005B
:103D60000000000000000000000000000000000053
:103D70000000000000000000000000000000000043
:103D80000000000000000000000000000000000033
:103D9000010302040C09113222020000040505E5AA
:103DA00025151F1A02090909001010202141D1917F
:103DB0002162428284040C081810202040C0800038
:103DC00000000000000000008080000000000000F3
:103DD00000000000000001030301000000000000DB
:103DE00000000000000000000000000000000000D3
:103DF00000000000000000000000000000000000C3
:103E000000000000000000000000000000000000B2
:103E1000040400000000000000000000000000009A
:103E200001020204080810202040505040C0C04049
:103E300041A3A29C1801828284C80818246480834C
:103E40000302040C0810B0E000010302040C081087
:103E5000302040C080000000000000000000000092
:103E60000000000000000000040E0A0A0E0400001A
:103E70000000000000000000000000000000000042
:103E800000004040000000000000000000000000B2
:103E90000000000000001010000000000000000002
:103EA0000000000000000000000000000000000111
:103EB0000202044445090A040C09111222644888CC
:103EC00091212141C180010306040C089890A0E0D3
:103ED000C080800000010302040C08103020400064
:103EE00000000000000000000000000000000000D2
:103EF00000000000000000000000000000000000C2
:103F000000000000000000000000000000000000B1
:103F10000000000000606060000000000000000081
:103F20000000000000000004040000000000000089
:103F30000000000000000000000000000000000081
:103F400001010202040E1B1322664D8990102040CD
:103F5000408080018202040408101020604080002C
:103F60000008181020604080800000000000000061
:103F70000000000000000000000000000000000041
:103F80000000000000000000000000000000000031
:103F90000000000000000000000000000000000021
:103FA0000000000000000000000000000000000011
:103FB00000000000000060F0600000000000001041
:103FC0001000000000000000000000004181830399
:103FD000060404010B0B0604040404040402030099
:103FE00000000000000000000000000000000000D1
:103FF00000000000000000000000000000000000C1
:1040000000000000000000000000000000000000B0
:1040100000000000000000000000000000000000A0
:104020000000000000000000000000000000000090
:104030000000000000000000000000000000000080
:10404000000000000000000000000000000001016E
:104050000000000000000000000000000000000060
:104060000000000000000000000000000000000050
:104070000000000000000000000000000000000040
:104080000000000000000000000000000000000030
:10409000000000000080804040C0A0606060606060
:1040A00060606060606020004040408080000000F0
:1040B00000000000000000000000000010000000F0
:1040C00000000000000000000000000000000000F0
:1040D00000000000000000000000000000000000E0
:1040E00000000000000000000000000000000000D0
:1040F00000000000000000000000000000000000C0
:1041000000000000000000000000000000000000AF
:1041100000187EC3810000001C7E7EFEFEFEFEFEB7
:10412000FEFEFEFCFC7A7A3294CCF8B08081423CF0
:104130000800000000000000000000000000000077
:104140000000000303030200000000000000000064
:10415000000000000000000000000000000C000053
:10416000000000000000000000000000000000004F
:10417000000000000000000000000000000000003F
:10418000000000000000000000000000000000002F
:10419000010302040C0911322242800004050505C6
:1041A000E5B51F1A0A0909010404040405050509F7
:1041B000091111212042C284040408081010206053
:1041C00040808000000000000000000000000000AF
:1041D00000000000000000020606020200000000CD
:1041E00000000000000000000000000000000000CF
:1041F00000000000000000000000000000000000BF
:1042000000000000000000000000000000000000AE
:10421000000808000000000000000103061830003C
:10422000000103060E1C382850E0E060484848446E
:1042300064A4A010101000888D87C204040C1C32E6
:104240004282838382068488987000000000000008
:10425000202040C08000000000000000000000009E
:10426000000000000000000000080C14141C0C00EA
:10427000000000000000000000000000000000003E
:10428000000000C0800000000000000000000000EE
:1042900000000000000000202000000000000000DE
:1042A0000000000000000000000000010102020404
:1042B00004080849CB8A0C0C081010214242840CD7
:1042C000081030204040800101020604889890A028
:1042D00060408080000103020408181030604080B4
:1042E000800000000000000000000000000000004E
:1042F00000000000000000000000000000000000BE
:1043000000000000000000000000000000000000AD
:1043100000000000000040C040000000000000005D
:104320000000000000000000000800000000000085
:104330000000000000000101020000000000000178
:10434000010206040E1A11214142860508181020A8
:104350006040808001818204040810302040800089
:1043600000000000006040C080000000000000006D
:10437000000000000000000000000000000000003D
:10438000000000000000000000000000000000002D
:10439000000000000000000000000000000000001D
:1043A000000000000000000000000000000000000D
:1043B0000000000000404040E0C04040000000001D
:1043C00000000000000000000000000103020405DE
:1043D000060C0809090A0607040404040402030180
:1043E00000000000000000000000000000000000CD
:1043F00000000000000000000000000000000000BD
:1044000000000000000000000000000000000000AC
:10441000000000000000000000000000000000009C
:10442000000000000000000000000000000000008C
:10443000000000000000000000000000000000007C
:10444000000000000000000000000000000000016B
:10445000000000000000000000000000000000005C
:10446000000000000000000000000000000000004C
:10447000000000000000000000000000000000003C
:10448000000000000000000000000000000000002C
:10449000000000000080804040402020606060609C
:1044A000606060606060208040404080800000006C
:1044B00000000000000000000000000010301000AC
:1044C00000000000000000000000000000000000EC
:1044D00000000000000000000000000000000000DC
:1044E00000000000000000000000000000000000CC
:1044F00000000000000000000000000000000000BC
:1045000000000000000000000000000000000000AB
:1045100000187EC381000000187C7EFEFEFFFFFFB6
:10452000FFFEFEFEFEFE7E7EBCDCF8B08081423CDB
:104530000800000000000000000000000000000073
:104540000000000006060606000000000000000053
:104550000000000000000000000000000000080053
:10456000000000000000000000000000000000004B
:10457000000000000000000000000000000000003B
:10458000000000000000000000000000000000002B
:10459000000000000001010242428000040505E520
:1045A000351D6FD28A0909010404000203030202C7
:1045B000020205050D091012226244840808101039
:1045C00020204040800000000000000000000000AB
:1045D000000000000000000004040E0404000000BD
:1045E00000000000000000000000000000000000CB
:1045F00000000000000000000000000000000000BB
:1046000000000000000000000000000000000000AA
:1046100000000010100000000000010306183060C8
:10462000C3860C183021428284CC4830302020646C
:10463000E4A40012121200088888C4C4030204040F
:104640000E3A704181818382840C58700000008092
:1046500080000000000000000000000000000000DA
:1046600000000000000000000000001818281818C2
:10467000100000000000000000000000000000002A
:10468000000000008080000000000000000000002A
:10469000000000000000000040400000000000009A
:1046A00000010102040C08181001010202040408B0
:1046B00008000103028C0C08101020404182020403
:1046C0000C081030204040800101020604888890C8
:1046D00020604080800000040408181020604080A2
:1046E000800000000000000000000000000000004A
:1046F00000000000000000000000000000000000BA
:1047000000000000000100000000000000000000A8
:104710000000000000000080808080000000000099
:104720000000000000000000000010000000000079
:104730000000000000000101020604081810010139
:104740000206040C121221414181020705081810CB
:104750002060C08000010182040408103060C08025
:1047600001010000000000008000000000000000C7
:104770000000000000000000000000000000000039
:104780000000000000000000000000000000000029
:104790000000000000000000000000000000000019
:1047A0000000000000000000000000000000000009
:1047B000000000000000008080C0C0808000000079
:1047C0000000000000000000000001020604080BC9
:1047D0000E0C08081926260405050404040203012A
:1047E00000000000000000000101000000000000C7
:1047F00000000000000000000000000000000000B9
:1048000000000000000000000000000000000000A8
:104810000000000000000000000000000000000098
:104820000000000000000000000000000000000088
:104830000000000000000000000101000000000076
:104840000000000000000000000000000000000068
:104850000000000000000000000000000000000058
:104860000000000000000000000000000000000048
:104870000000000000000000000000000000000038
:104880000000000000000000000000000000000028
:104890000000000000808040404020202020202098
:1048A0006060606060606080C0C040808000000028
:1048B0000000000000000000000000000020202098
:1048C00000000000000000000000000000000000E8
:1048D00000000000000000000000000000000000D8
:1048E00000000000000000000000000000000000C8
:1048F00000000000000000000000000000000000B8
:1049000000000000000000000000000000000000A7
:1049100000187EC381000000007C7EFEFFFFFFFFC9
:10492000FFFFFFFEFEFE7E7EFCFCF8B08081423C75
:10493000080000000000000000000000000000006F
:104940000000000000040C0C0C040000000000003B
:104950000000000000000000000000000000001047
:104960001000000000000000000000000000000037
:104970000000000000000000000000000000000037
:104980000000000000000000000000000000000027
:104990000000000000010102020200000405C565DC
:1049A000150D0F42F2694985040400020203020159
:1049B000010101020203050D0A12122444C88818DD
:1049C0001020204040800000000000000000000097
:1049D00000000000000000000008081C080800009B
:1049E00000000000000000000000000000000000C7
:1049F00000000000000000000000000000000000B7
:104A000000000000000000000000000000000000A6
:104A10000000000030300000000000000010316392
:104A2000C688102060418182C54D4A143428485000
:104A300090101212120001098989C0C444020306B1
:104A4000040A1A314141818182864C58300000802D
:104A500080000000000000000000000000000000D6
:104A6000000000000000000000000000303020289E
:104A700030100000000000000000000000000000F6
:104A80000000000080800000000000000000000026
:104A900000000000000000000000C08000000000D6
:104AA00000010102040C0811312262448408080844
:104AB00010111112040C08181020604081810206A8
:104AC000040808102020408080010302048488909C
:104AD0001123424684800000000000000000808016
:104AE00000000000000000000000000000000000C6
:104AF00000000000000000000000000000000000B6
:104B000000000000000203000000000000000000A0
:104B10000000000000000000000000000000000095
:104B20000000000000000000000000001001010271
:104B300006040808000000000000040818302142A4
:104B400042840C0E1220614181010303050C081000
:104B5000302040800000010202448C081020C080F8
:104B6000010302040000000000000000000000003B
:104B70000000000000000000000000000000000035
:104B80000000000000000000000000000000000025
:104B90000000000000000000000101010000000012
:104BA0000000000000000000000000000000000005
:104BB00000000000000000000000808000000000F5
:104BC00000000101000000000003020408080807BB
:104BD000070608080D2626448585050404060301FA
:104BE00000000000000000000000000000000000C5
:104BF00000000000000000000000000000000000B5
:104C000000000000000000000000000000000000A4
:104C10000000000000000000000000000000000094
:104C20000000000000000000000000000000000084
:104C3000000000000000000001010101010100006E
:104C40000000000000000000000000000000000064
:104C50000000000000000000000101000000000052
:104C60000000000000000000000000000000000044
:104C70000000000000000000000000000000000034
:104C80000000000000000000000000000000000024
:104C9000000000000080804040402020202828287C
:104CA000282828282828281050505090A02040401C
:104CB00040000000000000000000000000000000B4
:104CC00000000000004040C0404000000000000024
:104CD00000000000000000000000000000000000D4
:104CE00000000000000000000000000000000000C4
:104CF00000000000000000000000000000000000B4
:104D000000000000000000000000000000000000A3
:104D100000187EC38100000010784C8482020301D9
:104D20000101030F27273F3EFEFCFCB88081423E75
:104D3000180000008080808080800000000000005B
:104D40000000000000000000000000000000000063
:104D500000000000000000008080808080000000D3
:104D60000000000000000000000000000000000043
:104D70000000000000000000000000000000000033
:104D80000000000000000000000000000000000023
:104D900000000000000101020202000404050505F4
:104DA00005051F3B428101010000001021214181C6
:104DB00083030504080810302040408101020404E8
:104DC00008181020E0C000000000000000000000F3
:104DD00000000000000000000103020201010000C9
:104DE00000000000000000000000000000000000C3
:104DF00000000000000000000000000000000000B3
:104E00000000000000040404000000000000000096
:104E1000000000000000000000000000000000048E
:104E200008181020604081830204080810302060B8
:104E300040C18282840C0890B868C48405070606C5
:104E40000E1A1221C180000000040C18102020004E
:104E50000000000000000000000000000000000052
:104E60000000000040604000000000000000000062
:104E70000000000000000000000000000000000032
:104E8000000000000008080800000000000000000A
:104E90000000000000000001010000000000000010
:104EA00000000000000000010302040C0810302084
:104EB00040C081010303060605090A163539585812
:104EC000E868698991010302040C081090A0C0C031
:104ED0008000000000000000000000000000081832
:104EE000102060400000000000000010181818108A
:104EF00000000000000000000000000000000000B2
:104F000000000000000000000000000000000000A1
:104F10000000000000000000000000000000000091
:104F20000000000008081C1C080808000000000021
:104F3000000000010302000000000000000000006B
:104F40000001010204050F12162F69D0B020C00025
:104F500000010102060408181060C0800000000073
:104F60000000000000000000000000000000000041
:104F70000000000000000000000000000000000031
:104F80000000000000000000000000000000000021
:104F90000000000000000000000000000000000011
:104FA0000000000000000000000000000000000001
:104FB0000000000000000000004040400000000031
:104FC000000000000000000000000000070C0B06BD
:104FD0001C18180808080804040603010000000053
:104FE0000000000000004000000000000000000081
:104FF00000000000000000000000000000000000B1
:1050000000000000000000000000000000000000A0
:105010000000000000000000000000000000000090
:105020000000000000000000000000000000000080
:105030000000000000000000000000000000000070
:105040000000000000000000000000000000000060
:105050000000000000000000000000000000000050
:105060000000000000000000000000000000000040
:105070000000000000000000000000000000000030
:105080000000000000000000000000000000000020
:105090000000000000000000000000000000000010
:1050A0000000000000000000000000000000000000
:1050B00000000000000000000000000000000000F0
:1050C00000000000000000000000000000000000E0
:1050D00000000000000000000000000000000000D0
:1050E00000000000000000000000000000000000C0
:1050F00000000000000000000000000000000000B0
:10510000000000000000000000000000000000009F
:10511000000000000000000000000000000000008F
:10512000000000000000000000000000000000007F
:10513000000000000000000000000000000000006F
:10514000000000000000000000000000000000005F
:10515000000000000000000000000000000000004F
:10516000000000000000000000000000000000003F
:10517000000000000000000000000000000000002F
:10518000000000000000000000000000000000001F
:10519000000000000000000000000000000000000F
:1051A00000000000000000000000C000000000003F
:1051B00000000000000000000000000000000000EF
:1051C0000000808080C0800000000000000000001F
:1051D00000000000000000000000000000000000CF
:1051E00000000000000000000000000000000000BF
:1051F00000000000000000000000000000000000AF
:10520000000000000000000000000000000000009E
:10521000000000000000000000000000000000008E
:105220000000000020606060F0FFBF900000FC0400
:10523000000000000000000000000060602022224A
:105240003331FCFC383038383830000000000000C2
:10525000000000000000000000000000000000004E
:10526000000000000000000000000000000000003E
:10527000000000000000000000000000000000002E
:10528000000000000000000000000000000000001E
:10529000000000000000000000000000000000000E
:1052A000000000001808040703FF010100003F6030
:1052B000606060707E7C0000000000000000000064
:1052C000000000FF000000000000000000000000DF
:1052D00000000000000000000000000000000000CE
:1052E00000000000000000000000000000000000BE
:1052F00000000000000000000000000000000000AE
:10530000000000000000000000000000000000009D
:10531000000000000000000000000000000000008D
:10532000000000000000000000000000000000007D
:10533000000000000000000000000000000000006D
:10534000000000010000000000000000000000005C
:10535000000000000000000000000000000000004D
:10536000000000000000000000000000000000003D
:10537000000000000000000000000000000000002D
:10538000000000000000000000000000000000001D
:10539000000000000000000000000000000000000D
:1053A00000000000000000000000000000000000FD
:1053B00000000000000000000000000000000000ED
:1053C00000000000000000000000000000000000DD
:1053D00000000000000000000000000000000000CD
:1053E00000000000000000000000000000000000BD
:1053F00000000000000000000000000000000000AD
:10540000000000000000000000000000000000009C
:10541000000000000000000000000000000000008C
:10542000000000000000000000000000000000007C
:10543000000000000000000000000000000000006C
:10544000000000000000000000000000000000005C
:10545000000000000000000000000000000000004C
:10546000000000000000000000000000000000003C
:10547000000000000000000000000000000000002C
:10548000000000000000000000000000000000001C
:10549000000000000000000000000000000000000C
:1054A00000000000000000000000000000000000FC
:1054B00000000000000000000000000000000000EC
:1054C00000000000000000000000000000000000DC
:1054D00000000000000000000000000000000000CC
:1054E00000000000000000000000000000000000BC
:1054F00000000000000000000000000000000000AC
:10550000000000000000000000000000000000009B
:10551000000000000000000000000000000000008B
:10552000000000000000000000000000000000007B
:1055300000000000F8E08000000000000000000013
:10554000000000000000000000000000000000005B
:10555000000000000000000000000000000000004B
:10556000000000000000000000000000000000003B
:10557000000000000000000000000000000000002B
:10558000000000000000000000000000000000001B
:10559000000000000000000000000000000000000B
:1055A00000000000000000000000000000000000FB
:1055B00000000000F8FFDFFFFCF8F0E0C0C0800052
:1055C00000000000000000000000000000000000DB
:1055D0000080C0000000000000000000000000008B
:1055E00000000000000000000000000000000000BB
:1055F00000000000000000000000000000000000AB
:10560000000000000000000000000000000000009A
:10561000000000000000000000000000000000008A
:105620000000000000000000000000000006F0C0C4
:105630008000000001FF2F272F7F5F5F7FBFFFFFEC
:10564000FF1E1E1E1C1C3C3C1C1C1C1E1E1E0F0F85
:105650000F0707000000000000000000000000002D
:10566000000000000000000000000000000000003A
:10567000000000000000000000000000000000002A
:10568000000000000000000000000000000000001A
:10569000000000000000000000000000000000000A
:1056A0000000000000000000000000000003FF9B5D
:1056B000F7B77EFE7CFF0000000000000000000045
:1056C00001000000000000000000000000000000D9
:1056D00000000000000000000000000000000000CA
:1056E00000000000000000000000000000000000BA
:1056F00000000000000000000000000000000000AA
:105700000000000000000000000000000000000099
:105710000000000000000000000000000000041C69
:105720003C78787878787878787878787838787875
:1057300038783879397F0000000000000000000050
:105740000000000000000000000000000000000059
:105750000000000000000000000000000000000049
:105760000000000000000000000000000000000039
:105770000000000000000000000000000000000029
:105780000000000000000000000000000000000019
:105790000000000000000000000000000000000009
:1057A00000000000000000000000000000000000F9
:1057B00000000000000000000000000000000000E9
:1057C00000000000000000000000000000000000D9
:1057D00000000000000000000000000000000000C9
:1057E00000000000000000000000000000000000B9
:1057F00000000000000000000000000000000000A9
:105800000000000000000000000000000000000098
:105810000000000000000000000000000000000088
:105820000000000000000000000000000000000078
:105830000000000000000000000000000000000068
:105840000000000000000000000000000000000058
:105850000000000000000000000000000000000048
:105860000000000000000000000000000000000038
:105870000000000000000000000000000000000028
:1058800000000000008080C0E0F07078383C1C1EF2
:105890000E0E0E0707070707070707070707070783
:1058A0000707070E0E0E1E1C3C387870F0E0C08013
:1058B0008000000000000000000000000000000068
:1058C00000000000000000000000000000000000D8
:1058D00000000000000000000000000000000000C8
:1058E00000000000000000000000000000000000B8
:1058F000000000000000000000000000000000C0E8
:10590000E0F07C3E1F0F07030180C0E0F078383CD8
:105910001C1E0E0E070707070707070707070707DD
:1059200007070E0E1E1C3C3878F0E0C0800103070C
:105930000F1F3E7CF0E0C0000000000000000000EF
:105940000000000000000000000000000000000057
:105950000000000000000000000000000000000047
:105960000000000000000000000000000000000037
:10597000000000000000000000000000F0FCFF1F1D
:1059800007010000C0F0FC7E1F07030100000000BB
:1059900000008080C0C0E0E0E0E0E0E0C0C0800047
:1059A00000C0C0C0C0C0800000000103071F7EFC13
:1059B000F0C0000001071FFFFCF000000000000025
:1059C00000000000000000000000000000000000D7
:1059D000030303C3F33F0F030000FFFFC0C0C0C0B9
:1059E000FFFF00000000E03C0F3CE0000000000072
:1059F0000000000000000000000000FFFFFF0000AA
:105A0000000000FEFFFF0100000000000000F0FCAD
:105A1000FEFFFFFF7F1F0F0F0F0F0F0F1F3F0F80A6
:105A2000F8FFFFFFFFFF070000000000000000017B
:105A3000FFFFFE0000000000FFFFFF00000000006D
:105A40000000000000000000000000000000000056
:105A5000303C3F333030303000003F3F000000002A
:105A60003F3F0000383F07030303073F38000000B3
:105A70000000000000000000000000FFFFFF000029
:105A80000000007FFFFF80000000000000000F3FCB
:105A9000FFFFFFFFFCF0E0E0E0E0E0E0F0F8FEFFF9
:105AA000FFFF7F3F0FC1F0FE0000000000000080FC
:105AB000FFFF7F0000000000FFFFFF00000000006C
:105AC00000000000000000000000FEFF07030307C5
:105AD000FFFE000000030303FFFF030303000000B9
