:100000000C94FA050C9432060C9432060C943206C9
:100010000C9432060C9432060C9432060C94320680
:100020000C9432060C9432060C940D160C94631A40
:100030000C947E230C9432060C9432060C943206F7
:100040000C9432060C9432060C9432060C94320650
:100050000C9432060C94E6160C9432060C9432067C
:100060000C9432060C9432060C9432060C94320630
:100070000C9432060C9432060C9432060C94320620
:100080000C9432060C9432060C9432060C94320610
:100090000C9432060C9432060C9432060C94320600
:1000A0000C9432060C9432060C94320605010902B7
:1000B000A10185020901A1000509190129081500FE
:1000C0002501950875018102050109300931158165
:1000D000257F95027508810609381581257F9501D0
:1000E00075088106050C0A38021581257F95017572
:1000F000088106C0C005010980A101850319012AF4
:10010000B700150126B700950175108100C00501E3
:10011000090EA1018504050D0921A10005090901A8
:100120009501750115002501810205010937950129
:10013000750F550F651436F0F146100E16F0F126C6
:10014000100E8106C0C0050C0901A1018505190129
:100150002AA002150126A002950175108100C00594
:10016000010906A1018507050719E029E715002502
:10017000019508750181020507190029EF15002571
:100180000195F0750181020508190129059505758C
:10019000019102950175039101C00659FF0960A103
:1001A000010962150026FF00954075088102096368
:1001B000150026FF00954075089102C00660FF09F2
:1001C00061A1010962150026FF00952075088102D2
:1001D0000963150026FF00952075089102C00501EE
:1001E0000906A101050719E029E715002501950871
:1001F000750181029501750881010507190029FF24
:10020000150026FF009506750881000508190129CB
:1002100005950575019102950175039101C00000D6
:1002200000000000000000000000000000000000CE
:1002300000000000000000000000000000000000BE
:1002400000007E0F00D4FFFFFFC700000078000011
:100250000000000000002A2B280000000000000021
:1002600000000000000000000029000000002C1E1B
:100270003420212224342627252E362D3738271ED8
:100280001F202122232425263333362E37381F04FE
:1002900005060708090A0B0C0D0E0F101112131496
:1002A00015161718191A1B1C1D2F3130232D350454
:1002B00005060708090A0B0C0D0E0F101112131476
:1002C00015161718191A1B1C1D2F3130354C00DA62
:1002D000028164D9F1DB20A4A62EAF00A0C000A14A
:1002E000C800AED580A81FD300408D142000205533
:1002F00044454620002033524420200020324E4402
:10030000202000203153542020002042415345201A
:1003100000204C415945523A0020002D2D2D2D2D05
:10032000005247424F4E002D2D2D2D2D002D4341C3
:1003300050530020002D2D2D2D2D002D4E554D4CB0
:100340000020002000C4C5C5C9CACACACACACACAD0
:10035000CACACACACACACBC5C5C600D40020202092
:1003600020202000C0008081828384858687888940
:100370008A8B8C8D8E8F9091929394000001010155
:100380000101010101010202020202020202020352
:100390000303030303030304040404040404050522
:1003A00005050506060606060707070707080808E5
:1003B00008090909090A0A0A0B0B0B0C0C0C0D0D94
:1003C0000D0E0E0E0F0F0F1010111111121213132C
:1003D0001414151516161717181819191A1A1B1BA5
:1003E0001C1D1D1E1E1F2020212222232424252601
:1003F00026272829292A2B2C2D2D2E2F3031323239
:10040000333435363738393A3B3C3D3E3F40414244
:10041000434445464748494A4C4D4E4F505153542A
:10042000555658595A5B5D5E5F61626465666869DE
:100430006B6C6D6F7072737577787A7B7D7E80825E
:10044000838587888A8C8E8F91939596989A9C9EA7
:10045000A0A2A3A5A7A9ABADAFB1B3B5B7BABCBEB7
:10046000C0C2C4C6C9CBCDCFD1D4D6D8DBDDDFE284
:10047000E4E7E9EBEEF0F3F5F8FAFDFF00AF00AECC
:100480000000040004000400040004000000040054
:100490000400040004000400000004000400040040
:1004A00004000000040001510400040004000000E6
:1004B0000000010001000100010001000000010036
:1004C0000100010001000100000001000100010025
:1004D0000100000001000100010001000100000016
:1004E0000000010001000100010001000000010006
:1004F00001000100010001000000010001000100F5
:1005000001000000010001000100010001000000E5
:1005100000000100010001000100010000000100D5
:1005200001000100010001000000010001000100C4
:1005300001000000010001000100010001000000B5
:1005400009027B00040100A0FA0904000001030174
:100550000100092111010001224000070581030863
:10056000000109040100020300000009211101003B
:100570000122220007058203200001070503032052
:10058000000109040200020300000009211101001A
:1005900001222200070584034000010705050340EE
:1005A00000010904030001030000000921110100FA
:1005B0000122EE000705860320000112010002005F
:1005C000000008AA00AAAA0100010200010E034DC2
:1005D0000070006100640031003200000010035A16
:1005E00000680061005100690061006E00000004B5
:1005F0000309040000000000003E5B4F5B3E003E2C
:100600006B4F6B3E001C3E7C3E1C00183C7E3C1831
:10061000001C577D571C001C5E7F5E1C0000183CB0
:10062000180000FFE7C3E7FF00001824180000FFD0
:10063000E7DBE7FF0030483A060E00262979292635
:1006400000407F05050700407F05253F005A3CE735
:100650003C5A007F3E1C1C0800081C1C3E7F0014F6
:10066000227F2214005F5F005F5F0006097F017F29
:1006700000006689956A0060606060600094A2FF77
:10068000A2940008047E04080010207E20100008B8
:10069000082A1C0800081C2A0808001E1010101048
:1006A000000C1E0C1E0C0030383E383000060E3E8A
:1006B0000E060000000000000000005F00000000C7
:1006C0000700070000147F147F1400242A7F2A12D9
:1006D00000231308646200364956205000000807C2
:1006E000030000001C224100000041221C00002ADF
:1006F0001C7F1C2A0008083E08080000807030009B
:1007000000080808080800000060600000201008C9
:100710000402003E5149453E0000427F4000007205
:1007200049494946002141494D33001814127F10B0
:10073000002745454539003C4A49493100412111CE
:10074000090700364949493600464949291E000033
:100750000014000000004034000000000814224192
:10076000001414141414000041221408000201594A
:100770000906003E415D594E007C1211127C007F3B
:1007800049494936003E41414122007F4141413EB5
:10079000007F49494941007F09090901003E414163
:1007A0005173007F0808087F0000417F410000204E
:1007B00040413F01007F08142241007F40404040FB
:1007C000007F021C027F007F0408107F003E414131
:1007D000413E007F09090906003E4151215E007F2C
:1007E000091929460026494949320003017F0103BE
:1007F000003F4040403F001F2040201F003F403846
:10080000403F00631408146300030478040300618C
:1008100059494D4300007F41414100020408102026
:1008200000004141417F00040201020400404040B9
:100830004040000003070800002054547840007F27
:100840002844443800384444442800384444287F2D
:100850000038545454180000087E0902001824245B
:100860001C78007F080404780000447D40000020CC
:1008700040403D00007F102844000000417F4000C0
:10088000007C04780478007C080404780038444430
:10089000443800FC182424180018242418FC007C78
:1008A000080404080048545454240004043F442419
:1008B000003C4040207C001C2040201C003C40307C
:1008C000403C004428102844004C1010107C004488
:1008D00064544C44000008364100000000770000DA
:1008E000000041360800000201020402003C2623F9
:1008F000263C00E0F0783C1E0F070707070F1F3F5C
:100900007FFFFFFFFF83FB87FB83FFC3BFBFC3FFE7
:1009100083BFBFFFFB83FBFFBB83BBFF83EBEBFB13
:10092000FFC3BFBFC3FF83E7CF83FFC7BBBBBBFF13
:10093000FB83FBFFBB83BBFFC3BBBB87FF83E7CF4F
:1009400083FFFFFFFFFFFFFF83EBEBE3FF87EBEB93
:1009500087FF83BBBBC7FFFF83FFFFFF8BABA3FFFB
:10096000FFFFFF7F3F1F0F070707070F1E3C78F0B1
:10097000E000000000000000000000000000000097
:100980000000000000000000000000000000000067
:100990000000000000000000000000000000000057
:1009A0000000000000000000000000000000000047
:1009B000000000FFFF000000000000000000000039
:1009C0000000000000000000000000000000000027
:1009D0000000000000000000000000000000000017
:1009E0000000000000000000000000000000000007
:1009F00000000000000000000000000000000000F7
:100A000000000000000000000000000000000000E6
:100A100000000000000000000000000000000000D6
:100A2000000000000000000000000000000000FFC7
:100A3000FF000000000000000000000000000000B7
:100A400000000000000000000000000000000000A6
:100A50000000000000000000000000000000000096
:100A60000000000000000000000000000000000086
:100A7000000000FFFF00000000FF80808080808079
:100A800080808080FF8080808080800F1F3C78F095
:100A9000E0C0C0C0C0C0C0E0F0783C1F0F808080C4
:100AA000808080003CFFBD1881C0C0C0C0C0C0C0F5
:100AB000C0C0C0C0C0C0C0C0C0C0C0808080808076
:100AC0008080808080808080808080808080808026
:100AD0008080808080808080808080808080808016
:100AE000808080808080808080808000000000FF87
:100AF000FF000000000000000000000000000000F7
:100B000000000000000000000000000000000000E5
:100B100000000000000000000000000000000000D5
:100B200000000000000000000000000000000000C5
:100B300000000000000000000000000000000000B5
:100B400000000000000000000000000000000000A5
:100B50000000000000000000000000000000000095
:100B60000000000000000000000000000000000085
:100B70000000000000000000000000000000000075
:100B80000000000000000000000000000000000065
:100B90000000000000000000000000000000000055
:100BA0000000000000000000000000000000000045
:100BB0000000000000000000000000000000000035
:100BC0000000000000000000000000000000000025
:100BD0000000000000000000000000000000000015
:100BE00000000000000000000000000000C38118A9
:100BF000BDFF3C0011241FBECFEFDAE0DEBFCDBF4A
:100C000004B603FE18C08091E0059091E105A09123
:100C1000E205B091E3058730904BA740B04B59F403
:100C20001092E0051092E1051092E2051092E305A2
:100C3000E0E0F8E3099512E0A0E0B1E0E2E4F1E6DB
:100C400002C005900D92A236B107D9F725E0A2E6C1
:100C5000B2E001C01D92A03EB207E1F70E94A523B9
:100C60000C9465300C940000E8EDF0E080818E7FFC
:100C700080831092E2001092DA001092E100A0EE60
:100C8000B0E08C9181608C9380818F77808319BCD8
:100C9000A7EDB0E08C918E7F8C9380818F7E8083D6
:100CA0001092980308952091E4003091E50095E6B4
:100CB000A9012091EC00822F817020FF06C0809155
:100CC000E80080FF06C080E008952091E80022FD42
:100CD0001AC08091BD03882389F0853089F0809106
:100CE000EB0085FD0FC02091E4003091E500421734
:100CF0005307F9F29150E1F684E0089582E00895F7
:100D000083E0089581E00895EF92FF920F931F937F
:100D1000CF937C018B010E945306C82F811117C00D
:100D20008091E80085FD0BC08091E8008E7780936C
:100D3000E8000E945306882399F3C82F08C0F701E2
:100D400081917F018093F1000150110949F78C2FA7
:100D5000CF911F910F91FF90EF900895EF92FF9226
:100D60000F931F93CF937C018B010E945306C82FD2
:100D7000811117C08091E80085FD0BC08091E800CB
:100D80008B778093E8000E945306882399F3C82F3D
:100D900008C08091F100F70181937F010150110992
:100DA00049F78C2FCF911F910F91FF90EF900895ED
:100DB0008091BF0387FF13C08091E80082FF06C0C7
:100DC0008091E8008B778093E80004C08091BD0398
:100DD0008111F2CF08958091BD038823D9F38091CA
:100DE000E80080FFF8CF8091E8008E77ECCF982F55
:100DF0009093E900242F762F50E0891731F07091FD
:100E0000EC002091ED005091F00021FD07C09F5FA4
:100E1000973071F78093E90081E008953091EB00FD
:100E20003E7F3093EB003091ED003D7F3093ED003D
:100E30003091EB0031603093EB007093EC00209325
:100E4000ED005093F0002091EE0027FDE0CF80E010
:100E50000895CF92DF92EF92FF920F931F93CF935B
:100E6000DF93C8EDD0E088818F7E8883E7EDF0E0E6
:100E700080818160808384E082BF81E080939803D9
:100E800088818E7F888302EE10E0F8011082109234
:100E9000DA0081EEC82ED12CF601108288818F777E
:100EA000888388818068888388818F7D888319BC46
:100EB0001092BD031092BE031092BC031092BB03AC
:100EC00090EEE92EF12CF70180818B7F8083888161
:100ED0008160888342E060E080E00E94F706F601CE
:100EE00080818E7F8083F801808181608083808112
:100EF00088608083F70180818E7F80838881806114
:100F00008883DF91CF911F910F91FF90EF90DF9039
:100F1000CF900895FC018091C5039091C603861778
:100F20009707A0F06115710529F49091E8009E776C
:100F30009093E80090E06115710551F4911108C09B
:100F40008091E80082FF34C080E00895BC01F2CFB8
:100F50008091BD038823C1F18530C1F18091E80003
:100F600083FD30C08091E80082FDEACF8091E800E7
:100F700080FFE1CF8091F3002091F200382F6115BE
:100F8000710519F02830310558F091E0283031050D
:100F900009F090E02091E8002E772093E800CBCF75
:100FA00081918093F100615071092F5F3F4FE7CF2E
:100FB0008091BD03882341F0853041F08091E800A5
:100FC00083FFBECF81E0089582E0089583E0089515
:100FD000089580919A0308952FB7F89460918F0334
:100FE0007091900380919103909192032FBF089587
:100FF00020918C0330918D032817390771F090935D
:101000008D0380938C03E0918A03F0918B033097DA
:1010100021F00284F385E02D09940895209188033E
:10102000309189032817390771F0909389038093D1
:101030008803E0918A03F0918B03309721F00680BA
:10104000F781E02D09940895E0918A03F0918B03D4
:10105000309721F00190F081E02D099480E008950F
:10106000E0918A03F0918B03309721F00084F185A1
:10107000E02D099408950F931F93CF93DF9381E0A0
:101080008093570180918603C4E8D3E0282F220F74
:1010900098819170922B988305E813E090918703D3
:1010A000990F881F8827881F892BF80180838091DA
:1010B0008403909185030E94300888818170888321
:1010C000F801108210928703109286031092830316
:1010D00010928203DF91CF911F910F91089587396C
:1010E00009F43FC070F58633F1F128F58433E9F156
:1010F0008533E9F18FE196E890937A00982F90720A
:10110000906890937B008F71806480937C008091C5
:101110007A00806480937A0080917A0086FDFCCF0B
:10112000809178002091790090917A009F77909338
:101130007A00922F08958439E1F08639D9F681E258
:10114000DACF843FC1F030F4803FB9F0813F91F6AF
:1011500081E0D1CF863F99F0A0F0873F59F687E034
:10116000CACF82E2C8CF85E2C6CF83E2C4CF84E291
:10117000C2CF80E2C0CF84E0BECF80E0BCCF86E0AB
:10118000BACF85E0B8CFFA01811101C0FB01099403
:10119000E3E4F3E0818360834283339693E0E937AD
:1011A000F907C1F70895FC01EE0FFF1FE80FF91FC3
:1011B000ED5BFC4F6183408322830895EAEDF5E007
:1011C000248130E1231B08F420E024838091420332
:1011D0008160809342030895EAEDF5E0248130E1D7
:1011E000230F08F42FEF24838091420381608093C2
:1011F000420308959091DA0590FF0EC08093DB05BD
:101200006093DC05493C08F048EC4093DD05809193
:101210004203822B809342030895EAEDF5E0438177
:1012200020E1421B08F440E0818121E0628190E0EE
:101230000C94FA08EAEDF5E0438120E1420F08F44E
:101240004FEF818121E0628190E00C94FA08EAED91
:10125000F5E0628120E1621B08F460E0818121E019
:10126000438190E00C94FA08EAEDF5E0628120E118
:10127000620F08F46FEF818121E0438190E00C94CC
:10128000FA08EAEDF5E0818121E04381628188502E
:10129000990B0C94FA08EAEDF5E0818190E021E0E9
:1012A0004381628108960C94FA082091DA05922F06
:1012B000917020FF0CC081110BC092609093DA05F1
:1012C00010924E0180914203862B80934203089531
:1012D0008C3010F09661F2CF880F982BEFCF809171
:1012E000DA058695815009F48BE061E00C9455098C
:1012F0008091DA0586958F5F8C3008F081E061E09F
:101300000C94550980934D018091DA05817080938A
:101310004C010E949A1383E080934E010895E42FBC
:10132000F0E0EE0FFF1FED5EFD4F618D621B089533
:10133000E42FF0E0EE0FFF1FE55DFD4F6081621BC3
:101340000895622F0895E42FF0E0EE0FFF1FE55D92
:10135000FD4F408134EE439F412D1124E82FF0E0F2
:1013600050E0445E5F4FDA01A21BB1099D01B7FF57
:1013700003C031952195310993E0220F331F9A95CF
:10138000E1F7AF01421B530B9A0157FD20E0582FA4
:10139000259F212D1124822F0895E42FF0E0EE0FD8
:1013A000FF1FE55DFD4F408134EE439F412D112429
:1013B000E72FF0E050E0445E5F4FDA01A21BB10975
:1013C0009D01B7FF03C031952195310993E0220FAC
:1013D000331F9A95E1F7AF01421B530B9A0157FD5A
:1013E00020E0279F212D1124722F08950C94C80806
:1013F0000C94D3080F931F9310E0F801EE0FFF1F1A
:10140000E55DFD4F9081905797FD9195000F111F5D
:10141000F801ED5EFD4F018D0052110B2003F0012C
:10142000219FF00D112408E310E0091B110997FD1D
:10143000139540039001419F300D1124E20FF31FDB
:101440009F01220F331F2E0F3F1F37FF02C021586D
:101450003F4F220F232F221F330B620F1F910F913B
:1014600008950F93CF93DF93D72FC82F2115310500
:1014700029F460E857FD1DC060E01BC0F90137FF8B
:1014800004C0EE27FF27E21BF30BBA016E0F7F1F8C
:1014900057FD16C04E1B5F0BCA01E5E0880F991F70
:1014A000EA95E1F70E94402E862F60E2681B37FD27
:1014B0006195600F7D2F8C2FDF91CF910F91089553
:1014C000CB0165E0880F991F6A95E1F7BF01641BA6
:1014D000750B0E94402E862F60E6E8CFE82F86FD30
:1014E000E0952E2F2F7086FD2F5FE695E695E69509
:1014F000E670F0E0ED50FE4F9181929F902D212DEE
:10150000112492959F702295207F922B2081920F1B
:1015100087FD919580E8890F089530E020E0869F4F
:10152000212D969F200D311D1124C9010895AF92E0
:10153000BF92CF92DF92FF920F931F93CF93DF93CF
:10154000362F472FE82FF0E0E458FC4F71110FC001
:10155000E4918E2F2E2F6E2F722FDF91CF911F913E
:101560000F91FF90DF90CF90BF90AF900895C72F5D
:10157000D0E02491F22E022F10E056E0659FC001CA
:101580001124EFEFF0E0BF010E94202E832F90E0A6
:10159000880F991F35E5369FD001379FB00D112474
:1015A0008A1B9B0B982F990F980F6F01CC1ADD0A9D
:1015B000C09ED001C19EB00DD09EB00D11248B2FC6
:1015C000499FA0011124452F55276F01C41AD50A40
:1015D000C09EA001C19E500DD09E500D11245F01F0
:1015E000A91AB108AC9E6001AD9ED00CBC9ED00C77
:1015F0001124CD2CDD24EC19FD09E09FE001E19FD1
:10160000D00DF09FD00D1124ED2F62307105A1F0A7
:1016100050F46115710509F49ECF6130710581F0B8
:10162000EB2F852F98CF6430710569F080F066301C
:10163000710509F490CFF4CFE22F2B2F8D2F8BCF94
:10164000E22F252F88CFEB2F822F2D2F84CF2B2F0A
:101650008F2DE52F80CFDF92EF92FF920F931F9394
:10166000CF93DF937C01C0915A01CC0FCC0F14E0D3
:101670001C0F012F133108F002E16091DE05669521
:10168000669521E0620F08F46FEF8091D605909186
:10169000D7050E948D0AD82ED0E0C01760F081E0F7
:1016A000123108F080E0DF91CF911F910F91FF90F0
:1016B000EF90DF900895FE01ED5EFD4F84AD9091B7
:1016C0005B01892391F06091DB057091DC058091CD
:1016D000DD052D2D4C2FF70109950E94970A462F05
:1016E000282F672FCE010E94F8092196D6CF7F922E
:1016F0008F929F92AF92BF92CF92DF92EF92FF9222
:101700000F931F93CF93DF93182F80914D01811377
:1017100024C08091DA05282F217030E090914C018F
:1017200081E09217130609F480E0817080935C01D8
:101730008091DF0590915B01981739F080935B01F0
:1017400040E060E080E00E94F6091C3090F4E12F58
:10175000F0E0E959FF4C0C94542E81E0E6CF8091E3
:101760005C01882309F47CC040E060E080E00E94D6
:10177000F60980E075C0C0915A01CC0FCC0F04E08F
:101780000C0FF02E033110F032E1F32E6091DB05E7
:101790007091DC058091DD050E94970AE62ED72E18
:1017A000C82ED0E0CF1528F081E0023108F458C0EF
:1017B000E0CFFE01ED5EFD4F84AD90915B0189238A
:1017C00031F02C2D4E2D6D2DCE010E94F809219661
:1017D000E9CFC0915A01CC0FCC0F04E00C0FF02ED2
:1017E000033110F022E1F22EE090DB05D091DC0510
:1017F000D090DD056091DE056695669566958091D1
:10180000D6059091D7050E948D0A0E946E0A8058D5
:1018100087FD8195880F382F6D2D369F312D11242E
:10182000832F6E2D7D2F0E94970AE62ED72EC82E6D
:10183000D0E0CF1508F0B8CFFE01ED5EFD4F84ADCE
:1018400090915B01892331F02C2D4E2D6D2DCE0111
:101850000E94F8092196EDCF8DEC99E00E942B0BA8
:1018600090915A019F5F90935A0181110CC082E0C0
:1018700080934E0180915C01811105C0111103C05C
:1018800083E080934E01DF91CF911F910F91FF90E4
:10189000EF90DF90CF90BF90AF909F908F907F9010
:1018A000089583EA99E0DACF81EA99E0D7CF88E911
:1018B00099E0D4CF8FE899E0D1CFC0915A01CC0FF5
:1018C000CC0F04E00C0FD02E033110F092E1D92E92
:1018D0006091DE0566958091D6059091D7050E94AE
:1018E0008D0AC82ED0E0CE01880F991FFC01ED5E55
:1018F000FD4F7F0183E0B82ECD1508F055CFFE01D6
:10190000ED5EFD4F84AD90915B01892309F450C0D9
:10191000F701408D4057550B218D2052330B449FCA
:10192000B001459F700D700D1124229FC001239FAF
:10193000900D900D1124860F971F682F823091050E
:1019400020F14FEF813EFEE19F0738F4AC01A5E0A6
:1019500056954795AA95E1F7485F51E0652F640FCA
:101960007727771F9B0135952795622F229FF001DE
:10197000239FF00DF00D11248E179F07F0F44FEF09
:10198000420F451758F76FEF650F8091DC056B9D8F
:10199000B0011124759567956C0D782F8091DD0548
:1019A0000E94970A462F282F672FCE010E94F80920
:1019B000219672E0E70EF11C9FCF2F3F31F351E0EB
:1019C000520FDFCFC0915A01CC0FCC0F74E0D72E4D
:1019D000DC0ECD2C92E19D1510F462E1C62E6091D3
:1019E000DE0566958091D6059091D7050E948D0AF7
:1019F000B82ED0E0CE01880F991FFC01ED5EFD4F9F
:101A00007F01CC1530F081E031E13D1508F028CFA1
:101A1000B0CEFE01ED5EFD4F84AD90915B01892358
:101A2000C1F0F701218D2052330B408D4057550BEB
:101A30006091DB057091DC058091DD050B2D0E9426
:101A4000310A0E94970A462F282F672FCE010E9445
:101A5000F809F2E0EF0EF11C2196D3CFC0915A01A4
:101A6000CC0FCC0F44E0F42EFC0ECF2C62E16F15AE
:101A700010F432E1C32E6091DE0566956695809183
:101A8000D6059091D7050E948D0AD82E80E48D0D41
:101A90000E946E0A90E8B92EB80E8D2D0E946E0A33
:101AA00020E8A22EA80ED0E0CC1530F081E091E124
:101AB0009F1508F0D5CE5DCEFE01ED5EFD4F84ADE5
:101AC00090915B018923A1F06091DB057091DC05A9
:101AD0008091DD05ED2C0C2F2A2D4B2D0E94FA094B
:101AE0000E94970A462F282F672FCE010E94F809DF
:101AF0002196DACFC0915A01CC0FCC0F04E00C0F25
:101B0000D02E033110F082E1D82EEC2EF12CE3E040
:101B1000CE9FE0011124CA5EDE4FED1408F044CEE2
:101B20006091DD0570E090E080E00E946A2F20E087
:101B300030E04FE753E40E94C92E4B015C016A81FB
:101B400070E090E080E00E946C2FA50194010E945B
:101B5000F82F0E943B2FC62E688170E090E080E055
:101B60000E946C2FA50194010E94F82F0E943B2F28
:101B7000762E698170E090E080E00E946C2FA501D4
:101B800094010E94F82F0E943B2F2C2D472DC70156
:101B90000E94F8092396FFEFEF1AFF0ABECF40918B
:101BA0003903803F59F480913A0387FF0DC01092AA
:101BB0003A0341110BC01092310308C0813F81F4F8
:101BC00080913A0318169CF3442381F080913B03E3
:101BD00090913C03892B09F05AC01092300308956C
:101BE000823F49F447FFF0CF1092390380913A03C6
:101BF0008111ECCFE0CF833F19F41416ACF3E4CF9E
:101C000090913B03893F29F41916F4F610923B0397
:101C1000DBCF8A3F19F497FFD7CFF8CF90913C03E1
:101C20008B3F29F497FFD0CF10923C03CDCF8C3F50
:101C300019F41916CCF3C8CF9CE0980F953090F4A6
:101C4000845F990B21E030E0B90102C0660F771F75
:101C50008A95E2F7CB018095909138038923809390
:101C60003803B2CF8D3F31F4809132038E7F809361
:101C70003203AACF8E3F21F4809132038D7FF7CFBC
:101C80008F3F09F0A1CF809132038B7FF0CF089571
:101C90008091320380FD16C081FD16C082FD16C002
:101CA000809130038823A1F0883280F428E0829F5D
:101CB000C001112468E270E00E94402E862F672B3D
:101CC00039F0089582E0089584E0089588E0089549
:101CD00081E008958091320380FD14C081FD14C01D
:101CE00082FD16C080913103882381F08E3180F40B
:101CF00020E5829FC00111246EE170E00E94402E19
:101D0000862F089584E1089588E2089588E0089573
:101D100080E50895803F31F40E946A0E819580939A
:101D20003A030895813F19F40E946A0EF8CF823F6A
:101D300031F40E946A0E8195809339030895833FA0
:101D400019F40E946A0EF8CF893F29F40E94480EC8
:101D500080933B0308958A3F21F40E94480E8195A9
:101D6000F7CF8B3F31F40E94480E819580933C035E
:101D700008958C3F19F40E94480EF8CF9CE0980F0C
:101D8000953070F4845F990B21E030E001C0220FA0
:101D90008A95EAF780913803822B8093380308955F
:101DA0008D3F31F480913203816080933203089536
:101DB0008E3F21F4809132038260F7CF8F3FB9F7D5
:101DC000809132038460F1CF80E00895F894E82F89
:101DD000E295EF70F0E031A1282F2F7081E090E0C4
:101DE00001C0880F2A95EAF7982F9095932391A325
:101DF00092A1892B82A3789408958238910591F15C
:101E0000C0F58133910509F490C028F58932910518
:101E100009F484C08A32910509F48EC0811520E549
:101E2000920708F0A6C0811540E4940708F02CC181
:101E30008F3B910508F087C0883A910508F017C1DB
:101E4000853A910508F00AC18430910500F581308A
:101E50009105E9F03CC08533910509F458C08933F8
:101E60009105E1F620919303237089F080EE90E0D4
:101E70000895833E910571F158F4803E9105E9F093
:101E8000823E910559F62091930322FD1EC00895CC
:101E9000863E910551F1873E910571F1843E910591
:101EA00009F0BCCF2091940321FFF1CF80919303DF
:101EB00084FD0DC087EE90E008952091930320FDEE
:101EC0000FC13091940330FFE2CF24FF0CC190E0AA
:101ED00080E0DDCF2091930322FD08C1309194036F
:101EE00030FDC4CF24FFD3CFF2CF2091930323FF43
:101EF000CECF24FDECCFDECF2091930323FDF9C09C
:101F00003091940331FFEECF84EE90E0089520915C
:101F1000930325FFBCCF89E290E0089520919303BD
:101F200025FFB5CF85E390E008952091930326FF28
:101F3000AECF8AE290E008952091930326FFA7CFC9
:101F400081E390E008958F3F910509F060F4803FB0
:101F5000910508F097C09C01215E310927303105B9
:101F600008F495CFB4CF811520E2920708F48FCF03
:101F7000AECF811543E5940740F5811522E5920720
:101F800008F08AC0811541E5940708F080C09C01E3
:101F900064E0369527956A95E1F7922F9370282F84
:101FA00026952695237040E2249F90011124392B19
:101FB000482F437081E090E002C0880F991F4A9536
:101FC000E2F7822B932B9C680895811529E59207EF
:101FD000F0F4811548E5940708F06FC0811524E5F9
:101FE000920708F074CFAC014370552721E030E030
:101FF00002C0220F331F4A95E2F78695869540E28C
:10200000849FC0011124822B932B9A680895811517
:102010004AE5940708F05BCF282F2F704091930377
:1020200042FF05C083FF4EC0282F277024603091E7
:10203000940330FF07C0322F3871383009F048C0A0
:10204000277F216044FD277E34E0969587953A9559
:10205000E1F78F70982F822F90690895855AE82FA5
:10206000F0E0E957FE4F808190E090640895885A2F
:10207000E82FF0E0EE0FFF1FE657FE4F80819181C1
:1020800094640895906508959F70906A0895982FBC
:102090008827816F906A0895AC014370552721E02D
:1020A00030E002C0220F331F4A95E2F786958695ED
:1020B00040E2849FC001112484CF982F8827806F2D
:1020C000906A089582FFB3CF282F2B702860AFCF7E
:1020D000322F3171313009F0B5CF2E7F2860B2CF69
:1020E00089E390E0089583EE90E0089582EE90E019
:1020F000089586EE90E00895909159019923D1F0CA
:102100009091930397FF16C0E82FE695E695E69524
:10211000EE31E0F4F0E0EC59FD4F282F277081E01C
:1021200090E001C0880F2A95EAF780959281892373
:1021300082830895E6E6F2E09191891303C0DF01FE
:1021400011971C9292E0EC36F907B1F7089590913F
:1021500059019923C1F09091930397FF14C0E82F80
:10216000E695E695E695EE31F8F4F0E0EC59FD4F92
:10217000877021E030E001C0220F8A95EAF7828162
:10218000822B82830895A6E6B2E0EFEF90E02D91D6
:10219000821751F0EF3F19F4211101C0E92F9F5F21
:1021A0009630A9F7EF3F09F408950E2E000CFF0BAF
:1021B000EC59FD4FE6CFE92FEE0FE90FEE0F8E0F32
:1021C000982F977086958695869523E0829FF001DB
:1021D0001124EB57FD4F50E040E080E0219130E0CA
:1021E000092E02C0369527950A94E2F7217033270D
:1021F000042E01C0220F0A94EAF7822B4F5F5F4F33
:102200004330510559F70895E92FEE0FE90FEE0F0E
:102210008E0F982F977041E001C0440F9A95EAF70E
:1022200086958695869593E0899FF0011124EB575A
:10223000FD4F30E020E070E05191DF011197CB01BC
:10224000022E02C0969587950A94E2F781708195D7
:102250008527842385278C932F5F3F4F23303105BB
:1022600059F70895982F92959F7011F0892F94E057
:10227000282F2695269511F09E5F822F869509F0CE
:102280009F5F892F08959C013A9521153F4120F4C5
:1022900091FF02C082E0089580E00895CF93DF931C
:1022A000C091D405D091D5058A30C1F42091CB03DB
:1022B000CE018E5C9340622F70E00E94202E281B7E
:1022C000822F66E00E94342EC82FC15018F4DF918F
:1022D000CF91089580E20E944E11F7CF8D30E9F43E
:1022E000CE5CD3402091CB03622F70E0CE010E94E0
:1022F000202E281B822F9E01280F311D21153240D0
:1023000018F080E0D0E0C0E0C80FD11DC253DC4F10
:10231000D093D505C093D405DACF96E0FE01AEEC9C
:10232000B5E001900D929A95E1F7803E08F458C00F
:1023300086E0FE0111928A95E9F7C091D405D0910B
:10234000D50546E050E0BE018EEC95E00E946A2E75
:102350009E012E5C3340892B41F1C90145E09695E1
:1023600087954A95E1F741E050E0BA0102C0660F57
:10237000771F8A95E2F7CB016091CC037091CD0372
:10238000862B972BB9016B5F7F4FE5E076956795BC
:10239000EA95E1F702C0440F551F6A95E2F7842BD6
:1023A000952B9093CD038093CC032A5F3F4F4091B0
:1023B000CB03642F70E0C9010E94202E481B4630D9
:1023C00010F4240F311D211572E0370710F030E0B2
:1023D00020E022533C4F3093D5052093D40577CF8E
:1023E000F6E08F9FB00111246D507A4F46E050E027
:1023F000CE010E94612EA1CFCF93DF93EC01FE01AD
:102400008491811103C0DF91CF9108950E944E11F4
:102410002196F5CFCF93C091AF028091AE02C82B29
:10242000C093640240E250E06EE872E084E692E01D
:102430000E946A2E892B19F180E2E4E6F2E0AEE810
:10244000B2E001900D928A95E1F7E0918A03F09154
:102450008B033097A1F080915901882349F0809136
:10246000930387FF05C0C093650287E080936402F1
:102470000280F381E02D84E692E0CF910994CF9120
:102480000895882341F080959091AE02892380932E
:10249000AE020C940A120895882339F09091AE028E
:1024A000982B9093AE020C940A120895882341F061
:1024B00080959091AF0289238093AF020C940A1209
:1024C0000895882339F09091AF02982B9093AF0232
:1024D0000C940A120895CF92DF92EF92FF920F931D
:1024E0001F93CF93DF936C017B0164E670E088E774
:1024F0000E941F2DEC0197FD12C010E000E0F601D4
:10250000E00FF11F849164E670E00E94992DEC01C8
:10251000892B29F40F5F1F4F0E151F0581F70E94AD
:102520001C2ECE01DF91CF911F910F91FF90EF9064
:10253000DF90CF90089580917D0390917E0391115B
:1025400003C091E089270895882369F062E070E074
:102550008EE794E00E946B12892B19F080917D0325
:10256000089510927D0380917D03EBCFCF93C091AE
:102570007D0380917E038823D1F00E94EC07605494
:102580007B428E4F9F4F6093790370937A038093C1
:102590007B0390937C03C11108C062E070E08CE77C
:1025A00094E00E946B12892B29F0C0917D038C2F3F
:1025B000CF91089581E080937D03F7CF80939503B9
:1025C00070939703609396038091BD03843001F567
:1025D00086E08093E9008FEF9091E800815095FDAF
:1025E00006C095ED9A95F1F700008111F5CF809125
:1025F000E80085FF0DC050E040E063E070E085E951
:1026000093E00E9484068091E8008E778093E80032
:102610000895BC0185E00C94DE12BC0184E00C94AA
:10262000DE12BC0183E00C94DE129C0186E08093F4
:10263000E9009FEF8091E800915085FD06C085ED8F
:102640008A95F1F700009111F5CF8091E80085FFA0
:102650000CC050E040E066E070E0C9010E948406D2
:102660008091E8008E778093E8000895CF93DF9300
:10267000EC01809159018823B1F18091930387FF88
:1026800032C060E286E08093E9008FEF9091E8002D
:10269000815095FD06C095ED9A95F1F700008111E6
:1026A000F5CF8091E80085FF1BC08091590170E053
:1026B00050E040E0811104C050E040E068E070E08C
:1026C000CE010E9484068091E8008E778093E80016
:1026D00080E2FE01ABE9B3E001900D928A95E1F74B
:1026E000DF91CF91089568E081E0CDCF81E08093C4
:1026F000E00080E28093D8001092C9008FE19EE450
:102700000197F1F700C0000087E090EBDC018093B7
:10271000E0059093E105A093E205B093E30588E11D
:102720009CE00FB6F894A895809360000FBE90933C
:102730006000FFCF869A31B33F7B21B320644FB74F
:10274000F89483E493E0FC015191CF0168E021BB50
:10275000000000C057FF31BB550F000000C000C093
:1027600000C031BB00C06A9591F7F3E089379F073D
:1027700051F74FBF8FE594E00197F1F700C00000DB
:102780000895CF93DF93C7EED0E060E0CE010E94C2
:10279000A52E2196C11584E0D807B9F7DF91CF9116
:1027A00008956F927F928F929F92AF92BF92CF9235
:1027B000DF92EF92FF920F931F93CF93DF9380E806
:1027C000C82E84E0D82E93E6E92EF12CE701E0979D
:1027D00036011BC0F50185909490692DC8010E94B7
:1027E000A52E682DC80101960E94A52E82E0A80E94
:1027F000B11C0E5F1F4FC017D10761F78CE0680E48
:10280000711C2C96CE15DF0529F08E010C50110994
:102810005301E0CF7E0180E3E80EF11C80E3C80E97
:10282000D11C83E2E81681E0F80681F6DF91CF91B2
:102830001F910F91FF90EF90DF90CF90BF90AF90DE
:102840009F908F907F906F900895609158018FE0D6
:1028500090E00C94A52E8091DA0580FF0BC0E091EA
:102860005801E370F0E0E550FE4F808180935801FD
:102870000C9425140895CF93C82F6FEF811162E255
:1028800083E290E00E94A52E6FEFC11162E084E226
:1028900090E00E94A52E6FEFC11164E285E290E006
:1028A000CF910C94A52E80E00E943B1460E086E25C
:1028B00090E00E94A52E0E94D1130E94C11381E0D6
:1028C0000C943B140F931F93CF93DF93C42FD0E04E
:1028D000CC0FDD1F2CE0629FC00DD11D112430E311
:1028E000839FC00DD11D1124CE0187960E94872E93
:1028F000082F10E0102F0027CE0188960E94872E07
:102900009801282BC901DF91CF911F910F91089554
:10291000462F843038F4743028F4663018F4672F6A
:102920000C94621490E080E00895CF92DF92FF92C1
:102930000F931F93CF93DF936C010091CA03809193
:10294000B002082BC7E0D0E010E0FC2EC8010C2E2E
:1029500002C0959587950A94E2F780FD0CC02197F7
:10296000A0F7F12C8F2DDF91CF911F910F91FF9048
:10297000DF90CF900895B6018C2F0E9488140E949A
:10298000FD0E019761F3EECF83E290E00E94872E67
:10299000823289F484E290E00E94872E823059F4DA
:1029A00085E290E00E94872E91E0843209F090E069
:1029B000892F8170089580E0FCCFCF9384E090E070
:1029C0000E94872EC82F82E290E00E94872E982FC7
:1029D0008C2FCF9108950F931F93CF93DF930E9475
:1029E000EC0760933D0370933E0380933F03909305
:1029F000400320914103C0E0211108C02091DA0575
:102A0000C22FC17020FF02C0C22FC69520914E0177
:102A10002130D1F0222351F02230D9F1233009F4B2
:102A20003FC0DF91CF911F910F91089510925A01ED
:102A30006093D6057093D7058093D8059093D905F8
:102A400081E080934E01EDCF8C2F0E94770BCC2339
:102A500041F30FE412E0D0E0C0E0F80191918F0162
:102A60008091580191FF09C081FF0BC020E040E038
:102A700060E0CE010E94F80904C093FF07C082FD08
:102A8000F5CF2196C231D10541F7CBCF80FFF9CFE9
:102A9000EDCF8C2FDF91CF911F910F910C94820974
:102AA00080914203882351F046E050E06CE170E0F1
:102AB0008AED95E00E94952E109242034091D60532
:102AC0005091D7056091D8057091D9052FB7F8942A
:102AD00080918F0390919003A0919103B091920304
:102AE0002FBF841B950BA60BB70B4097A105B10513
:102AF00008F497CF10924E0194CFEAEDF5E08DE007
:102B0000808380915D0190915E01A0915F0181833E
:102B10009283A3838FE784838FEF858346E050E021
:102B20006CE170E0CF010E94952E1092420308954F
:102B300090E080E00E948F2E893E9E4F11F40C940D
:102B4000C41480E0089569EE7EEF90E080E00E947A
:102B5000C32E60E082E090E00E94A52E60E083E05A
:102B600090E00E94A52E1092B00260E084E090E018
:102B70000E94A52E60E082E290E00E94A52E60E017
:102B800085E090E00E94A52E60E086E090E00E9443
:102B9000A52E6FEF87E090E00E94A52E40E050E068
:102BA000BA0188E090E00E94B72E60E08DE090E0EE
:102BB0000E94A52E40E050E0BA0188E190E00E941A
:102BC000B72E60E087E190E00E94A52E40E050E043
:102BD000BA018CE190E00E94B72E70E060E080E2E4
:102BE00090E00E94C32E40E050E0BA0188E190E0FE
:102BF0000E94B72E80E00E943B140E94531440E0D4
:102C000050E0BA018FE090E00E94B72E40E050E023
:102C1000BA0183E190E00C94B72E1F920F920FB689
:102C20000F9211242F933F934F935F936F937F9352
:102C30008F939F93AF93BF93EF93FF938091E100A6
:102C400082FF09C08091E20082FF05C08091E1000F
:102C50008B7F8093E1008091DA0080FF24C0809117
:102C6000D80080FF20C08091DA008E7F8093DA0048
:102C70008091D90080FF9DC080E189BD82E189BD3E
:102C800009B400FEFDCF81E08093BD0380919803DD
:102C9000811109C00E9434060E9429078091E20038
:102CA00084608093E2008091E10080FF17C08091F2
:102CB000E20080FF13C08091E2008E7F8093E200EB
:102CC0008091E20080618093E2008091D800806270
:102CD0008093D80019BC85E08093BD038091E1000A
:102CE00084FF2BC08091E20084FF27C080E189BD72
:102CF00082E189BD89B5982F917080FFFBCF8091CB
:102D0000D8008F7D8093D8008091E1008F7E8093E2
:102D1000E1008091E2008F7E8093E2008091E200EA
:102D200081608093E2008091BE03882309F447C04C
:102D300084E08093BD038091BD038091E10083FF17
:102D400027C08091E20083FF23C08091E100877F4C
:102D50008093E10082E08093BD031092BE038091D6
:102D6000E1008E7F8093E1008091E2008E7F80936E
:102D7000E2008091E20080618093E20042E060E046
:102D800080E00E94F7068091F00088608093F00058
:102D9000FF91EF91BF91AF919F918F917F916F9133
:102DA0005F914F913F912F910F900FBE0F901F9009
:102DB000189519BC1092BD031092980374CF80919E
:102DC000E30087FD93E09093BD03B5CF78941F9205
:102DD0001FB61F9211248F939F93AF93BF9380913F
:102DE0008F0390919003A0919103B091920301966B
:102DF000A11DB11D80938F0390939003A093910325
:102E0000B0939203BF91AF919F918F911F901FBE7E
:102E10001F9018959C014FB7F89480918F03909163
:102E20009003A0919103B09192034FBF821B930B2B
:102E300008952FB7F89480918F0390919003A091FB
:102E40009103B09192032FBF08950E9419179C011E
:102E50009091390380913A03982B21F030933603F7
:102E60002093350390913B0380913C03982B21F0F4
:102E70003093340320933303E0918A03F0918B0362
:102E8000309749F082E0809337030480F581E02D8C
:102E900087E393E00994089590E080E00E940E0893
:102EA00090E080E00E94F8071092AE020E940A12A1
:102EB00086E0E7E3F3E0DF011D928A95E9F71092DF
:102EC000310310923003109232030C942517809333
:102ED000CA030C944C178091CA03982F96709630B1
:102EE00019F488600C946717877FFCCF8093B00239
:102EF0000C944C171092AF0280915901E6E6F2E073
:102F0000882359F08091930387FF07C08EE1DF018A
:102F10001D928A95E9F70C944C1786E0F8CF1F9321
:102F2000CF93DF93CDB7DEB7AA970FB6F894DEBF85
:102F30000FBECDBF8FEB93E02091F100DC012D930C
:102F4000CD01B3E0873C9B07B9F78091C003833084
:102F500009F472C0B8F4813009F449C0823009F430
:102F6000B3C08091E80083FF96C28091BF03909127
:102F7000C0039A3008F08FC2E92FF0E0ED58FF4C03
:102F80000C94542E8A3009F48EC08B3009F471C031
:102F9000893039F78091BF03813219F78091C303DB
:102FA0009091C403009711F00397D9F68091E8003F
:102FB000877F8093E8008091E80082FF38C090917D
:102FC000F3008091F200029731F48091F10081309A
:102FD00011F0873021F48091F10080939A03809161
:102FE000E8008B778093E8000E94D806BACF8091E2
:102FF000BF03813A09F0B5CF8091E800877F8093C5
:10300000E8008091C3039091C403892B61F460E2CE
:103010008BE993E070E00E948A078091E8008B774B
:103020008093E8009ECF60E090E080E0F3CF809155
:10303000BD038111C0CF95CF8091BF03813A09F0C4
:1030400090CF8091C3039091C403892B09F089CF5D
:103050008091E800877F8093E8008091E80080FFFE
:10306000FCCF809159018093F1008091E8008E7728
:10307000B9CF8091BF03813209F073CF8091C30330
:103080009091C403892B09F06CCF8091E800877F71
:103090008093E8000E94D8068091C1038093590173
:1030A0000E947A175ECF8091BF03813209F059CF19
:1030B0008091E800877F8093E8000E94D806809185
:1030C000C203809399034DCF8091BF03813A09F0E9
:1030D00048CF8091E800877F8093E8008091E800E6
:1030E00080FFFCCF80919903BECF803899F0823861
:1030F00009F0D1C18091C3038F70873008F0CBC134
:103100008093E9008091EB0085FB882780F910927D
:10311000E90006C08091BB039091BC0391118260CD
:103120009091E800977F9093E8008093F1001092CF
:10313000F1008091E8008E77AAC1882309F498C134
:10314000823009F0A8C18091C10381119BC1809197
:10315000C3038F702FEF280F263008F09CC1809397
:10316000E9002091EB0020FF8DC1933031F4809174
:10317000EB0080628093EB0085C19091EB00906141
:103180009093EB0021E030E001C0220F8A95EAF72E
:103190002093EA001092EA008091EB008860EACF69
:1031A000811179C11091C1031F778091E30080786C
:1031B000812B8093E3008091E800877F8093E80073
:1031C0000E94D8068091E80080FFFCCF8091E30048
:1031D00080688093E30082E0111183E08093BD0357
:1031E0005AC18058823008F056C12091C1033091F5
:1031F000C2032C3DE3E03E07A1F583E08A838AE227
:1032000089834FB7F894DE01139620E03EE051E247
:10321000E32FF0E050935700E49120FF03C0E295C4
:10322000EF703F5FEF708E2F90E0EA30C0F0C796EE
:103230008D939D932F5F243159F74FBF8091E80004
:10324000877F8093E8006AE270E0CE0101960E94D9
:103250008A078091E8008B778093E8001CC1C096B4
:10326000E7CF8091C3039091C403432F5527433088
:10327000510509F44AC078F54130510509F47AC086
:103280008BE790E0E0E4F5E04230510509F003C13E
:103290002091E800277F2093E8002091C50330911A
:1032A000C6038217930708F49C0140E021153105FD
:1032B00009F065C0411163C08091E80082FDC9CF6B
:1032C0008091BD03882329F2853019F28091E800AE
:1032D00083FFF2CFBECF4132510509F43CC04232E8
:1032E000510509F0D8C08430910508F0D4C0FC0124
:1032F000EE0FFF1FED5FFD4F0190F081E02D81503B
:103300009E4FDC018C9190E01AC0332721303105AB
:10331000D1F02115310561F02230310509F0BBC033
:10332000EDECF5E0E4918E2F90E0EDECF5E007C0D8
:10333000EFEEF5E0E4918E2F90E0EFEEF5E00097F0
:1033400009F4A9C0A5CFEDEDF5E0E4918E2F90E052
:10335000EDEDF5E0F4CF8430910508F09CC0880FC6
:10336000991FFC01E55FFD4F0190F081E02D89E0A0
:1033700090E08ECF82E190E0EBEBF5E089CF809199
:10338000BD03882309F465CF853009F462CF8091AD
:10339000E80083FD5ECF8091E80082FD8DCF8091B3
:1033A000E80080FF83CF9091F3008091F200211517
:1033B000310519F08830910550F041E0089709F087
:1033C00040E08091E8008E778093E8006FCF4491D1
:1033D0004093F1003196215031090196E8CF8038B1
:1033E00009F059C08091E800877F8093E8008091C0
:1033F000BE038093F1009DCE81114DC01091C10399
:10340000123008F048C08091E800877F8093E80080
:103410001093BE030E94D806112311F084E005C06A
:103420008091E30087FDFACF81E08093BD0342E005
:1034300061EC81E00E94F70642E261EC86E00E94C6
:10344000F70642E261EC82E00E94F70642E260EC9D
:1034500083E00E94F70642E361EC84E00E94F706F5
:1034600042E360EC85E00E94F7068091BD0313C043
:103470008091C103813079F481E0933009F080E0DC
:103480008093BC031092E9008091E800877F8093CD
:10349000E8000E94D8068091E80083FF0AC080916E
:1034A000E800877F8093E8008091EB008062809342
:1034B000EB00AA960FB6F894DEBF0FBECDBFDF912A
:1034C000CF911F9108951F920F920FB60F92112462
:1034D0002F933F934F935F936F937F938F939F931C
:1034E000AF93BF93CF93DF93EF93FF93D091E90016
:1034F000DF708091EC00C82FC17080FDC0E8109291
:10350000E9008091F000877F8093F00078940E941A
:103510008F171092E9008091F00088608093F0008E
:10352000CD2BCF70C093E900FF91EF91DF91CF9148
:10353000BF91AF919F918F917F916F915F914F91CB
:103540003F912F910F900FBE0F901F9018958823D9
:1035500009F459C0823871F40E94240881FF53C0D5
:1035600089E30E94A7100E940A1289E30E947C103E
:103570000C940A12833859F40E94240880FF43C037
:1035800083E50E94A7100E940A1283E5EFCF8438DA
:1035900059F40E94240882FF36C087E40E94A710D5
:1035A0000E940A1287E4E2CF9CEF980F913AF0F262
:1035B00090E2980F983088F4877021E030E0A901FC
:1035C00002C0440F551F8A95E2F7CA018095909179
:1035D000AF0289238093AF02CBCF9BE5980F933046
:1035E00020F490E080E00C940E0898E5980F973155
:1035F00020F490E080E00C94F807803F20F00E94D7
:10360000CF0D0C9425170895CF93DF93EC010E9402
:10361000A71ACE010E944311C05ED109289720F459
:10362000DF91CF910C945612DF91CF910C944112FF
:10363000CF93C82F882309F4AEC08238C1F40E940A
:10364000240881FDA8C089E30E94A7100E940A12E5
:103650002FEF81EE94E0215080409040E1F700C0D0
:10366000000089E30E947C10CF910C940A128338E9
:10367000A1F40E94240880FD8EC083E50E94A7105B
:103680000E940A122FEF81EE94E02150804090407A
:10369000E1F700C0000083E5E5CF8438A1F40E9483
:1036A000240882FD78C087E40E94A7100E940A12B5
:1036B0002FEF81EE94E0215080409040E1F700C070
:1036C000000087E4CFCF8CEF8C0F813A88F5809192
:1036D0005901882301F18091930387FF1CC0EC2FCF
:1036E000E695E695E695F0E0EC59FD4F828190E095
:1036F0004C2F477021E030E002C0220F331F4A9563
:10370000E2F782239323892B79F08C2F0E947C107F
:103710000E940A1209C0E6E6F2E08191C817A9F3F7
:1037200022E0EC36F207C9F78C2F0E94A7109CCF3D
:1037300080E28C0F883068F4C77021E030E001C06F
:10374000220FCA95EAF78091AF02822B8093AF02D5
:103750008BCFEBE5EC0FE33040F4F0E0E957FE4FA0
:10376000808190E0CF910C940E08E8E5EC0FE731F2
:1037700050F4F0E0EE0FFF1FE657FE4F808191817D
:10378000CF910C94F807C03F30F08C2F0E948A0E26
:10379000CF910C942517CF9108951F93CF93DF936A
:1037A000182FD0E0C0E0893311F4C0E5D0E0812FBC
:1037B0000E94181B209731F4812FDF91CF911F9128
:1037C0000C94A71A8FE99FE00197F1F700C0000061
:1037D0002197F0CF0F931F93CF93DF93C62FD42F52
:1037E000022FFC0182818823A1F06093C9030E940B
:1037F00019179093C8038093C703C77081E001C075
:10380000880FCA95EAF7DF91CF911F910F910C9421
:1038100061128091C903681335C08091C7039091EC
:10382000C8030E940A17883C910560F510E21D0F3D
:10383000CD17B9F080E28C0F883040F4C77081E07A
:1038400001C0880FCA95EAF70E945612183048F452
:1038500081E09D2F977001C0880F9A95EAF70E942A
:103860006112802F0E94CD1B183098F4D77081E030
:1038700001C0880FDA95EAF7DF91CF911F910F9180
:103880000C945612C77081E001C0880FCA95EAF700
:10389000F3CFDF91CF911F910F910895CF93DF93D5
:1038A000EC010E9443119E01205E31092830310550
:1038B00038F40E9461128C2FDF91CF910C94181B69
:1038C0000E944C12F8CF80918103811107C081E0E2
:1038D0008093810382EE90E00E944E1C0E94191793
:1038E0009093800380937F038BE292E00E944E1CB2
:1038F0008BE292E00C94041B80918103811107C03C
:1039000081E08093810382EE90E00E944E1C0E9431
:1039100019179093800380937F038BE290E00E94BD
:103920004E1C8BE290E00C94041B9F92AF92BF92CE
:10393000CF92DF92EF92FF920F931F93CF93DF937B
:1039400000D000D0CDB7DEB719821A821B821C824C
:1039500088EBE82E81E0F82E10E000E0CC24C39440
:10396000D12C22ECA22E21E0B22EF70181917F0111
:103970008F3F09F445C0F894E82FE295EF70F0E02E
:1039800021A18F70A60102C0440F551F8A95E2F74E
:10399000CA01922F982B91A392A18095892382A38B
:1039A000789400C0ECEBF1E0912C31E021912F3FB5
:1039B00009F46BC0A22FA295AF70B0E090968C91E5
:1039C00090E02F7002C0959587952A95E2F780FDCB
:1039D0005CC0832F982A330FAE16BF0639F7F70164
:1039E000319780818F3F11F00E94E60E50EA5A9580
:1039F000F1F7E1E0F0E0EC0FFD1FE00FF11F908226
:103A00000F5F1F4F0430110509F0AFCF44E050E0C5
:103A1000BE016F5F7F4F84EB92E00E946A2E11E03F
:103A2000009709F410E0892B91F189819A81AB818B
:103A3000BC818093B4029093B502A093B602B09378
:103A4000B70281E08093B3020E9419179093B202EB
:103A50008093B1028091B1029091B2020E940A1744
:103A60000597C8F08091B4028093EB028091B50273
:103A70008093EC028091B6028093ED028091B702B0
:103A80008093EE021092B30206C080E0A3CF809133
:103A9000B3028111DFCF812F0F900F900F900F9005
:103AA000DF91CF911F910F91FF90EF90DF90CF901A
:103AB000BF90AF909F9008955F926F927F928F9288
:103AC0009F92AF92BF92CF92DF92EF92FF920F93AD
:103AD0001F93CF93DF93CDB7DEB72F970FB6F89430
:103AE000DEBF0FBECDBF4B875C876D877E878F871C
:103AF00061111092AE0285E0FE013B96DE01169642
:103B000001900D928A95E1F789859A85892B31F08C
:103B10008E819F8189238F3F09F0F4C42F960FB6C1
:103B2000F894DEBF0FBECDBFDF91CF911F910F91F3
:103B3000FF90EF90DF90CF90BF90AF909F908F90CD
:103B40007F906F905F9008950E949514182F682FB2
:103B500089819A810E94041169817A81812F0E9452
:103B600088148C019885992309F4BCC498012251CA
:103B70003F452031310508F08EC48FEF93E00E945D
:103B8000872E025127EEA22EB12C8111C7CF011131
:103B900034C01C821B82662463949AE0592E8501EE
:103BA0000F5F1F4FC5010E94872E89831A828823C9
:103BB00009F4B4CF9FEF980F933070F58A83698230
:103BC00082E0A80EB11CC8010E94872E8B83882337
:103BD00009F4A4CF8E010F5F1F4FF801208122232B
:103BE000F1F2213009F052C0918182819130B1F41B
:103BF0000E5F1F4F0E94CD1B17C0A11424E0B20618
:103C000009F48CCFC5010E94872E811101C001509B
:103C10003FEFA31AB30ABBCF5801DCCF923039F47F
:103C20000E5F1F4F0E94181B0F5F1F4FD6CF9330A0
:103C300029F40E5F1F4F0E94A71AF6CF943019F097
:103C40000F5F1F4FF1CF0E5F1F4F30E020E0B80134
:103C50006F5F7F4FF80141818053990B8A30910546
:103C600050F02150310900F38FE99FE00197F1F7FF
:103C700000C00000F6CF529EF001539EF00D1124BB
:103C80009C012E0F3F1F842F8B01E1CFE22FF0E02C
:103C9000E25BFD4F7490822F86958695869590E025
:103CA000FC01E25CFD4FE4902770F12C022E02C073
:103CB000F594E7940A94E2F7E1E0EE22FF24FC0198
:103CC000E25DFD4FC490D12C022E02C0D594C79462
:103CD0000A94E2F7F1E0CF22DD24FC01E25EFD4F21
:103CE0008490912C02C0959487942A95E2F721E064
:103CF00082229924E114F10419F081EE0E94181B2C
:103D0000C114D10419F086EE0E94181B872D0E9461
:103D1000CD1BCD2819F086EE0E94A71AEF2819F0C6
:103D200081EE0E94A71A892809F47ECF8CE262CF27
:103D30008091CA0382600E9467170E946B17EECEC3
:103D40008091CA038D7FF7CF8B7FF5CF053F3CE590
:103D5000130709F464C008F45EC027E245EE66EE7E
:103D6000063FECE51E0709F4B8C3992309F4DBC349
:103D70001092C9030330FDE51F0708F057C00A3F42
:103D80002CE5120738F4980122503C4524313105C6
:103D900008F056C00E94DD1490939403809393031F
:103DA00001319CE5190709F41FC108F09DC00930D5
:103DB000FCE51F0709F402C108F06AC005303CE5C4
:103DC000130709F4F3C008F050C003309CE519074D
:103DD00009F4E2C008F0E6C08091930381600230EC
:103DE0001C4509F4DCC0609193031091940384E0B6
:103DF00090E00E94A52E612F82E290E00E94A52E05
:103E00000E947A178BCE27E245EE65EE66C326E266
:103E100041EE60EE62C327E245EE64EE5EC326E249
:103E200041EE62EE5AC328E241E0EFCF01363DE5B4
:103E3000130709F4AFCF053A8DE5180709F4AACFA7
:103E400006312CE5120709F001C48091AF028A7A8D
:103E500091E009F490E0909384028111EFC089E22F
:103E60000E94A7100E940A1259CE8091930380628B
:103E700007302CE5120709F492C08091930380610A
:103E800008301C4508F48BC080919303806487C080
:103E90000D308CE5180709F49BC098F480919303CA
:103EA0008E7F0B30ECE51E0709F479C080919303F7
:103EB0008C600C301C4508F472C0809193038D7F98
:103EC0006EC0809193038F7E0F302CE5120709F4AA
:103ED00066C080919303877F00311C4508F45FC062
:103EE000809193038F7D5BC00D3F8CE5180709F42B
:103EF00077C050F50531ECE51E0709F47FC098F452
:103F000080919303837F03312CE5120709F447C0A6
:103F100008F46EC00E947A1790919303892F97FB43
:103F200087F980583CC00B3F8CE5180709F442C064
:103F300008F052C08091940381600A3F1C4509F04B
:103F400052CF809394034FCF0130FDE51F0709F452
:103F500061C090F4809194038C7F0F3F3CE5130780
:103F600081F390F180919403982F909591708E7FBA
:103F7000892B90FB81F9E5CF01369DE5190709F4FE
:103F80004FC0053AEDE51E0709F451C002301D454A
:103F900009F029CF60E03FC0809193038260809355
:103FA000930321CF809193038460F9CF8091930391
:103FB0008860F5CF809194038260C3CF0E947A1706
:103FC000809193038068EBCF809194038360B9CF95
:103FD000809193038B7FE3CF809194038E7FB1CF49
:103FE000809194038D7FADCF809193038F7BD7CF4A
:103FF0000E947A17809193038F77D1CF809193039A
:1040000082FB992790F921E0922790FB82F990FB9F
:1040100083F9C5CF61E08EE090E00E94A52EE3CE4B
:1040200090919303892F8F7E94FF8061B8CF9091F8
:104030009303892F8E7F90FF8160B1CF85E310CFEE
:1040400080918402811104C089E20E947C100ACF11
:1040500085E3FBCF9091DA05892F8E7F90FF8160F9
:104060008093DA0510924E01809142038160809323
:10407000420354CD4FE659E068E779E00E94C30857
:104080004DCD48E759E06FE679E0F8CF41E459E0DB
:104090006BE479E0F3CF4BE459E061E479E0EECFF3
:1040A00047E259E064E379E0E9CF44E359E067E2AD
:1040B00079E0E4CF4AE159E06DE079E0DFCF4EED01
:1040C00058E06CEE78E0DACF4CEE58E06EED78E038
:1040D000D5CF61E081E00E94550920CD61E086E006
:1040E000FACF0A3A3DE5130759F10B3A8DE5180767
:1040F00009F050C2992309F411CD0E942B140ECD62
:10410000992309F40BCD8091DA0580FF07CD9091BA
:104110005801892F8D7F91FF8260809358010E9402
:104120002514FCCC992309F4F9CC8091DA0580FFA1
:10413000F5CC90915801892F8E7F90FF8160EDCF53
:10414000992309F4EBCC8091DA0580FFE7CC9091BC
:104150005801892F8B7F92FF8460DFCF0A3B8DE56A
:10416000180709F447C00B3BEDE51E0709F023C211
:10417000992309F44CC081E080930E013FC099233C
:1041800061F0809184038160809384038091840333
:10419000909185030E943008C1CC10928503109243
:1041A000840390E080E0F6CF992309F4B7CC8091A6
:1041B000840381708863809384038FEF80938503E9
:1041C00080918403909185030E943008809184033C
:1041D00081708093840310928503A0CC992309F405
:1041E0009DCC809184038170886C809384031092AD
:1041F0008503E6CF992359F010920E0110925701D2
:104200000E941917909383038093820387CC0E94A6
:104210003B0884CC992309F481CC0E947C1C7ECC81
:10422000992339F00115FCE51F0751F10E3D1C459E
:10423000A1F10E811F81992399F1C8010E94951463
:10424000F82E682FC8010E940411B8018F2D0E941A
:1042500088140E94FD0E182FE82E2885092F02953C
:104260000F70043009F46EC000F5023070F1085090
:10427000110B0230110508F051CC0E9424084ECCDD
:104280000E947A173FEF84E39CE0315080409040D9
:10429000E1F700C000000E9476130E94A3153ECCF7
:1042A000C8010E94DB10F82ED0CF083009F467C097
:1042B000093009F4D5C00530D1F6222309F45CC0D9
:1042C0000E948A0E0E942517D2CFE92FEF70FE2E92
:1042D000907F19F0F29480EFF822812F2223C9F009
:1042E000FF2069F090E2910F983010F011110BC08F
:1042F0008091AF02F82AF092AF020E940A12812F39
:104300000E94181BB4CF8091AE02F82AF092AE0240
:10431000F4CF0E94A71AFF2009F4A9CFF094105EF1
:10432000183010F0E11008C08091AF02F822F0922E
:10433000AF020E940A129BCF8091AE02F822F09247
:10434000AE02F7CF892F86958695837061F0813014
:1043500009F08DCF812F9370211102C090E080E091
:104360000E94F80784CF812F9370211102C090E042
:1043700080E00E940E087BCF0E94CF0DA3CF892F33
:104380008370A1F5211173CF812F82958695877057
:10439000880F880F412F4F70082E01C0440F0A94D8
:1043A000EAF7212F207114FF07C02FE030E001C091
:1043B000220F8A95EAF720959695969593709230FC
:1043C00081F0822F842B933030F48091B0029130B1
:1043D00029F0242B82230E94761749CF842B822B2D
:1043E000FACF242B8091B0028227F5CF8695222325
:1043F00011F0892F8170882309F439CF812F82959C
:1044000086958770880F880F412F4F70082E01C046
:10441000440F0A94EAF7212F207114FF07C02FE000
:1044200030E001C0220F8A95EAF72095969596957F
:104430009370923081F0822F842B933030F48091EE
:10444000CA03913029F0242B82230E9467170FCFD3
:10445000842B822BFACF242B8091CA038227F5CF9D
:104460009F7041E050E07A0101C0EE0C9A95EAF7A6
:10447000222349F08091CA038E290E946717812F59
:104480000E946112F4CE812F0E945612E094809116
:10449000CA038E21DACF0031FFE51F0709F448CCAB
:1044A00001312FE5120739F1033F3CE5130709F409
:1044B000AECC08F04BCC083DECE51E0709F4A3CCCC
:1044C000093DFCE51F0709F4AECC073D2CE51207BA
:1044D00009F04BCC26E241EE61EECE0106960E9439
:1044E000EA1B1CCB00313FE5130709F429CC01314D
:1044F0008FE51807C9F68091CA03992309F424CCE3
:10450000846019CC85E0FE013696DE01119601909B
:104510000D928A95E1F789819A81611115CB0E94EC
:10452000DB10182F19CB0631ECE51E0709F488CDF6
:104530008091AF0282720A3CFCE51F0709F4BACDF4
:1045400008F05AC0053C3CE5130709F49FCDF0F58F
:10455000033CFCE51F0709F48DCD08F092CD023C29
:104560003CE5130709F476CD063A3DE5130709F457
:10457000D5CA073A8DE5180709F4D0CA093AEDE51E
:104580001E0709F4CFCD08F0ACCD083A2DE512078F
:1045900009F4B6CD093BEDE51E0709F41FCE08F07E
:1045A000DDCD073B2DE5120709F4E9CD083B3DE5DC
:1045B000130709F4F9CDF801E058FF45E830F1059B
:1045C00008F02ECEE358FF4C0C94542E073CECE53B
:1045D0001E0709F465CD08F45ECD083C2CE51207F2
:1045E00009F463CD4DE059E06AE179E0093C3CE52E
:1045F000130709F443CDB8CF0F3CECE51E0709F4CF
:104600006DCDA0F40C3C2CE5120709F45DCD08F447
:1046100056CD0D3C8CE5180709F45BCD61E082E0D6
:104620000E3CECE51E0709F456CD9ECF063DFCE599
:104630001F0738F461E089E0013D1C4508F44BCDCB
:104640006DCA0D35100709F469CA8ECF063A8DE59B
:10465000180709F4E2CD073AEDE51E0709F08ECF01
:10466000992309F45BCA0E94631C58CA0F931F93D5
:10467000CF93DF93CDB7DEB72A970FB6F894DEBF9E
:104680000FBECDBFE82FF0E0EE0FFF1F662399F1BC
:10469000ED5AFE4F008111810E831F8381E08887D0
:1046A0000E9419178160782F9A8789874E815F81D0
:1046B00068858A850E945C1D8FE39CE90197F1F76C
:1046C00000C0000009831A831B820E9419178160B1
:1046D000782F9D838C8349815A816B818D812A96A5
:1046E0000FB6F894DEBF0FBECDBFDF91CF911F9103
:1046F0000F910C945C1DE15BFE4FCCCF1F921FB657
:104700001F9211248F939F93AF93BF9380918E0339
:10471000811113C080918F0390919003A091910318
:10472000B09192034196A11DB11D80938F03909388
:104730009003A0939103B0939203BF91AF919F9187
:104740008F911F901FBE1F901895CDB7DEB7CF5425
:10475000D1090FB6F894DEBF0FBECDBF84B7877FF7
:1047600084BF0FB6F894A89580916000886180930B
:104770006000109260000FBE80E890E00FB6F894E1
:1047800080936100909361000FBE85B7806885BFFC
:1047900085B7806885BF84EE9EE090936302809326
:1047A00062020E9434060E9429078091E200846020
:1047B0008093E20078948091BD038823A1F010914A
:1047C000E9001F709091EC00892F817090FD80E8C6
:1047D000182B1092E9008091E80083FD0E948F174A
:1047E0001F701093E90082E084BD93E095BD9AEFBD
:1047F00097BD80936E000E94C414811102C00E9474
:10480000531487E30E94E60E82E90E94E60E83E9D4
:104810000E94E60E85E90E94E60E0CEB11E0D8013D
:104820008D918D018F3F11F00E94E60EB1E0023CA8
:104830001B07A9F784E0EBEEF2E0DF01282F1D92C1
:104840002A95E9F7E4EBF2E0DF011D928A95E9F79A
:104850000E949815811102C00E94A31582E090E089
:104860000E94872E8093B8020E94DD1490939403D7
:10487000809393030E94951CBFEFE6E7F1E0B150EF
:10488000E040F040E1F700C000000E94951C8091DC
:10489000EB0280FF08C06FEF7FEF90E080E00E94A6
:1048A000C32E0E94761383E090E00E94872E0E9420
:1048B00076170E949815811104C00E94A3150E94CA
:1048C0007D1546E050E06CE170E08AED95E00E94D5
:1048D000772E109242038091DA058E7F11F40E94A8
:1048E0007D151092E30280E88093CB030E94192D7E
:1048F0006DE070E081EE92E00E946B12892BE9F589
:104900008091E30263E070E081FD40C28EED92E0B1
:104910000E946B12892B89F56DE070E08EEC92E0BD
:104920000E946B12892B49F50E94EC0760547B4270
:104930008E4F9F4F6093790370937A0380937B032C
:1049400090937C03EEECF3E080E092E0DF019C01C9
:104950001D9221503040E1F7F093D505E093D40546
:104960008FEF9FEF9093CD038093CC0381E08093F2
:104970007E0380937D031092E40244ED51E0A6EDA6
:10498000B1E021E030E08D91E82FE295EF70F0E0AA
:1049900011A18F70B90101C0660F8A95EAF7962FB1
:1049A0009095912391A382A1862B82A3FA018191F4
:1049B000AF01E82FE295EF70F0E011A18F70B9011F
:1049C00001C0660F8A95EAF7962F9095912391A3DF
:1049D00082A1862B82A3F1E0A83DBF07A1F68FE854
:1049E00091E00197F1F700C0000083B186958170D6
:1049F0001899CFC190E0892B8093C10283B183FBCA
:104A0000882780F91A99C7C190E0892B8093C20248
:104A1000609193036068609393031091940384E022
:104A200090E00E94A52E612F82E290E00E94A52EC8
:104A300087E90E946F088C0186E90E946F08109236
:104A4000E5021093E7020093E6029093E902809357
:104A5000E8020E949815811107C00E94A3158FE0FB
:104A6000809358010E9425148FE090E00E94872EC9
:104A70008093580180E091E090938B0380938A03A8
:104A80008BEE92E0A4E0A80F2E96AFAF2E97809108
:104A9000BD03853089F470E4E72E11E0E0E1FE2EDD
:104AA00002E18091BD03853009F477C10E947A1735
:104AB0000E942408109241030E94951C2D968FAFEE
:104AC0002D9781110E94EC07ABEEB2E0E9EBF2E02A
:104AD00010E000E0302F8D919191981709F4B6C144
:104AE000292F282790E0FF24F394422F4F2109F427
:104AF000A8C122969FAF229723963FAF23978F217D
:104B000091E009F490E024969FAF24970E94191732
:104B10008160782F26969FAF8EAF269722964FAD55
:104B2000229723965FAD239724966FAD2497269600
:104B30008FAD26970E945C1DF801E754FD4F8081E0
:104B4000F826F08280918103882379F080917F0399
:104B5000909180030E940A17893E934030F082EEC4
:104B600090E00E94041B10928103809157018111F3
:104B700031C080918203909183030E940A1740976D
:104B800048F1309186032091870380910E0188239C
:104B900009F483C1832F922F87304EE0940714F0DD
:104BA00086E09EE00A9690938703809386030E9496
:104BB00019179093830380938203809186039091C9
:104BC00087038D599F4F873C910520F00E943B0839
:104BD000109257010E94EB1421ECA22E22E0B22E7B
:104BE0003FEBE32E32E0F32E42ED442E41E0542E13
:104BF0000DEB12E054ED652E51E0752E66ED862E1C
:104C000061E0962E212C2C961FAE2C97D501ED91AC
:104C10005D01EE0FEE0FD4012D914D01A22FA29553
:104C2000AF70B0E090968C9190E02F7002C0959597
:104C300087952A95E2F79C0121703327D3014D9186
:104C40003D01A42FA295AF70B0E090968C9190E0BA
:104C50004F7002C0959587954A95E2F7AC01417077
:104C6000552780FF02C042E050E0242BE22BD50103
:104C70001197EC93D201CD902D01EF70F0E0EE533F
:104C8000FE4F8081F7019081890F8083D12C082EFF
:104C9000000C990B20E08C159D05A4F0D8018C9197
:104CA0008F5F8C93B1E02B1208C089EA90E00E94DC
:104CB0004E1C89EA90E00E94041B60E0822D0E9455
:104CC000362321E0F7018081082E000C990B442740
:104CD00055274C195D0948175907A4F0D8018C9144
:104CE00081508C93B1E02B1208C08AEA90E00E94B8
:104CF0004E1C8AEA90E00E94041B61E0822D0E9413
:104D0000362321E0F7018081082E000C990BB601B3
:104D10000E94402ED7018D937D012C96BFAD2C971C
:104D2000B22B2C96BFAF2C970F5F1F4FE1E02E12D6
:104D3000BEC0B1110E94EC0780917E03882309F464
:104D400027C18EEC93E09093D5058093D40586E639
:104D500093E00E94FC1184E693E00E94FC1181E143
:104D600093E00E94FC118091CA030E9432118130AD
:104D700009F479C2882309F49DC0823009F476C20F
:104D8000833009F476C28EEE92E096C08BED92E00D
:104D9000BFCD92E030CE92E038CE8091BD0384301A
:104DA00009F43DC080914103811105C00E94770B39
:104DB00080E00E948209109341030E94EB148091CD
:104DC0004103811105C00E94770B80E00E94820997
:104DD000109341030E949B1210928E03E8E1F0E0D1
:104DE0000FB6F894A895E09360000FBEE0926000C3
:104DF00083B7817F846083BF83B7816083BF7894EA
:104E0000889583B78E7F83BF0FB6F894A89580915D
:104E10006000886180936000109260000FBE8091F6
:104E2000BC03882309F43DCE0E94951CEBEEF2E012
:104E300081918111C4C52E962FAD2E972E13F8CFD8
:104E400030CE9F5FFF0C963009F04FCE0F5F1F4FA3
:104E50000430110509F03ECE8FEF27968FAF2797CC
:104E600028968FAF289729961FAE29970E94191769
:104E70008160782F2B969FAF8EAF2B9727964FADE3
:104E8000279728965FAD289729966FAD29972B967F
:104E90008FAD2B970E945C1D55CE832F922F8A3F9A
:104EA000A1EF9A0714F48AEF91EF0A977CCE22249F
:104EB0002394ACCE8AE093E00E94FC118DE593E050
:104EC0000E94FC118BE593E00E94FC1184E693E0C4
:104ED0000E94FC110E942408182F83E493E00E9492
:104EE000FC1185E393E010FF02C08BE393E00E9486
:104EF000FC1181E493E00E94FC1187E293E011FF32
:104F000002C08DE293E00E94FC1183E393E00E94D3
:104F1000FC118091DA0580FFAFC181E293E00E942D
:104F2000FC1189E193E00E94FC118BE593E00E9463
:104F3000FC1185E493E00E94FC1180917E0388239C
:104F400071F02091CC033091CD032115310539F05A
:104F50008091E40261E070E0882309F491C18091BE
:104F60007D038823A9F00E94EC070091790310913A
:104F70007A0320917B0330917C03601B710B820BC1
:104F8000930B6F3F7F4F8F4F9F4710F40E949B12F0
:104F90002D962FAD2D97211104C02C963FAD2C9747
:104FA00031110E94B61286E0E7E3F3E0DE011196CC
:104FB00001900D928A95E1F7F0903903E0903A0361
:104FC00010913B0300913C031092390310923A0375
:104FD00010923B0310923C038F2D8E2909F448C098
:104FE00080913503909136030E940A179C0190919D
:104FF0003103992309F418C525313105C8F19F3FC4
:1050000019F09F5F90933103FF2059F00E946A0EC0
:105010009FEF1F140CF491E0899F802D1124809341
:105020003903EE2059F00E946A0E9FEF1E140CF413
:1050300091E0899F802D112480933A0330913903A8
:105040003323B1F020913A03222391F045EB34034E
:10505000C0011124992309F4E8C19093390345EB69
:10506000240390011124332309F4E3C130933A035C
:10507000812F802B09F448C0809133039091340331
:105080000E940A179C0190913003992309F4C7C428
:1050900021353105C8F19F3F19F09F5F9093300390
:1050A000112359F00E94480E9FEF11160CF491E065
:1050B000899F802D112480933B03002359F00E9487
:1050C000480E9FEF10160CF491E0899F802D11245B
:1050D00080933C0330913B033323B1F020913C0398
:1050E000222391F045EB3403C0011124992309F4E4
:1050F000A4C190933B0345EB240390011124332377
:1051000009F49FC130933C038091390390913A0395
:10511000892B90913B03892B90913C03892B11F0B3
:105120000E94251786E0FE013196A7E3B3E00190C7
:105130000D928A95E1F787E90E946F088C019093A0
:10514000E7028093E60286E90E946F089093E902E5
:105150008093E8020F5F11408F5F914021E00F3F85
:10516000110509F00CF420E020FB30F821E00130BB
:105170001F4F0CF020E020FB31F821E08F3F91051C
:1051800009F00CF420E020FB32F821E081309F4F41
:105190000CF020E020FB33F88091E502381659F13D
:1051A000F32CF82610E000E0822D8F2128121BC07E
:1051B000F801EE0FFF1FE052FE4F808191819A832C
:1051C000898391E0832D8221821190E09B830E944C
:1051D00019178160782F9D838C8349815A816B8157
:1051E0008D810E945C1D220C0F5F1F4F0430110542
:1051F000D9F63092E5020E9424089091EA028913C0
:105200008093EA028091BD03843009F41EC180912D
:10521000BD03843009F03BCC85E08093E9008091A8
:10522000E80082FF34CC8091E80090E085FF09C05F
:1052300050E040E060E470E0CE0101960E94AE06CE
:1052400091E08091E8008B778093E800992309F43E
:105250001ECCE981E150E93008F045C2F0E0EB579F
:10526000FF4C0C94542E83E093E026CE8CEF92E01A
:1052700023CE85EF92E020CE8BE193E050CE8F5F7E
:10528000082F10E03B01082E02C0660C771C0A9420
:10529000E2F7A90146215721452B89F39091E302BA
:1052A00090FD44C08295880F80768093110198010B
:1052B000369527953695279520931401815E809326
:1052C00012011092150124E630E047E050E06FE053
:1052D00071E088E70E94C82D892B09F040CEA80113
:1052E00085E0440F551F8A95E1F78091E30280FD28
:1052F0002BC042535C4F04E610E020E230E060E453
:1053000088E70E94EF2D892B09F029CE0E94B61262
:10531000C301809590956090CC037090CD03682276
:1053200079227092CD036092CC0319CE880F880F3A
:10533000880F8093110110921401895F80931201EC
:1053400083E080931501BFCFE3ECF2E080E2DF0160
:105350001D928A95E9F7ECEDF1E06096FFAFEEAFB4
:10536000609718ED812E11E0912E00EEA02E01E045
:10537000B02EDD24D3946096AEADBFAD60972D9175
:105380006096BFAFAEAF6097F40141904F01440EFD
:10539000552E511CC20182539C4F2C01E22FF0E08C
:1053A000ED53FD4F30E020E0B7E0EB2EE21AFD2C8C
:1053B000022E01C0FF0C0A94EAF7820190E0D801A6
:1053C0008D918D018F216E2D691B6770C62E062E63
:1053D000000C770BB82F01C0BB0FCA94EAF7CB2E95
:1053E0007195619571096770772701C086956A95F7
:1053F000EAF7C82A8081C82AC0829F5F9830F9F6F0
:105400002F5F3F4F31962830310571F66096EEAD33
:10541000FFAD6097AE16BF0609F0ADCF04E610E011
:1054200020E230E043EC52E06ACF81E08093390320
:1054300016CE81E080933A031BCE81E080933B033C
:105440005ACE81E080933C035FCE83E08093E900F5
:105450008091E80082FFDBCE8091E80090E085FF3C
:1054600009C050E040E060E270E0CE0101960E9489
:10547000AE0691E08091E8008B778093E800992355
:1054800009F4C5CEE981E150E33108F05CC0F0E0F9
:10549000E257FF4C0C94542E1A8289E08B8311C082
:1054A0008A81823009F4B3C2833091F1813009F0EE
:1054B0004AC00E94EC070E945A2E6B837C838D8326
:1054C0009E838091BD03843009F0A1CE1091E90044
:1054D0001F709091EC00892F817090FD80E8182B4F
:1054E00082E08093E9008091E80080FF0DC050E0E9
:1054F00040E060E270E0CE0101960E948406809157
:10550000E8008E778093E8001F701093E9007FCE4B
:105510008091EB028B838091EC028C838091ED0271
:105520008D838091EE028E83CCCF8A81823059F4B4
:105530006B817C818D819E810E945A2E86E290E053
:105540000E94A52EBECF8FEF8983BBCF4C816B818C
:105550008A810E9462149827892798279E838D83C9
:10556000B0CFED80FE80FE24EF24FE248A810B81E3
:10557000ECE00E9F80011124F0E38F9F000D111DC0
:1055800011248C8190E0880F991F080F191F6F2D2F
:10559000C80187960E94A52E6E2DC8018896D0CF8F
:1055A0000E94D1138ECF80E18A838BCF83E08A83E0
:1055B00089E174CF0A811B811027012710279E01E2
:1055C0002F5F3F4F7901CC80C9018C0D911D6C017B
:1055D000C80189519F4FCE14DF0409F472CF0931FD
:1055E000A3E01A0750F40E94872EF70184830F5F0F
:1055F0001F4FBFEFEB1AFB0AEBCFD70114961C929B
:10560000F6CF0A811B81102701271027FE01319652
:105610006F01EC80E00EF12EF11CC80189519F4F03
:10562000E016F10609F44DCF0931F3E01F0728F425
:10563000D60114966C910E94A52EBFEFCB1ADB0AFF
:105640000F5F1F4FEACF0E94C1133BCF84E0ACCF66
:105650000A811B81102701271027FE0131967F0147
:10566000CC809F012C0D311D6901C8018796CE1495
:10567000DF0409F426CF003C110558F40E94872E60
:10568000D70114968C930F5F1F4FFFEFEF1AFF0A9D
:10569000ECCFF7011482F7CF0A811B811027012775
:1056A00010279E012F5F3F4F6901EC80E00EF12E25
:1056B000F11CC8018796E016F10609F402CF003C00
:1056C000110528F4D60114966C910E94A52EBFEF07
:1056D000CB1ADB0A0F5F1F4FECCF81E08093F00203
:1056E0008CE08093F1028981893009F4D0C984E685
:1056F00080932F038091BD03843009F51091E90058
:105700001F709091EC00892F817090FD80E8182B1C
:1057100084E08093E9008091E80080FF0DC050E0B4
:1057200040E060E470E080EF92E00E9484068091A7
:10573000E8008E778093E8001F701093E900E0EF97
:10574000F2E080E4DF011D928A95E9F7A0C982E0CA
:105750008093F002E0E6F1E0A1EFB2E081918823CE
:1057600011F28D93FBCF83E08093F00282E180936E
:10577000F10288E18093F202A8E7B1E083E090E0D3
:105780003D9121E0280FFC01E051FD4F311110C087
:105790001082AFE7B1E0822F8A1BE82FEA0F9D91BC
:1057A000992309F4A0CFF0E0E051FD4F9083F5CFAD
:1057B00030830196E5CF3091DB052091DC05909197
:1057C000DD0584E08093F0028091DA058695809370
:1057D000F1028091DE058093F2023093F302209370
:1057E000F4029093F5027FCF4A815B8185E080933C
:1057F000F002540FC12C39E1D32E66E0962E5417D7
:1058000009F471CF8C2D90E08C010D501D4F423169
:1058100010F1F801D08263E172E030E020E08B010A
:10582000F0E0E0E0D801FD908D014F1509F4DDC0F6
:105830003196E630F105B1F72F5F3F4F6A5F7F4F3A
:105840002430310561F780519D4FFC0117824F5F75
:10585000F7E0CF0ED4CF642F70E0FB01EE0FFF1FF7
:10586000E55DFD4F2081FC01E051FD4F21835B018F
:10587000AA0CBB1C95012D5E3D4FD9015996FC9099
:10588000F2829B012D5E3D4FD901DC96FC90D80140
:10589000FC929501260F371F2A5E3E4FD9011196C3
:1058A0006C91119764836C91658312962C91268379
:1058B000B2CF86E08093F0028BE08093F10280917A
:1058C000EF02A2EFB2E0E82FF0E0E851FE4F908146
:1058D0009D938F5F8B30B8F31092EF0204CF0A8153
:1058E000FB80EC808D81DE809F8127E02093F00299
:1058F0008C3020F089E180932E03F5CE10E09130BA
:1059000091F461E00E945509D092DE058091420336
:1059100081608093420321E04E2D6F2DC8010E94CB
:10592000FA0882E3E8CF60E00E945509D092DE05D4
:1059300020E0F2CFEA814B813C812D8188E0809389
:10594000F002E231B8F68E2F90E0FC01EE0FFF1F5F
:10595000E80FF91FEA5EFE4F418330832283E1CFD7
:105960006A815B8140E0541709F4BDCE842F880F13
:10597000840F90E0262F240F30E0F901EE0FFF1F77
:10598000E20FF31FEA5EFE4FA4E0B0E0AC0FBD1FD4
:10599000A80FB91F2C912183A5E0B0E0AC0FBD1F6B
:1059A000A80FB91F2C91208326E030E02C0F3D1F5B
:1059B000820F931FDC018C9182834F5FD4CFF9BC9F
:1059C00009BD09B400FEFDCF8091D8008F7D809382
:1059D000D8008091E00082608093E0008091E00038
:1059E00081FDFCCF0E947A175CC8929EB001939E05
:1059F000700D1124E60FF71FEE0FFF1FE058FB4F4D
:105A0000E49180519D4FDC011796EC9320CF86E204
:105A100090E00E94872E1B821C821D8284CD2B3039
:105A2000310508F03ACB70CB2B30310508F0E9CACC
:105A30001FCB1092B9008CE08093B80008959F921C
:105A4000AF92BF92CF92DF92EF92FF920F931F938C
:105A5000CF93DF93B82EEB010E9419176C01EE244F
:105A6000E394F12CC431D10560F025E0E22EF12C55
:105A7000CF3FDC0731F0CE0164E170E00E94202EC0
:105A80007B0184EAA82E94E8992E1092BC00A09283
:105A9000BC000E9419178C018091BC0087FF0DC0CB
:105AA0008091B900887F883039F18091B900887F72
:105AB000803111F10FEF1FEF09C00E941917801BF1
:105AC000910B8E159F0540F30EEF1FEFCF3FDC07C4
:105AD000E1F2C6010E940A178C179D07B0F2C801B7
