:100000000C942C030C9464030C9464030C9464030C
:100010000C9464030C9464030C9464030C946403C4
:100020000C9464030C9464030C942A280C94E62723
:100030000C9427290C9464030C9464030C946403BB
:100040000C9464030C9464030C9464030C94640394
:100050000C9464030C9403290C9464030C946403BF
:100060000C9464030C9464030C9464030C94640374
:100070000C9464030C9464030C9464030C94640364
:100080000C9464030C9464030C9464030C94640354
:100090000C9464030C9464030C9464030C94640344
:1000A0000C9464030C9464030C94640305010980AC
:1000B000A101850319012AB700150126B700950192
:1000C00075108100C0050C0901A101850419012AE0
:1000D000A002150126A002950175108100C005013E
:1000E0000906A1018506050719E029E71500250184
:1000F0009508750181020507190029EF15002501F2
:1001000095F075018102050819012905950575010C
:100110009102950175039101C00659FF0960A10183
:100120000962150026FF00954075088102096315D4
:100130000026FF00954075089102C00660FF096126
:10014000A1010962150026FF0095207508810209AA
:1001500063150026FF00952075089102C00501096E
:1001600006A101050719E029E71500250195087585
:100170000181029501750881010507190029FF1504
:100180000026FF009506750881000508190129055C
:10019000950575019102950175039101C00000005C
:1001A000000000000000000000000000000000004F
:1001B000000000000000000000000000000000003F
:1001C000007E0F00D4FFFFFFC70000007800000092
:1001D00000000000002A2B280000000000000000A2
:1001E000000000000000000029000000002C1E3468
:1001F00020212224342627252E362D3738271E1F6E
:10020000202122232425263333362E37381F040598
:10021000060708090A0B0C0D0E0F10111213141506
:10022000161718191A1B1C1D2F3130232D350405E4
:10023000060708090A0B0C0D0E0F101112131415E6
:10024000161718191A1B1C1D2F3130354C000101CF
:100250000101010101010102020202020202020285
:100260000303030303030303040404040404040555
:100270000505050506060606060707070707080819
:100280000808090909090A0A0A0B0B0B0C0C0C0DCA
:100290000D0D0E0E0E0F0F0F101011111112121363
:1002A000131414151516161717181819191A1A1BDE
:1002B0001B1C1D1D1E1E1F2020212222232424253D
:1002C0002626272829292A2B2C2D2D2E2F30313276
:1002D00032333435363738393A3B3C3D3E3F404186
:1002E00042434445464748494A4C4D4E4F5051536E
:1002F00054555658595A5B5D5E5F61626465666825
:10030000696B6C6D6F7072737577787A7B7D7E80A8
:1003100082838587888A8C8E8F91939596989A9CF4
:100320009EA0A2A3A5A7A9ABADAFB1B3B5B7BABC08
:10033000BEC0C2C4C6C9CBCDCFD1D4D6D8DBDDDFD9
:10034000E2E4E7E9EBEEF0F3F5F8FAFDFF29001E31
:10035000001F002000210022002300240025002689
:100360000027002D002E002A0035002B0014001A53
:10037000000800150017001C0018000C00120013E4
:10038000002F00300031004C00390000000400163E
:1003900000070009000A000B000D000E000F0033DB
:1003A00000340028004B000000E1001D001B000687
:1003B000001900050011001000360037003800E574
:1003C0000052004E00E000E3000000E200000000E8
:1003D000002C00000000000151E40000005000511A
:1003E000004F0001003A003B003C003D003E003F52
:1003F0000040004100420043004400450001004A23
:10040000000100C25CC35CC95CCA5CC55CC65CC759
:100410005CC85C010046004700480001004D000137
:10042000000000CD5CCE5CCF5CD05C01000100011F
:10043000000100010001000100010049000000016D
:1004400000010001000100010001000100010001A4
:100450000001000100010001000100005C0100003A
:100460000001000000000001000000000001000188
:100470000000000100805F815F01000100010001B8
:100480000001000100010001000100010001000164
:100490000001000100010001000100010001000154
:1004A0000001000100010001000100010001000144
:1004B0000001000100010000000100010001000135
:1004C0000001000100010001000100010001000124
:1004D0000001000000010001000100010001000115
:1004E0000001000100010001000100010001000104
:1004F00000010001000000010000000000010000F8
:1005000000000001000100000001000100010001E5
:1005100000010001000100010001000100010001D3
:1005200000010001000100010001000100010001C3
:1005300000010001000100010001000100010001B3
:1005400000010001000100010001000100000001A4
:100550000001000100010001000100010001000193
:100560000001000100010001000000010001000184
:100570000001000100010001000100010001000173
:100580000001000100010001000100000001000065
:100590000000000100000000000100010000000157
:1005A000000100010009027B00040100A0FA090417
:1005B0000000010301010009211101000122400096
:1005C000070581030800010904010002030000007F
:1005D00009211101000122220007058203200001E8
:1005E00007050303200001090402000203000000C4
:1005F00009211101000122220007058403400001A6
:100600000705050340000109040300010300000081
:10061000092111010001226D000705860320000158
:100620001201000200000008AA0002AA0100010253
:1006300000010E0343006F006D00620036003700BA
:10064000000010035A006800610051006900610059
:100650006E0000000403090411241FBECFEFDAE08E
:10066000DEBFCDBF04B603FE18C080913308909161
:100670003408A0913508B09136088730904BA740D8
:10068000B04B59F410923308109234081092350888
:1006900010923608E0E0F8E3099528E0A6E2B4E01D
:1006A00001C01D92A333B207E1F714E0A0E0B1E06E
:1006B000E4E8F7E602C005900D92A632B107D9F73B
:1006C0000E944E290C9461330C940000E8EDF0E098
:1006D00080818E7F80831092E2001092DA00109267
:1006E000E100A0EEB0E08C9181608C9380818F77E7
:1006F000808319BCA7EDB0E08C918E7F8C938081B4
:100700008F7E80831092CD0708952091E400309170
:10071000E50095E6A9012091EC00822F817020FF71
:1007200006C08091E80080FF06C080E00895209117
:10073000E80022FD1AC08091F207882389F08530F5
:1007400089F08091EB0085FD0FC02091E40030918D
:10075000E50042175307F9F29150E1F684E008955D
:1007600082E0089583E0089581E00895EF92FF927A
:100770000F931F93CF937C018B010E948503C82F99
:10078000811117C08091E80085FD0BC08091E800C1
:100790008E778093E8000E948503882399F3C82F01
:1007A00008C0F70181917F018093F1000150110988
:1007B00049F78C2FCF911F910F91FF90EF900895E3
:1007C000EF92FF920F931F93CF937C018B010E94B6
:1007D0008503C82F811117C08091E80085FD0BC0EB
:1007E0008091E8008B778093E8000E94850388233E
:1007F00099F3C82F08C08091F100F70181937F0120
:100800000150110949F78C2FCF911F910F91FF9043
:10081000EF9008958091F40787FF13C08091E8005E
:1008200082FF06C08091E8008B778093E80004C0C7
:100830008091F2078111F2CF08958091F207882309
:10084000D9F38091E80080FFF8CF8091E8008E779F
:10085000ECCF982F9093E900242F762F50E0891742
:1008600031F07091EC002091ED005091F00021FDED
:1008700007C09F5F973071F78093E90081E008958A
:100880003091EB003E7F3093EB003091ED003D7FE7
:100890003093ED003091EB0031603093EB007093BA
:1008A000EC002093ED005093F0002091EE0027FD26
:1008B000E0CF80E00895CF92DF92EF92FF920F9306
:1008C0001F93CF93DF93C8EDD0E088818F7E88831C
:1008D000E7EDF0E080818160808384E082BF81E089
:1008E0008093CD0788818E7F888302EE10E0F80127
:1008F00010821092DA0081EEC82ED12CF6011082FF
:1009000088818F77888388818068888388818F7DBC
:10091000888319BC1092F2071092F3071092F10726
:100920001092F00790EEE92EF12CF70180818B7F79
:10093000808388818160888342E060E080E00E945B
:100940002904F60180818E7F8083F8018081816097
:100950008083808188608083F70180818E7F80839F
:10096000888180618883DF91CF911F910F91FF90E3
:10097000EF90DF90CF900895FC018091FA0790915D
:10098000FB0786179707A0F06115710529F4909170
:10099000E8009E779093E80090E06115710551F4AE
:1009A000911108C08091E80082FF34C080E0089572
:1009B000BC01F2CF8091F2078823C1F18530C1F1EB
:1009C0008091E80083FD30C08091E80082FDEACF8D
:1009D0008091E80080FFE1CF8091F3002091F20048
:1009E000382F6115710519F02830310558F091E064
:1009F0002830310509F090E02091E8002E7720930F
:100A0000E800CBCF81918093F100615071092F5F95
:100A10003F4FE7CF8091F207882341F0853041F0C6
:100A20008091E80083FFBECF81E0089582E00895C1
:100A300083E00895089508958091CF0708959C015B
:100A40004FB7F8948091C4079091C507A091C6074D
:100A5000B091C7074FBF821B930B08952FB7F8942F
:100A60008091C4079091C507A091C607B091C707B0
:100A70002FBF08952091C1073091C2072817390769
:100A800071F09093C2078093C107E091BF07F09186
:100A9000C007309721F00084F185E02D0994089576
:100AA0002091BD073091BE072817390771F0909348
:100AB000BE078093BD07E091BF07F091C007309754
:100AC00021F00680F781E02D09940895E091BF0799
:100AD000F091C007309721F00190F081E02D09944A
:100AE00080E00895FC019B01009729F480E077FFE6
:100AF0002BC080E80895AC0197FF04C04427552718
:100B0000481B590BB901640F751F37FD10C0241B1A
:100B1000350BC901A5E0880F991FAA95E1F70E943E
:100B20007D3080E2861BF7FF0FC081950895CB01D1
:100B300065E0880F991F6A95E1F7BA01621B730B94
:100B40000E947D3080E6EECF0895E82F86FDE09587
:100B50002E2F2F7086FD2F5FE695E695E695E670C1
:100B6000F0E0EA53FD4F9181929F902D212D1124A9
:100B700092959F702295207F922B2081920F87FD66
:100B8000919580E8890F0895AC018230910508F4B1
:100B900008959FEF413E8EE1580740F49A0195E099
:100BA000369527959A95E1F798E0920F61E0E62F48
:100BB000E90FFF27FF1F9F0135952795822F229F61
:100BC000F001239FF00DF00D11244E175F0738F44C
:100BD0009FEF920F961758F78FEF860F08952F3FCC
:100BE000E9F361E0620FF6CFFA01811101C0FB0168
:100BF0000994EFEBF6E0818360834283339697E0BC
:100C0000E83BF907C1F70895FC01EE0FFF1FE80F5D
:100C1000F91FE154F94F6183408322830895E4E092
:100C2000F8E0248130E1231B08F420E02483809144
:100C3000BE0681608093BE060895E4E0F8E024815A
:100C400030E1230F08F42FEF24838091BE068160EA
:100C50008093BE0608959091040890FF0EC0809383
:100C6000050860930608493C08F048EC40930708E3
:100C70008091BE06822B8093BE060895E4E0F8E0E2
:100C8000438120E1421B08F440E0818121E0628140
:100C900090E00C942B06E4E0F8E0438120E1420F61
:100CA00008F44FEF818121E0628190E00C942B06E3
:100CB000E4E0F8E0628120E1621B08F460E08181F9
:100CC00021E0438190E00C942B06E4E0F8E062819F
:100CD00020E1620F08F46FEF818121E0438190E011
:100CE0000C942B06E4E0F8E0818121E043816281ED
:100CF0008850990B0C942B06E4E0F8E0818190E099
:100D000021E04381628108960C942B06209104080F
:100D1000922F917020FF0CC081110BC092609093B4
:100D2000040810920F028091BE06862B8093BE06A7
:100D300008958E3210F09A65F2CF880F982BEFCF7E
:100D4000809104088695815009F48DE261E00C944D
:100D500086068091040886958F5F8E3208F081E0C8
:100D600061E00C94860680930C02809104088170E7
:100D700080930B020E94261183E080930F02089556
:100D8000EF92FF920F939701201B31092F3F3105FE
:100D900019F010F02FEF30E02095382F320F08F4C3
:100DA0003FEF832F0F91FF90EF900895EF92FF9206
:100DB0000F939701201B31092F3F310519F010F0D7
:100DC0002FEF30E0322F3095482F430F08F44FEFCC
:100DD000842F620F0F91FF90EF900895EF92FF9292
:100DE0000F93972F093438F4B701601B71096F3FD7
:100DF000710519F010F06FEF70E0485F5F4F4131FF
:100E0000510540F0A901485F5F4F4131510510F095
:100E10006FEF70E06095482F460F08F44FEF842F76
:100E200037FF02C02D5F3F4F3595279535952795A4
:100E300060910508620F792F0F91FF90EF90089550
:100E4000EF92FF920F931F930E0D1F2D111DF901AD
:100E500037FF03C0F195E195F10924E0EE0FFF1F84
:100E60002A95E1F7EF3FF10519F014F0EFEFF0E00C
:100E70009A0157FF03C031952195310994E0220F63
:100E8000331F9A95E1F72E173F070CF4F901E00F95
:100E9000F11FEF3FF10519F010F0EFEFF0E0E095F2
:100EA000282F3E2F230F08F42FEF822F1F910F9131
:100EB000FF90EF900895EF92FF920F93970195E0C6
:100EC000099F200D311D11242F3F310519F010F01D
:100ED0002FEF30E02095382F320F08F43FEF832FAB
:100EE0000F91FF90EF90089522E8241B08F420E072
:100EF000620F08954095282F429F412D1124842F81
:100F00000895E42FF0E0EE0FFF1FE35DFC4F9081AA
:100F1000921B97FD9195292F38E1239F212D1124B4
:100F2000620F08950F931F9310E0F801EE0FFF1F5B
:100F3000E35DFC4F9081905797FD9195000F111F35
:100F4000F801E25DFC4F00810052110B2003F0011B
:100F5000219FF00D112408E310E0091B110997FDF2
:100F6000139540039001419F300D1124E20FF31FB0
:100F70009F01220F331F2E0F3F1F37FF02C0215842
:100F80003F4F220F232F221F330B620F1F910F9110
:100F900008950F931F93522F10E0F801EE0FFF1FDB
:100FA000E25DFC4FA081A052BB0B9D015203F001FA
:100FB000539FF00D1124000F111FD801A35DBC4FEA
:100FC0000C910057110B40039001419F300D1124EB
:100FD0002E0F3F1F37FF02C0215C3F4F96E0359533
:100FE00027959A95E1F7620F1F910F9108950F933E
:100FF0001F93522F10E0F801EE0FFF1FE25DFC4F30
:10100000A081A052BB0B9D015203F001539FF00D34
:101010001124000F111FD801A35DBC4F0C91005784
:10102000110B40039001419F300D11242E0F3F1FE3
:1010300037FF02C021583F4F220F232F221F330BAF
:10104000620F1F910F910895EF920F93CF93DF934B
:10105000D72FC82FC9010E19BA010E947205602F3F
:10106000681B7D2F8C2FDF91CF910F91EF9008950A
:101070000F93CF93DF93D72FC82FC901BA010E94D6
:101080007205682F600F7D2F8C2FDF91CF910F910C
:1010900008950F93CF93DF93D72FC82F47FD419526
:1010A00088E390E0841B910947FD9395889FB001E8
:1010B000899F700D700D1124229FC001239F900DF8
:1010C000900D1124860F971F0E94C405982F990F29
:1010D000890F682F600F7D2F8C2FDF91CF910F919B
:1010E0000895EF920F93972F23E0029FB0011124F0
:1010F000759567956E0D792F0F91EF900895322FAA
:1011000050E0FA01EE0FFF1FE25DFC4F908190521C
:1011100097FD9195440F551FFA01E35DFC4F208127
:10112000231B330B290F311D97FD3A95620F08954C
:10113000E42FF0E0EE0FFF1FE25DFC4F6081621BC9
:101140000895E42FF0E0EE0FFF1FE35DFC4F608198
:10115000621B0895622F0895EF920F931F93CF9310
:10116000DF93D62FC72F182FC9010E19010FBA010F
:101170000E947205081B202F219F212D1124822FF0
:101180006D2F7C2FDF91CF911F910F91EF900895DC
:10119000EF920F931F93CF93DF93D62F172FC82F64
:1011A000C9010E19070FBA010E947205702F781B32
:1011B000719F712D11246D2F8C2FDF91CF911F9175
:1011C0000F91EF9008950F931F93CF93DF93D62F36
:1011D000C72F182FC901212F201B022FBA010E94EF
:1011E0007205982F990F990F891B800F282F219F27
:1011F000212D1124822F6D2F7C2FDF91CF911F91F4
:101200000F9108950F931F93CF93DF93D62F172F2E
:10121000C82FC901272F201B022FBA010E94720577
:10122000982F990F990F782F791B700F719F712D3F
:1012300011246D2F8C2FDF91CF911F910F91089565
:10124000E42FF0E0EE0FFF1FE35DFC4F408134EE32
:10125000439F412D1124E82FF0E050E0445E5F4FA2
:10126000DA01A21BB1099D01B7FF03C03195219599
:10127000310993E0220F331F9A95E1F7AF01421B2A
:10128000530B9A0157FD20E0582F259F212D112443
:10129000822F0895E42FF0E0EE0FFF1FE35DFC4F77
:1012A000408134EE439F412D1124E72FF0E050E0C0
:1012B000445E5F4FDA01A21BB1099D01B7FF03C075
:1012C00031952195310993E0220F331F9A95E1F76B
:1012D000AF01421B530B9A0157FD20E0279F212DA0
:1012E0001124722F08950C94F9050C940406E82F2C
:1012F00086FDE0952E2F2F7086FD2F5FE695E695F3
:10130000E695E670F0E0EF54FD4F9181929F902DAD
:10131000212D112492959F702295207F922B208160
:10132000920F87FD919580E8890F08950F931F9381
:10133000CF93DF938B01D82FC42F822F0E94770980
:10134000EC2FF0E0EE0FFF1FE35DFC4F9081905813
:10135000890F87FD8195880F682F2CE0629F612D92
:101360001124600F712F8D2FDF91CF911F910F915D
:101370000895409110015091110125E038E0429FFD
:10138000C001439F900D529F900D1124875E994C90
:101390009093110180931001890F089530E020E0AF
:1013A000869F212D969F200D311D1124C90108957E
:1013B0002091080830E1230F08F42FEF60E1822F1D
:1013C00090E00E94CE09BC0188EB9BE00E9469304E
:1013D00090E080E00895AF92BF92CF92DF92FF92AB
:1013E0000F931F93CF93DF93362F472FE82FF0E013
:1013F000E35BFD4F71110FC0E4918E2F2E2F6E2FE6
:10140000722FDF91CF911F910F91FF90DF90CF90BE
:10141000BF90AF900895C72FD0E02491F22E022FF5
:1014200010E056E0659FC0011124EFEFF0E0BF012E
:101430000E946930832F90E0880F991F35E5369F11
:10144000D001379FB00D11248A1B9B0B982F990F49
:10145000980F6F01CC1ADD0AC09ED001C19EB00D5D
:10146000D09EB00D11248B2F499FA0011124452F30
:1014700055276F01C41AD50AC09EA001C19E500D08
:10148000D09E500D11245F01A91AB108AC9E6001D5
:10149000AD9ED00CBC9ED00C1124CD2CDD24EC19BB
:1014A000FD09E09FE001E19FD00DF09FD00D1124D8
:1014B000ED2F62307105A1F050F46115710509F44A
:1014C0009ECF6130710581F0EB2F852F98CF64306E
:1014D000710569F080F06630710509F490CFF4CFA2
:1014E000E22F2B2F8D2F8BCFE22F252F88CFEB2FA5
:1014F000822F2D2F84CF2B2F8F2DE52F80CF2F9252
:101500003F925F926F927F928F929F92AF92BF9223
:10151000CF92DF92EF92FF920F931F93CF93DF93BF
:10152000CDB7DEB72A970FB6F894DEBF0FBECDBF9A
:101530008B837E836D832091120281E1289F802D11
:1015400011248F838F5E89838A83843510F033E57D
:101550003A8380910A088C83FF81EF2FF0E0FA87AD
:10156000E987CF01880F991F9C01235D3C4F6901DA
:101570003B81832F90E0FC013196F887EF838A81CD
:1015800099859817E8F081E0E981E33508F080E07B
:101590002A960FB6F894DEBF0FBECDBFDF91CF9174
:1015A0001F910F91FF90EF90DF90CF90BF90AF9081
:1015B0009F908F907F906F905F903F902F900895B5
:1015C000E985FA85ED52FC4F8081909113028923C1
:1015D000F1F020900508309006082F813885265FAD
:1015E000374F39015B8010E0FC815F16D0F020910D
:1015F0000708129F112D1124B101812F0E94EB09C0
:10160000462F282F672F89859A850E94750929857D
:101610003A852F5F3F4F3A87298732E0C30ED11CAE
:10162000AECFF30181913F01F601A080A81ABB085B
:101630008180F3018781881A9908AA9C9001AB9C4C
:10164000300D300D1124889CC001899C900D900DA7
:101650001124820F931F0E94C405082F609108086F
:1016600021E0620F08F46FEFF301EE0FFF1FEA5065
:10167000F840858996890E94CE097C019401A501D4
:10168000B101812FED81FE8109951B015394182F23
:10169000ABCFCF92DF92EF92FF920F931F93CF9336
:1016A000DF938C01C091120281E1C89FC02D1124EB
:1016B00021E1D22EDC0ECD2C23E52D1510F493E57F
:1016C000C92E2091080831E0230F08F42FEF30E0F5
:1016D00050E040E06FEF7FEF80E090E00E946231E9
:1016E0007901D0E02C2FCC1570F081E0F2E5FD15EA
:1016F00008F480E0DF91CF911F910F91FF90EF9060
:10170000DF90CF900895FE01ED52FC4F80819091C3
:101710001302892311F140910A084150042E000C54
:10172000550B47FF1CC0C7016091080821E0620FFC
:1017300008F46FEF0E94CE09AC016091050870912A
:10174000060880910708F80109950E94EB09462FC9
:10175000282F672FCE010E9475092196C3CFFA0169
:10176000E65FF74F818982130AC0FA01EE0FFF1F6F
:10177000E65FF74F818D928D8E159F05A8F241503F
:101780005109CFCFDF92EF92FF920F931F93CF9328
:10179000DF937C01C091120281E1C89FC02D11240A
:1017A00011E11C0F012F143508F003E560910808C2
:1017B0006695669521E0620F08F46FEF809100084E
:1017C000909101080E94CE09D82ED0E0C01760F099
:1017D00081E0133508F080E0DF91CF911F910F91E8
:1017E000FF90EF90DF900895FE01ED52FC4F808155
:1017F00090911302892391F0609105087091060879
:10180000809107082D2D4C2FF70109950E94EB09B7
:10181000462F282F672FCE010E9475092196D6CF1B
:101820009F92AF92BF92CF92DF92EF92FF920F936F
:101830001F93CF93DF936C01C091120281E1C89F87
:10184000C02D112411E11C0FB12E143510F033E519
:10185000B32E609108086695669580910008909176
:1018600001080E94CE09F82E80E48F0D0E947709AE
:1018700090E8A92EA80E8F2D0E94770920E8922EBD
:10188000980ED0E0CB1580F081E0133508F080E0B1
:10189000DF91CF911F910F91FF90EF90DF90CF904C
:1018A000BF90AF909F900895FE01ED52FC4F808154
:1018B000909113028923A1F06091050870910608A8
:1018C00080910708EF2C0C2F292D4A2DF601099540
:1018D0000E94EB09462F282F672FCE010E94750921
:1018E0002196D0CF7F928F929F92AF92BF92CF924C
:1018F000DF92EF92FF920F931F93CF93DF935C01E0
:10190000C091120281E1C89FC02D112411E11C0F6A
:10191000F12E143510F033E5F32E6091080866952A
:1019200080910008909101080E94CE09782ED0E0A5
:10193000CF1590F081E0133508F080E0DF91CF9172
:101940001F910F91FF90EF90DF90CF90BF90AF90DD
:101950009F908F907F900895FE01ED52FC4F808103
:10196000909113028923C9F1CE01880F991F8E51DE
:101970009D4FFC01E55BFF4F2081422F4057550BE7
:101980006A01845B9F4FFC018081282F2052330B1A
:101990004901449F9001459F300D300D1124889CD2
:1019A000C001899C900D900D1124820F931F0E94FD
:1019B000C405082F609105087091060880910708FA
:1019C000E72C9401A601F50109950E94EB09462F29
:1019D000282F672FCE010E9475092196A9CFCF929B
:1019E000DF92EF92FF920F931F93CF93DF937C01CF
:1019F000C091120281E1C89FC02D112411E11C0F7A
:101A0000D12E143510F033E5D32E60910808669579
:101A100080910008909101080E94CE09C82ED0E064
:101A2000CD1568F081E0133508F080E0DF91CF91AB
:101A30001F910F91FF90EF90DF90CF900895FE01DE
:101A4000ED52FC4F808190911302892311F1CE0158
:101A5000880F991F8E519D4FFC01E45BFF4F208141
:101A60002052330B855B9F4FFC0140814057550B43
:101A70006091050870910608809107080C2DF70108
:101A800009950E94EB09462F282F672FCE010E944F
:101A900075092196C5CF4F925F926F927F928F9278
:101AA0009F92AF92BF92CF92DF92EF92FF920F93ED
:101AB0001F93CF93DF93982E762E33EDC32E33E012
:101AC000D32E4DE2E42E43E0F42E10E000E0F601C8
:101AD00081916F018A70D9F1F7018081282F2057F9
:101AE000330B5901C181C052DD0BAA9C9001AB9C04
:101AF000300D300D1124CC9FC001CD9F900D900D65
:101B00001124820F931F0E94C4056090BA07809031
:101B1000BB0732E07316A9F193E07916D1F1E3E047
:101B20008E9FC0011124F1E095958795592C580E90
:101B30007F1202C0582E5918652D762D882D0E94CF
:101B4000EB09462F282F672FC8010E9475090F5FE8
:101B50001F4F82E0E80EF11C0335110509F0B7CFE5
:101B6000DF91CF911F910F91FF90EF90DF90CF9079
:101B7000BF90AF909F908F907F906F905F904F90AD
:101B80000895582E5918B501CE010E947205581AB1
:101B9000D3CF24014918B501CE010E947205982FB8
:101BA000990F990F282F291B240D382D239F212DA4
:101BB0001124822EC1CFAF92BF92CF92DF92EF92CB
:101BC000FF920F931F93CF93DF93B82EA62E23ED92
:101BD000E22E23E0F22EC2EED2E010E000E0C82EAA
:101BE000D12CF70181917F018A7009F43BC070917B
:101BF000BA078091BB07F2E0AF1609F445C023E0B5
:101C0000A21609F447C031E06B2DA31619F1FE01AD
:101C1000E55BFF4F208134EE239F212D1124482FB7
:101C200050E030E0245E3F4F2C193D0937FF03C0E0
:101C300031952195310993E0220F331F9A95E1F7F1
:101C4000421B530B57FD40E0282F429F412D11248A
:101C50006B2D842F0E94EB09462F282F672FC80178
:101C60000E9475090F5F1F4F22960335110509F079
:101C7000B8CFDF91CF911F910F91FF90EF90DF9040
:101C8000CF90BF90AF900895FE01E55BFF4F60815C
:101C90006B19E0CFFE01E45BFF4FF9CF80E00895C0
:101CA000F894E82FE295EF70F0E031A1282F2F7023
:101CB00081E090E001C0880F2A95EAF7982F90956F
:101CC000932391A392A1892B82A3789408958238BB
:101CD000910591F1C0F58133910509F490C028F583
:101CE0008932910509F484C08A32910509F48EC0C5
:101CF000811520E5920708F09EC0811540E4940705
:101D000008F022C18F3B910508F087C0883A910501
:101D100008F00FC1853A910508F002C184309105A1
:101D200000F581309105E9F03CC08533910509F457
:101D300058C089339105E1F62091C807237089F0D6
:101D400080EE90E00895833E910571F158F4803E55
:101D50009105E9F0823E910559F62091C80722FDD0
:101D60001EC00895863E910551F1873E910571F19F
:101D7000843E910509F0BCCF2091C90721FFF1CF26
:101D80008091C80784FD0DC087EE90E008952091F2
:101D9000C80720FD05C13091C90730FFE2CF24FFFD
:101DA00002C190E080E0DDCF2091C80722FDFEC097
:101DB0003091C90730FDC4CF24FFD3CFF2CF20919B
:101DC000C80723FFCECF24FDECCFDECF2091C8077C
:101DD00023FDEFC03091C90731FFEECF84EE90E0D4
:101DE00008952091C80725FFBCCF89E290E00895AF
:101DF0002091C80725FFB5CF85E390E00895209195
:101E0000C80726FFAECF8AE290E008952091C80768
:101E100026FFA7CF81E390E00895803E910508F268
:101E2000883E910508F49DCF9C013A9521153F41CC
:101E300008F497CFB6CF811523E5920740F58115B9
:101E400042E5940708F088C0811521E5920708F063
:101E50007EC09C0164E0369527956A95E1F7922F44
:101E60009370282F26952695237040E2249F900199
:101E70001124392B482F437081E090E002C0880F75
:101E8000991F4A95E2F7822B932B9C680895811540
:101E900049E59407F0F4811528E5920708F06DC034
:101EA000811544E5940708F07CCFAC0143705527B9
:101EB00021E030E002C0220F331F4A95E2F78695F9
:101EC000869540E2849FC0011124822B932B9A684F
:101ED000089581152AE5920708F063CF282F2F7007
:101EE0004091C80742FF05C083FF4CC0282F2770D0
:101EF00024603091C90730FF07C0322F3871383065
:101F000009F046C0277F216044FD277E34E0969586
:101F100087953A95E1F78F70982F822F90690895F1
:101F2000855AE82FF0E0E15CFD4F808190E09064FD
:101F30000895885AE82FF0E0EE0FFF1FEE5BFD4F8B
:101F400080819181946408959F70906A0895982F7C
:101F50008827816F906A0895AC014370552721E06E
:101F600030E002C0220F331F4A95E2F7869586952E
:101F700040E2849FC001112486CF982F8827806F6C
:101F8000906A089582FFB5CF282F2B702860B1CFBB
:101F9000322F3171313009F0B7CF2E7F2860B4CFA6
:101FA00089E390E0089583EE90E0089582EE90E05A
:101FB000089586EE90E00895909111029923D1F052
:101FC0009091C80797FF16C0E82FE695E695E6952D
:101FD000EE31E0F4F0E0E85DFB4F282F277081E060
:101FE00090E001C0880F2A95EAF7809592818923B5
:101FF00082830895EAE2F4E09191891303C0DF013E
:1020000011971C9294E0E033F907B1F7089590918D
:1020100011029923C1F09091C80797FF14C0E82FCF
:10202000E695E695E695EE31F8F4F0E0E85DFB4FD5
:10203000877021E030E001C0220F8A95EAF78281A3
:10204000822B82830895AAE2B4E0EFEF90E02D9115
:10205000821751F0EF3F19F4211101C0E92F9F5F62
:102060009630A9F7EF3F09F408950E2E000CFF0BF0
:10207000E85DFB4FE6CF2FE0929F800D1124982F53
:10208000977086958695869523E0829FF0011124AE
:10209000E75BFB4F50E040E080E0219130E0092E0B
:1020A00002C0369527950A94E2F721703327042E53
:1020B00001C0220F0A94EAF7822B4F5F5F4F433033
:1020C000510559F708952FE0929F800D1124982F04
:1020D000977041E001C0440F9A95EAF7869586957E
:1020E000869593E0899FF0011124E75BFB4F90E018
:1020F00080E070E05191DF0111979B01082E02C032
:10210000369527950A94E2F72170219525272423F7
:1021100025272C9301968330910561F708958093CC
:10212000CA077093CC076093CB078091F207843085
:1021300001F586E08093E9008FEF9091E8008150EF
:1021400095FD06C095ED9A95F1F700008111F5CF48
:102150008091E80085FF0DC050E040E063E070E052
:102160008AEC97E00E94B6038091E8008E77809316
:10217000E8000895BC0184E00C948F10BC0183E05A
:102180000C948F10CF93DF93EC0180911102882380
:10219000B1F18091C80787FF32C060E286E080938A
:1021A000E9008FEF9091E800815095FD06C095ED14
:1021B0009A95F1F700008111F5CF8091E80085FF35
:1021C0001BC08091110270E050E040E0811104C01A
:1021D00050E040E068E070E0CE010E94B6038091DC
:1021E000E8008E778093E80080E2FE01A0EDB7E082
:1021F00001900D928A95E1F7DF91CF91089568E003
:1022000081E0CDCF81E08093E00080E28093D80030
:102210001092C9008FE19EE40197F1F700C0000021
:1022200087E090EBDC018093330890933408A0930F
:102230003508B093360888E19CE00FB6F894A8956D
:10224000809360000FBE90936000FFCF869A31B3F9
:102250003F7B21B320644FB7F8948FEB96E0FC01ED
:102260005191CF0168E021BB000000C057FF31BB96
:10227000550F000000C000C000C031BB00C06A950F
:1022800091F7F7E0883B9F0751F74FBF8FE594E048
:102290000197F1F700C000000895CF93DF93CFE7D7
:1022A000D2E060E0CE010E943E312196C11584E06B
:1022B000D807B9F7DF91CF9108956F927F928F92EF
:1022C0009F92AF92BF92CF92DF92EF92FF920F93C5
:1022D0001F93CF93DF938DE4C82E83E0D82E9BED20
:1022E000E92EF12CE701C659D10936011BC0F501D1
:1022F00085909490692DC8010E943E31682DC801D7
:1023000001960E943E3182E0A80EB11C0E5F1F4F65
:10231000C017D10761F78EE1680E711C6E96CE155D
:10232000DF0529F08E010E5111095301E0CF7E0126
:1023300086E9E80EF11C86E9C80ED11C83E3E81695
:1023400083E0F80679F6DF91CF911F910F91FF900E
:10235000EF90DF90CF90BF90AF909F908F907F9045
:102360006F900895609110028FE090E00C943E31E0
:102370008091040880FF0AC090911002892F8D7F00
:1023800091FF8260809310020C94B21108958091A5
:10239000040880FF0AC090911002892F8E7F90FF61
:1023A0008160809310020C94B2110895CF93C82FCE
:1023B0006FEF811162E283E290E00E943E316FEFA5
:1023C000C11162E084E290E00E943E316FEFC111E2
:1023D00064E285E290E0CF910C943E3180E00E946F
:1023E000D61160E086E290E00E943E310E945D11CD
:1023F0000E944D1181E00C94D6110F931F93CF933F
:10240000DF93C42FD0E0CC0FDD1F2EE1629FC00D03
:10241000D11D112436E9839FC00DD11D1124CE0199
:1024200087960E942031082F10E0102F0027CE0140
:1024300088960E9420319801282BC901DF91CF9105
:102440001F910F910895462F843038F4753028F489
:102450006F3018F4672F0C94FD1190E080E0089520
:10246000CF92DF92FF920F931F93CF93DF936C0174
:102470000091FF0780918904082BC7E0D0E010E0AD
:10248000FC2EC8010C2E02C0959587950A94E2F7A0
:1024900080FD0CC02197A0F7F12C8F2DDF91CF91FB
:1024A0001F910F91FF90DF90CF900895B6018C2F70
:1024B0000E9423120E94670E019761F3EECF83E220
:1024C00090E00E942031823289F484E290E00E9400
:1024D0002031823059F485E290E00E94203191E071
:1024E000843209F090E0892F8170089580E0FCCF5C
:1024F000CF9384E090E00E942031C82F82E290E0E8
:102500000E942031982F8C2FCF91089545E050E004
:1025100060E170E088EB97E00C942E318091040824
:1025200080FF09C08091B807815009F48CE0809346
:10253000B8070C94861208958091040880FF0AC0A1
:102540008091B8078F5F8D3008F081E08093B807E5
:102550000C94861208958091040880FF05C081E0E4
:102560008093B8070C9486120895E8EBF7E081E0B9
:1025700080838091150290911602A09117028183A9
:102580009283A3838FE784830C948612E4E0F8E0BF
:102590008BE180838091150290911602A091170221
:1025A00081839283A3838FE784838FEF858346E0C3
:1025B00050E06CE170E0CF010E942E311092BE0617
:1025C00008951F93CF93DF93EC01FC01ED52FC4F74
:1025D00080816823C9F00E94EA30182F0E94EA30F7
:1025E0008F77782F20E8720F08F47FEF612F8091AA
:1025F00007080E94EB09462F282F672FCE01DF9195
:10260000CF911F910C947509DF91CF911F9108957F
:10261000DF92EF92FF920F931F93CF93DF938C0182
:10262000FC01ED52FC4F8081682381F1D0900608B7
:10263000D0910708C0910508EC2EF12C0E94EA30D9
:10264000282FC7018C549F4F68E671E00E947D30AF
:102650008E199F0997FD0396959587959595879572
:1026600023706C2F289F600D11247D2D8D2F0E94CB
:10267000EB09462F282F672FC801DF91CF911F91BB
:102680000F91FF90EF90DF900C947509DF91CF913F
:102690001F910F91FF90EF90DF9008953F924F921E
:1026A0005F926F927F928F929F92AF92BF92CF92E2
:1026B000DF92EF92FF920F931F93CF93DF93782EC9
:1026C00080910C02871125C080910408282F217069
:1026D00030E090910B0281E09217130609F480E03C
:1026E00081708093140280910908909113029817C9
:1026F00039F08093130240E060E080E00E947309AB
:102700002DE2271560F0E72DF0E0ED59FC4C0C941C
:10271000913081E0E5CF80911402811126C0C0E0A4
:10272000809112028F5F80931202C1110CC082E06F
:1027300080930F0280911402811105C0711003C0B3
:1027400083E080930F02DF91CF911F910F91FF9053
:10275000EF90DF90CF90BF90AF909F908F907F9041
:102760006F905F904F903F90089540E060E080E070
:102770000E947309D4CFC091120281E1C89FC02D7D
:10278000112411E11C0F012F143508F003E56091AD
:10279000050870910608809107080E94EB09F62E43
:1027A000E72ED82ED0E0C01728F0C1E0133508F48A
:1027B000B7CFB5CFFE01ED52FC4F8081909113024F
:1027C000892331F02D2D4F2D6E2DCE010E947509DC
:1027D0002196E9CFC091120281E1C89FC02D11243A
:1027E00011E11C0F012F143508F003E5E0900608F5
:1027F000F0900708D09105086D2F7E2D8F2D0E9437
:10280000EB09D62EC72EB82E609108086D0F7E2DCD
:102810008F2D0E94EB09F62EE72EA82ED0E0C017D0
:1028200020F6FE01ED52FC4F908180911302892326
:1028300059F02A2D4F2D6E2D90FD03C02B2D4D2DBF
:102840006C2DCE010E9475092196E9CFC09112022C
:1028500081E1C89FC02D112411E11C0FF12E143508
:1028600010F073E5F72EE0900608D090070820914D
:10287000080800E4029F012D1124D0E0CF1508F0D4
:1028800094CFFE01ED52FC4F808190911302892379
:10289000B9F0FE01EE0FFF1FE25DFC4F80818295D3
:1028A0008F7060910508809F600D11247E2D8D2D05
:1028B0000E94EB09462F282F672FCE010E94750931
:1028C0002196DCCFC091120281E1C89FC02D112456
:1028D00011E11C0FF12E143510F053E5F52EE090A8
:1028E0000608D09007082091080800E4029F012DF7
:1028F0001124D0E0CF1508F058CFFE01ED52FC4F67
:102900008081909113028923D9F0FE01EE0FFF1F01
:10291000E35DFC4F6081069FB001112445E0759591
:1029200067954A95E1F780910508680F7E2D8D2DFA
:102930000E94EB09462F282F672FCE010E947509B0
:102940002196D8CFC091120281E1C89FC02D1124D9
:1029500011E11C0F012F143508F003E5F090050874
:10296000D0910608E0900708609108086695669582
:10297000669580910008909101080E94CE090E94FE
:102980007709805887FD8195880F282F3E2D239F3A
:10299000212D1124822F6F2D7D2F0E94EB09F62E01
:1029A000E72ED82ED0E0C01708F0FFCEFE01ED5282
:1029B000FC4F808190911302892331F02D2D4F2DF2
:1029C0006E2DCE010E9475092196EDCF8AE499E023
:1029D0000E94C20BC82FA4CE80E299E0F9CF82E01A
:1029E00099E00E94EF0CF6CF83EE98E0FACF88ECE6
:1029F00098E00E94720CEECF8CEA98E0FACF8AEA57
:102A000098E0E6CF81EA98E0E3CF88E998E0E0CF6C
:102A10008FE798E0DDCF81E798E0EBCF89E498E09D
:102A2000E0CF88E398E0DDCF84E298E0E2CF87EF63
:102A300097E00E94100CCECF89EC97E0FACF82E9A4
:102A400097E0F7CFC0911402C1111EC06091080831
:102A500020E1620F08F46FEF809100089091010867
:102A60000E94CE096AE070E00E946930892B09F06B
:102A700056CE0E94EA3063E570E00E947D3060919E
:102A800013020E9408134CCEC091120281E1C89F2C
:102A9000C02D112421E1F22EFC0E0F2D83E58F15A0
:102AA00008F403E5D0E010E0C017D10734F0C1E02E
:102AB00092E59F1508F034CE32CE60911302CE011C
:102AC0000E9408132196F0CFC0911402C1111EC0BC
:102AD0006091080820E1620F08F46FEF8091000810
:102AE000909101080E94CE0965E070E00E94693073
:102AF000892B09F014CE0E94EA3063E570E00E9451
:102B00007D30609113020E94E1120ACEC091120240
:102B100081E1C89FC02D112491E1F92EFC0E0F2DEB
:102B2000A3E5AF1508F403E5D0E010E0C017D10726
:102B300034F0C1E0B2E5BF1508F0F2CDF0CD609100
:102B40001302CE010E94E1122196F0CFC091120231
:102B500081E1C89FC02D112411E11C0F012F1435F4
:102B600008F003E5E0900608F0900708D09105080A
:102B70006091080866956695669580910008909129
:102B800001080E94CE090E947709805887FD81952F
:102B9000880F682F2CE0629F612D11246D0F7E2D10
:102BA0008F2D0E94EB09F62EE72ED82ED0E0C0170D
:102BB00008F0FBCDFE01ED52FC4F80819091130295
:102BC000892331F02D2D4F2D6E2DCE010E947509D8
:102BD0002196EDCF86E999E0FBCE81E897E0F8CE2B
:102BE0004091EE045091EF046091F0047091F10473
:102BF0008091000890910108A0910208B09103080B
:102C000084179507A607B70708F489CD0E94B9096C
:102C1000182F0E94B90993E5891BF0F7890FC82F77
:102C2000D0E0FE01ED52FC4F809113029081892388
:102C300009F478C020E040E060E011FD13C00E947C
:102C4000B909182F0E94B909782F76952FE7720FCE
:102C500008F47FEF612F809107080E94EB09462F4F
:102C6000282F672FCE010E9475092091080830E1B6
:102C7000230F08F42FEF60E1822F90E00E94CE092D
:102C8000BC0184EF91E00E9469308091000890912E
:102C90000108A0910208B0910308860F971FA11D9B
:102CA000B11D8093EE049093EF04A093F004B093D1
:102CB000F10435CD4091EB055091EC056091ED05A7
:102CC0007091EE058091000890910108A091020892
:102CD000B091030884179507A607B70708F41FCD1E
:102CE00080911402811120C0C091120281E1C89F1D
:102CF000C02D112411E11C0F012F143508F003E53C
:102D0000EC2EF12CF3E0CF9FE0011124CE50DB4FED
:102D1000E01608F444C0E2EFF4E088EE95E01335E5
:102D200008F056C0C1E0FCCC40E060E080E00E94CA
:102D3000730902EF14E0D0E0C0E08FE7D82E0E94C4
:102D4000B90981FF0EC0D8011C9211961C921197EF
:102D500012961C9221960D5F1F4FC335D10579F74E
:102D6000C3CF0E94B909C82E0E94B9098695782F51
:102D70002D2D720F08F47FEFCE01880F991F8C0F55
:102D80009D1FDC01AE50BB4F7D016C2D809107086B
:102D90000E94EB09F701608371838283DBCFF70127
:102DA000ED52FC4F808190911302892331F02A81EA
:102DB00048816981C7010E9475092396FFEFEF1AC8
:102DC000FF0AA6CF2381348145812193319341931A
:102DD0008E179F07B9F70E94B90981FF1FC0109293
:102DE000E8051092E9051092EA050E94D8090091C1
:102DF0000008109101082091020830910308DC01BD
:102E0000CB01800F911FA21FB31F8093EB059093FE
:102E1000EC05A093ED05B093EE0581CC0E94B909B5
:102E2000C82F0E94B9098695782F2FE7720F08F4F2
:102E30007FEF6C2F809107080E94EB096093E805F3
:102E40007093E9058093EA05D0CF40913A065091FE
:102E50003B0660913C0670913D0680910008909180
:102E60000108A0910208B091030884179507A607EE
:102E7000B70708F454CC80911402882329F040E06D
:102E800060E080E00E947309609105087091060877
:102E9000809107080E94EB09962E872E682ECFEEB0
:102EA000D5E0A2EECA2EA2E0DA2E0EE010E0780104
:102EB0002EE0E21AF108512C970121513A4F5901A5
:102EC000F701EE51FD4F808190E0D9012C91222332
:102ED00009F474C0262D492D682D0E947509F5014D
:102EE000818180835394FFEFEF1AFF0A26E052128C
:102EF000E3CF7801FEE05F2EC70181519A4F5C015C
:102F0000F701EE51FD4F808190E0D5012C912223F5
:102F100009F458C0262D492D682D0E947509F50128
:102F200031978081F50180835A94F1E0EF1AF1081E
:102F300027E05212E1CFD60117968C9190E02F81B5
:102F4000222309F443C0262D492D682D0E947509BE
:102F5000F601868190E02E812223E1F1262D492D74
:102F6000682D0E9475090E94B909837091E009F0EB
:102F700090E09E839F832F96FFE0CF0ED11C015FD0
:102F80001F4F0935110509F092CF0E94D809009111
:102F90000008109101082091020830910308DC011B
:102FA000CB01800F911FA21FB31F80933A0690930D
:102FB0003B06A0933C06B0933D06B1CB20E040E039
:102FC00060E08BCF20E040E060E0A7CF20E040E071
:102FD00060E0BCCF20E040E060E0C3CFC0911202CF
:102FE00081E1C89FC02D1124E1E15E2E5C0E152DFC
:102FF0003BE4351508F41BE480911402882361F04A
:1030000040E060E080E00E947309E2E4F6E08BE4D7
:10301000DF011D928A95E9F780911202811115C096
:1030200080913F06909140060E941F0521E0823367
:10303000910508F420E020933E06C29730F00E94EC
:103040002E059093400680933F06D0E0E12EF12CB0
:1030500055E0852E912C6FE0462E7AEA372ECE155C
:10306000DF0534F0C1E0BAE4B51508F059CB57CB11
:10307000CE01B4010E947D306B015C014A9CC0010D
:103080004B9C900D1124FC01EE5BF94FE60FF71FEE
:1030900060808E519D4FFC01E60FF71F00810F3FAE
:1030A00051F110E0F801ED52FC4F80819091130234
:1030B000892309F1362D25E5321B08F430E07091A3
:1030C0000608232D462D240F08F42FEF4091070802
:1030D000822F880F820F8E5F282F249F212D11248D
:1030E000822F632D631B0E94EB09462F282F672F29
:1030F000C8010E94750980913E06882381F0362D13
:1031000041E0341B08F430E04A9CC0014B9C900D18
:1031100011248E5B994FC80ED91ED6013C9321967F
:103120009ECF80911402882371F040E060E080E03F
:103130000E947309E2E4F6E08BE4DF011D928A95B8
:10314000E9F71092410610E000E055245A9420ED72
:10315000C22ED12C30EC432E4FE2A42EB12CE8012C
:10316000CE5BD94F7801612C4E01809141068629B2
:10317000A9F50E94EA308535954084F5F401508226
:10318000F701EE51FD4FE081EF3F99F02881F0E02B
:10319000213D50F1205D330B429EC001439E900DB6
:1031A0001124B5010E946930262F4FEFCF010E94F4
:1031B000750963942F96FFE0EF0EF11C25E0621273
:1031C000D4CF0F5F1F4F0F30110549F68091410694
:1031D0008F5F8D3198F480934106A1CA8881815018
:1031E0008E3F70F68883CCCF259DC0011124B60197
:1031F0000E946930462F20E060E0D8CF109241064F
:103200002FE636E084E061E576E09EEFD901E2E466
:10321000F6E0843021F444AD4F3F09F494AF4D9172
:103220004F3F31F4ED01219798831E964C931E97E2
:1032300031966E177F0769F781502F503109811140
:10324000E5CF6DCA8AE797E00E94490BC3CB84E7BC
:1032500097E0FACF80910A0821E0382F321B08F45A
:1032600030E0832F6BE577E00E947F0AB3CB6BE5FC
:1032700077E080E0F9CF80910A0821E0482F421BD7
:1032800008F440E0842F60E277E0EECF60E277E080
:10329000F0CF80910A0821E0382F321B08F430E08B
:1032A000832F6EEE76E0E0CF6EEE76E0E2CF809197
:1032B0000A0821E0482F421B08F440E0842F66ED05
:1032C00076E0D2CF66ED76E0D4CF80910A0821E097
:1032D000382F321B08F430E0832F60EC76E0C4CF47
:1032E00060EC76E0C6CFC091120281E1C89FC02D8C
:1032F000112491E1F92EFC0EEF2C43E54F1510F44B
:1033000083E5E82E0C2F10E083E0C89FE001112434
:10331000CE5EDE4F0E1508F0CACB6091070870E054
:1033200090E080E00E94663220E030E04FE753E416
:103330000E94C5314B015C016A8170E090E080E041
:103340000E946832A50194010E94F4320E94373233
:10335000D62E688170E090E080E00E946832A5017E
:1033600094010E94F4320E943732C62E698170E0C7
:1033700090E080E00E946832A50194010E94F4323E
:103380000E9437322D2D4C2DC8010E9475092396BD
:103390000F5F1F4FBFCF8F929F92AF92BF92CF927E
:1033A000DF92EF92FF920F931F93CF93DF93809161
:1033B000B6069091B706A091B806B091B9062FB79E
:1033C000F8948090C4079090C507A090C607B0906D
:1033D000C7072FBF75016401C81AD90AEA0AFB0A98
:1033E0002FB7F8944091C4075091C5076091C60764
:1033F0007091C7072FBF4093B6065093B7066093EE
:10340000B8067093B90610918D06EDE8F6E0C12F6D
:10341000D0E00197AF4FBF4F88199909AA09BB099E
:103420001D1329C0C0938D068091BD06C0E0811197
:1034300008C080910408C82FC17080FF02C0C82F47
:10344000C69580910F02813009F43FC0882331F185
:10345000823009F4D2C1833009F4DEC1DF91CF910B
:103460001F910F91FF90EF90DF90CF90BF90AF90A2
:103470009F908F900895218D328D4901B12CA12C00
:1034800088159905AA05BB0520F4C150DF5F329667
:10349000C7CF2C0D3D1D328F218FF8CF1092120215
:1034A000409300085093010860930208709303084A
:1034B00089E2EDE8F6E0AAE0B8E001900D928A9585
:1034C000E1F781E080930F02C9CF8C2F0E944E1349
:1034D000CC2321F20E94660581FF07C020E040E076
:1034E00068EC8EE190E00E947509E091B807F0E089
:1034F000E754FD4FE081E250EB3008F041C0F0E0CE
:10350000EF56FC4CA091BC072091000830910108B7
:1035100040910208509103080C949130D091B90762
:10352000C091BA071091BB07A695A695A695B0E0E5
:103530000E948131872F0E94A505805887FD8195C3
:10354000880F282F219F212D1124822F6D2F7C2F52
:103550000E94EB09F62EE72ED82E03ED13E0D0E003
:10356000C0E0F80181918F018A7031F02D2D4F2D2F
:103570006E2DCE010E9475092196C335D10589F7BC
:1035800003ED13E0D0E0C0E0F80191918F0180914C
:10359000100291FF25C181FF27C120E040E060E0DB
:1035A000CE010E94750920C1A695A695A695B0E00A
:1035B0000E948131872FC091BA071091BB070E94EA
:1035C000A505805887FD8195880F282F219F212DE3
:1035D0001124822F90910E02992371F02093BC0642
:1035E0002091BB062093BA06285F2093BB0621E0FA
:1035F000922790930E020DC090910D022091BC066F
:10360000821718F1992309F434C121E0922790938D
:103610000D026091BA067C2F0E94EB09F62EE72E70
:10362000D82E03ED13E0D0E0C0E0F80181918F01C6
:103630008A7031F02D2D4F2D6E2DCE010E9475090F
:103640002196C335D10589F79BCF982B11F791E0CF
:1036500090930D02CECFA695A6956A2F71E0670FC5
:1036600008F46FEFA62FB0E00E948131872F60E051
:103670000E94DB0D85CFA695B0E00E948131872F97
:1036800063E00E944B0D7CCFA695A6956A2F71E052
:10369000670F08F46FEFA62FB0E00E948131872FEB
:1036A00061E0E6CFA695A6956A2F71E0670F08F452
:1036B0006FEFA62FB0E00E948131872F62E0D8CF54
:1036C000A695A6956A2F71E0670F08F46FEFA62FF5
:1036D000B0E00E948131872F63E0CACFA695B0E0A9
:1036E0000E948131872F60E0CCCFA695B0E00E9488
:1036F0008131872F61E0C5CFA695A695B0E00E94E5
:103700008131C72ED82EE92EFF2480E48C0D0E9433
:10371000A505F0E89F2E980E8C2D0E94A5058058D7
:10372000A3EDAA2EA3E0BA2E0DE213E0D0E0C0E094
:10373000E92C990CFF08B8E38B2E912CC82E880F2A
:10374000DD08F50181915F018A7009F43AC040916A
:10375000BA078091BB07F8019081905797FD91952A
:1037600021812052330B2E9DB0012F9D700D3E9D67
:10377000700D1124F401E91BF10997FDF395EC9DFF
:103780009001ED9D300DFC9D300D1124260F371F4B
:10379000B901660F771F620F731F77FF02C0615870
:1037A0007F4F660F672F661F770B9091B907690FE0
:1037B000742F0E94EB09462F282F672FCE010E94FD
:1037C000750921960E5F1F4FC335D10509F0B9CF9A
:1037D000D7CEA695B0E00E948131872F62E051CF0D
:1037E00093FF08C082FDD9CE2196C335D10509F0DB
:1037F000CBCE34CE80FFF8CFD0CE8C2FDF91CF91BF
:103800001F910F91FF90EF90DF90CF90BF90AF90FE
:103810009F908F900C94B3068091BE06882351F040
:1038200046E050E06CE170E084E098E00E942E31C8
:103830001092BE0640910008509101086091020864
:10384000709103082FB7F8948091C4079091C50731
:10385000A091C607B091C7072FBF841B950BA60B7D
:10386000B70B4097A105B10508F4F8CD10920F02EF
:10387000F5CD882309F4EBCECCCE4F925F926F92B8
:103880007F928F929F92AF92BF92CF92DF92EF92F0
:10389000FF920F931F93CF93DF93CDB7DEB72A9795
:1038A0000FB6F894DEBF0FBECDBF8E010F5F1F4F66
:1038B0008AE0F80111928A95E9F790E7E92E92E003
:1038C000F92E680125E7422E22E0522E66246394E9
:1038D000712C44E8842E42E0942EF70181917F01FF
:1038E0008F3F09F445C0F894E82FE295EF70F0E0BF
:1038F00021A18F70A30102C0440F551F8A95E2F7E2
:10390000CA01922F982B91A392A18095892382A31B
:10391000789400C0E5E7F2E021E030E0B12CA12C82
:1039200041914F3F09F47EC0A42FA295AF70B0E043
:1039300090968C9190E04F7002C0959587954A952E
:10394000E2F780FD6FC0C901A82AB92A220F331FF0
:103950008E169F0629F7F701319780818F3F11F06E
:103960000E94500E50EA5A95F1F7F601B182A082FA
:10397000F2E0CF0ED11C4E145F0409F0AECF4AE046
:1039800050E0B8018DE894E00E94FA30FF24F394EF
:10399000009709F4F12C892B09F447C08AE0F8015B
:1039A000ADE8B4E001900D928A95E1F781E0809353
:1039B0008C040E942E0590938B0480938A0480913E
:1039C0008A0490918B040E941F05059790F18091C5
:1039D0008D0490918E049093A4048093A30480910D
:1039E0008F04909190049093A6048093A5048091F5
:1039F0009104909192049093A8048093A7048091DD
:103A00009304909194049093AA048093A9048091C4
:103A10009504909196049093AC048093AB0410921B
:103A20008C0407C090E080E08FCF80918C048111DE
:103A3000C6CF8F2D2A960FB6F894DEBF0FBECDBF2E
:103A4000DF91CF911F910F91FF90EF90DF90CF907A
:103A5000BF90AF909F908F907F906F905F904F90AE
:103A60000895CF93C091880480918704C82BC09398
:103A7000280440E250E067E674E088E294E00E94A7
:103A8000FA30892B19F180E2E8E2F4E0A7E6B4E02D
:103A900001900D928A95E1F7E091BF07F091C00780
:103AA0003097A1F080911102882349F08091C807D6
:103AB00087FF05C0C093290486E080932804028014
:103AC000F381E02D88E294E0CF910994CF9108959D
:103AD00090E080E00E94500590E080E00E943A056E
:103AE000109287040C94311D8093FF070C94681D7D
:103AF0008091FF07982F9670963019F488600C9487
:103B0000741D877FFCCF809389040C94681D1092EC
:103B1000880480911102EAE2F4E0882359F0809150
:103B2000C80787FF07C08EE1DF011D928A95E9F77C
:103B30000C94681D86E0F8CF1F93CF93DF93CDB729
:103B4000DEB7AA970FB6F894DEBF0FBECDBF84EFE5
:103B500097E02091F100DC012D93CD01B7E08C3F7F
:103B60009B07B9F78091F507833009F472C0B8F468
:103B7000813009F449C0823009F4B3C08091E80073
:103B800083FF96C28091F4079091F5079A3008F070
:103B90008FC2E92FF0E0E456FC4C0C9491308A304F
:103BA00009F48EC08B3009F471C0893039F78091E7
:103BB000F407813219F78091F8079091F90700977F
:103BC00011F00397D9F68091E800877F8093E80091
:103BD0008091E80082FF38C09091F3008091F2005C
:103BE000029731F48091F100813011F0863021F498
:103BF0008091F1008093CF078091E8008B778093CC
:103C0000E8000E940A04BACF8091F407813A09F0D3
:103C1000B5CF8091E800877F8093E8008091F80716
:103C20009091F907892B61F460E280ED97E070E0F4
:103C30000E94BC048091E8008B778093E8009ECFBF
:103C400060E090E080E0F3CF8091F2078111C0CF77
:103C500095CF8091F407813A09F090CF8091F807D1
:103C60009091F907892B09F089CF8091E800877F2F
:103C70008093E8008091E80080FFFCCF80911102E2
:103C80008093F1008091E8008E77B9CF8091F4079E
:103C9000813209F073CF8091F8079091F907892B51
:103CA00009F06CCF8091E800877F8093E8000E9444
:103CB0000A048091F607809311020E94871D5ECF4F
:103CC0008091F407813209F059CF8091E800877F15
:103CD0008093E8000E940A048091F7078093CE0742
:103CE0004DCF8091F407813A09F048CF8091E800E8
:103CF000877F8093E8008091E80080FFFCCF80916F
:103D0000CE07BECF803899F0823809F0D1C18091BA
:103D1000F8078F70873008F0CBC18093E90080915D
:103D2000EB0085FB882780F91092E90006C080919E
:103D3000F0079091F107911182609091E800977FD0
:103D40009093E8008093F1001092F1008091E800D8
:103D50008E77AAC1882309F498C1823009F0A8C1DE
:103D60008091F60781119BC18091F8078F702FEF2A
:103D7000280F263008F09CC18093E9002091EB00C9
:103D800020FF8DC1933031F48091EB0080628093ED
:103D9000EB0085C19091EB0090619093EB0021E0E6
:103DA00030E001C0220F8A95EAF72093EA001092D2
:103DB000EA008091EB008860EACF811179C110910F
:103DC000F6071F778091E3008078812B8093E300D2
:103DD0008091E800877F8093E8000E940A04809128
:103DE000E80080FFFCCF8091E30080688093E300CF
:103DF00082E0111183E08093F2075AC1805882302B
:103E000008F056C12091F6073091F7072C3DE3E00A
:103E10003E07A1F583E08A838AE289834FB7F8944D
:103E2000DE01139620E03EE051E2E32FF0E05093F4
:103E30005700E49120FF03C0E295EF703F5FEF7001
:103E40008E2F90E0EA30C0F0C7968D939D932F5F40
:103E5000243159F74FBF8091E800877F8093E800B5
:103E60006AE270E0CE0101960E94BC048091E800F5
:103E70008B778093E8001CC1C096E7CF8091F8074C
:103E80009091F907432F55274330510509F44AC053
:103E900078F54130510509F47AC08BE790E0E5EA06
:103EA000F5E04230510509F003C12091E800277F79
:103EB0002093E8002091FA073091FB0782179307BF
:103EC00008F49C0140E02115310509F065C041115D
:103ED00063C08091E80082FDC9CF8091F2078823FA
:103EE00029F2853019F28091E80083FFF2CFBECF2E
:103EF0004132510509F43CC04232510509F0D8C0A5
:103F00008430910508F0D4C0FC01EE0FFF1FEE5283
:103F1000FD4F0190F081E02D82539D4FDC018C918B
:103F200090E01AC0332721303105D1F02115310539
:103F300061F02230310509F0BBC0E2E3F6E0E49124
:103F40008E2F90E0E2E3F6E007C0E4E5F6E0E491CE
:103F50008E2F90E0E4E5F6E0009709F4A9C0A5CF24
:103F6000E2E4F6E0E4918E2F90E0E2E4F6E0F4CFB4
:103F70008430910508F09CC0880F991FFC01E6521F
:103F8000FD4F0190F081E02D89E090E08ECF82E13D
:103F900090E0E0E2F6E089CF8091F207882309F40F
:103FA00065CF853009F462CF8091E80083FD5ECF54
:103FB0008091E80082FD8DCF8091E80080FF83CF63
:103FC0009091F3008091F2002115310519F08830AD
:103FD000910550F041E0089709F040E08091E80039
:103FE0008E778093E8006FCF44914093F100319633
:103FF000215031090196E8CF803809F059C08091ED
:10400000E800877F8093E8008091F3078093F100B8
:104010009DCE81114DC01091F607123008F048C0B6
:104020008091E800877F8093E8001093F3070E9457
:104030000A04112311F084E005C08091E30087FD9C
:10404000FACF81E08093F20742E061EC81E00E94C8
:10405000290442E261EC86E00E94290442E261EC1C
:1040600082E00E94290442E260EC83E00E9429047D
:1040700042E361EC84E00E94290442E360EC85E0C5
:104080000E9429048091F20713C08091F6078130C5
:1040900079F481E0933009F080E08093F107109289
:1040A000E9008091E800877F8093E8000E940A047D
:1040B0008091E80083FF0AC08091E800877F8093A9
:1040C000E8008091EB0080628093EB00AA960FB627
:1040D000F894DEBF0FBECDBFDF91CF911F91089541
:1040E000882341F0809590918804892380938804E7
:1040F0000C94311D0895882339F090918804982BF1
:10410000909388040C94311D0895882309F452C0BB
:10411000823871F40E94660581FF4CC089E30E94D9
:1041200007100E94311D89E30E94DC0F0C94311DA1
:10413000833859F40E94660580FF3CC083E50E94E5
:1041400007100E94311D83E5EFCF843859F40E9497
:10415000660582FF2FC087E40E9407100E94311D70
:1041600087E4E2CF9CEF980F913AF0F290E2980F3B
:10417000983088F4877021E030E0A90102C0440F34
:10418000551F8A95E2F7CA0180959091880489238A
:1041900080938804CBCF9BE5980F933020F490E078
:1041A00080E00C945005885A873120F490E080E03C
:1041B0000C943A050895CF93C82F882309F4A6C01C
:1041C0008238C1F40E94660581FDA0C089E30E9487
:1041D00007100E94311D2FEF81EE94E021508040A6
:1041E0009040E1F700C0000089E30E94DC0FCF910E
:1041F0000C94311D8338A1F40E94660580FD86C0B1
:1042000083E50E9407100E94311D2FEF81EE94E09C
:10421000215080409040E1F700C0000083E5E5CFE9
:104220008438A1F40E94660582FD70C087E40E9474
:1042300007100E94311D2FEF81EE94E02150804045
:104240009040E1F700C0000087E4CFCF8CEF8C0FE7
:10425000813A88F580911102882301F18091C80785
:1042600087FF1CC0EC2FE695E695E695F0E0E85D4B
:10427000FB4F828190E04C2F477021E030E002C07C
:10428000220F331F4A95E2F782239323892B79F07B
:104290008C2F0E94DC0F0E94311D09C0EAE2F4E07D
:1042A0008191C817A9F324E0E033F207C9F78C2FF6
:1042B0000E9407109CCF80E28C0F883068F4C77092
:1042C00021E030E001C0220FCA95EAF7809188040E
:1042D000822B809388048BCFEBE5EC0FE33040F426
:1042E000F0E0E15CFD4F808190E0CF910C945005AF
:1042F000C85AC73158F4EC2FF0E0EE0FFF1FEE5B09
:10430000FD4F80819181CF910C943A05CF91089512
:104310001F93CF93DF93182FD0E0C0E0893311F4BF
:10432000C0E5D0E0812F0E94DB20209731F4812F5F
:10433000DF91CF911F910C9485208FE99FE0019729
:10434000F1F700C000002197F0CF0F931F93CF9398
:10435000DF93C62FD42F022FFC0182818823A1F086
:104360006093FE070E942E059093FD078093FC0743
:10437000C77081E001C0880FCA95EAF7DF91CF913D
:104380001F910F910C947B208091FE07681335C01C
:104390008091FC079091FD070E941F05883C9105C4
:1043A00060F510E21D0FCD17B9F080E28C0F883058
:1043B00040F4C77081E001C0880FCA95EAF70E94F7
:1043C0007020183048F481E09D2F977001C0880F4D
:1043D0009A95EAF70E947B20802F0E94882118304E
:1043E00098F4D77081E001C0880FDA95EAF7DF9181
:1043F000CF911F910F910C947020C77081E001C084
:10440000880FCA95EAF7F3CFDF91CF911F910F91F3
:10441000089590E080E00E942831893E9E4F11F47B
:104420000C945F1280E0089569EE7EEF90E080E0EA
:104430000E945C3160E082E090E00E943E3160E0EA
:1044400083E090E00E943E311092890460E084E0B5
:1044500090E00E943E3160E082E290E00E943E31B6
:1044600060E085E090E00E943E3160E086E090E010
:104470000E943E316FEF87E090E00E943E3140E0C5
:1044800050E0BA0188E090E00E94503160E08DE099
:1044900090E00E943E3140E050E0BA0188E190E0B7
:1044A0000E94503160E087E190E00E943E3140E0A0
:1044B00050E0BA018CE190E00E94503170E060E081
:1044C00080E290E00E945C3140E050E0BA0188E177
:1044D00090E00E94503180E00E94D6110E94EE11BF
:1044E00040E050E0BA018FE090E00E94503140E09F
:1044F00050E0BA0183E190E00C9450315F926F92EA
:104500007F928F929F92AF92BF92CF92DF92EF9263
:10451000FF920F931F93CF93DF93CDB7DEB72F9703
:104520000FB6F894DEBF0FBECDBF4B875C876D879B
:104530007E878F8761111092870485E0FE013B968C
:10454000DE01169601900D928A95E1F789859A858C
:10455000892B31F08E819F8189238F3F09F0CAC456
:104560002F960FB6F894DEBF0FBECDBFDF91CF916F
:104570001F910F91FF90EF90DF90CF90BF90AF9081
:104580009F908F907F906F905F9008950E9430125F
:10459000182F682F89819A810E94631069817A811E
:1045A000812F0E9423128C019885992309F492C4CB
:1045B000980122513F452031310508F064C48FEF46
:1045C00093E00E94203102513FE7C32E32E0D32E08
:1045D0008111C6CF011134C01C821B8266246394F2
:1045E0002AE0522E86010F5F1F4FC6010E94203124
:1045F00089831A82882309F4B3CF9FEF980F9330F1
:1046000070F58A83698282E0C80ED11CC8010E94BD
:1046100020318B83882309F4A3CF8E010F5F1F4FB6
:10462000F80120812223F1F2213009F052C091815A
:1046300082819130B1F40E5F1F4F0E94882117C014
:10464000C11424E0D20609F48BCFC6010E942031A8
:10465000811101C001503FEFC31AD30ABBCF6801DB
:10466000DCCF923039F40E5F1F4F0E94DB200F5FCA
:104670001F4FD6CF933029F40E5F1F4F0E94852025
:10468000F6CF943019F00F5F1F4FF1CF0E5F1F4F21
:1046900030E020E0B8016F5F7F4FF8014181805327
:1046A000990B8A30910550F02150310900F38FE9C0
:1046B0009FE00197F1F700C00000F6CF529EF00195
:1046C000539EF00D11249C012E0F3F1F842F8B0150
:1046D000E1CFE22FF0E0E353FE4F7490822F8695F6
:1046E0008695869590E0FC01E354FE4FE490277098
:1046F000F12C022E02C0F594E7940A94E2F7E1E06F
:10470000EE22FF24FC01E355FE4FA490B12C022EB3
:1047100002C0B594A7940A94E2F7F1E0AF22BB245B
:10472000FC01E356FE4F8490912C02C0959487942F
:104730002A95E2F721E082229924E114F10419F08C
:1047400081EE0E94DB20A114B10419F086EE0E94D4
:10475000DB20872D0E948821AB2819F086EE0E946D
:104760008520EF2819F081EE0E948520892809F420
:104770007ECF8CE262CF8091FF0782600E94741D21
:104780000E94781DEDCE8091FF078D7FF7CF8B7F44
:10479000F5CF053F3CE5130709F464C008F45EC09B
:1047A00027E245EE66EE063FECE51E0709F48DC3F1
:1047B000992309F4BFC31092FE070330FDE51F07DC
:1047C00008F057C00A3F2CE5120738F49801225030
:1047D0003C452431310508F056C00E947812909370
:1047E000C9078093C80701319CE5190709F41BC16B
:1047F00008F099C00930FCE51F0709F4FEC008F075
:1048000066C005303CE5130709F4EFC008F04CC062
:1048100003309CE5190709F4DEC008F0E2C080917E
:10482000C807816002301C4509F4D8C06091C807F0
:104830001091C90784E090E00E943E31612F82E22E
:1048400090E00E943E310E94871D8ACE27E245EE0D
:1048500065EE3BC326E241EE60EE37C327E245EE4C
:1048600064EE33C326E241EE62EE2FC328E241E05C
:10487000EFCF01363DE5130709F4AFCF053A8DE5DB
:10488000180709F4AACF06312CE5120709F043C333
:10489000809188048A7A91E009F490E0909348042A
:1048A0008111EBC089E2EAC08091C80780620730BD
:1048B0002CE5120709F492C08091C8078061083086
:1048C0001C4508F48BC08091C807806487C00D30F8
:1048D0008CE5180709F49BC098F48091C8078E7F77
:1048E0000B30ECE51E0709F479C08091C8078C6095
:1048F0000C301C4508F472C08091C8078D7F6EC0D3
:104900008091C8078F7E0F302CE5120709F466C02E
:104910008091C807877F00311C4508F45FC08091F3
:10492000C8078F7D5BC00D3F8CE5180709F477C081
:1049300050F50531ECE51E0709F47FC098F480912D
:10494000C807837F03312CE5120709F447C008F438
:104950006EC00E94871D9091C807892F97FB87F929
:1049600080583CC00B3F8CE5180709F442C008F0A2
:1049700052C08091C90781600A3F1C4509F056CF9B
:104980008093C90753CF0130FDE51F0709F461C0CB
:1049900090F48091C9078C7F0F3F3CE5130781F3AA
:1049A00090F18091C907982F909591708E7F892BF7
:1049B00090FB81F9E5CF01369DE5190709F44FC059
:1049C000053AEDE51E0709F451C002301D4509F016
:1049D0002DCF60E03FC08091C80782608093C807F8
:1049E00025CF8091C8078460F9CF8091C80788607F
:1049F000F5CF8091C9078260C3CF0E94871D809147
:104A0000C8078068EBCF8091C9078360B9CF8091D8
:104A1000C8078B7FE3CF8091C9078E7FB1CF80918C
:104A2000C9078D7FADCF8091C8078F7BD7CF0E94FC
:104A3000871D8091C8078F77D1CF8091C80782FBEF
:104A4000992790F921E0922790FB82F990FB83F956
:104A5000C5CF61E08EE090E00E943E31E7CE9091BC
:104A6000C807892F8F7E94FF8061B8CF9091C807C7
:104A7000892F8E7F90FF8160B1CF85E30E94071060
:104A80000E94311D6DCD85E30E94DC0FF9CF073CFC
:104A90002CE5120709F462C008F45BC0083CECE5A1
:104AA0001E0709F460C04EE356E06BE476E0093C73
:104AB000FCE51F0709F060C20E94F40551CD0F3CD0
:104AC0002CE5120709F466C0B0F40C3CECE51E07B7
:104AD00009F458C008F451C00D3C2CE5120709F444
:104AE00056C061E085E00E3C3CE5130709F044C286
:104AF0000E94860635CD063D8CE5180730F461E04E
:104B000082E1013D1C45A0F32BCD0D35100709F4C2
:104B100027CD32C290910408892F8E7F90FF81604B
:104B20008093040810920F028091BE0681608093EA
:104B3000BE0616CD40EA56E069EA76E0BDCF49EA06
:104B400056E060EA76E0B8CF42E756E06CE776E000
:104B5000B3CF4CE756E062E776E0AECF48E556E0EB
:104B600065E676E0A9CF45E656E068E576E0A4CFB5
:104B70004BE456E06EE376E09FCF4FE056E06DE108
:104B800076E09ACF4DE156E06FE076E095CF61E0B8
:104B900081E0AECF61E08DE0ABCF992309F4E0CCAA
:104BA0000E94C711DDCC992309F4DACC8091040866
:104BB00080FFD6CC90911002892F8B7F92FF84606A
:104BC000809310020E94B211CBCC992309F4C8CC77
:104BD0000E949C12C5CC02382FE5120709F4EAC1E5
:104BE000E8F500388FE5180709F447C00138EFE50C
:104BF0001E0799F2992349F001153CE5130709F4C2
:104C000042C00E3D1C4509F44BC00E811F81992303
:104C100009F449C0C8010E943012F82E682FC8015B
:104C20000E946310B8018F2D0E9423120E94670E0C
:104C3000182FE82E8885092F02950F70043009F48B
:104C40008DC0B0F5023008F44CC00850110B023092
:104C5000110508F085CC0E94660582CC0338FFE57B
:104C60001F0709F4B2CF04382FE5120719F699236C
:104C700009F476CC0E948E1273CC992309F470CC7F
:104C80000E94B8116DCC0E94871D9FEFE4E3FCE009
:104C90009150E040F040E1F700C000000E94021196
:104CA0000E9414225DCCC8010E943B10F82EBACF9E
:104CB000083009F46FC0093041F69F7021E030E000
:104CC000790101C0EE0C9A95EAF7882309F4D3C064
:104CD0008091FF078E290E94741D812F0E947B20E6
:104CE000B4CF292F2F70F22E907F19F0F29490EF0D
:104CF000F9228823C9F0FF2069F080E2810F883013
:104D000010F011110BC080918804F82AF0928804E9
:104D10000E94311D812F0E94DB2097CF8091870454
:104D2000F82AF0928704F4CF812F0E948520FF207B
:104D300009F48BCFF094105E183010F0E11008C029
:104D400080918804F822F09288040E94311D7DCF62
:104D500080918704F822F0928704F7CF292F2695B7
:104D60002695237051F0213009F06FCF882379F018
:104D7000812F93700E943A0568CF882329F0812FF4
:104D800093700E94500561CF90E080E0FACF90E0F0
:104D900080E0F0CF292F2370A1F5811156CF812F0C
:104DA000829586958770880F880F412F4F70082E47
:104DB00001C0440F0A94EAF7212F207114FF07C0A5
:104DC0002FE030E001C0220F8A95EAF720959695F2
:104DD00096959370923081F0822F842B933030F42B
:104DE00080918904913029F0242B82230E94831D15
:104DF0002CCF842B822BFACF242B809189048227FD
:104E0000F5CF2695882311F0292F2170222309F44C
:104E10001CCF812F829586958770880F880F412F30
:104E20004F70082E01C0440F0A94EAF7212F207119
:104E300014FF07C02FE030E001C0220F8A95EAF787
:104E40002095969596959370923081F0822F842BC1
:104E5000933030F48091FF07913029F0242B822386
:104E60000E94741DF2CE842B822BFACF242B8091CA
:104E7000FF078227F5CF812F0E947020E094809158
:104E8000FF078E21EDCF00313FE5130709F473CC06
:104E900001318FE5180739F1033F3CE5130709F4A9
:104EA000D9CC08F076CC083DECE51E0709F4CECC51
:104EB000093DFCE51F0709F4D9CC073D2CE5120795
:104EC00009F076CC26E241EE61EECE0106960E9414
:104ED000A52146CB0031EFE51E0709F454CC013182
:104EE000FFE51F07C9F68091FF07992309F44FCC0E
:104EF000846044CC85E0FE013696DE011196019077
:104F00000D928A95E1F789819A8161113FCB0E94C8
:104F10003B10182F43CB093A2DE5120709F43DCE7B
:104F20000A3A3DE5130709F43ECE083A8DE5180725
:104F300091F5A6CE0631ECE51E0709F441C080913B
:104F4000880482720A3C3CE5130709F411CE08F08C
:104F5000B6CD053CFCE51F0709F4F6CD08F097CD6A
:104F6000033C3CE5130709F4E5CD08F0E8CD023C2D
:104F7000FCE51F0709F4CECD093AFDE51F0709F44A
:104F8000EFCA0A3A2DE5120709F4EACA083A3DE5E4
:104F9000130709F4E5CA0D3A8DE5180709F415CE93
:104FA0000E3AEDE51E0709F462CE0C3AFDE51F0747
:104FB00009F011CE992309F4D3CA0E94AB12D0CACA
:104FC0008091480481115FCD89E25ECD1F920F92DE
:104FD0000FB60F9211242F933F934F935F936F93CC
:104FE0007F938F939F93AF93BF93CF93DF93EF9371
:104FF000FF93D091E900DF708091EC00C82FC17061
:1050000080FDC0E81092E9008091F000877F8093D6
:10501000F00078940E949C1D1092E9008091F000AD
:1050200088608093F000CD2BCF70C093E900FF9192
:10503000EF91DF91CF91BF91AF919F918F917F9130
:105040006F915F914F913F912F910F900FBE0F90F5
:105050001F9018951F920F920FB60F9211242F9345
:105060003F934F935F936F937F938F939F93AF93F0
:10507000BF93EF93FF938091E10082FF09C080917D
:10508000E20082FF05C08091E1008B7F8093E10008
:105090008091DA0080FF24C08091D80080FF20C07A
:1050A0008091DA008E7F8093DA008091D90080FFB2
:1050B0009DC080E189BD82E189BD09B400FEFDCFBC
:1050C00081E08093F2078091CD07811109C00E9491
:1050D00066030E945B048091E20084608093E2009A
:1050E0008091E10080FF17C08091E20080FF13C033
:1050F0008091E2008E7F8093E2008091E2008061E7
:105100008093E2008091D80080628093D80019BC1F
:1051100085E08093F2078091E10084FF2BC08091AD
:10512000E20084FF27C080E189BD82E189BD89B5A5
:10513000982F917080FFFBCF8091D8008F7D809356
:10514000D8008091E1008F7E8093E1008091E200A1
:105150008F7E8093E2008091E20081608093E20084
:105160008091F307882309F447C084E08093F20715
:105170008091F2078091E10083FF27C08091E200D7
:1051800083FF23C08091E100877F8093E10082E06C
:105190008093F2071092F3078091E1008E7F809355
:1051A000E1008091E2008E7F8093E2008091E20036
:1051B00080618093E20042E060E080E00E94290488
:1051C0008091F00088608093F000FF91EF91BF9193
:1051D000AF919F918F917F916F915F914F913F918F
:1051E0002F910F900FBE0F901F90189519BC109221
:1051F000F2071092CD0774CF8091E30087FD93E012
:105200009093F207B5CF78941F921FB61F92112486
:105210008F939F93AF93BF938091C4079091C507DD
:10522000A091C607B091C7070196A11DB11D80933B
:10523000C4079093C507A093C607B093C707BF9153
:10524000AF919F918F911F901FBE1F9018951F9235
:105250001FB61F9211248F939F93AF93BF9380919A
:10526000C307811113C08091C4079091C507A09115
:10527000C607B091C7074196A11DB11D8093C40711
:105280009093C507A093C607B093C707BF91AF918E
:105290009F918F911F901FBE1F901895CDB7DEB7BD
:1052A000CF55D1090FB6F894DEBF0FBECDBF84B77E
:1052B000877F84BF0FB6F894A895809160008861BD
:1052C00080936000109260000FBE80E890E00FB6FF
:1052D000F89480936100909361000FBE85B7806859
:1052E00085BF85B7806885BF8EE49EE090932704D4
:1052F000809326040E9466030E945B048091E20072
:1053000084608093E20078948091F2078823A1F072
:105310001091E9001F709091EC00892F817090FD31
:1053200080E8182B1092E9008091E80083FD0E942C
:105330009C1D1F701093E90082E084BD93E095BD31
:105340009AEF97BD80936E000E945F12811102C098
:105350000E94EE1100E712E0D8018D918D018F3F80
:1053600011F00E94500EB2E005371B07A9F705E7C0
:1053700012E0F80181918F018F3F11F00E94500ED1
:10538000F2E004381F07A9F78AE0E3EAF4E0DF015E
:10539000282F1D922A95E9F7EDE8F4E0DF011D9230
:1053A0008A95E9F70E940922811102C00E94142205
:1053B00082E090E00E942031809397040E9478124E
:1053C0009093C9078093C8070E943D1CEFE3FCE956
:1053D0003197F1F700C000000E943D1C8091A304AA
:1053E00080FF08C06FEF7FEF90E080E00E945C31AB
:1053F0000E94021183E090E00E9420310E94831DF0
:1054000010920A088FEF9FEF90932408809323084F
:105410009093260880932508909328088093270866
:1054200090932A088093290890932C0880932B0846
:1054300090932E0880932D089093300880932F0826
:10544000909332088093310810928D069093A706AE
:105450008093A6069093A9068093A8069093AB0626
:105460008093AA069093AD068093AC069093AF0606
:105470008093AE069093B1068093B0069093B306E6
:105480008093B2069093B5068093B4060E940922D9
:10549000811104C00E9414220E94C61246E050E00E
:1054A0006CE170E084E098E00E9410311092BE063A
:1054B000809104088E7F11F40E94C6126091C80783
:1054C00060686093C8071091C90784E090E00E946B
:1054D0003E31612F82E290E00E943E310E9409221B
:1054E000811107C00E9414228FE0809310020E9455
:1054F000B2118FE090E00E942031809310020E9450
:105500000922811104C00E9414220E94B51245E0B4
:1055100050E060E170E088EB97E00E9410318091EC
:10552000B807811102C00E94B51284E091E0909307
:10553000C0078093BF078091F207853089F4B0E4FB
:10554000EB2E11E000E1F02E02E18091F2078530B0
:1055500009F42EC20E94871D0E9466051092BD06A6
:105560000E943D1C882359F08FB7F8944091C407DE
:105570005091C5076091C6077091C7078FBF43EA76
:1055800054E067965FAF4EAF679788E994E02D9639
:105590009FAF8EAF2D97512C412CD12CC12C2E9624
:1055A0001FAE2E976196CFAE61976A96CFAE6A977F
:1055B0006796AEADBFAD6797ED91FD916796BFAFB2
:1055C000AEAF67976396FFAFEEAF63972D96AEAD24
:1055D000BFAD2D978D919C918E179F0709F474C1D3
:1055E000E827F9276996FFAFEEAF6997BFEFBC0DCB
:1055F0006496BFAF6497EFE0BE9FC00111249C0189
:105600002E5B394F7901A2014F5A594F3A016096EA
:105610005FAE4EAE609710E022242394312C6C963E
:105620003FAF2EAF6C9796012F5F3F4FE29FC001B7
:10563000E39F900D1124DC01AE5BB94F6E96BFAFB6
:10564000AEAF6E97EC9DC001ED9D900D1124FC0155
:10565000EE5BF94FA096FFAFEEAFA09769968EADC7
:105660009FAD699782219321892B09F417C1229656
:105670001FAF22976A96FFAD6A972396FFAF2397D5
:105680006396AEACBFAC6397A220B32081E0A114B7
:10569000B10409F480E024968FAF24970E942E0570
:1056A0008160782F26969FAF8EAF269722964FADBA
:1056B000229723965FAD239724966FAD2497269665
:1056C0008FAD26970E947E222D96AEADBFAD2D9751
:1056D0008D919C911197822593258D939C93AB2856
:1056E00051F06096EEADFFAD6097EE51FD4F8081B9
:1056F0008F3F09F0B0C100E0A02EB12C80918D0643
:105700008A0D9B2D911D09976CF188E090E04C016A
:105710008A189B08B5016257794FA4018EE896E07C
:105720000E940731B5016A56794FA40186E996E0D7
:105730000E940731A401440F551FB501660F771F62
:105740006A55794F86EA96E00E940731B5016256A4
:10575000794FA4018EE996E00E94073188E0801B12
:1057600080938D0680918D0690E06596EFAD6597EC
:10577000AE2FB0E09D01220F331F235D3C4FAA0FD7
:10578000BB1FBD01625D7C4F41E0480F901708F4DC
:1057900067C180938D06809104088E7F8E3309F057
:1057A00073C08FEF810F811760F4A096EEADFFAD4F
:1057B000A097E80FF11D208130E1230F08F42FEFAF
:1057C00020836096EEADFFAD6097EE5BF94F2081D0
:1057D00030E2230F08F42FEF208391E0910F9F30E8
:1057E00009F470C4218130E1230F08F42FEF2183E5
:1057F0006196EFAD6197E43041F1811760F46E96E8
:10580000EEADFFAD6E97E80FF11D20813DE0230F57
:1058100008F42FEF2083D3012C9130E1230F08F4FB
:105820002FEFF30120839F3009F442C421813DE032
:10583000230F08F42FEF11962C936196BFAD61975B
:105840006496EFAD6497EB17F8F4811760F46C96EB
:10585000EEADFFAD6C97E80FF11D20813DE0230F09
:1058600008F42FEF2083D7012C9130E1230F08F4A7
:105870002FEFF70120839F3039F021813DE0230F86
:1058800008F42FEF11962C932E96BFAD2E97BF5F85
:105890002E96BFAF2E97BC3008F050C01F5F220C71
:1058A000331CEFEFEE1AFE0AFFEF6F1A7F0A6096C5
:1058B0002EAD3FAD60972F5F3F4F60963FAF2EAF4D
:1058C00060971F3009F0CACE3FEFC31AD30A2D9656
:1058D0004EAD5FAD2D974E5F5F4F2D965FAF4EAFD4
:1058E0002D975FE0450E511C85E0C816D10409F0E4
:1058F00059CE2E969FAD2E97911120C08FEF2796EF
:105900008FAF279728968FAF289729961FAE299794
:105910000E942E058160782F2B969FAF8EAF2B971C
:1059200027964FAD279728965FAD289729966FAD9C
:1059300029972B968FAD2B970E947E220E94CB1920
:105940000E9466059091A20489138093A20480911D
:10595000F207843009F49CC08091F207843009F08A
:10596000EACD85E08093E9008091E80082FFE3CDF5
:105970008091E80090E085FF09C050E040E060E4DD
:1059800070E0CE0101960E94E00391E08091E80072
:105990008B778093E800992309F4CDCDE981E1501C
:1059A000E93008F0EFC1F0E0EA55FC4C0C9491307E
:1059B0008091F207843009F43BC08091BD068111CB
:1059C00005C00E944E1380E00E94B3061093BD06EE
:1059D0000E94CB198091BD06811105C00E944E1313
:1059E00080E00E94B3061093BD061092C30728E121
:1059F00030E00FB6F894A895209360000FBEE092B7
:105A0000600083B7817F846083BF83B7816083BF79
:105A10007894889583B78E7F83BF0FB6F894A89546
:105A200080916000886180936000109260000FBEDA
:105A30008091F107882309F488CD0E943D1CE3EA98
:105A4000F4E081919191892B09F001C334E0ED3AA2
:105A5000F307B9F77ACD65968FAF659701E04CCE25
:105A600090E0FC01E357F94FD9015C915183DB01D0
:105A70005C9151876596BFAD6597B18B880F991F73
:105A8000FC01E357F94F128E118E91E0842F7CCEEA
:105A900083E08093E9008091E80082FF5DCF8091F0
:105AA000E80090E085FF09C050E040E060E270E06F
:105AB000CE0101960E94E00391E08091E8008B778F
:105AC0008093E800992309F447CFE981E150E3315D
:105AD00008F086C0F0E0E155FC4C0C9491301A823D
