:100000000C94E0070C9429080C9429080C942908F6
:100010000C9429080C9429080C9429080C9429089C
:100020000C9429080C9429080C94AD4D0C94854E21
:100030000C949E470C9429080C9429080C942908C8
:100040000C9429080C9429080C9429080C9429086C
:100050000C9429080C9411480C9429080C94290834
:100060000C9429080C9429080C9429080C9429084C
:100070000C9429080C9429080C9429080C9429083C
:100080000C9429080C9429080C9429080C9429082C
:100090000C9429080C94290829003A003B003C00E4
:1000A0003D003E003F00400041004200430044004C
:1000B00045004C006A5D35001E001F002000210035
:1000C0002200230024002500260027002D002E00FA
:1000D0002A004B002B0014001A000800150017001E
:1000E0001C0018000C00120013002F00300031001B
:1000F0004E00390004001600070009000A000B003A
:100100000D000E000F003300340028006B5D6C5DA5
:10011000E1001D001B000600190005001100100081
:10012000360037003800E500520000000000E00013
:10013000E300E2002C0000002C0000002C00000076
:100140000151E4005000510000004F000100010087
:10015000010001000100010001000100460047000C
:1001600048004A004D00005C010001000100010050
:100170000100010001000100010001000100010077
:10018000010001000100A9000100C25CC35CC45C65
:10019000C95CCA5CC55CC65CC75CC85CCB5CCC5C3B
:1001A00001000100AA00010001000100010001009E
:1001B0000100010001000100010001000100010037
:1001C000CA5CC95C0100008001800280010001005E
:1001D000010001000100010001000100835F000037
:1001E000000001000100D65C0100000001000000D9
:1001F0000100000001000100845F825F00002A5DB1
:1002000001000100010001000100010001000100E6
:1002100001000100010001000100010001000100D6
:1002200001000100010001000100010001000100C6
:1002300001000100010001000100010001000100B6
:1002400001000100010001000100010001000100A6
:100250000100010001000100010001000100010096
:100260000100010001000100010001000100010086
:1002700001000100AA00A900010001000100010025
:100280000100010001000100010001000100010066
:100290000100000000000100010001000100000059
:1002A0000100000001000000010001000100010048
:1002B0000000010001000100010001000100010037
:1002C0000100010001000100010001000100010026
:1002D0000100010001000100010001000100010016
:1002E0000100010001000100010001000100010006
:1002F00001000100010001000100010001000100F6
:1003000001000100010001000100010001000100E5
:1003100001000100010001000100010001000100D5
:100320000100010001000100AA00A9000100010074
:1003300001000100010001000100010001000100B5
:1003400001000100010000000000010001000100A7
:100350000100000001000000010000000100010098
:100360000100010000000100010001000100010086
:100370000100010001000100010001000100010075
:100380000100010001000100010001000100010065
:100390000100010001000100010001000100010055
:1003A0000100010001000100010001000100010045
:1003B0000100010001000100010001000100010035
:1003C0000100010001000100010001000100010025
:1003D000010001000100010001000100AA00A900C4
:1003E0000100010001000100010001000100010005
:1003F00001000100010001000100000000000100F7
:1004000001000100010000000100000001000000E7
:1004100001000100010001000000010001000100D5
:1004200001000100010001000100010001000100C4
:1004300001000100010001000100010001000100B4
:1004400001000100010001000100010001000100A4
:100450000100010001000100010001000100010094
:100460000100010001000100010001000100010084
:100470000100010001000100010001000100010074
:100480000100010001000100010001000100010064
:10049000AA00A90001000100010001000100010003
:1004A0000100010001000100010001000100000045
:1004B0000000010001000100010000000100000037
:1004C0000100000001000100010001000000010026
:1004D0000100010001000100010001000100010014
:1004E0000100010001000100010001000100010004
:1004F00001000100010001000100010001000100F4
:1005000001000100010001000100010001000100E3
:1005100001000100010001000100010001000100D3
:1005200001000100010001000100010001000100C3
:1005300001000100010001000100010001000100B3
:1005400001000100AA00A900010001000100010052
:100550000100010001000100010001000100010093
:100560000100000000000100010001000100000086
:100570000100000001000000010001000100010075
:100580000000010001000100010001000100010064
:100590000100010001000100010001000100010053
:1005A0000100010001000100010001000100010043
:1005B0000100010001000100010001000100010033
:1005C0000100010001000100010001000100010023
:1005D0000100010001000100010001000100010013
:1005E0000100010001000100010001000100010003
:1005F0000100010001000100AA00A90001000100A2
:1006000001000100010001000100010001000100E2
:1006100001000100010000000000010001000100D4
:1006200001000000010000000100000001000100C5
:1006300001000100000001000100010001000100B3
:1006400001000100010001000100010001000100A2
:100650000100010001000100010001000100010092
:100660000100010001000100010001000100010082
:100670000100010001000100010001000100010072
:100680000100010001000100010001000100010062
:100690000100010001000100010001000100010052
:1006A000010001000100010001000100AA00A900F1
:1006B0000100010001000100010001000100010032
:1006C0000100010001000100010000000000010024
:1006D0000100010001000000010000000100000015
:1006E0000100010001000100000001000100010003
:1006F00001000100010001000100010001000100F2
:1007000001000100010001000100010001000100E1
:1007100001000100010001000100010001000100D1
:1007200001000100010001000100010001000100C1
:1007300001000100010001000100010001000100B1
:1007400001000100010001000100010001000100A1
:100750000100010001000100010001000100010091
:10076000AA00A90001000100010001000100010030
:100770000100010001000100010001000100000072
:100780000000010001000100010000000100000064
:100790000100000001000100010001000000010053
:1007A0000100010001000100010001000100010041
:1007B0000100010001000100010001000100010031
:1007C0000100010001000100010001000100010021
:1007D0000100010001000100010001000100010011
:1007E0000100010001000100010001000100010001
:1007F00001000100010001000100010001000100F1
:1008000001000100010001000100010001000100E0
:1008100001000100AA00A90001000100010001007F
:1008200001000100010001000100010001000100C0
:1008300001000000000001000100010001000000B3
:1008400001000000010000000100010001000100A2
:100850000000010001000100010001000100010091
:100860000100010001000100010001000100010080
:100870000100010001000100010001000100010070
:100880000100010001000100010001000100010060
:100890000100010001000100010001000100010050
:1008A0000100010001000100010001000100010040
:1008B0000100010001000100010001000100010030
:1008C0000100010001000100AA00A90001000100CF
:1008D0000100010001000100010001000100010010
:1008E0000100010001000000000001000100010002
:1008F00001000000010000000100000001000100F3
:1009000001000100000001000100010001000100E0
:1009100001000100010001000100010001000100CF
:1009200001000100010001000100010001000100BF
:1009300001000100010001000100010001000100AF
:10094000010001000100010001000100010001009F
:10095000010001000100010001000100010001008F
:10096000010001000100010001000100010001007F
:10097000010001000100010001000100AA00A9001E
:10098000010001000100010001000100010001005F
:100990000100010001000100010000000000010051
:1009A0000100010001000000010000000100000042
:1009B0000100010001000100000001000100010030
:1009C000010001000100010001000100010001001F
:1009D000010001000100010001000100010001000F
:1009E00001000100010001000100010001000100FF
:1009F00001000100010001000100010001000100EF
:100A000001000100010001000100010001000100DE
:100A100001000100010001000100010001000100CE
:100A200001000100010001000100010001000100BE
:100A3000AA00A9000100010001000100010001005D
:100A4000010001000100010001000100010000009F
:100A50000000010001000100010000000100000091
:100A60000100000001000100010001000000010080
:100A7000010001000100010001000100010001006E
:100A8000010001000100010001000100010001005E
:100A9000010001000100010001000100010001004E
:100AA000010001000100010001000100010001003E
:100AB000010001000100010001000100010001002E
:100AC000010001000100010001000100010001001E
:100AD000010001000100010001000100010001000E
:100AE00001000100AA00A9000100010001000100AD
:100AF00001000100010001000100010001000100EE
:100B000001000000000001000100010001000000E0
:100B100001000000010000000100010001000100CF
:100B200000000100010001000100010001000100BE
:100B300001000100010001000100010001000100AD
:100B4000010001000100010001000100010001009D
:100B5000010001000100010001000100010001008D
:100B6000010001000100010001000100010001007D
:100B7000010001000100010001000100010001006D
:100B8000010001000100010001000100010001005D
:100B90000100010001000100AA00A90001000100FC
:100BA000010001000100010001000100010001003D
:100BB000010001000100000000000100010001002F
:100BC0000100000001000000010000000100010020
:100BD00001000100000001003D2000002E2E000059
:100BE0000DF4010000000000000000002A2B280086
:100BF00000000000000000000000000000000029CC
:100C0000000000002C1E3420212224342627252E0B
:100C1000362D3738271E1F20212223242526333343
:100C2000362E37381F0405060708090A0B0C0D0E6F
:100C30000F101112131415161718191A1B1C1D2F3B
:100C40003130232D350405060708090A0B0C0D0E5B
:100C50000F101112131415161718191A1B1C1D2F1B
:100C60003130354C000000000000000000000000A2
:100C70000000000000000000000000000000000074
:100C800000000000000000007E0F00D4FFFFFFC73F
:100C900000000078000101010101010101010202CF
:100CA000020202020202020303030303030303041A
:100CB00004040404040405050505050606060606E5
:100CC000070707070708080808090909090A0A0A9F
:100CD0000B0B0B0C0C0C0D0D0D0E0E0E0F0F0F1041
:100CE00010111111121213131414151516161717CB
:100CF000181819191A1A1B1B1C1D1D1E1E1F202037
:100D0000212222232424252626272829292A2B2C80
:100D10002D2D2E2F30313232333435363738393AA3
:100D20003B3C3D3E3F404142434445464748494A9B
:100D30004C4D4E4F50515354555658595A5B5D5E69
:100D40005F616264656668696B6C6D6F7072737504
:100D500077787A7B7D7E8082838587888A8C8E8F68
:100D600091939596989A9C9EA0A2A3A5A7A9ABAD96
:100D7000AFB1B3B5B7BABCBEC0C2C4C6C9CBCDCF84
:100D8000D1D4D6D8DBDDDFE2E4E7E9EBEEF0F3F532
:100D9000F8FAFDFF14035A005100370035005600E1
:100DA0003200700072006F00000010035A006800EB
:100DB00061005100690061006E0000000403090435
:100DC00009027B00040100A0FA09040000010301EC
:100DD00001000921110100012240000705810308DB
:100DE00000010904010002030000000921110100B3
:100DF00001222200070582032000010705030320CA
:100E00000001090402000203000000092111010091
:100E10000122220007058403400001070505034065
:100E20000001090403000103000000092111010071
:100E30000122EE00070586032000011201000200D6
:100E4000000008AA0001AA0100010200010659FFE2
:100E50000960A1010962150026FF0095407508810F
:100E6000020963150026FF00954075089102C0062F
:100E700060FF0961A1010962150026FF0095207538
:100E80000881020963150026FF009520750891026C
:100E9000C005010902A10185020901A10005091986
:100EA0000129081500250195087501810205010930
:100EB0003009311581257F9502750881060938159D
:100EC00081257F950175088106050C0A3802158178
:100ED000257F950175088106C0C005010980A10123
:100EE000850319012AB700150126B7009501751071
:100EF0008100C00501090EA1018504050D0921A18C
:100F000000050909019501750115002501810205FA
:100F10000109379501750F550F651436F0F146102C
:100F20000E16F0F126100E8106C0C0050C0901A1B5
:100F300001850519012AA002150126A00295017557
:100F4000108100C005010906A1018506050719E009
:100F500029E715002501950875018102050719008B
:100F600029EF1500250195F0750181020508190189
:100F70002905950575019102950175039101C0053B
:100F8000010906A101050719E029E71500250195CA
:100F9000087501810295017508810105071900296D
:100FA000FF150026FF009506750881000508190148
:100FB0002905950575019102950175039101C00000
:100FC00011241FBECFEFD0E2DEBFCDBF04B603FEBB
:100FD00027C08091630990916409A0916509B0913F
:100FE00066098730904BA740B04BD1F4109263094B
:100FF00010926409109265091092660914BE84B7B4
:10100000877F84BF0FB6F894A895809160008861AF
:1010100080936000109260000FBEE0E0F0EF099551
:1010200014E0A0E0B1E0ECE4F9EA00E00BBF02C09C
:1010300007900D92A23FB107D9F729E0A2EFB4E0E3
:1010400001C01D92A336B207E1F70E94991A0C94D1
:1010500005540C94000081E00E942E350C944A4700
:1010600080E00E942E350C9492470C944419089508
:101070001F93CF93DF930E94C13560E07FEF0E9402
:10108000C41DD62FC72F182F0E94354681FF07C0D9
:10109000212F4D2F6C2F88E390E00E94C724609190
:1010A00025057091260590E080E00E94580B815044
:1010B0008C3088F5E82FF0E0E95FFB4A212F4D2FB7
:1010C0006C2F0C94EF528CE090E0DF91CF911F9148
:1010D0000C94C7248BE090E0F8CF8AE090E0F5CF45
:1010E00089E090E0F2CF88E090E0EFCF87E090E0F9
:1010F000ECCF86E090E0E9CF85E090E0E6CF84E0B9
:1011000090E0E3CF83E090E0E0CF82E090E0DDCFBD
:1011100081E090E0DACFDF91CF911F910895262FE3
:10112000609125057091260590E080E0222361F012
:101130000E94580B4EE063E00E94033A6EE073E0B9
:101140000E947E4081E008950E94580B4DE063E0CC
:101150000E94033A6DE0F3CFFB0182382FE592073E
:1011600031F158F480382FE59207A9F081382FE546
:101170009207B9F0BF010C94E30883382FE592077A
:10118000E1F084382FE59207A9F78281882339F0AE
:101190000E94363C04C0828181110E94054180E09A
:1011A000089582818823D9F30E94F040F8CF82818C
:1011B0008823A9F30E948D3BF2CF8281882379F3A3
:1011C0000E949C3BECCF81E008959C013A9521154B
:1011D0003F4150F5FC01EE27F170BC0166277270AB
:1011E000AC01442754709C012227387094FF0EC034
:1011F00080E1EF2B09F480E0672B09F08062452B3A
:1012000009F08064232B89F08068089581E0EF2B3A
:1012100009F480E0672B09F08260452B09F08460B7
:10122000232B19F08860089580E00895CF93DF9311
:10123000EC010E94E5089E01205E3109283031054D
:1012400010F0209739F40E94FF0C8C2FDF91CF9182
:101250000C94F80B0E94470FF8CFCF93DF93EC016B
:101260000E948A0CCE010E94E5089E01205E310991
:101270002830310510F0CD2B21F4DF91CF910C9463
:10128000060DDF91CF910C944E0FCF93DF93EC01BD
:101290000E941609CE01DF91CF910C942D0981E0B7
:1012A000089508950C9451091F93CF93DF9300D0B4
:1012B00000D00F92CDB7DEB749835A836B8330914C
:1012C000F40489819A8131111DC06623B9F022236B
:1012D000A9F00E949110182F682F89819A810E948D
:1012E0003D1069817A81812F0F900F900F900F90A0
:1012F0000F90DF91CF911F910C94B93A0E94691021
:10130000182FEFCF0E94911069817A81EDCFFC01F7
:10131000262F408151816281738184810C9454090C
:1013200081E00895CF93DF93EC0160E00E9487098C
:10133000BE01DF91CF910C945209E1E0F0E0DF01B2
:1013400002C0AA0FBB1F6A95E2F7BD01DF0102C010
:10135000AA0FBB1F4A95E2F7AD01462B572B02C0DF
:10136000EE0FFF1F2A95E2F79A012823392324174D
:10137000350719F48E2B9F2B0895E095F0958E2359
:101380009F230895242F462F682F80912505909143
:1013900026050E949D090C94DE0F0E9427190E94C9
:1013A000AC0B0E94D2340E9405430E947E3B0E94F7
:1013B0002F3C0C9435080E94CC370C94DB400895E8
:1013C0000E946B0F0E94DF092FEF84E39CE0215005
:1013D00080409040E1F700C000000C9435480F9326
:1013E0001F93CF93DF938C0161E00E948709EC018A
:1013F0000E946338882331F0F8018281882349F004
:101400000E947738F8018281882319F0CE010E946A
:101410007137B801CE010E940139882309F45BC0FD
:10142000B801CE010E94AC08882309F454C0B80169
:10143000CE010E94FB43882309F44DC0B801CE01C0
:101440000E948544882309F446C0B801CE010E9459
:10145000D744882309F43FC0B801CE010E94FA4561
:101460008823C9F1B801CE010E947736882399F10B
:10147000B801CE010E94CE3B882369F1B801CE01AC
:101480000E94573C882339F1F8018281882361F05A
:10149000CE3DFCE5DF0729F170F4C115ECE5DE0770
:1014A000C1F0C63DDC4501F1C801DF91CF911F912C
:1014B0000F910C944F09CB358DE5D807D9F0CC3579
:1014C000EDE5DE07A1F0CA35DD4571F70E946F1426
:1014D000EBCF0E94E00980E0DF91CF911F910F9147
:1014E00008950E94E415F7CF0E946D38F4CF0E9452
:1014F0006614DACF0E947214D7CFDF92EF92FF9278
:101500000F931F93CF93DF93E82FF0E0EC51F44F4C
:10151000D490282F26952695269530E0F901EC5792
:10152000F34F0491877010E0082E02C015950795BF
:101530000A94E2F701701127F901EC58F34FE49097
:10154000F12C082E02C0F594E7940A94E2F791E09A
:10155000E922FF24F901EC59F34FC491D0E002C015
:10156000D595C7958A95E2F7C170DD27011511055C
:1015700019F081EE0E94F80BE114F10419F086EEE7
:101580000E94F80B8D2D0E94F70CEF2819F086EEC3
:101590000E948A0C012B19F081EE0E948A0CCD2B3F
:1015A00051F08CE2DF91CF911F910F91FF90EF905E
:1015B000DF900C94F70CDF91CF911F910F91FF906A
:1015C000EF90DF900895EF92FF920F931F93CF93C8
:1015D000DF93EC01162F0AE08881882309F454C0B8
:1015E000813009F04EC08981813099F47E0122E07A
:1015F000E20EF11C8A810E94F70CE7012196812FEF
:10160000815050F3EFE9FFE03197F1F700C000009F
:10161000F7CF823041F47E0182E0E80EF11C8A812E
:101620000E94F80BEACF833041F47E01E2E0EE0E37
:10163000F11C8A810E948A0CE0CF843011F021963F
:10164000DDCF2A81229690E080E0AE014F5F5F4FB0
:101650002053330B2A30310548F0019778F2EFE937
:10166000FFE03197F1F700C00000F7CF089FB0010D
:10167000099F700D1124C901860F971F2981EA0166
:10168000E4CF0E947D0ABACFDF91CF911F910F91D5
:10169000FF90EF90089560E00C94E30A982F9F70FC
:1016A0009A50963018F0805D0C947D0A895AFCCFD0
:1016B000CF92DF92EF92FF926C01EE24FF2420E0A4
:1016C000C114D104E104F10419F0C701B60120E10D
:1016D000C72ED82EE92EFF24C114D104E104F10451
:1016E00019F0285FC701B6016B017C0154E0F69444
:1016F000E794D794C7945A95D1F7C114D104E10463
:10170000F10419F02C5FC701B6016B017C0142E0C6
:10171000F694E794D794C7944A95D1F7C114D104AD
:10172000E104F10419F02E5FC701B6019695879583
:1017300077956795672B682B692B09F02F5F822FB0
:10174000FF90EF90DF90CF90089508950C94A50B33
:1017500081E008950C94A80B0895CF93C82F0E94A0
:10176000A60B8C2FCF910C94AA0BCF93DF93CDB700
:10177000DEB72B970FB6F894DEBF0FBECDBF4F83F9
:10178000588769877A878B8761110E949B141E8214
:101790001D8285E0FE013796DE01119601900D92C3
:1017A0008A95E1F78C819D81892B89F449815A8141
:1017B0006B817C818D819E810E9495132B960FB643
:1017C000F894DEBF0FBECDBFDF91CF910895898120
:1017D0009A8189238F3F51F3CE0101960E9490098F
:1017E0008111E4CFEBCFFC01808191810C94CB106F
:1017F000CF93C82F882309F48BC08238C1F40E948C
:10180000294681FD85C089E30E942F140E94CB14D4
:101810002FEF81EE94E0215080409040E1F700C02E
:10182000000089E30E943614CF910C94CB148338C6
:10183000A1F40E94294680FD6BC083E50E942F140D
:101840000E94CB142FEF81EE94E021508040904015
:10185000E1F700C0000083E5E5CF8438A1F40E94E1
:10186000294682FD55C087E40E942F140E94CB14A4
:101870002FEF81EE94E0215080409040E1F700C0CE
:10188000000087E4CFCF8CEF8C0F813A90F46C2F5F
:1018900080918702909188020E94A046882329F0B7
:1018A0008C2F0E9436140E94CB148C2F0E942F1470
:1018B000BBCF80E28C0F883048F4C77081E001C054
:1018C000880FCA95EAF70E947814AECFEBE5EC0FCB
:1018D000E33040F4F0E0EA5FFB4F808190E0CF918D
:1018E0000C946046E8E5EC0FE73150F4F0E0EE0FC1
:1018F000FF1FE852FC4F80819181CF910C94764676
:10190000C03F30F08C2F0E94271BCF910C94FA1B04
:10191000CF910895882309F452C0823871F40E944F
:10192000294681FF4CC089E30E942F140E94CB14EA
:1019300089E30E9436140C94CB14833859F40E9426
:10194000294680FF3CC083E50E942F140E94CB14DF
:1019500083E5EFCF843859F40E94294682FF2FC0D7
:1019600087E40E942F140E94CB1487E4E2CF9CEFFF
:10197000980F913AF0F290E2980F983050F48770F7
:1019800091E001C0990F8A95EAF7892F0E947E1491
:10199000D2CF9BE5980F933020F490E080E00C9438
:1019A000604698E5980F973120F490E080E00C9421
:1019B0007646803F20F00E94811B0C94FA1B08950C
:1019C0001F93CF93DF93182FEB010E94F80B209702
:1019D00031F4812FDF91CF911F910C948A0C8FE904
:1019E0009FE00197F1F700C000002197F0CF70E071
:1019F00060E0893311F460E570E00C94E00C88231A
:101A000021F00E9478140C94CB140895882321F0BF
:101A10000E947E140C94CB140895BF92CF92DF9253
:101A2000EF92FF920F931F93CF93DF936C01D62F0A
:101A3000C72FFC011281058102950F700E944D1481
:101A4000E82E8823A1F0E12E112389F08C2F807FCE
:101A5000803429F080E28D0FE12C883040F082E064
:101A60000E941C150E944D1491E0E82EE926BC2E20
:101A7000B2949FE0B922EB2DF0E0ED5EFB4A0C94AE
:101A8000EF520C2F0F70C07F11F00295007F1123D1
:101A9000A9F0002359F080E28D0F883010F0D111A9
:101AA00009C0802F0E9478140E94CB148D2F0E94B1
:101AB000F80B14C0802F0E948E14F6CF8D2F0E9439
:101AC0008A0C002359F080E28D0F883010F0D1117C
:101AD0002CC0802F0E947E140E94CB142B2D2850E6
:101AE000330B2430310520F40E9429460E94AD0BAF
:101AF000EE2009F483C10E94491480FD7FC1F601E4
:101B000012820E9443140E94F50FC6010E941F0F0B
:101B10000E944314DF91CF911F910F91FF90EF909E
:101B2000DF90CF90BF900C940410802F0E949414EB
:101B3000D3CFFC2FFF70FF2EC07FC03219F0F2947C
:101B400080EFF822DD2369F0D13049F1112391F1C2
:101B5000002351F1F601858180FFA8CF8F70858326
:101B600023C0112381F0011106C00E94AE148F29F9
:101B70000E94FF0CB3CF0130C1F70E94AE148F2931
:101B80000E94B414ABCF011106C00E94C1148F2D66
:101B90000E94060DA3CF013009F4A0CFF6CF112388
:101BA00029F0063008F09ACF8F2DE2CF053008F0EB
:101BB00095CFEDCF002359F3D93349F4FFEF27EE4A
:101BC00033E0F15020403040E1F700C000008D2F9D
:101BD0000E948A0C83CF8C2F86958695837069F03E
:101BE000813009F07BCF8D2F9C2F9370111102C093
:101BF00090E080E00E94764671CF8D2F9C2F9370ED
:101C0000111102C090E080E00E94604667CF8D2FE6
:101C1000112329F00E94271B0E94FA1B5FCF0E940C
:101C2000811BFACF8C2F8370A1F5111157CF4D2F47
:101C3000429546954770440F440F2D2F2F7030E08A
:101C4000042E02C0220F331F0A94E2F790E080E0D6
:101C5000D4FF09C08FE090E002C0880F991F4A9519
:101C6000E2F780959095C695C695C370822B932B0D
:101C7000C23049F058F4C13019F00E94CA0F2ECF7B
:101C80000E94C20F2BCF0E94D20F28CF0E94C00FFC
:101C900025CF8695112311F08C2F8170882309F4AC
:101CA0001DCF4D2F429546954770440F440F2D2F61
:101CB0002F7030E0042E02C0220F331F0A94E2F787
:101CC00090E080E0D4FF09C08FE090E002C0880F70
:101CD000991F4A95E2F780959095C695C695C37071
:101CE000822B932BC23049F058F4C13019F00E9476
:101CF0002C10F4CE0E942410F1CE0E943410EECEAF
:101D00000E94DE0FEBCECF70112329F08C2F0E94A2
:101D1000F50F8D2F2DCF8D2F0E94060D8C2F0E9439
:101D20000410DCCED23F89F160F4D03FC9F0D13F3E
:101D300029F1112309F442C00111B8CE8C2F8F7103
:101D400021C0D33F39F1D43FA1F7112369F1CF71FD
:101D50008C2F0E94F50F63E08C2F0E940115BECEE0
:101D6000112341F0053008F0B9CE8C2F8F710E94FD
:101D70001510B4CE063008F0B1CEF7CF8C2F8F718E
:101D8000112369F20E94F50FA9CE8C2F8F711123B8
:101D9000C9F3C5CF112329F08C2F8F710E94EA0F50
:101DA0009DCE0E94E60F9ACE81E00E941C15023063
:101DB00008F494CE82E00E941C1590CE002359F0C6
:101DC000D93309F004CF8FEF97EEE3E081509040D4
:101DD000E040E1F7FACE8C2F8F71A1CF4C2F4F70DE
:101DE0006D2FC6010E9410170E94F91077CE4C2F5C
:101DF0004F706D2FC6010E94131770CEDF91CF91E7
:101E00001F910F91FF90EF90DF90CF90BF900895BA
:101E10000F931F93CF93DF93EC01688179818A81BF
:101E20000E94D5108C010E943C100E94BF0FB80187
:101E3000CE01DF91CF911F910F910C940D0DCF9397
:101E4000DF93EC018B819C81892B29F0888199811A
:101E500089238F3F59F4DF91CF910895CE010E94DD
:101E6000080FCE01DF91CF910C949209CE010E9410
:101E7000EF098111F3CF0E944D14882361F38A8109
:101E8000882349F382E0DF91CF910C941C158823BD
:101E900021F00E948E140C94CB140895882321F015
:101EA0000E9494140C94CB14089590E080E00E945A
:101EB000604690E080E00E9476460E949B140E945B
:101EC000AB140E94CB140E94211D0C94FA1B0E949B
:101ED0003D140C94550F0E9488140C94670FE92F41
:101EE000E295EF70E250EE3070F4F0E0ED5DFB4A09
:101EF0000C94EF52803F19F020F4883E20F481E0EA
:101F00000895843FE1F380E00895883EC0F3813F67
:101F1000D1F7F5CF93FB882780F90895FC018081E4
:101F200091810E94CB100C946F0FCF93DF9300D060
:101F300000D00F92CDB7DEB70F900F900F900F909B
:101F40000F90DF91CF910895CF93DF9300D000D011
:101F500000D0CDB7DEB726960FB6F894DEBF0FBE21
:101F6000CDBFDF91CF91089508950C94B40F0E94D6
:101F7000B50F90932805809327050C94550F08956D
:101F80000C94B70F2091270530912805822B932BB5
:101F90000C94B70F209127053091280582239323B5
:101FA0000C94B70F2091270530912805822793279D
:101FB0000C94B70F0C94B40F0C94DA0F0E94DC0F42
:101FC00090932605809325050C94550F90E080E0B2
:101FD0000C94DE0F21E030E0A90102C0440F551F30
:101FE0008A95E2F7CA010C94DE0F21E030E002C0CE
:101FF000220F331F8A95E2F78091250590912605DF
:10200000822B932B0C94DE0F21E030E002C0220FD4
:10201000331F8A95E2F720953095809125059091A0
:102020002605822393230C94DE0F21E030E002C0CA
:10203000220F331F8A95E2F780912505909126059E
:10204000822793270C94DE0F2091250530912605D9
:10205000822B932B0C94DE0F2091250530912605C1
:10206000822393230C94DE0F2091250530912605C1
:10207000822793270C94DE0F08952FE0929F800D06
:102080001124982F977041E001C0440F9A95EAF708
:1020900086958695869594E0899FF0011124EB50F2
:1020A000FB4F90E080E070E05191DF0111979B01C0
:1020B000082E02C0369527950A94E2F721702195E3
:1020C0002527242325272C9301968430910561F739
:1020D00008952FE0929F800D1124982F9770869578
:1020E0008695869524E0829FF0011124EB50FB4FEA
:1020F00050E040E080E0219130E0092E02C03695AA
:1021000027950A94E2F721703327042E01C0220F8D
:102110000A94EAF7822B4F5F5F4F4430510559F71D
:102120000895BF92CF92DF92EF92FF920F931F9389
:10213000CF93DF937C0100912505109126058091B6
:10214000270590912805082B192BCFE0D0E0CC244F
:10215000C394D12CBC2EC6010C2E02C0880F991F2F
:102160000A94E2F780239123892B71F4219790F749
:10217000B12C8B2DDF91CF911F910F91FF90EF909C
:10218000DF90CF90BF900895B7018C2F0E942F1839
:10219000019761F3EECFCF93DF93EC010E94911092
:1021A000BE01DF91CF910C942F181F93CF93DF9333
:1021B000EB019091F404992331F0CB01DF91CF91A1
:1021C0001F910C94CB10882379F0CB010E949110C1
:1021D000182F682FCE010E943D10BE01812FDF9184
:1021E000CF911F910C942F18CB010E946910182FCA
:1021F000F4CFEF92FF920F931F93CF93DF938C0155
:10220000892B81F0F12CEE24E394E8012196F8016A
:102210008491843770F4843008F05FC08130B1F06D
:102220008230A1F1DF91CF911F910F91FF90EF903C
:102230000895853709F44CC008F43DC09CE7980F19
:10224000903780F78F770E948A0C49C00E5F1F4F2E
:10225000FE01849190E2980F983060F48770FE2D13
:1022600001C0FF0F8A95EAF78F2F0E949E140E94EB
:10227000CB1402C00E94F80B8F2D815030F2EFE991
:10228000FFE03197F1F700C00000F7CF0E5F1F4F5E
:10229000FE01849190E2980F983050F48770FE2DE3
:1022A00001C0FF0F8A95EAF78F2F0E94A414DFCF99
:1022B0000E948A0CE1CF0E5F1F4FFE01C491C150F6
:1022C000D8F28FE99FE00197F1F700C00000F7CF47
:1022D0000E5F1F4FFE01F490CFCF0E94F80B8E01CE
:1022E000CBCF1F93CF93DF93C091290516E0809148
:1022F0002A058C1304C0DF91CF911F910895D0E07F
:102300001C9FF0011D9FF00D1124E55DFA4F4081E7
:10231000518162817381848195810E94A40F2196ED
:10232000C770E5CF40915B0550915C0560915D05FC
:1023300070915E0580915F05909160050C94A40FEB
:102340001F93CF93DF9380916005807FA9F48091E4
:102350005D05882389F080912905C0912A05609147
:102360005B0570915C05A0915E05B0915F05D62F6D
:10237000D72316E0C81304C0DF91CF911F910895B1
:1023800090E0109711F0DF3F19F401968770F2CFBB
:10239000189F9001199F300D1124F901E55DFA4F46
:1023A00041814713F2CF40814613EFCF4281411163
:1023B000ECCF438154814A1B5B0B4F3A510528F700
:1023C000809160058F70806180936005F901E05D08
:1023D000FA4F80818F70806180838BE595E00E9449
:1023E0001F0FDF91CF911F910C947111AF92BF928B
:1023F000CF92DF92EF92FF920F931F93CF93DF93D1
:10240000CDB7DEB761970FB6F894DEBF0FBECDBF74
:102410008C0185E0F801DE011D9601900D928A95F0
:10242000E1F7F801E2808BE5C82E85E0D82E6091B7
:102430005E0570915F056115710509F45AC19091AF
:102440005B0520915C05892F82238F3F09F451C1E0
:1024500040815181A380B480F0905D05F501E61BB9
:10246000F70BFF2009F4F6C080916005382F307F0C
:10247000EF3AF10508F0AFC0311179C0FE2C2513F9
:1024800023C0941321C0E1101FC08F70806180931E
:1024900060050E949211C6010E941F0F8091600585
:1024A000F80185838F2D61960FB6F894DEBF0FBEBD
:1024B000CDBFDF91CF911F910F91FF90EF90DF90F3
:1024C000CF90BF90AF900895AB2829F0842F85233B
:1024D0008F3F09F027C180E0F82FF170DF2E80FFD9
:1024E0003CC08091290520912A0536E0821315C051
:1024F0004D875E878D859E850E94CB10292F229562
:102500002F702230F0F0243018F59F70F1F0F801B0
:102510009581907FD1F4D12C1EC090E0389FF001BE
:10252000399FF00D1124E55DFA4F6181651306C0F6
:102530006081641303C06281E6120FC00196877048
:10254000D5CF9F7011F0882331F3805E883018F367
:10255000C8010E941F0FFD2CA5CFEE2009F4A2CFC9
:1025600080916005816080936005F12C9BCF2513DD
:1025700006C0941304C0F801EE2009F487C0C80116
:102580000E948E0F882319F1EE2009F180916005D9
:10259000803270F020915B0530915C0538872F8385
:1025A0001986BB86AA868C87CE0107960E941F0FCC
:1025B00086E0F801ABE5B5E001900D928A95E1F770
:1025C0000E94A0110E949211FF24F3946BCFC801C6
:1025D0000E941F0FF9CF311113C07A2DB98AA88A32
:1025E0006E2D89890E94950F8BE595E00E941F0F43
:1025F00086E0F60111928A95E9F70E949211B5CF13
:1026000025130FC094130DC0E1100BC0F801858392
:10261000C8010E941F0F86E0F60111928A95E9F722
:1026200041CFC8010E948E0F882389F2EE2079F2F3
:1026300080916005803208F4BBCF20915B0530911A
:102640005C053A8329831B82BD82AC828E83CE01D6
:102650000196ACCFEF3AF10508F03EC0FE2CEE201B
:1026600009F4B5CF25132AC0941328C080916005C2
:1026700080FD1BC0982F907FC1F0F8018583903FAB
:1026800031F0982F907F905F8F70892B8583C801E0
:102690000E941F0F86E0F801ABE5B5E001900D92B6
:1026A0008A95E1F70E949211FDCE86E0F801ABE534
:1026B000B5E001900D928A95E1F7F4CEC8010E9431
:1026C0008E0F811175CF80916005816080936005C8
:1026D000C8010E941F0FE6CE7A2DB98AA88A6E2DF6
:1026E00089890E94950F86E0F60111928A95E9F793
:1026F000D9CFEE2009F46BCFC8010E948E0FF82EBF
:10270000882309F464CF86E0F801ABE5B5E00190D9
:102710000D928A95E1F78BE595E00E94F30B0E94FC
:10272000A011C0CF81E08E25D7CE1F93CF93DF932A
:10273000CDB7DEB72C970FB6F894DEBF0FBECDBF76
:102740004F83588769877A878B879C87CE01079646
:102750000E94F611882369F08A859B85892B39F0C0
:102760004F815885842F85238F3F09F071C016E073
:102770005FC086E0FE013796DE01119601900D9252
:102780008A95E1F78A859B85892B89F38F819885C6
:1027900089238F3F61F320912A0530E0C90101961A
:1027A00087709927409129054817190671F40E94EE
:1027B0006B0F10922A051092290586E0EBE5F5E0F3
:1027C000DF011D928A95E9F7D2CF96E0929FD00162
:1027D000939FB00D1124A55DBA4FFE013196019073
:1027E0000D929A95E1F780932A050E947111BFCF4F
:1027F000819FC0011124855D9A4F0E94F6118823A4
:10280000E9F0E09129051E9FF0011124E55DFA4FE2
:102810004081518162817381848195810E94A40FDE
:102820008091290590E0019687709927809329056A
:102830008091290590912A058913DACF2C960FB63D
:10284000F894DEBF0FBECDBFDF91CF911F910895E9
:1028500069857A858B859C850E94A40F88CF682F17
:1028600080918702909188020C942047682F809174
:102870008702909188020C942B4780918702909157
:1028800088020C94364780916105859585958595DC
:102890000895809161058770089590916105977002
:1028A00081E009F480E008959091500792FB22277F
:1028B00020F9281751F080FB92F9909350078091EE
:1028C0004F07909150070C945F1508958091500721
:1028D00082FB882780F991E089270C94541481E0C9
:1028E0000C94541480E00C94541480918505089540
:1028F00090918505892B8093850508958095909109
:1029000085059823909385050895809385050895FE
:10291000109285050895809184050895909184050D
:10292000892B809384050895809590918405982340
:1029300090938405089510928405089590918305DD
:10294000892B809383050895809590918305982322
:1029500090938305089510928305089580916205F0
:10296000089508950C94B1149091500792FD08C0F9
:1029700090916205981721F0809362050C94B2142F
:10298000089580916205882329F01092620580E005
:102990000C94B2140895E0918702F091880280911E
:1029A00085058083E0918702F09188028081909173
:1029B0008405892B8083E0918702F09188028081D1
:1029C00090918305892B808390916205992381F0F2
:1029D000E0918702F09188028081892B8083809129
:1029E0008702909188020E948C4681110E94C11436
:1029F00080918702909188020C94384608950C9437
:102A0000FE149091500792FD10C098E0899F9001AC
:102A10001124622B609361050E94F50F809161057E
:102A20008595859585950C94FF140C94F50F10925F
:102A3000610580E00C94FF149091610580958923D5
:102A400080936105282F277039F4282F082E000C59
:102A5000330B9217130621F49091500792FF07C091
:102A60008595859585950E9404100C9417150895F9
:102A70006FEF7FEF90E080E00C94FF5390E080E0F8
:102A80000E94CB53893E9E4F11F40C94AA3880E0EB
:102A9000089582E090E00C94C35383E090E00C949E
:102AA000C353CF9384E090E00E94C353C82F82E2C7
:102AB00090E00E94C353982F8C2FCF910895CF930D
:102AC000C92F682F84E090E00E94E1536C2F82E2CE
:102AD00090E0CF910C94E153AB01BC018FE090E00A
:102AE0000C94F353AB01BC0183E190E00C94F353DD
:102AF00060E070E0CB010C94721560E070E0CB01F7
:102B00000E946C150C94781569EE7EEF90E080E0E1
:102B10000E94FF5360E082E090E00E94E15360E099
:102B200083E090E00E94E15310922805109227055F
:102B300060E084E090E00E94E15360E082E290E097
:102B40000E94E15360E085E090E00E94E15360E084
:102B500086E090E00E94E1536FEF87E090E00E94F2
:102B6000E15340E050E0BA0188E090E00E94F35366
:102B700060E08DE090E00E94E15340E050E0BA0157
:102B800088E190E00E94F35360E087E190E00E94CA
:102B9000E15340E050E0BA018CE190E00E94F35331
:102BA00070E060E080E290E00E94FF5340E050E07F
:102BB000BA0188E190E00E94F35380E00E94C3389C
:102BC0000E94E9380C947D150C948415682F8EE0D2
:102BD00090E00C94E1530E94DA4760939B05709358
:102BE0009C0580939D0590939E0560939705709337
:102BF00098058093990590939A0508950E94DA4765
:102C000060939B0570939C0580939D0590939E0512
:102C10006093930570939405809395059093960522
:102C2000089585B7806885BF85B7806885BF08959A
:102C3000089508950C94181608950C941C160E947B
:102C400011168DE099E10E9459480E9419160C94C2
:102C50001A1681E008950C942916089508950E948B
:102C60002D160C942E160E94C5470E94F8380E941B
:102C7000011A0E940D38EFE4F7E0808180688083BC
:102C800080914F07909150070E945F150C941D167C
:102C90006F927F928F929F92AF92BF92CF92DF926C
:102CA000EF92FF920F931F93CF93DF93CDB7DEB7D1
:102CB0002A970FB6F894DEBF0FBECDBF0E94141A3C
:102CC00081110E94EB1527E8E22E25E0F22E10E09C
:102CD000712C812F0E9445194C01F701A080B18011
:102CE000A816B90609F440C080919F0581FD0E9495
:102CF0004E19A824B92400E0CC24C394D12CC501DA
:102D00008C219D21892B59F10E942B1666246394F6
:102D100094012C213D21232B09F4612C882379F087
:102D20000E831F8368860E94CE478160782F9A8722
:102D300089874E815F8168858A850E94B50BF7017E
:102D4000808191818C259D2591838083462D602FE4
:102D5000812F0E94B0307394F3E0F715F0F00F5F0D
:102D6000CC0CDD1C0F3059F61F5F82E0E80EF11C21
:102D7000163009F0AECF711010C08FEF89838A83AF
:102D80001B820E94CE478160782F9D838C8349816E
:102D90005A816B818D810E94B50B0E940C340E9478
:102DA0001C3881110E94FE150E94151C0E94633878
:102DB00081110E947F380E942946909186058917CB
:102DC000D1F00E942946809386052A960FB6F89482
:102DD000DEBF0FBECDBFDF91CF911F910F91FF904E
:102DE000EF90DF90CF90BF90AF909F908F907F90AB
:102DF0006F900C94AD0B2A960FB6F894DEBF0FBE01
:102E0000CDBFDF91CF911F910F91FF90EF90DF9099
:102E1000CF90BF90AF909F908F907F906F900895CC
:102E200090E080E008950895FC01EE0FFF1FEC563E
:102E3000F34F859194910895CF93DF930E943318B7
:102E4000EC01811520E5920708F042C0811530E4BD
:102E5000930708F0BDC0883E910528F5803E910596
:102E600008F09DC0883A910588F4853A910508F0EC
:102E70008FC08130910509F492C0009709F48FC08A
:102E8000049708F08CC0D0E0C0E089C08F3B91056A
:102E900008F489C0805C9109C03CD105A0F30E9470
:102EA0001417EC017CC08115904250F4C11581E0EB
:102EB000D80708F074C0C03FD10528F3D0656FC0B3
:102EC000C11590E3D90708F079C0CE019F70E7CF14
:102ED000811525E5920758F5811534E5930708F02B
:102EE000A6C0811542E5940750F4C11581E5D807C5
:102EF00008F471C0DC2FCC27C16FD06A50C0982F66
:102F0000969596959E0123703327C115D34508F0F9
:102F10007FC0C1E0D0E002C0CC0FDD1F2A95E2F7F0
:102F200020E2929FC0011124C82BD92B6FC0C1157C
:102F300089E5D807A8F4C11598E5D90708F07CC041
:102F4000C11526E5D20708F09ECF8C2F0E94CA1823
:102F5000C82FD0E0DC2FCC27CC27DF71D0621FC078
:102F6000C1153AE5D30708F46CC0CE01905681151F
:102F7000904208F088CF8D2F8F710E94CA1890E080
:102F8000982F882788279F719C012C2BE901E6CF79
:102F9000C55AD0E0C95CDB4FC881D0E0D064CE0117
:102FA000DF91CF910895C85AD0E0CC0FDD1FC75FE5
:102FB000DB4F0990D881C02DD464F1CFCE01992781
:102FC000D3FF03C0EC01D86CEACFEC01D06CE7CFA3
:102FD000DF70D06AE4CFCE01E4E096958795EA955C
:102FE000E1F783702C2F26952695237090E2299F78
:102FF00090011124382B8C2F8370C1E0D0E002C0E7
:10300000CC0FDD1F8A95E2F7C22BD32BDC68C7CF2C
:10301000C1E0D0E002C0CC0FDD1F2A95E2F730E21C
:10302000939FC0011124C82BD92BDA68B8CFD82FB1
:10303000CC27C46FD06AB3CFDC2FCC27C06FD06A47
:10304000AECF8C2F8F700E94CA1834E0D695C795EA
:103050003A95E1F7CF709C2FEC01D069A0CF0E9488
:10306000B93A0C941C1782389105B1F1B0F4813350
:10307000910509F475C048F48932910509F469C0D5
:103080008A32910509F473C008958533910509F4D6
:1030900059C08933910501F10895833E9105A9F145
:1030A00038F4803E9105F9F0823E910549F108958A
:1030B000863E9105A9F1873E9105C9F1843E9105AF
:1030C00019F52091500721FF1FC080914F0784FD03
:1030D00014C087EE90E0089520914F072370A1F06F
:1030E00080EE90E0089520914F0720FD47C0309179
:1030F000500730FF09C024FF44C090E080E004C0C6
:1031000020914F0722FDF7CF089520914F0722FD10
:103110003BC03091500730FDE3CF24FFF5CFEDCF1A
:1031200020914F0723FFF0CF24FDE7CFD2CF20918E
:103130004F0723FD2CC03091500731FFEECF84EEB6
:1031400090E0089520914F0725FFDECF89E290E0BF
:10315000089520914F0725FFD7CF85E390E008958C
:1031600020914F0726FFD0CF8AE290E0089520916A
:103170004F0726FFC9CF81E390E0089589E390E0EF
:10318000089583EE90E0089582EE90E0089586EE33
:1031900090E0089590914F0792FF06C0282F287164
:1031A0002830F9F4877F846093FF06C0282F2871A8
:1031B0002831F1F4877E84612091500720FF06C0FA
:1031C000382F38713830D9F4877F816021FF06C0ED
:1031D000282F28712831D1F4877E816194FD877E64
:1031E0000895282F24712430F9F68B7F8860DCCF76
:1031F000282F2471243101F78B7E8861DDCF382F91
:103200003171313019F78E7F8860E0CF282F21711E
:10321000213121F78E7E8861E1CF80E008950C9402
:1032200038150E94141A8FE39FE10197F1F700C04F
:1032300000000E94141A80E00E94451980FF04C01B
:103240000E940F190C94354808950C9411190E948E
:103250003E15811102C00E94E4150E944915809319
:103260009F050E9451159093500780934F070E942D
:1032700025190E944D1590E00E94C00F80912505F0
:10328000909126050C94DC0F0895E82FF0E0EE0FE6
:10329000FF1FE35AF84F808191810895089580EAD5
:1032A0008A95F1F7089500C008950C944F19F89489
:1032B000E82FE295EF70F0E031A1282F2F7081E028
:1032C00090E001C0880F2A95EAF7982F90959323F4
:1032D00091A392A1892B82A378940895CF93DF9331
:1032E000C9E4D4E089918F3F11F00E94571984E01E
:1032F000CF34D807B9F7CAE3D4E089918F3F11F0F2
:103300000E94571984E0C934D807B9F7DF91CF91EB
:103310000895AF92BF92CF92DF92EF92FF920F93F8
:103320001F93CF93DF938C01B62EC62FD0E0CE0132
:10333000875B9B4F7C01FC0120812F3F09F453C028
:10334000F894E22FE295EF70F0E031A12F7081E068
:1033500090E001C0880F2A95EAF7932F982B91A34C
:1033600092A18095892382A378940E945319EAE35D
:10337000F4E030E020E0D12CC12C41E050E081911C
:103380008F3FE1F1A82FA295AF70B0E090966C91BD
:1033900070E08F7002C0759567958A95E2F760FDC1
:1033A0002DC0CA01022E02C0880F991F0A94E2F7AD
:1033B000C82AD92A2F5F3F4F2F30310501F7F70177
:1033C00080818F3F11F00E94571961E0C114D10430
:1033D00009F460E08B2D0E945519CC0FDD1FC00F42
:1033E000D11FD982C882DF91CF911F910F91FF9099
:1033F000EF90DF90CF90BF90AF90089590E080E085
:10340000D7CF0E946E19E1E5F7E0ADE5B7E0119284
:1034100011921D921D9287E0ED35F807C1F786E005
:103420000E945F1A0C94CD09FF920F931F93CF93C4
:10343000DF93CDB7DEB72C970FB6F894DEBF0FBE83
:10344000CDBF8E010F5F1F4F8CE0F80111928A955E
:10345000E9F7F12C6F2DC8010E948919F394F6E069
:10346000FF12F8CF4CE050E0B80181E597E00E94F0
:103470009D53FF24F394009709F4F12C892B41F01C
:103480008CE0F801A1E5B7E001900D928A95E1F793
:103490002F2D46E06DE577E081E597E00E94601A08
:1034A0000E94DB098F2D2C960FB6F894DEBF0FBE5D
:1034B000CDBFDF91CF911F910F91FF900895089597
:1034C000FF920F931F93CF93DF93F82E092F162FA0
:1034D000D72FC42F222349F081E08093A2050E94B8
:1034E000CE479093A1058093A0058091A2058823E3
:1034F000A1F08091A0059091A1050E94E647892B3B
:1035000061F0EF2DF02FA12FBD2F90E080E0D0E0F3
:103510008C179D0744F01092A205DF91CF911F9167
:103520000F91FF900895219131912D933D93019634
:10353000EFCF0E9448470E94394A0E94524A0E9497
:10354000644A0E942F16FBCF8091A90580FF12C00C
:1035500060918E0285E0689FB00111247595679592
:103560007595679560387105A8F561157105A1F12C
:10357000862F089581FF09C060918E0285E0689FC3
:10358000B001112475956795EDCF60918E0282FD93
:103590000AC08091A8058823D1F090918D02609196
:1035A0008E02891728F085E0689FB0011124DACFD8
:1035B000869FB001112485E0869F9001879F300D82
:1035C0001124692F70E0C9010E94BC52CBCF65E085
:1035D00070E0CECF8FE7089581E008958091A9052E
:1035E00080FF0CC060918A0270E0759567957595B3
:1035F00067956115710549F1862F089581FF06C011
:1036000060918A0270E075956795F3CF60918A02A8
:1036100082FD0BC09091A7059923A1F060918902CA
:1036200080918A02961738F0682F70E06038710533
:1036300000F38FE70895899FC001112470E00E9474
:10364000BC52F4CF61E070E0D7CF81E00895803FB5
:1036500031F40E94A41A81958093AD050895813FAD
:1036600019F40E94A41AF8CF823F31F40E94A41AE0
:1036700081958093AC050895833F19F40E94A41AA4
:10368000F8CF893F29F40E94EE1A8093AE05089581
:103690008A3F21F40E94EE1A8195F7CF8B3F31F4D7
:1036A0000E94EE1A81958093AF0508958C3F19F41E
:1036B0000E94EE1AF8CF9CE0980F953070F4845F6A
:1036C000990B21E030E001C0220F8A95EAF7809142
:1036D000AB05822B8093AB0508958D3F31F480912B
:1036E000A90581608093A90508958E3F21F48091FA
:1036F000A9058260F7CF8F3FB9F78091A905846053
:10370000F1CF4091AC05803F59F48091AD0587FF22
:103710000DC01092AD0541110BC01092A80508C054
:10372000813F81F48091AD0518169CF3442381F00C
:103730008091AE059091AF05892B09F05AC0109287
:10374000A7050895823F49F447FFF0CF1092AC05DA
:103750008091AD058111ECCFE0CF833F19F41416B1
:10376000ACF3E4CF9091AE05893F29F41916F4F635
:103770001092AE05DBCF8A3F19F497FFD7CFF8CF71
:103780009091AF058B3F29F497FFD0CF1092AF05F2
:10379000CDCF8C3F19F41916CCF3C8CF9CE0980F0D
:1037A000953090F4845F990B21E030E0B90102C0BC
:1037B000660F771F8A95E2F7CB0180959091AB0554
:1037C00089238093AB05B2CF8D3F31F48091A90559
:1037D0008E7F8093A905AACF8E3F21F48091A90501
:1037E0008D7FF7CF8F3F09F0A1CF8091A9058B7F07
:1037F000F0CF08950E94CE479C019091AC05809136
:10380000AD05982B21F03093A6052093A505909146
:10381000AE058091AF05982B21F03093A40520933D
:10382000A3058AEA95E00C945246EF92FF920F931B
:103830001F93CF93DF9300D000D000D0CDB7DEB779
:1038400086E0EAEAF5E0DE01119601900D928A9594
:10385000E1F7E090AC05F090AD050091AE05109158
:10386000AF051092AC051092AD051092AE05109206
:10387000AF058E2D8F2991F08091A5059091A60519
:103880000E94E647AC019091A805992309F43FC036
:1038900080918F028417150608F447C0802F812B72
:1038A00091F08091A3059091A4050E94E647AC0198
:1038B0009091A705992309F477C080918B02841712
:1038C000150608F47FC08091AC059091AD05892B59
:1038D0009091AE05892B9091AF05892B11F00E9434
:1038E000FA1B86E0FE013196AAEAB5E001900D923E
:1038F0008A95E1F726960FB6F894DEBF0FBECDBFCE
:10390000DF91CF911F910F91FF90EF90089520913B
:1039100090028AE0289F900111242417350708F0AF
:10392000BDCF9F5F9093A80502C09F3FD1F7EE20C7
:1039300059F00E94A41A9FEF1E140CF491E0899F85
:10394000802D11248093AC05FF2059F00E94A41A09
:103950009FEF1F140CF491E0899F802D1124809318
:10396000AD053091AC05332309F498CF2091AD0516
:10397000222309F493CF45EB3403C001112499238A
:1039800059F09093AC0545EB2403900111243323A7
:1039900039F03093AD0582CF81E08093AC05F3CF51
:1039A00081E08093AD057ACF20918C028AE0289F38
:1039B000900111242417350708F085CF9F5F90935D
:1039C000A70502C09F3FD1F7002359F00E94EE1ACD
:1039D0009FEF10160CF491E0899F802D11248093A5
:1039E000AE05112359F00E94EE1A9FEF11160CF448
:1039F00091E0899F802D11248093AF053091AE0511
:103A0000332309F460CF2091AF05222309F45BCF63
:103A100045EB3403C0011124992359F09093AE056E
:103A200045EB240390011124332339F03093AF0583
:103A30004ACF81E08093AE05F3CF81E08093AF055C
:103A400042CF86E0EAEAF5E0DF011D928A95E9F7C8
:103A50001092A8051092A7051092A9050895EF925B
:103A6000FF920F931F93CF93DF93EB01E82FD111B8
:103A700010C0442321F0F0E0EC56F34FE4916E2F98
:103A80007E2F8E2FDF91CF911F910F91FF90EF909E
:103A900008950D2F10E0282F30E0442329F02C56F4
:103AA000334FF901249130E0F6E0CF9FC00111249B
:103AB000EFEFF0E0BF010E94A852AB018C2F90E025
:103AC000880F991FA5E5A49FB001A59F700D112433
:103AD000861B970B982F990F980FBF01601B710BD6
:103AE000629FD001639FB00D729FB00D11248B2F88
:103AF0009D9FB0011124672F7727EF01C61BD70BBD
:103B0000BE01629FE001639FD00D729FD00D112412
:103B10007F01E91AF108E09EB001E19E700DF09E70
:103B2000700D1124672F7727E61BF70BE29F8001AA
:103B3000E39F100DF29F100D1124E12F722F4230E0
:103B4000510599F048F44115510569F0413051058E
:103B500081F0EB2F8D2F07C04430510569F080F0C4
:103B600046305105B1F76E2F8DCFE22F7B2F812F7D
:103B7000FACFE22F7D2FF7CFEB2F822F712FF3CFCC
:103B80007B2F822FED2FEFCF41E00C942F1D30E0E3
:103B900020E0869F212D969F200D311D1124C90103
:103BA0000895AC018230910508F408959FEF413EDD
:103BB0008EE1580740F49A0195E0369527959A953D
:103BC000E1F798E0920F61E0E62FE90FFF27FF1F72
:103BD0009F0135952795822F229FF001239FF00D9D
:103BE000F00D11244E175F0738F49FEF920F9617D0
:103BF00058F78FEF860F08952F3FE9F361E0620FCA
:103C0000F6CFE82F86FDE0952E2F2F7086FD2F5FD3
:103C1000E695E695E695E670F0E0E15BFB4F918175
:103C2000929F902D212D112492959F702295207F97
:103C3000922B2081920F87FD919580E8890F08953E
:103C4000E42FF0E0EE0FFF1FE25AFE4F408134EE0A
:103C5000439F412D1124E72FF0E050E0445E5F4F79
:103C6000DA01A21BB1099D01B7FF03C0319521956F
:103C7000310993E0220F331F9A95E1F7AF01421B00
:103C8000530B9A0157FD20E0279F212D1124722FFD
:103C90000895E42FF0E0EE0FFF1FE25AFE4F40813F
:103CA00034EE439F412D1124E82FF0E050E0445EB4
:103CB0005F4FDA01A21BB1099D01B7FF03C0319527
:103CC0002195310993E0220F331F9A95E1F7AF0157
:103CD000421B530B9A0157FD20E0582F259F212DA1
:103CE0001124822F0895622F0895E42FF0E0EE0F43
:103CF000FF1FE25AFE4F6081621B0895E42FF0E03F
:103D0000EE0FFF1FE15AFE4F6081621B0895322FB4
:103D100050E0FA01EE0FFF1FE15AFE4F90819052E2
:103D200097FD9195440F551FFA01E25AFE4F2081ED
:103D3000231B330B290F311D97FD3A95620F089510
:103D4000EF920F93972F23E0029FB00111247595F6
:103D500067956E0D792F0F91EF9008950F93CF9384
:103D6000DF93D72FC82F47FD419585E390E0841B53
:103D7000910947FD9395889FB001899F700D700D43
:103D80001124229FC001239F900D900D1124860FB6
:103D9000971F0E94D11D982F990F890F682F600FD0
:103DA0007D2F8C2FDF91CF910F9108950F931F934B
:103DB000522F10E0F801EE0FFF1FE15AFE4FA081D5
:103DC000A052BB0B9D015203F001539FF00D112433
:103DD000000F111FD801A25ABE4F0C910A56110BA9
:103DE00040039001419F300D11242E0F3F1F37FFDC
:103DF00002C021583F4F220F232F221F330B620F87
:103E00001F910F9108950F931F93522F10E0F80107
:103E1000EE0FFF1FE15AFE4FA081A052BB0B9D0188
:103E20005203F001539FF00D1124000F111FD80110
:103E3000A25ABE4F0C910A56110B40039001419FAC
:103E4000300D11242E0F3F1F37FF02C0215C3F4F62
:103E500096E0359527959A95E1F7620F1F910F919E
:103E600008950F931F9310E0F801EE0FFF1FE25A21
:103E7000FE4F90819A5697FD9195000F111FF80102
:103E8000E15AFE4F00810052110B2003F001219FE7
:103E9000F00D112408E310E0091B110997FD13959B
:103EA00040039001419F300D1124E20FF31F9F0149
:103EB000220F331F2E0F3F1F37FF02C021583F4FE5
:103EC000220F232F221F330B620F1F910F91089592
:103ED0000F931F93CF93DF938B01D82FC42F822F83
:103EE0000E94011EEC2FF0E0EE0FFF1FE25AFE4F82
:103EF00090819058890F87FD8195880F682F2CE05D
:103F0000629F612D1124600F712F8D2FDF91CF9152
:103F10001F910F910895E42FF0E0EE0FFF1FE25A7A
:103F2000FE4F9081921B97FD9195292F38E1239F99
:103F3000212D1124620F08954095282F429F412D75
:103F40001124842F089522E8241B08F420E0620F36
:103F50000895EF92FF920F93970195E0099F200D2E
:103F6000311D11242F3F310519F010F02FEF30E0F3
:103F70002095382F320F08F43FEF832F0F91FF90D9
:103F8000EF900895EF92FF920F931F930E0D1F2D48
:103F9000111DF90137FF03C0F195E195F10924E006
:103FA000EE0FFF1F2A95E1F7EF3FF10519F014F02E
:103FB000EFEFF0E09A0157FF03C0319521953109E9
:103FC00094E0220F331F9A95E1F72E173F070CF468
:103FD000F901E00FF11FEF3FF10519F010F0EFEFDD
:103FE000F0E0E095282F3E2F230F08F42FEF822FCB
:103FF0001F910F91FF90EF900895EF92FF920F9312
:10400000972F093438F4B701601B71096F3F7105B0
:1040100019F010F06FEF70E0485F5F4F41315105CC
:1040200040F0A901485F5F4F4131510510F06FEF3B
:1040300070E06095482F460F08F44FEF842F37FF4C
:1040400002C02D5F3F4F3595279535952795609197
:104050006D07620F792F0F91FF90EF900895EF9207
:10406000FF920F939701201B31092F3F310519F063
:1040700010F02FEF30E0322F3095482F430F08F427
:104080004FEF842F620F0F91FF90EF900895EF9202
:10409000FF920F939701201B31092F3F310519F033
:1040A00010F02FEF30E02095382F320F08F43FEF5B
:1040B000832F0F91FF90EF900895E42FF0E0EE0F23
:1040C000FF1FE25AFE4F408134EE439F412D1124E1
:1040D000E82FF0E050E0445E5F4F421B510957FF6C
:1040E00003C051954195510993E0440F551F9A958E
:1040F000E1F7DF01A41BB50BAD01B7FD40E0382FA0
:10410000439F412D1124622F842F089560EE621B7E
:10411000E42FF0E0EE0FFF1FE25AFE4F9081691B83
:10412000089560E4621BE42FF0E0EE0FFF1FE15AF8
:10413000FE4F9081691B0895EF920F93972F23E014
:10414000029FB0011124759567956E19792F0F9113
:10415000EF9008950F93CF93DF93D72FC82F47FD8C
:10416000419585E390E0841B910947FD9395889FD5
:10417000B001899F700D700D1124229FC001239FF3
:10418000900D900D1124860F971F0E94D11D682F4E
:10419000660F680F601B7D2F8C2FDF91CF910F91E1
:1041A0000895FF920F931F93CF93DF93F72E022F63
:1041B000182FC42FD0E0FE01EE0FFF1FE25AFE4F72
:1041C0008081821B880F0E94011ECC0FDD1FC15A07
:1041D000DE4F288166E00E949C52281B330B37FF7C
:1041E00003C03195219531092A3031050CF010E0DA
:1041F000602F7F2D812FDF91CF911F910F91FF9025
:104200000895DF92EF92FF920F931F93CF93DF9366
:10421000E72ED22EF82EC42FD0E08E01035D1F4F63
:10422000F801EE0FFF1FEC5FFE4F8081821B880FAD
:104230000E94011ECC0FDD1FC15ADE4F288166E0AF
:104240000E949C52281B330B37FF03C031952195E8
:1042500031092A3031050CF0F12CF801EE0FFF1F67
:10426000EC5FFE4F60816D197E2D8F2DDF91CF9118
:104270001F910F91FF90EF90DF900895DF92EF92E2
:10428000FF920F931F93CF93DF93D72EE22EF82E3A
:10429000C42FD0E08E01035D1F4FF801EE0FFF1F0A
:1042A000EC5FFE4F8081821B880F0E94011ECC0FA5
:1042B000DD1FC15ADE4F288166E00E949C52422FCA
:1042C000481B550BCA010A96459708F4F12CF801D2
:1042D000EE0FFF1FEC5FFE4F60816E197D2D8F2D5D
:1042E000DF91CF911F910F91FF90EF90DF90089594
:1042F0001F93CF93C72F142F1095282F129F112D86
:1043000011246091700762956695677021E0620FD5
:104310008091BA079091BB070E94C71D9FEF891B30
:10432000F0F7890F682F7C2F812FCF911F9108956F
:10433000CF92EF92FF920F936C2D970195E0099F1A
:10434000200D311D11242F3F310519F010F02FEFF2
:1043500030E02095382F320F08F43FEF832F0F9174
:10436000FF90EF90CF900895CF92EF92FF920F932E
:104370001F936C2D0E0D1F2D111DF90137FF03C06A
:10438000F195E195F10924E0EE0FFF1F2A95E1F781
:10439000EF3FF10519F014F0EFEFF0E09A0157FF4D
:1043A00003C031952195310994E0220F331F9A956E
:1043B000E1F72E173F070CF4F901E00FF11FEF3F73
:1043C000F10519F010F0EFEFF0E0E095282F3E2F07
:1043D000230F08F42FEF822F1F910F91FF90EF9082
:1043E000CF900895CF92EF92FF920F93093438F453
:1043F000F701E01BF109EF3FF10519F010F0EFEFC5
:10440000F0E0485F5F4F4131510540F0A901485F3E
:104410005F4F4131510510F0EFEFF0E04E2F409526
:10442000582F540F08F45FEF852F37FF02C02D5F20
:104430003F4F35952795359527956C2D620F0F9138
:10444000FF90EF90CF900895CF92EF92FF920F934D
:104450006C2D9701201B31092F3F310519F010F009
:104460002FEF30E02095382F320F08F43FEF832FE5
:104470000F91FF90EF90CF900895FC019B01009762
:1044800029F480E077FF2BC080E80895AC0197FF06
:1044900004C044275527481B590BB901640F751FE9
:1044A00037FD10C0241B350BC901A5E0880F991FEB
:1044B000AA95E1F70E94BC5280E2861BF7FF0FC06D
:1044C00081950895CB0165E0880F991F6A95E1F702
:1044D000BA01621B730B0E94BC5280E6EECF0895B6
:1044E0000F931F93CF93DF93D62F172FC82FC90198
:1044F000272F201B022FBA010E943D22982F990FCF
:10450000990F782F791B700F719F712D11246D2FCA
:104510008C2FDF91CF911F910F9108950F931F93CF
:10452000CF93DF93D62FC72F182FC901212F201B20
:10453000022FBA010E943D22982F990F990F891BD3
:10454000800F282F219F212D1124822F6D2F7C2F4A
:10455000DF91CF911F910F910895EF920F931F93C9
:10456000CF93DF93D62F172FC82FC9010E19070F2E
:10457000BA010E943D22702F781B719F712D11246A
:104580006D2F8C2FDF91CF911F910F91EF90089598
:10459000EF920F931F93CF93DF93D62FC72F182F30
:1045A000C9010E19010FBA010E943D22081B202FDC
:1045B000219F212D1124822F6D2F7C2FDF91CF91F0
:1045C0001F910F91EF9008950F93CF93DF93D72F03
:1045D000C82FC901BA010E943D22682F600F7D2FAC
:1045E0008C2FDF91CF910F910895EF920F93CF937E
:1045F000DF93D72FC82FC9010E19BA010E943D229F
:10460000602F681B7D2F8C2FDF91CF910F91EF9042
:1046100008950F931F93CF93DF93172FC82FC901CE
:10462000D72FD01BBA010E943D22982F990F990FC6
:10463000782F791B7D0F719F712D1124602F8C2F86
:10464000DF91CF911F910F9108950F931F93CF93F7
:10465000DF93C72F182FC901D12FD01BBA010E9499
:104660003D22982F990F990F891B8D0F282F219F7D
:10467000212D1124822F602F7C2FDF91CF911F914C
:104680000F910895EF920F931F93CF93172FC82F79
:10469000C9010E19070FBA010E943D22702F781B25
:1046A000719F712D11246E2D8C2FCF911F910F9121
:1046B000EF900895EF920F931F93CF93C72F182F6A
:1046C000C9010E19010FBA010E943D22081B202FBB
:1046D000219F212D1124822F6E2D7C2FCF911F9190
:1046E0000F91EF9008950C94C41DEF92FF920F93D9
:1046F0001F93CF93DF939FEF980F41E0480FAFEFE9
:10470000A60FE1E0E60F082F10E0A61780F42FE0D7
:10471000209FE001219FD00D1124C052DA4FCA0F13
:10472000D11D288130E1230F08F42FEF2883262F95
:1047300030E05FE0509FE001519FD00D11248E01C9
:1047400000521A4F7801020F131FE801588170E2DE
:10475000570F08F45FEF5883EF3048F4E701CE0FAE
:10476000D11D588170E1570F08F45FEF5883463030
:1047700018F1C92FD0E0A61708F459C04FE04C9F9C
:10478000C0014D9F900D112480529A4FDC01A20F61
:10479000B31F2C9130E1230F08F42FEF2C93EF304F
:1047A00008F03EC0E80FF92FF11D20813DE0230FF6
:1047B00008F42FEF208334C050E0A61780F47FE088
:1047C000749FE001759FD00D1124C052DA4FCA0FBB
:1047D000D11D78811DE0710F08F47FEF78837FE0B1
:1047E000749FE001759FD00D11248E0100521A4F65
:1047F0007801020F131FE801488150E1450F08F4CA
:104800004FEF4883EF3048F4E701CE0FD11D4881C8
:104810005DE0450F08F44FEF4883981708F4A9CFDF
:10482000DF91CF911F910F91FF90EF9008954FE08E
:104830004C9FC0014D9F900D112480529A4FA80F9C
:10484000B92FB11D4C915DE0450F08F44FEF4C932B
:1048500095CF20919702E22FF0E0AF01440F551F52
:10486000289FC0011124880F892F881F990B9195CB
:10487000DA01A61BB1098A0F9B1FBA010E94A85238
:10488000AC018E179F0720F0220F2150822F841B2E
:1048900008950F931F93CF93DF93072F142FD22FD9
:1048A00090919702491740F5C82F60E0822F0E942F
:1048B0002924811739F061E08D2F0E94292481136A
:1048C00009C0C6956D2F702F8C2FDF91CF911F914E
:1048D0000F91089562E08D2F0E942924811303C057
:1048E000C695C695EFCF63E08D2F0E942924C6950B
:1048F000C695C695811731F3C0E0E4CF46E050E09D
:104900006CE170E08CE697E00C94B35346E050E025
:104910006CE170E08CE697E00C94D153ECE6F7E0A4
:1049200085E380838091D5039091D603A091D7032E
:1049300081839283A3838FE784838FEF85830C9495
:10494000862480E008950F931F93CF93DF93C82FA1
:10495000D62F8A010E94A1249FE0C99FB001112493
:104960006C5F7E4F6D0F711DFB0190819F3F29F0A1
:10497000F801E80FF11D90838F5FDF91CF911F91B8
:104980000F910895E0915D04F0915E040994E09127
:104990005904F0915A0409945F926F927F928F921A
:1049A0009F92AF92BF92CF92DF92EF92FF920F93BE
:1049B0001F93CF93DF935C014B01FC01C08184E125
:1049C000C89FC02D112414E11C0FF12E143610F0D5
:1049D00033E6F32E6091700766958091BA07909147
:1049E000BB070E94C71D582ED0E0CF15A0F081E074
:1049F000133608F080E0DF91CF911F910F91FF9067
:104A0000EF90DF90CF90BF90AF909F908F907F906E
:104A10006F905F900895FE01EC5DFD4F8081F50180
:104A200091818923C9F1CE01880F991F8C5F9E4F18
:104A3000FC01E65AFF4F2081422F4A56550B6A016E
:104A4000855A9F4FFC018081282F2052330B39015A
:104A5000449F9001459F300D300D1124669CC0018C
:104A6000679C900D900D1124820F931F0E94D11D01
:104A7000082F60916D0770916E0780916F07E52C8C
:104A80009301A601F40109950E947323462F282F54
:104A9000672FCE010E94C7242196A7CF6DEA72E24C
:104AA0000C94CC2468EC72E20C94CC2460EA7EE195
:104AB0000C94CC2465EF72E20C94CC2462E473E293
:104AC0000C94CC246AE573E20C94CC246CE970E27B
:104AD0000C94CC24AF92BF92CF92DF92EF92FF92D0
:104AE0000F931F93CF93DF936C017B01FC01C08177
:104AF00084E1C89FC02D112414E11C0FB12E14367F
:104B000010F033E6B32E6091700766958091BA0776
:104B10009091BB070E94C71DA82ED0E0CB1578F05E
:104B200081E0133608F080E0DF91CF911F910F9163
:104B3000FF90EF90DF90CF90BF90AF900895FE016F
:104B4000EC5DFD4F8081F6019181892311F1CE0149
:104B5000880F991F8C5F9E4FFC01E55AFF4F208103
:104B60002052330B865A9F4FFC0140814A56550B09
:104B700060916D0770916E0780916F070A2DF701A4
:104B800009950E947323462F282F672FCE010E947C
:104B9000C7242196C3CF60E772E20C946A256EE8C1
:104BA00072E20C946A256EEA7EE10C946A2564EE4A
:104BB00072E20C946A2569E073E20C946A2565E25E
:104BC00073E20C946A256AEA70E20C946A25BF923B
:104BD000CF92DF92EF92FF920F931F93CF93DF93C9
:104BE0007C018B01FC01C08184E1C89FC02D112490
:104BF00094E1D92EDC0ECD2CF3E6FD1510F483E6FE
:104C0000C82E609170076695669521E0620F08F4E2
:104C10006FEF8091BA079091BB070E94C71DB82E15
:104C2000D0E0CC1578F081E092E69D1508F480E0A4
:104C3000DF91CF911F910F91FF90EF90DF90CF9078
:104C4000BF900895FE01EC5DFD4F8081F7019181D9
:104C5000892391F060916D0770916E0780916F07C5
:104C60002B2D4C2FF80109950E947323462F282FD6
:104C7000672FCE010E94C7242196D3CF60E27EE148
:104C80000C94E72569E47EE10C94E72563E77EE177
:104C90000C94E72565E77EE10C94E7256EE77EE15D
:104CA0000C94E72567E87EE10C94E72568E67FE150
:104CB0000C94E7256BE87FE10C94E7256DE570E245
:104CC0000C94E72566E870E20C94E72561E970E250
:104CD0000C94E72561ED70E20C94E72561E071E248
:104CE0000C94E7256EE371E20C94E7257F928F9296
:104CF0009F92AF92BF92CF92DF92EF92FF920F936B
:104D00001F93CF93DF935C016B01FC01C08184E1B1
:104D1000C89FC02D112414E11C0F912E143610F0E1
:104D200033E6932E60917007669566958091BA0779
:104D30009091BB070E94C71DF82E80E48F0D0E9442
:104D4000011E90E8892E880E8F2D0E94011E20E8FA
:104D5000722E780ED0E0C91590F081E0133608F07D
:104D600080E0DF91CF911F910F91FF90EF90DF9046
:104D7000CF90BF90AF909F908F907F900895FE014D
:104D8000EC5DFD4F8081F50191818923A1F0609157
:104D90006D0770916E0780916F07EF2C0C2F272DF8
:104DA000482DF60109950E947323462F282F672F5F
:104DB000CE010E94C7242196CECF66ED7EE10C94F1
:104DC000762663E07FE10C94762661E37FE10C9424
:104DD0007626AF92BF92CF92DF92EF92FF920F931F
:104DE0001F93CF93DF938C017B01FC01C08184E191
:104DF000C89FC02D112424E1B22EBC0EAB2CF3E6CB
:104E0000FB1510F493E6A92E2091700731E0230FD3
:104E100008F42FEF30E050E040E06FEF7FEF80E0EC
:104E200090E00E94D0526901D0E02C2FCA1580F08A
:104E300081E0F2E6FB1508F480E0DF91CF911F914D
:104E40000F91FF90EF90DF90CF90BF90AF900895BB
:104E5000FE01EC5DFD4F8081F8019181892311F104
:104E60004091BE074150042E000C550B47FF1CC05B
:104E7000C6016091700721E0620F08F46FEF0E9495
:104E8000C71DAC0160916D0770916E0780916F072F
:104E9000F70109950E947323462F282F672FCE0113
:104EA0000E94C7242196C1CFFA01E254F84F8189AC
:104EB00082130AC0FA01EE0FFF1FE254F84F818DF2
:104EC000928D8C159D05A8F241505109CFCF6CE908
:104ED0007FE10C94E92663EA7FE10C94E92668E718
:104EE00071E20C94E9262F923F924F925F926F925B
:104EF0007F928F929F92AF92BF92CF92DF92EF926A
:104F0000FF920F931F93CF93DF93CDB7DEB72B970D
:104F10000FB6F894DEBF0FBECDBF8C832B015F832D
:104F20004E83FB01F08184E1F89F802D1124898359
:104F30008C5E8A838B83843610F023E62B8330913A
:104F4000BE073D839981892F90E09B878A87880FD0
:104F5000991FFC01E25AFE4F6F01FC818F2F90E0F8
:104F60009C012F5F3F4F39872887EB81FA85FE1719
:104F7000F0F081E02A81233608F080E02B960FB60E
:104F8000F894DEBF0FBECDBFDF91CF911F910F917F
:104F9000FF90EF90DF90CF90BF90AF909F908F9059
:104FA0007F906F905F904F903F902F900895EA858B
:104FB000FB85EC5DFD4F8081F2019181892301F138
:104FC00020906D0730906E07288539852254384F20
:104FD00039013C81398310E029813D812317C8F0D4
:104FE00020916F07129F112D1124B101812F0E9472
:104FF0007323462F282F672F8A859B850E94C724FD
:105000008A859B8501969B878A8792E0C90ED11C71
:10501000ACCFF30181913F01F601A080A81ABB0833
:105020008180F3018781881A9908AA9C9001AB9C22
:10503000300D300D1124889CC001899C900D900D7D
:105040001124820F931F0E94D11D082F60917007B9
:1050500021E0620F08F46FEFF301EE0FFF1FEE5B2C
:10506000F740858996890E94C71D7C019401A5019E
:10507000B101812FEE81FF8109951B01F981FF5F4D
:10508000F983182FA9CF2091BE0731E0231B08F424
:1050900020E049EA5FE1BC01822F0C94732749EAC2
:1050A0005FE1BC0180E00C9473272091BE0731E0E2
:1050B000231B08F420E042EC5FE1BC01822F0C943A
:1050C000732742EC5FE1BC0180E00C9473272091D0
:1050D000BE0731E0231B08F420E04DEF5FE1BC0187
:1050E000822F0C9473274DEF5FE1BC0180E00C949C
:1050F00073272091BE0731E0231B08F420E04FE224
:1051000050E2BC01822F0C9473274FE250E2BC01A5
:1051100080E00C9473272091BE0731E0231B08F434
:1051200020E047E450E2BC01822F0C94732747E44F
:1051300050E2BC0180E00C9473272F923F924F9273
:105140005F926F927F928F929F92AF92BF92CF9217
:10515000DF92EF92FF920F931F93CF93DF93CDB720
:10516000DEB72D970FB6F894DEBF0FBECDBF8B8391
:105170007D836C8359874887FB01F08184E1F89F28
:10518000802D11248A878C5E89838A83843610F06F
:1051900023E62A83609170076695669521E0620F89
:1051A00008F46FEF8091BA079091BB070E94C71D6A
:1051B0008E833091BE073F839A85892F90E09D872B
:1051C0008C87880F991FFC01E25AFE4F5F01FB811B
:1051D0008F2F90E09C012F5F3F4F3B872A878A816A
:1051E0009C859817F0F081E0E981E33608F080E0D3
:1051F0002D960FB6F894DEBF0FBECDBFDF91CF91D5
:105200001F910F91FF90EF90DF90CF90BF90AF90E4
:105210009F908F907F906F905F904F903F902F90D6
:105220000895EC85FD85EC5DFD4F8081EC81FD816D
:1052300091818923F9F030906D07D0906E072A850F
:105240003B852254384F29012B8010E0FF812F1617
:10525000D8F020916F07129F112D1124632D7D2D01
:10526000812F0E947323462F282F672F8C859D85C1
:105270000E94C7242C853D852F5F3F4F3D872C879B
:1052800032E0A30EB11CABCFF20181912F01F501E9
:105290008080881A99086180F2018781681A7708EE
:1052A000889C9001899C300D300D1124669CC001B2
:1052B000679C900D900D1124820F931F0E94D11DA9
:1052C000082F6091700721E0620F08F46FEFF20180
:1052D000EE0FFF1FEE5BF740858996890E94C71D80
:1052E000CE807C019301A401632D7D2D812FE88563
:1052F000F9850995362ED72E2394182FA7CF48E984
:1053000051E2BC0180E00C949D2844EB51E2BC01C9
:1053100080E00C949D2842EF51E2BC0180E00C94A7
:105320009D2844E252E2BC0180E00C949D28BF928B
:10533000CF92DF92EF92FF920F931F93CF93DF9361
:105340007C01FC01C08184E1C89FC02D112414E1BF
:105350001C0F012F143608F003E660916D07709161
:105360006E0780916F070E947323D62EC72EB82E2A
:10537000D0E0C01770F081E0133608F080E0DF91D4
:10538000CF911F910F91FF90EF90DF90CF90BF9042
:105390000895FE01EC5DFD4F8081F7019181892325
:1053A00031F02B2D4D2D6C2DCE010E94C72421965E
:1053B000E0CF8F929F92AF92BF92CF92DF92EF9207
:1053C000FF920F931F93CF93DF937C01FC01C08169
:1053D00084E1C89FC02D112414E11C0F012F143645
:1053E00008F003E6C0906E07D0906F07D0916D076C
:1053F0006D2F7C2D8D2D0E947323B62EA72E982EF7
:10540000609170076D0F7C2D8D2D0E947323D62E19
:10541000C72E882ED0E0C01788F081E0133608F040
:1054200080E0DF91CF911F910F91FF90EF90DF907F
:10543000CF90BF90AF909F908F900895FE01EC5D4C
:10544000FD4F9081F7018181892359F0282D4D2D41
:105450006C2D90FD03C0292D4B2D6A2DCE010E948D
:10546000C7242196D8CFBF92CF92DF92EF92FF92BE
:105470000F931F93CF93DF937C01FC01C08184E1E4
:10548000C89FC02D112414E11C0FD12E143610F02A
:1054900093E6D92EC0906E07B0906F0720917007E9
:1054A00000E4029F012D1124D0E0CD1570F081E0C1
:1054B000133608F080E0DF91CF911F910F91FF909C
:1054C000EF90DF90CF90BF900895FE01EC5DFD4F0F
:1054D0008081F70191818923B9F0FE01EE0FFF1F52
:1054E000E15AFE4F808182958F7060916D07809F99
:1054F000600D11247C2D8B2D0E947323462F282FA5
:10550000672FCE010E94C7242196CFCFBF92CF92A2
:10551000DF92EF92FF920F931F93CF93DF938C0153
:10552000FC01C08184E1C89FC02D112454E1F52EF7
:10553000FC0EDF2CF3E6FF1510F443E6D42EC090EA
:105540006E07B0906F072091700730E4E32E3E2D78
:10555000329F312D1124E32ED0E0CD1578F081E07B
:1055600032E63F1508F480E0DF91CF911F910F9153
:10557000FF90EF90DF90CF90BF900895FE01EC5D1B
:10558000FD4F8081F80191818923D9F0FE01EE0F52
:10559000FF1FE25AFE4F6081E69EB001112495E0A4
:1055A000759567959A95E1F780916D07680F7C2D49
:1055B0008B2D0E947323462F282F672FCE010E9428
:1055C000C7242196CACFBF92CF92DF92EF92FF926B
:1055D0000F931F93CF93DF938C01FC01C08184E173
:1055E000C89FC02D112494E1F92EFC0EEF2CF3E698
:1055F000FF1510F483E6E82ED0906D07D0916E076A
:10560000C0906F076091700766956695669580916A
:10561000BA079091BB070E94C71D0E94011E8058C7
:1056200087FD8195880F282F3C2D239F212D112444
:10563000822F6D2D7D2F0E947323D62EC72EB82E5C
:10564000D0E0CE1578F081E022E62F1508F480E056
:10565000DF91CF911F910F91FF90EF90DF90CF904E
:10566000BF900895FE01EC5DFD4F8081F8019181AE
:10567000892331F02B2D4D2D6C2DCE010E94C72496
:105680002196DFCFDF92EF92FF920F931F93CF937C
:10569000DF938C01FC01EC5DFD4F8081682381F17B
:1056A000D0906E07D0916F07C0916D07EC2EF12C52
:1056B0000E948E53282FC7018C549F4F68E671E0DB
:1056C0000E94BC528E199F0997FD03969595879568
:1056D0009595879523706C2F289F600D11247D2D43
:1056E0008D2F0E947323462F282F672FC801DF912B
:1056F000CF911F910F91FF90EF90DF900C94C724F2
:10570000DF91CF911F910F91FF90EF90DF9008955F
:10571000DF92EF92FF920F931F93CF93DF938C0151
:10572000FC01C281C11125C06091700720E1620FA8
:1057300008F46FEF8091BA079091BB070E94C71DD4
:105740006AE070E00E94A852892B51F40E948E53A7
:1057500063E670E00E94BC52F80161810E94422B16
:105760008C2FDF91CF911F910F91FF90EF90DF90E1
:105770000895C08184E1C89FC02D112484E1D82EF2
:10578000DC0E8D2DF3E6FD1508F483E6D0E0E82E5F
:10579000F12CCE15DF0534F0C1E0F2E6FD1500F77F
:1057A000C0E0DECFF8016181CE010E94422B21963C
:1057B000F0CF1F93CF93DF93EC01FC01EC5DFD4F25
:1057C00080816823C9F00E948E53182F0E948E5347
:1057D0008F77782F20E8720F08F47FEF612F809188
:1057E0006F070E947323462F282F672FCE01DF916A
:1057F000CF911F910C94C724DF91CF911F910895F1
:10580000DF92EF92FF920F931F93CF93DF938C0160
:10581000FC01C281C11125C06091700720E1620FB7
:1058200008F46FEF8091BA079091BB070E94C71DE3
:1058300065E070E00E94A852892B51F40E948E53BB
:1058400063E670E00E94BC52F80161810E94D92B8E
:105850008C2FDF91CF911F910F91FF90EF90DF90F0
:105860000895C08184E1C89FC02D112484E1D82E01
:10587000DC0E8D2DF3E6FD1508F483E6D0E0E82E6E
:10588000F12CCE15DF0534F0C1E0F2E6FD1500F78E
:10589000C0E0DECFF8016181CE010E94D92B2196B4
:1058A000F0CFBF92CF92DF92EF92FF920F931F93B0
:1058B000CF93DF937C01FC01C08184E1C89FC02DA0
:1058C000112414E11C0F012F143608F003E6C090D8
:1058D0006E07D0906F07D0916D0760917007669545
:1058E000669566958091BA079091BB070E94C71D87
:1058F0000E94011E805887FD8195880F682F2CE03B
:10590000629F612D11246D0F7C2D8D2D0E94C41D71
:10591000D62EC72EB82ED0E0C01770F081E0133617
:1059200008F080E0DF91CF911F910F91FF90EF90F1
:10593000DF90CF90BF900895FE01EC5DFD4F808118
:10594000F7019181892331F02B2D4D2D6C2DCE0146
:105950000E94C7242196E0CF8F929F92AF92BF9270
:10596000CF92DF92EF92FF920F931F93CF93DF932B
:10597000FC01C08184E1C89FC02D112494E1F92E5F
:10598000FC0EEF2CF3E6FF1510F483E6E82E0C2F47
:1059900010E083E0C89FE0011124C156DD4F0E15D1
:1059A00090F081E092E69F1508F480E0DF91CF91BE
:1059B0001F910F91FF90EF90DF90CF90BF90AF902D
:1059C0009F908F90089560916F0770E090E080E065
:1059D0000E94605120E030E04FE753E40E94BF5046
:1059E0004B015C016A8170E090E080E00E946251AE
:1059F000A50194010E942F520E943151D62E688138
:105A000070E090E080E00E946251A50194010E9444
:105A10002F520E943151C62E698170E090E080E0E3
:105A20000E946251A50194010E942F520E9431519F
:105A30002D2D4C2DC8010E94C72423960F5F1F4FA8
:105A4000AECFEF92FF920F931F93CF93DF93FC01A2
:105A5000908114E1919F100D1124C0916E07009167
:105A60006F07A0917007A695A695A6952091BA07F5
:105A70003091BB074091BC075091BD07B0E00E9438
:105A8000FF52872F0E94011E805887FD8195880F45
:105A9000282F209F212D1124822F90919802992345
:105AA00071F02093CA062091C9062093CB06285F87
:105AB0002093C90621E09227909398020CC0909100
:105AC00099022091CA06821728F1992349F121E011
:105AD0009227909399026091CB067C2F0E94C41D5F
